{
  "_format": "hh-sol-artifact-1",
  "contractName": "OrderBook",
  "sourceName": "contracts/OrderBook.sol",
  "abi": [
    {
      "inputs": [
        {
          "internalType": "contract IERC20",
          "name": "_standardToken",
          "type": "address"
        }
      ],
      "stateMutability": "nonpayable",
      "type": "constructor"
    },
    {
      "inputs": [
        {
          "internalType": "uint256",
          "name": "_tick",
          "type": "uint256"
        },
        {
          "internalType": "uint256",
          "name": "_amountIn",
          "type": "uint256"
        },
        {
          "internalType": "uint256",
          "name": "_nonce",
          "type": "uint256"
        }
      ],
      "name": "prepareTransfers",
      "outputs": [
        {
          "internalType": "bytes32[16]",
          "name": "hashes",
          "type": "bytes32[16]"
        },
        {
          "internalType": "uint256[16]",
          "name": "ids",
          "type": "uint256[16]"
        },
        {
          "internalType": "uint256",
          "name": "quote",
          "type": "uint256"
        },
        {
          "internalType": "uint256[16]",
          "name": "nonces",
          "type": "uint256[16]"
        }
      ],
      "stateMutability": "view",
      "type": "function"
    },
    {
      "inputs": [
        {
          "internalType": "uint256",
          "name": "_tick",
          "type": "uint256"
        },
        {
          "internalType": "uint256[]",
          "name": "_ids",
          "type": "uint256[]"
        },
        {
          "internalType": "uint256[]",
          "name": "_nonces",
          "type": "uint256[]"
        },
        {
          "internalType": "bytes[]",
          "name": "_sigs",
          "type": "bytes[]"
        }
      ],
      "name": "swapOff",
      "outputs": [],
      "stateMutability": "nonpayable",
      "type": "function"
    },
    {
      "inputs": [
        {
          "internalType": "uint256",
          "name": "_tick",
          "type": "uint256"
        },
        {
          "internalType": "uint256",
          "name": "_amountIn",
          "type": "uint256"
        }
      ],
      "name": "swapOn",
      "outputs": [],
      "stateMutability": "nonpayable",
      "type": "function"
    }
  ],
  "bytecode": "0x60806040523461002f57610019610014610106565b6101a2565b610021610034565b6116d36101b082396116d390f35b61003a565b60405190565b600080fd5b601f801991011690565b634e487b7160e01b600052604160045260246000fd5b906100699061003f565b810190811060018060401b0382111761008157604052565b610049565b90610099610092610034565b928361005f565b565b600080fd5b60018060a01b031690565b6100b4906100a0565b90565b6100c0906100ab565b90565b6100cc816100b7565b036100d357565b600080fd5b905051906100e5826100c3565b565b90602082820312610101576100fe916000016100d8565b90565b61009b565b6101246118838038038061011981610086565b9283398101906100e7565b90565b60001b90565b9061013e60018060a01b0391610127565b9181191691161790565b90565b61015f61015a610164926100a0565b610148565b6100a0565b90565b6101709061014b565b90565b61017c90610167565b90565b90565b9061019761019261019e92610173565b61017f565b825461012d565b9055565b6101ad906001610182565b56fe60806040526004361015610013575b6105be565b61001e60003561004d565b80637ce3d0da1461004857806380901ecd146100435763f27370160361000e57610584565b6103c6565b610361565b60e01c90565b60405190565b600080fd5b600080fd5b600080fd5b90565b61007481610068565b0361007b57565b600080fd5b9050359061008d8261006b565b565b600080fd5b601f801991011690565b634e487b7160e01b600052604160045260246000fd5b906100be90610094565b810190811067ffffffffffffffff8211176100d857604052565b61009e565b906100f06100e9610053565b92836100b4565b565b67ffffffffffffffff811161010a5760208091020190565b61009e565b600080fd5b90929192610129610124826100f2565b6100dd565b938185526020808601920283019281841161016657915b83831061014d5750505050565b6020809161015b8486610080565b815201920191610140565b61010f565b9080601f830112156101895781602061018693359101610114565b90565b61008f565b67ffffffffffffffff81116101a65760208091020190565b61009e565b600080fd5b67ffffffffffffffff81116101ce576101ca602091610094565b0190565b61009e565b90826000939282370152565b909291926101f46101ef826101b0565b6100dd565b938185526020850190828401116102105761020e926101d3565b565b6101ab565b9080601f8301121561023357816020610230933591016101df565b90565b61008f565b92919061024c6102478261018e565b6100dd565b93818552602080860192028101918383116102a35781905b838210610272575050505050565b813567ffffffffffffffff811161029e576020916102938784938701610215565b815201910190610264565b61008f565b61010f565b9080601f830112156102c6578160206102c393359101610238565b90565b61008f565b90608082820312610356576102e38160008401610080565b92602083013567ffffffffffffffff8111610351578261030491850161016b565b92604081013567ffffffffffffffff811161034c578361032591830161016b565b92606082013567ffffffffffffffff81116103475761034492016102a8565b90565b610063565b610063565b610063565b61005e565b60000190565b346103935761037d6103743660046102cb565b92919091610c67565b610385610053565b8061038f8161035b565b0390f35b610059565b91906040838203126103c157806103b56103be9260008601610080565b93602001610080565b90565b61005e565b346103f5576103df6103d9366004610398565b90611197565b6103e7610053565b806103f18161035b565b0390f35b610059565b90916060828403126104305761042d6104168460008501610080565b936104248160208601610080565b93604001610080565b90565b61005e565b50601090565b905090565b90565b90565b61044f90610443565b9052565b9061046081602093610446565b0190565b60200190565b61048661048061047983610435565b809461043b565b91610440565b6000915b8383106104975750505050565b6104ad6104a76001928451610453565b92610464565b9201919061048a565b50601090565b905090565b90565b6104cd90610068565b9052565b906104de816020936104c4565b0190565b60200190565b6105046104fe6104f7836104b6565b80946104bc565b916104c1565b6000915b8383106105155750505050565b61052b61052560019284516104d1565b926104e2565b92019190610508565b61053d90610068565b9052565b61057b610582946105706104209498979561056561062086019a600087019061046a565b6102008501906104e8565b610400830190610534565b01906104e8565b565b346105b9576105b56105a061059a3660046103fa565b91611444565b906105ac949294610053565b94859485610541565b0390f35b610059565b600080fd5b90565b90565b6105dd6105d86105e2926105c3565b6105c6565b610068565b90565b600090565b634e487b7160e01b600052601160045260246000fd5b61060990610068565b60001981146106185760010190565b6105ea565b61063161062c61063692610068565b6105c6565b610068565b90565b906106439061061d565b600052602052604060002090565b5490565b61065e90610068565b6000811461066d576001900390565b6105ea565b600161067e9101610068565b90565b5190565b634e487b7160e01b600052603260045260246000fd5b906106a582610681565b8110156106b6576020809102010190565b610685565b6106c59051610068565b90565b600052602060002090565b6106dc81610651565b8210156106f7576106ee6003916106c8565b91020190600090565b610685565b60001c90565b90565b610711610716916106fc565b610702565b90565b6107239054610705565b90565b151590565b60018060a01b031690565b610742610747916106fc565b61072b565b90565b6107549054610736565b90565b60018060a01b031690565b61077661077161077b92610757565b6105c6565b610757565b90565b61078790610762565b90565b6107939061077e565b90565b60018060a01b031690565b6107ad6107b2916106fc565b610796565b90565b6107bf90546107a1565b90565b5190565b906107d0826107c2565b8110156107e1576020809102010190565b610685565b60e01b90565b6107f581610726565b036107fc57565b600080fd5b9050519061080e826107ec565b565b9060208282031261082a5761082791600001610801565b90565b61005e565b61083890610757565b90565b6108449061082f565b9052565b5190565b60209181520190565b60005b838110610869575050906000910152565b806020918301518185015201610858565b6108996108a26020936108a79361089081610848565b9384809361084c565b95869101610855565b610094565b0190565b6108fa946108e5829897956108db6080966108d16108f297600060a0890198019061083b565b60208c019061083b565b60408a0190610534565b878203606089015261087a565b940190610534565b565b610904610053565b3d6000823e3d90fd5b90565b61092461091f6109299261090d565b6105c6565b610068565b90565b61093b61094191939293610068565b92610068565b820391821161094c57565b6105ea565b634e487b7160e01b600052600060045260246000fd5b60001b90565b9061097a60001991610967565b9181191691161790565b90565b9061099c6109976109a39261061d565b610984565b825461096d565b9055565b906109b860018060a01b0391610967565b9181191691161790565b6109cb9061077e565b90565b90565b906109e66109e16109ed926109c2565b6109ce565b82546109a7565b9055565b908082036109fe575b5050565b610a4260028084610a216000610a489701610a1b60008801610719565b90610987565b610a3a60018201610a34600188016107b5565b906109d1565b019201610719565b90610987565b38806109fa565b9190610a6057610a5e916109f1565b565b610951565b90565b634e487b7160e01b600052603160045260246000fd5b5490565b600052602060002090565b610a9681610a7e565b821015610ab157610aa8600391610a82565b91020190600090565b610685565b1b90565b91906008610ad6910291610ad060001984610ab6565b92610ab6565b9181191691161790565b9190610af6610af1610afe9361061d565b610984565b908354610aba565b9055565b610b1491610b0e6105e5565b91610ae0565b565b60006002610b3692610b2a83808301610b02565b82600182015501610b02565b565b90600003610b4b57610b4990610b16565b565b610951565b610b5981610a7e565b8015610b7a576001900390610b77610b718383610a8d565b90610b38565b55565b610a68565b90565b610b96610b91610b9b92610b7f565b6105c6565b610068565b90565b610bad610bb391939293610068565b92610068565b91610bbf838202610068565b928184041490151715610bce57565b6105ea565b634e487b7160e01b600052601260045260246000fd5b610bf5610bfb91610068565b91610068565b908115610c06570490565b610bd3565b60018060a01b031690565b610c22610c27916106fc565b610c0b565b90565b610c349054610c16565b90565b610c409061077e565b90565b916020610c65929493610c5e6040820196600083019061083b565b0190610534565b565b9091939293600092610c7960006105c9565b610c816105e5565b945b85610ca9610ca3610c9e610c9960038a90610639565b610651565b610068565b91610068565b1015610f085780610ef5575b610cbd6105e5565b91600097610cc96105e5565b5b80610ce5610cdf610cda89610681565b610068565b91610068565b1015610ee55787610d30610d2a610d256002610d1e8e610d19610d11610d0c8f8b9061069b565b6106bb565b976003610639565b6106d3565b5001610719565b610068565b91610068565b14610d4357610d3e90610672565b610cca565b509250958093975090610d5860015b15610726565b610eda5750610d67600061074a565b610d709061078a565b63b052b8df3390600388610d8391610639565b86610d8d916106d3565b50600101610d9a906107b5565b91600389610da791610639565b87610db1916106d3565b50600001610dbe90610719565b948c81610dca916107c6565b51908990610dd79161069b565b610de0906106bb565b90610de9610053565b968795610df687966107e6565b86526004860194610e06956108ab565b03815a602094600091f18015610ed557610ea9575b50610e78610e5b610e2e60038790610639565b610e55610e45610e4060038a90610639565b610651565b610e4f6001610910565b9061092c565b906106d3565b50610e72610e6b60038890610639565b85906106d3565b90610a4f565b610e94610e8f610e8a60038790610639565b610a65565b610b50565b610ea06001925b610600565b94909591610c83565b610ec99060203d8111610ece575b610ec181836100b4565b810190610810565b610e1b565b503d610eb7565b6108fc565b92610ea09150610e9b565b50929190969397610d5890610d52565b5093610f0090610655565b936000610cb5565b50915050610f2d939450610f28919250610f226064610b82565b90610b9e565b610be9565b6020610f41610f3c6001610c2a565b610c37565b9163a9059cbb92610f676000339395610f72610f5b610053565b978896879586946107e6565b845260048401610c43565b03925af18015610fb057610f84575b50565b610fa49060203d8111610fa9575b610f9c81836100b4565b810190610810565b610f81565b503d610f92565b6108fc565b610fbf60606100dd565b90565b600090565b600090565b610fd4610fb5565b906020808084610fe2610fc2565b815201610fed610fc7565b815201610ff8610fc2565b81525050565b611006610fcc565b90565b9061101390610068565b9052565b60209181520190565b60007f4f7264657220746f6f20736d616c6c2e00000000000000000000000000000000910152565b6110556010602092611017565b61105e81611020565b0190565b6110789060208101906000818303910152611048565b90565b1561108257565b61108a610053565b62461bcd60e51b8152806110a060048201611062565b0390fd5b906110ae9061082f565b9052565b6110bb9061077e565b90565b6040906110e86110ef94969593966110de6060840198600085019061083b565b602083019061083b565b0190610534565b565b6110fb905161082f565b90565b906111446040600261114a946111236000820161111d600088016106bb565b90610987565b61113c60018201611136602088016110f1565b906109d1565b0192016106bb565b90610987565b565b919061115d5761115b916110fe565b565b610951565b9081549168010000000000000000831015611192578261118a91600161119095018155610a8d565b9061114c565b565b61009e565b906111a0610ffe565b906111cb6111c2826111bc866111b66064610b82565b90610be9565b90610b9e565b60008401611009565b6111f36111da600084016106bb565b6111ed6111e760006105c9565b91610068565b1161107b565b61120033602084016110a4565b61120d4260408401611009565b602061122161121c6001610c2a565b610c37565b6323b872dd9061124f6000339361125a61123a306110b2565b97611243610053565b988997889687956107e6565b8552600485016110be565b03925af180156112b557611287936112829261127d92611289575b506003610639565b610a65565b611162565b565b6112a99060203d81116112ae575b6112a181836100b4565b810190610810565b611275565b503d611297565b6108fc565b67ffffffffffffffff81116112cf5760200290565b61009e565b6112e06112e5916112ba565b6100dd565b90565b369037565b9061130b6112fa836112d4565b9261130584916112ba565b906112e8565b565b61131760106112ed565b90565b67ffffffffffffffff811161132f5760200290565b61009e565b6113406113459161131a565b6100dd565b90565b369037565b9061136b61135a83611334565b92611365849161131a565b90611348565b565b611377601061134d565b90565b61138381610443565b0361138a57565b600080fd5b9050519061139c8261137a565b565b906020828203126113b8576113b59160000161138f565b90565b61005e565b6113f36113fa946113e96060949897956113df608086019a600087019061083b565b602085019061083b565b6040830190610534565b0190610534565b565b9061140682610435565b811015611414576020020190565b610685565b9061142390610443565b9052565b90611431826104b6565b81101561143f576020020190565b610685565b91909261144f61130d565b9361145861136d565b926114616105e5565b5061146a61136d565b91809161147760006105c9565b906114806105e5565b5b806114a66114a061149b6114968d6003610639565b610651565b610068565b91610068565b101561168d57886114cf60006114c86114c160038590610639565b85906106d3565b5001610719565b6114e16114db88610068565b91610068565b11156114f7575b506114f290610672565b611481565b909160208261150e611509600061074a565b61078a565b6115728661157d61155c600061155561154e611546600161153f63f34d85e49861153a339d6003610639565b6106d3565b50016107b5565b9b6003610639565b8c906106d3565b5001610719565b8790611566610053565b998a97889687966107e6565b8652600486016113bd565b03915afa8015611688576115d860026115d16115ca8f8f996115bd6115c2926115b86115ea996116269c60009161165a575b508490926113fc565b611419565b610600565b986003610639565b87906106d3565b5001610719565b6115e58b91879092611427565b611009565b6116218a61161c89611615600261160e6116078894966003610639565b8a906106d3565b5001610719565b9092611427565b611009565b610600565b908461163b61163560006105c9565b91610068565b1461164657886114e8565b50505061165792939495505b61092c565b91565b61167b915060203d8111611681575b61167381836100b4565b81019061139e565b386115af565b503d611669565b6108fc565b505050611657929394955061165256fea2646970667358221220bfe3d265b3309998b643d3a567e34137e64594be72aab39ac49b1ec6ac394dd064736f6c634300081b0033",
  "linkReferences": {},
  "deployedLinkReferences": {}
}