{"contracts/ViaductCore.sol":{"ViaductCore":{"abi":[{"inputs":[{"internalType":"bool","name":"_isRoot","type":"bool"},{"internalType":"uint256","name":"_genesisTimestamp","type":"uint256"},{"internalType":"bool","name":"_forTesting","type":"bool"}],"stateMutability":"nonpayable","type":"constructor"},{"anonymous":false,"inputs":[{"indexed":false,"internalType":"address","name":"_from","type":"address"},{"indexed":false,"internalType":"address","name":"_to","type":"address"},{"indexed":false,"internalType":"uint256","name":"_value","type":"uint256"},{"indexed":false,"internalType":"bytes","name":"_sig","type":"bytes"},{"indexed":false,"internalType":"uint256","name":"nonce","type":"uint256"}],"name":"ChallengedTransfer","type":"event"},{"anonymous":false,"inputs":[{"indexed":false,"internalType":"address","name":"_from","type":"address"},{"indexed":false,"internalType":"address","name":"_to","type":"address"},{"indexed":false,"internalType":"uint256","name":"_value","type":"uint256"},{"indexed":false,"internalType":"bytes","name":"_sig","type":"bytes"},{"indexed":false,"internalType":"uint256","name":"nonce","type":"uint256"}],"name":"ObjectiveTransfer","type":"event"},{"inputs":[{"internalType":"address","name":"_owner","type":"address"}],"name":"balanceOf","outputs":[{"internalType":"uint256","name":"","type":"uint256"}],"stateMutability":"view","type":"function"},{"inputs":[{"internalType":"bytes32","name":"_messageHash","type":"bytes32"}],"name":"calculateSignedMessageHash","outputs":[{"internalType":"bytes32","name":"","type":"bytes32"}],"stateMutability":"pure","type":"function"},{"inputs":[],"name":"canPropose","outputs":[{"internalType":"bool","name":"","type":"bool"}],"stateMutability":"view","type":"function"},{"inputs":[{"internalType":"address","name":"_from","type":"address"},{"internalType":"address","name":"_to","type":"address"},{"internalType":"uint256","name":"_value","type":"uint256"},{"internalType":"bytes","name":"_sig","type":"bytes"},{"internalType":"uint256","name":"_nonce","type":"uint256"}],"name":"challengeAndRecord","outputs":[{"internalType":"bool","name":"success","type":"bool"}],"stateMutability":"nonpayable","type":"function"},{"inputs":[],"name":"cleanChallengeWindow","outputs":[],"stateMutability":"nonpayable","type":"function"},{"inputs":[],"name":"decimals","outputs":[{"internalType":"uint256","name":"","type":"uint256"}],"stateMutability":"pure","type":"function"},{"inputs":[{"internalType":"address","name":"_from","type":"address"},{"internalType":"address","name":"_to","type":"address"},{"internalType":"uint256","name":"_value","type":"uint256"},{"internalType":"uint256","name":"_nonce","type":"uint256"}],"name":"getValidHash","outputs":[{"internalType":"bytes32","name":"messageHash","type":"bytes32"}],"stateMutability":"pure","type":"function"},{"inputs":[],"name":"name","outputs":[{"internalType":"string","name":"","type":"string"}],"stateMutability":"pure","type":"function"},{"inputs":[{"internalType":"address","name":"_from","type":"address"},{"internalType":"address","name":"_to","type":"address"},{"internalType":"uint256","name":"_value","type":"uint256"},{"internalType":"bytes","name":"_sig","type":"bytes"},{"internalType":"uint256","name":"_nonce","type":"uint256"}],"name":"objectiveTransfer","outputs":[{"internalType":"bool","name":"success","type":"bool"}],"stateMutability":"nonpayable","type":"function"},{"inputs":[],"name":"pendingTransferCount","outputs":[{"internalType":"uint256","name":"","type":"uint256"}],"stateMutability":"view","type":"function"},{"inputs":[{"internalType":"bytes32","name":"_signedMessageHash","type":"bytes32"},{"internalType":"bytes","name":"_signature","type":"bytes"}],"name":"recoverSigner","outputs":[{"internalType":"address","name":"","type":"address"}],"stateMutability":"pure","type":"function"},{"inputs":[{"internalType":"bytes","name":"sig","type":"bytes"}],"name":"splitSignature","outputs":[{"internalType":"bytes32","name":"r","type":"bytes32"},{"internalType":"bytes32","name":"s","type":"bytes32"},{"internalType":"uint8","name":"v","type":"uint8"}],"stateMutability":"pure","type":"function"},{"inputs":[],"name":"symbol","outputs":[{"internalType":"string","name":"","type":"string"}],"stateMutability":"pure","type":"function"},{"inputs":[],"name":"totalSupply","outputs":[{"internalType":"uint256","name":"","type":"uint256"}],"stateMutability":"pure","type":"function"},{"inputs":[{"internalType":"address","name":"","type":"address"},{"internalType":"uint256","name":"","type":"uint256"}],"name":"transfer","outputs":[{"internalType":"bool","name":"","type":"bool"}],"stateMutability":"pure","type":"function"},{"inputs":[{"internalType":"address","name":"","type":"address"},{"internalType":"address","name":"","type":"address"},{"internalType":"uint256","name":"","type":"uint256"}],"name":"transferFrom","outputs":[{"internalType":"bool","name":"","type":"bool"}],"stateMutability":"pure","type":"function"},{"inputs":[{"internalType":"address","name":"_signer","type":"address"},{"internalType":"bytes32","name":"_hash","type":"bytes32"},{"internalType":"bytes","name":"_signature","type":"bytes"}],"name":"verify","outputs":[{"internalType":"bool","name":"","type":"bool"}],"stateMutability":"pure","type":"function"},{"inputs":[{"components":[{"internalType":"address","name":"from","type":"address"},{"internalType":"address","name":"to","type":"address"},{"internalType":"uint256","name":"amount","type":"uint256"},{"internalType":"bytes","name":"sig","type":"bytes"},{"internalType":"uint256","name":"nonce","type":"uint256"},{"internalType":"uint256","name":"timestamp","type":"uint256"},{"internalType":"bool","name":"problematic","type":"bool"}],"internalType":"struct ViaductCore.Transfer","name":"_transfer","type":"tuple"},{"internalType":"bytes","name":"_signature","type":"bytes"}],"name":"verifyTransfer","outputs":[{"internalType":"bool","name":"","type":"bool"}],"stateMutability":"pure","type":"function"}],"evm":{"bytecode":{"linkReferences":{},"object":"60c0604052346100495761001a610014610145565b91610253565b61002261004e565b612b536102858239608051818181610f20015261229b015260a05181610f7a0152612b5390f35b610054565b60405190565b600080fd5b601f801991011690565b634e487b7160e01b600052604160045260246000fd5b9061008390610059565b810190811060018060401b0382111761009b57604052565b610063565b906100b36100ac61004e565b9283610079565b565b600080fd5b151590565b6100c8816100ba565b036100cf57565b600080fd5b905051906100e1826100bf565b565b90565b6100ef816100e3565b036100f657565b600080fd5b90505190610108826100e6565b565b90916060828403126101405761013d61012684600085016100d4565b9361013481602086016100fb565b936040016100d4565b90565b6100b5565b610163612dd880380380610158816100a0565b92833981019061010a565b909192565b90565b90565b61018261017d61018792610168565b61016b565b6100e3565b90565b61019d69021e19e0c9bab240000061016e565b90565b60018060a01b031690565b6101bf6101ba6101c4926101a0565b61016b565b6101a0565b90565b6101d0906101ab565b90565b6101dc906101c7565b90565b906101e9906101d3565b600052602052604060002090565b60001b90565b9061020a600019916101f7565b9181191691161790565b61022861022361022d926100e3565b61016b565b6100e3565b90565b90565b9061024861024361024f92610214565b610230565b82546101fd565b9055565b919091610263575b60a052608052565b61027f61026e61018a565b61027a600333906101df565b610233565b61025b56fe60806040526004361015610013575b610b72565b61001e60003561013d565b806306fdde031461013857806318160ddd146101335780631a86b5501461012e57806323b872dd14610129578063313ce5671461012457806345e872b61461011f57806370a082311461011a57806376e1480414610115578063782168591461011057806395d89b411461010b57806397aba7f914610106578063a7bb580314610101578063a9059cbb146100fc578063b052b8df146100f7578063b63e56de146100f2578063c03ab09c146100ed578063e0ea0ee2146100e85763f34d85e40361000e57610b39565b610abf565b610a80565b610a4b565b610a12565b61096c565b610906565b610854565b6107b6565b610780565b61060b565b6105d6565b610582565b61050b565b6104d5565b610440565b610244565b6101e9565b60e01c90565b60405190565b600080fd5b600080fd5b600091031261015e57565b61014e565b5190565b60209181520190565b60005b838110610184575050906000910152565b806020918301518185015201610173565b601f801991011690565b6101be6101c76020936101cc936101b581610163565b93848093610167565b95869101610170565b610195565b0190565b6101e6916020820191600081840391015261019f565b90565b34610219576101f9366004610153565b610215610204610c02565b61020c610143565b918291826101d0565b0390f35b610149565b90565b61022a9061021e565b9052565b919061024290600060208501940190610221565b565b3461027457610254366004610153565b61027061025f610c53565b610267610143565b9182918261022e565b0390f35b610149565b600080fd5b60018060a01b031690565b6102929061027e565b90565b61029e81610289565b036102a557565b600080fd5b905035906102b782610295565b565b90565b6102c5816102b9565b036102cc57565b600080fd5b905035906102de826102bc565b565b600080fd5b600080fd5b634e487b7160e01b600052604160045260246000fd5b9061030a90610195565b810190811067ffffffffffffffff82111761032457604052565b6102ea565b9061033c610335610143565b9283610300565b565b67ffffffffffffffff811161035c57610358602091610195565b0190565b6102ea565b90826000939282370152565b9092919261038261037d8261033e565b610329565b9381855260208501908284011161039e5761039c92610361565b565b6102e5565b9080601f830112156103c1578160206103be9335910161036d565b90565b6102e0565b91606083830312610413576103de82600085016102aa565b926103ec83602083016102d1565b92604082013567ffffffffffffffff811161040e5761040b92016103a3565b90565b610279565b61014e565b151590565b61042690610418565b9052565b919061043e9060006020850194019061041d565b565b346104715761046d61045c6104563660046103c6565b91610c6c565b610464610143565b9182918261042a565b0390f35b610149565b61047f8161021e565b0361048657565b600080fd5b9050359061049882610476565b565b90916060828403126104d0576104cd6104b684600085016102aa565b936104c481602086016102aa565b9360400161048b565b90565b61014e565b34610506576105026104f16104eb36600461049a565b91610c96565b6104f9610143565b9182918261042a565b0390f35b610149565b3461053b5761051b366004610153565b610537610526610cc6565b61052e610143565b9182918261022e565b0390f35b610149565b9060208282031261055a57610557916000016102d1565b90565b61014e565b610568906102b9565b9052565b91906105809060006020850194019061055f565b565b346105b2576105ae61059d610598366004610540565b610d63565b6105a5610143565b9182918261056c565b0390f35b610149565b906020828203126105d1576105ce916000016102aa565b90565b61014e565b34610606576106026105f16105ec3660046105b7565b610e22565b6105f9610143565b9182918261022e565b0390f35b610149565b3461063b5761061b366004610153565b610637610626610f0e565b61062e610143565b9182918261042a565b0390f35b610149565b600080fd5b600080fd5b61065381610418565b0361065a57565b600080fd5b9050359061066c8261064a565b565b91909160e08184031261071d5761068560e0610329565b9261069381600084016102aa565b60008501526106a581602084016102aa565b60208501526106b7816040840161048b565b604085015260608201359167ffffffffffffffff8311610718576106e0826107119483016103a3565b60608601526106f2826080830161048b565b60808601526107048260a0830161048b565b60a086015260c00161065f565b60c0830152565b610645565b610640565b91909160408184031261077b57600081013567ffffffffffffffff8111610776578361074f91830161066e565b92602082013567ffffffffffffffff81116107715761076e92016103a3565b90565b610279565b610279565b61014e565b346107b1576107ad61079c610796366004610722565b90610fb8565b6107a4610143565b9182918261042a565b0390f35b610149565b346107e6576107c6366004610153565b6107e26107d1611069565b6107d9610143565b918291826101d0565b0390f35b610149565b91909160408184031261082c5761080583600083016102d1565b92602082013567ffffffffffffffff81116108275761082492016103a3565b90565b610279565b61014e565b61083a90610289565b9052565b919061085290600060208501940190610831565b565b346108855761088161087061086a3660046107eb565b906110d8565b610878610143565b9182918261083e565b0390f35b610149565b906020828203126108bb57600082013567ffffffffffffffff81116108b6576108b392016103a3565b90565b610279565b61014e565b60ff1690565b6108cf906108c0565b9052565b6040906108fd61090494969593966108f36060840198600085019061055f565b602083019061055f565b01906108c6565b565b346109395761093561092161091c36600461088a565b611214565b61092c939193610143565b938493846108d3565b0390f35b610149565b9190604083820312610967578061095b61096492600086016102aa565b9360200161048b565b90565b61014e565b3461099d5761099961098861098236600461093e565b9061129f565b610990610143565b9182918261042a565b0390f35b610149565b919060a083820312610a0d576109bb81600085016102aa565b926109c982602083016102aa565b926109d7836040840161048b565b9260608301359067ffffffffffffffff8211610a08576109fc81610a059386016103a3565b9360800161048b565b90565b610279565b61014e565b34610a4657610a42610a31610a283660046109a2565b93929092611ac4565b610a39610143565b9182918261042a565b0390f35b610149565b34610a7b57610a5b366004610153565b610a77610a66611c3f565b610a6e610143565b9182918261022e565b0390f35b610149565b34610ab457610ab0610a9f610a963660046109a2565b93929092611cd9565b610aa7610143565b9182918261042a565b0390f35b610149565b60000190565b34610aed57610acf366004610153565b610ad761228e565b610adf610143565b80610ae981610ab9565b0390f35b610149565b608081830312610b3457610b0982600083016102aa565b92610b31610b1a84602085016102aa565b93610b28816040860161048b565b9360600161048b565b90565b61014e565b34610b6d57610b69610b58610b4f366004610af2565b92919091612649565b610b60610143565b9182918261056c565b0390f35b610149565b600080fd5b606090565b67ffffffffffffffff8111610b9a57610b96602091610195565b0190565b6102ea565b90610bb1610bac83610b7c565b610329565b918252565b60007f5669616475637400000000000000000000000000000000000000000000000000910152565b610be86007610b9f565b90610bf560208301610bb6565b565b610bff610bde565b90565b610c0a610b77565b50610c13610bf7565b90565b600090565b90565b90565b610c35610c30610c3a92610c1b565b610c1e565b61021e565b90565b610c5069021e19e0c9bab2400000610c21565b90565b610c5b610c16565b50610c64610c3d565b90565b600090565b91610c86610c8c91610c9293610c80610c67565b506110d8565b92610289565b91610289565b1490565b505050610ca1610c67565b50600090565b90565b610cbe610cb9610cc392610ca7565b610c1e565b61021e565b90565b610cce610c16565b50610cd96012610caa565b90565b600090565b905090565b60007f19457468657265756d205369676e6564204d6573736167653a0a333200000000910152565b610d1a601c8092610ce1565b610d2381610ce6565b0190565b90565b610d36610d3b916102b9565b610d27565b9052565b90610d55610d4e602093610d0e565b8092610d2a565b0190565b60200190565b5190565b610d96610d8791610d72610cdc565b50610d7b610143565b92839160208301610d3f565b60208201810382520382610300565b610da8610da282610d5f565b91610d59565b2090565b610dc0610dbb610dc59261027e565b610c1e565b61027e565b90565b610dd190610dac565b90565b610ddd90610dc8565b90565b90610dea90610dd4565b600052602052604060002090565b60001c90565b90565b610e0d610e1291610df8565b610dfe565b90565b610e1f9054610e01565b90565b610e39610e3e91610e31610c16565b506003610de0565b610e15565b90565b634e487b7160e01b600052601160045260246000fd5b610e66610e6c9193929361021e565b9261021e565b8203918211610e7757565b610e41565b90565b610e93610e8e610e9892610e7c565b610c1e565b61021e565b90565b610ea6610258610e7f565b90565b634e487b7160e01b600052601260045260246000fd5b610ecb610ed19161021e565b9161021e565b908115610edc570690565b610ea9565b90565b610ef8610ef3610efd92610ee1565b610c1e565b61021e565b90565b610f0b6101a4610ee4565b90565b610f16610c67565b50610f53610f45427f000000000000000000000000000000000000000000000000000000000000000090610e57565b610f4d610e9b565b90610ebf565b610f6c610f66610f61610f00565b61021e565b9161021e565b108015610f77575b90565b507f0000000000000000000000000000000000000000000000000000000000000000610f74565b610fa89051610289565b90565b610fb5905161021e565b90565b61101a91610fc4610c67565b50611012600061100b611006610fdb838701610f9e565b610fe760208801610f9e565b610ff360408901610fab565b9061100060808a01610fab565b92612649565b610d63565b9301610f9e565b919091610c6c565b90565b60007f5649410000000000000000000000000000000000000000000000000000000000910152565b61104f6003610b9f565b9061105c6020830161101d565b565b611066611045565b90565b611071610b77565b5061107a61105e565b90565b600090565b60001b90565b6110be6110c5946110b46060949897956110aa608086019a600087019061055f565b60208501906108c6565b604083019061055f565b019061055f565b565b6110cf610143565b3d6000823e3d90fd5b6111096000916110f26020946110ec61107d565b50611214565b909391939093611100610143565b94859485611088565b838052039060015afa1561112557611122600051611082565b90565b6110c7565b600090565b90565b61114661114161114b9261112f565b610c1e565b61021e565b90565b60007f496e76616c6964207369676e6174757265206c656e6774680000000000000000910152565b6111836018602092610167565b61118c8161114e565b0190565b6111a69060208101906000818303910152611176565b90565b156111b057565b6111b8610143565b62461bcd60e51b8152806111ce60048201611190565b0390fd5b90565b6111e96111e46111ee926111d2565b610c1e565b6108c0565b90565b6111fd611203916108c0565b916108c0565b019060ff821161120f57565b610e41565b61121c610cdc565b50611225610cdc565b5061122e61112a565b5061125461123b82610d5f565b61124e6112486041611132565b9161021e565b146111a9565b6020810151916060604083015192015160001a908161127c611276601b6111d5565b916108c0565b10611284575b565b9061129990611293601b6111d5565b906111f1565b90611282565b50506112a9610c67565b50600090565b6112c36112be6112c89261021e565b610c1e565b61021e565b90565b906112d5906112af565b600052602052604060002090565b60ff1690565b6112f56112fa91610df8565b6112e3565b90565b61130790546112e9565b90565b60007f4e6f6e636520616c726561647920757365642e00000000000000000000000000910152565b61133f6013602092610167565b6113488161130a565b0190565b6113629060208101906000818303910152611332565b90565b1561136c57565b611374610143565b62461bcd60e51b81528061138a6004820161134c565b0390fd5b9061139a60ff91611082565b9181191691161790565b6113ad90610418565b90565b90565b906113c86113c36113cf926113a4565b6113b0565b825461138e565b9055565b60007f43616e6e6f742070726f706f7365000000000000000000000000000000000000910152565b611408600e602092610167565b611411816113d3565b0190565b61142b90602081019060008183039101526113fb565b90565b1561143557565b61143d610143565b62461bcd60e51b81528061145360048201611415565b0390fd5b60007f496e73756666696369656e742062616c616e6365000000000000000000000000910152565b61148c6014602092610167565b61149581611457565b0190565b6114af906020810190600081830391015261147f565b90565b156114b957565b6114c1610143565b62461bcd60e51b8152806114d760048201611499565b0390fd5b6114e560e0610329565b90565b600090565b600090565b606090565b600090565b6115046114db565b906020808080808080886115166114e8565b8152016115216114e8565b81520161152c6114ed565b8152016115376114f2565b8152016115426114ed565b81520161154d6114ed565b8152016115586114f7565b81525050565b6115666114fc565b90565b9061157390610289565b9052565b906115819061021e565b9052565b60007f496e76616c6964207369676e6174757265000000000000000000000000000000910152565b6115ba6011602092610167565b6115c381611585565b0190565b6115dd90602081019060008183039101526115ad565b90565b156115e757565b6115ef610143565b62461bcd60e51b815280611605600482016115c7565b0390fd5b9061161390610418565b9052565b90565b600052602060002090565b634e487b7160e01b600052603260045260246000fd5b5490565b6116488161163b565b8210156116635761165a60079161161a565b91020190600090565b611625565b634e487b7160e01b600052600060045260246000fd5b9061168f60018060a01b0391611082565b9181191691161790565b90565b906116b16116ac6116b892610dd4565b611699565b825461167e565b9055565b906116c960001991611082565b9181191691161790565b90565b906116eb6116e66116f2926112af565b6116d3565b82546116bc565b9055565b5190565b634e487b7160e01b600052602260045260246000fd5b9060016002830492168015611730575b602083101461172b57565b6116fa565b91607f1691611720565b600052602060002090565b601f602091010490565b1b90565b9190600861176f9102916117696000198461174f565b9261174f565b9181191691161790565b919061178f61178a611797936112af565b6116d3565b908354611753565b9055565b6117ad916117a7610c16565b91611779565b565b5b8181106117bb575050565b806117c9600060019361179b565b016117b0565b9190601f81116117df575b505050565b6117eb6118109361173a565b9060206117f784611745565b83019310611818575b61180990611745565b01906117af565b3880806117da565b915061180981929050611800565b1c90565b9061183b9060001990600802611826565b191690565b8161184a9161182a565b906002021790565b9061185c81610d5f565b9067ffffffffffffffff821161191e576118808261187a8554611710565b856117cf565b602090601f83116001146118b5579180916118a4936000926118a9575b5050611840565b90555b565b9091500151388061189d565b601f198316916118c48561173a565b9260005b818110611906575091600293918560019694106118ec575b505050020190556118a7565b6118fc910151601f84169061182a565b90553880806118e0565b919360206001819287870151815501950192016118c8565b6102ea565b9061192d91611852565b565b6119399051610418565b90565b906119e660c060066119ec946119616000820161195b60008801610f9e565b9061169c565b61197a6001820161197460208801610f9e565b9061169c565b6119936002820161198d60408801610fab565b906116d6565b6119ac600382016119a6606088016116f6565b90611923565b6119c5600482016119bf60808801610fab565b906116d6565b6119de600582016119d860a08801610fab565b906116d6565b01920161192f565b906113b3565b565b91906119ff576119fd9161193c565b565b611668565b9081549168010000000000000000831015611a345782611a2c916001611a329501815561163f565b906119ee565b565b6102ea565b60209181520190565b611a61611a6a602093611a6f93611a5881610d5f565b93848093611a39565b95869101610170565b610195565b0190565b611ac294611aad82989795611aa3608096611a99611aba97600060a08901980190610831565b60208c0190610831565b60408a0190610221565b8782036060890152611a42565b940190610221565b565b93611c1891929394611ad4610c67565b50611afa611af5611aef611aea600486906112cb565b6112fd565b15610418565b611365565b611b106001611b0b600485906112cb565b6113b3565b611b20611b1b610f0e565b61142e565b611b50611b37611b3260038490610de0565b610e15565b611b49611b438861021e565b9161021e565b10156114b2565b611be2611b5b61155e565b611b688360008301611569565b611b758660208301611569565b611b828760408301611577565b876060820152611b958460808301611577565b611ba24260a08301611577565b611bb5611bb0828a90610fb8565b6115e0565b611bc3600060c08301611609565b611bce838890612931565b611c28575b611bdd6000611617565b611a04565b9293947f4fa994aa29cfe03cf996e8a94bec96ed4b14c748957df777d0613cf57a58947195611c0f610143565b95869586611a73565b0390a1611c2361228e565b600190565b611c36600160c08301611609565b611bd3565b5490565b611c47610c16565b50611c526000611c3b565b90565b60007f4368616c6c656e676520756e7375636365737366756c00000000000000000000910152565b611c8a6016602092610167565b611c9381611c55565b0190565b611cad9060208101906000818303910152611c7d565b90565b15611cb757565b611cbf610143565b62461bcd60e51b815280611cd560048201611c97565b0390fd5b91611d6892611d5e611d59611d639496611d38611d7799611cf8610c67565b50611d1c611d0461155e565b9a611d138c60008a9101611569565b60208c01611569565b611d298760408c01611577565b8260608b015260808a01611577565b611d454260a08a01611577565b611d53600160c08a01611609565b87610fb8565b6115e0565b612931565b611cb0565b611d726000611617565b611a04565b611d7f61228e565b600190565b611d8d9061021e565b6000198114611d9c5760010190565b610e41565b611daa9061021e565b60008114611db9576001900390565b610e41565b600052602060002090565b611dd281611c3b565b821015611ded57611de4600791611dbe565b91020190600090565b611625565b60018060a01b031690565b611e09611e0e91610df8565b611df2565b90565b611e1b9054611dfd565b90565b611e2d611e339193929361021e565b9261021e565b8201809211611e3e57565b610e41565b90565b611e5a611e55611e5f92611e43565b610c1e565b61021e565b90565b611e6c9054611710565b90565b90808214611f5157611e8081611e62565b9067ffffffffffffffff8211611f4c57611ea482611e9e8554611710565b856117cf565b600090601f8311600114611ed957918091611ec893600092611ecd575b5050611840565b90555b565b90915001543880611ec1565b90611ee8601f1984169261173a565b90611ef28561173a565b9260005b818110611f3457509160029391856001969410611f1a575b50505002019055611ecb565b611f2a910154601f84169061182a565b9055388080611f0e565b91936001806020928787015481550195019201611ef6565b6102ea565b5050565b90611f5f91611e6f565b565b90808203611f6e575b5050565b61200e60068084611f9160006120149701611f8b60008801611e11565b9061169c565b611faa60018201611fa460018801611e11565b9061169c565b611fc360028201611fbd60028801610e15565b906116d6565b611fd4600382016003870190611f55565b611fed60048201611fe760048801610e15565b906116d6565b6120066005820161200060058801610e15565b906116d6565b0192016112fd565b906113b3565b3880611f6a565b919061202c5761202a91611f61565b565b611668565b634e487b7160e01b600052603160045260246000fd5b9061205b9060001990602003600802611826565b8154169055565b9060009161207a6120728261173a565b928354611840565b905555565b919290602082106000146120d957601f84116001146120a9576120a3929350611840565b90555b5b565b50906120cf6120d49360016120c66120c08561173a565b92611745565b820191016117af565b612062565b6120a6565b5061211082936120ea60019461173a565b6121096120f685611745565b820192601f86168061211b575b50611745565b01906117af565b6002021790556120a7565b61212790888603612047565b38612103565b92909168010000000000000000821161218f5760201160001461218057602081106000146121645761215e91611840565b90555b5b565b60019160ff19166121748461173a565b55600202019055612161565b60019150600202019055612162565b6102ea565b9081546121a081611710565b908183116121c9575b8183106121b7575b50505050565b6121c09361207f565b388080806121b1565b6121d58383838761212d565b6121a9565b60006121e591612194565b565b906000036121fa576121f8906121da565b565b611668565b6006600091828082015582600182015561221c836002830161179b565b61222983600383016121e7565b612236836004830161179b565b612243836005830161179b565b0155565b9060000361225a57612258906121ff565b565b611668565b6122688161163b565b8015612289576001900390612286612280838361163f565b90612247565b55565b612031565b6122d4426122ce6122c0427f000000000000000000000000000000000000000000000000000000000000000090610e57565b6122c8610e9b565b90610ebf565b90610e57565b906001916122e0610c16565b925b836122fe6122f86122f36000611c3b565b61021e565b9161021e565b101561249a5761230e9015610418565b61248a575b60019261232e600561232760008490611dc9565b5001610e15565b61234061233a8461021e565b9161021e565b10612355575b61234f90611d84565b926122e2565b9250612378612372600661236b60008790611dc9565b50016112fd565b15610418565b6123da575b6123bb6123a860006123a26123926000611c3b565b61239c6001611e46565b90610e57565b90611dc9565b506123b560008690611dc9565b9061201b565b6123cd6123c86000611617565b61225f565b61234f6000939050612346565b61242f6123f560026123ee60008790611dc9565b5001610e15565b61242961241a6003612414600061240d818b90611dc9565b5001611e11565b90610de0565b9161242483610e15565b610e57565b906116d6565b61248561244a600261244360008790611dc9565b5001610e15565b61247f612470600361246a600161246360008b90611dc9565b5001611e11565b90610de0565b9161247a83610e15565b611e1e565b906116d6565b61237d565b9161249490611da1565b91612313565b50509050565b60007f56696164756374205369676e6564204d6573736167653a2046524f4d20000000910152565b6124d4601d8092610ce1565b6124dd816124a0565b0190565b60601b90565b6124f0906124e1565b90565b6124fc906124e7565b90565b61250b61251091610289565b6124f3565b9052565b60007f20544f2000000000000000000000000000000000000000000000000000000000910152565b61254860048092610ce1565b61255181612514565b0190565b60007f2056414c55452000000000000000000000000000000000000000000000000000910152565b61258960078092610ce1565b61259281612555565b0190565b90565b6125a56125aa9161021e565b612596565b9052565b60007f204e4f4e43452000000000000000000000000000000000000000000000000000910152565b6125e260078092610ce1565b6125eb816125ae565b0190565b6020949361263861263160146126459661262b6126248361263e9961261e6126178f9b6124c8565b80926124ff565b0161253c565b80926124ff565b0161257d565b8092612599565b016125d6565b8092612599565b0190565b61268092936126719161265a610cdc565b509294612665610143565b958694602086016125ef565b60208201810382520382610300565b61269261268c82610d5f565b91610d59565b2090565b60016126a2910161021e565b90565b90815491680100000000000000008310156126d557826126cd9160016126d39501815561163f565b9061201b565b565b6102ea565b90565b600052602060002090565b5490565b6126f5816126e8565b821015612710576127076001916126dd565b91020190600090565b611625565b9081549168010000000000000000831015612745578261273d916001612743950181556126ec565b90611779565b565b6102ea565b5490565b600052602060002090565b6127628161274a565b82101561277d5761277460019161274e565b91020190600090565b611625565b6127929060086127979302611826565b610dfe565b90565b906127a59154612782565b90565b60209181520190565b90600092918054906127cc6127c583611710565b80946127a8565b9160018116908160001461282557506001146127e8575b505050565b6127f5919293945061173a565b916000925b81841061280d57505001903880806127e3565b600181602092959395548486015201910192906127fa565b92949550505060ff19168252151560200201903880806127e3565b9061284a916127b1565b90565b9061286d6128669261285d610143565b93848092612840565b0383610300565b565b52565b9061292361291a60066128836114db565b9461289c61289360008301611e11565b60008801611569565b6128b46128ab60018301611e11565b60208801611569565b6128cc6128c360028301610e15565b60408801611577565b6128e46128db6003830161284d565b6060880161286f565b6128fc6128f360048301610e15565b60808801611577565b61291461290b60058301610e15565b60a08801611577565b016112fd565b60c08401611609565b565b61292e90612872565b90565b9061293a610c67565b50612943610c16565b5b8061296061295a6129556000611c3b565b61021e565b9161021e565b1015612a055761297d6000612976818490611dc9565b5001611e11565b61298f61298985610289565b91610289565b146129a3575b61299e90612696565b612944565b906129c961299e916129c360026129bc60008790611dc9565b5001610e15565b90611e1e565b916129ea6129d76002611617565b6129e360008490611dc9565b50906126a5565b6129fe6129f760016126da565b8290612715565b9050612995565b5090612a26612a20612a1b612a2c936003610de0565b610e15565b9261021e565b9161021e565b11612b1857612a39610c16565b5b80612a56612a50612a4b600161274a565b61021e565b9161021e565b1015612b1257612b0d90612a89612a836000612a7d612a7760018690612759565b9061279a565b90611dc9565b50612925565b612a97600160c08301611609565b612aa360008201610f9e565b612aaf60208301610f9e565b90612b05612abf60408501610fab565b93612ad1608060608301519201610fab565b907fba3cd9cc90be8a4bae3a12a3ad76861e142f2ba0e44241b2699ee849d834adbc95612afc610143565b95869586611a73565b0390a1612696565b612a3a565b50600190565b60009056fea26469706673582212208a5f2cd698d9245f308a4d3fca608c1ec0187d880107d3b6c8ab9569804743c664736f6c634300081b0033","opcodes":"PUSH1 0xC0 PUSH1 0x40 MSTORE CALLVALUE PUSH2 0x49 JUMPI PUSH2 0x1A PUSH2 0x14 PUSH2 0x145 JUMP JUMPDEST SWAP2 PUSH2 0x253 JUMP JUMPDEST PUSH2 0x22 PUSH2 0x4E JUMP JUMPDEST PUSH2 0x2B53 PUSH2 0x285 DUP3 CODECOPY PUSH1 0x80 MLOAD DUP2 DUP2 DUP2 PUSH2 0xF20 ADD MSTORE PUSH2 0x229B ADD MSTORE PUSH1 0xA0 MLOAD DUP2 PUSH2 0xF7A ADD MSTORE PUSH2 0x2B53 SWAP1 RETURN JUMPDEST PUSH2 0x54 JUMP JUMPDEST PUSH1 0x40 MLOAD SWAP1 JUMP JUMPDEST PUSH1 0x0 DUP1 REVERT JUMPDEST PUSH1 0x1F DUP1 NOT SWAP2 ADD AND SWAP1 JUMP JUMPDEST PUSH4 0x4E487B71 PUSH1 0xE0 SHL PUSH1 0x0 MSTORE PUSH1 0x41 PUSH1 0x4 MSTORE PUSH1 0x24 PUSH1 0x0 REVERT JUMPDEST SWAP1 PUSH2 0x83 SWAP1 PUSH2 0x59 JUMP JUMPDEST DUP2 ADD SWAP1 DUP2 LT PUSH1 0x1 DUP1 PUSH1 0x40 SHL SUB DUP3 GT OR PUSH2 0x9B JUMPI PUSH1 0x40 MSTORE JUMP JUMPDEST PUSH2 0x63 JUMP JUMPDEST SWAP1 PUSH2 0xB3 PUSH2 0xAC PUSH2 0x4E JUMP JUMPDEST SWAP3 DUP4 PUSH2 0x79 JUMP JUMPDEST JUMP JUMPDEST PUSH1 0x0 DUP1 REVERT JUMPDEST ISZERO ISZERO SWAP1 JUMP JUMPDEST PUSH2 0xC8 DUP2 PUSH2 0xBA JUMP JUMPDEST SUB PUSH2 0xCF JUMPI JUMP JUMPDEST PUSH1 0x0 DUP1 REVERT JUMPDEST SWAP1 POP MLOAD SWAP1 PUSH2 0xE1 DUP3 PUSH2 0xBF JUMP JUMPDEST JUMP JUMPDEST SWAP1 JUMP JUMPDEST PUSH2 0xEF DUP2 PUSH2 0xE3 JUMP JUMPDEST SUB PUSH2 0xF6 JUMPI JUMP JUMPDEST PUSH1 0x0 DUP1 REVERT JUMPDEST SWAP1 POP MLOAD SWAP1 PUSH2 0x108 DUP3 PUSH2 0xE6 JUMP JUMPDEST JUMP JUMPDEST SWAP1 SWAP2 PUSH1 0x60 DUP3 DUP5 SUB SLT PUSH2 0x140 JUMPI PUSH2 0x13D PUSH2 0x126 DUP5 PUSH1 0x0 DUP6 ADD PUSH2 0xD4 JUMP JUMPDEST SWAP4 PUSH2 0x134 DUP2 PUSH1 0x20 DUP7 ADD PUSH2 0xFB JUMP JUMPDEST SWAP4 PUSH1 0x40 ADD PUSH2 0xD4 JUMP JUMPDEST SWAP1 JUMP JUMPDEST PUSH2 0xB5 JUMP JUMPDEST PUSH2 0x163 PUSH2 0x2DD8 DUP1 CODESIZE SUB DUP1 PUSH2 0x158 DUP2 PUSH2 0xA0 JUMP JUMPDEST SWAP3 DUP4 CODECOPY DUP2 ADD SWAP1 PUSH2 0x10A JUMP JUMPDEST SWAP1 SWAP2 SWAP3 JUMP JUMPDEST SWAP1 JUMP JUMPDEST SWAP1 JUMP JUMPDEST PUSH2 0x182 PUSH2 0x17D PUSH2 0x187 SWAP3 PUSH2 0x168 JUMP JUMPDEST PUSH2 0x16B JUMP JUMPDEST PUSH2 0xE3 JUMP JUMPDEST SWAP1 JUMP JUMPDEST PUSH2 0x19D PUSH10 0x21E19E0C9BAB2400000 PUSH2 0x16E JUMP JUMPDEST SWAP1 JUMP JUMPDEST PUSH1 0x1 DUP1 PUSH1 0xA0 SHL SUB AND SWAP1 JUMP JUMPDEST PUSH2 0x1BF PUSH2 0x1BA PUSH2 0x1C4 SWAP3 PUSH2 0x1A0 JUMP JUMPDEST PUSH2 0x16B JUMP JUMPDEST PUSH2 0x1A0 JUMP JUMPDEST SWAP1 JUMP JUMPDEST PUSH2 0x1D0 SWAP1 PUSH2 0x1AB JUMP JUMPDEST SWAP1 JUMP JUMPDEST PUSH2 0x1DC SWAP1 PUSH2 0x1C7 JUMP JUMPDEST SWAP1 JUMP JUMPDEST SWAP1 PUSH2 0x1E9 SWAP1 PUSH2 0x1D3 JUMP JUMPDEST PUSH1 0x0 MSTORE PUSH1 0x20 MSTORE PUSH1 0x40 PUSH1 0x0 KECCAK256 SWAP1 JUMP JUMPDEST PUSH1 0x0 SHL SWAP1 JUMP JUMPDEST SWAP1 PUSH2 0x20A PUSH1 0x0 NOT SWAP2 PUSH2 0x1F7 JUMP JUMPDEST SWAP2 DUP2 NOT AND SWAP2 AND OR SWAP1 JUMP JUMPDEST PUSH2 0x228 PUSH2 0x223 PUSH2 0x22D SWAP3 PUSH2 0xE3 JUMP JUMPDEST PUSH2 0x16B JUMP JUMPDEST PUSH2 0xE3 JUMP JUMPDEST SWAP1 JUMP JUMPDEST SWAP1 JUMP JUMPDEST SWAP1 PUSH2 0x248 PUSH2 0x243 PUSH2 0x24F SWAP3 PUSH2 0x214 JUMP JUMPDEST PUSH2 0x230 JUMP JUMPDEST DUP3 SLOAD PUSH2 0x1FD JUMP JUMPDEST SWAP1 SSTORE JUMP JUMPDEST SWAP2 SWAP1 SWAP2 PUSH2 0x263 JUMPI JUMPDEST PUSH1 0xA0 MSTORE PUSH1 0x80 MSTORE JUMP JUMPDEST PUSH2 0x27F PUSH2 0x26E PUSH2 0x18A JUMP JUMPDEST PUSH2 0x27A PUSH1 0x3 CALLER SWAP1 PUSH2 0x1DF JUMP JUMPDEST PUSH2 0x233 JUMP JUMPDEST PUSH2 0x25B JUMP INVALID PUSH1 0x80 PUSH1 0x40 MSTORE PUSH1 0x4 CALLDATASIZE LT ISZERO PUSH2 0x13 JUMPI JUMPDEST PUSH2 0xB72 JUMP JUMPDEST PUSH2 0x1E PUSH1 0x0 CALLDATALOAD PUSH2 0x13D JUMP JUMPDEST DUP1 PUSH4 0x6FDDE03 EQ PUSH2 0x138 JUMPI DUP1 PUSH4 0x18160DDD EQ PUSH2 0x133 JUMPI DUP1 PUSH4 0x1A86B550 EQ PUSH2 0x12E JUMPI DUP1 PUSH4 0x23B872DD EQ PUSH2 0x129 JUMPI DUP1 PUSH4 0x313CE567 EQ PUSH2 0x124 JUMPI DUP1 PUSH4 0x45E872B6 EQ PUSH2 0x11F JUMPI DUP1 PUSH4 0x70A08231 EQ PUSH2 0x11A JUMPI DUP1 PUSH4 0x76E14804 EQ PUSH2 0x115 JUMPI DUP1 PUSH4 0x78216859 EQ PUSH2 0x110 JUMPI DUP1 PUSH4 0x95D89B41 EQ PUSH2 0x10B JUMPI DUP1 PUSH4 0x97ABA7F9 EQ PUSH2 0x106 JUMPI DUP1 PUSH4 0xA7BB5803 EQ PUSH2 0x101 JUMPI DUP1 PUSH4 0xA9059CBB EQ PUSH2 0xFC JUMPI DUP1 PUSH4 0xB052B8DF EQ PUSH2 0xF7 JUMPI DUP1 PUSH4 0xB63E56DE EQ PUSH2 0xF2 JUMPI DUP1 PUSH4 0xC03AB09C EQ PUSH2 0xED JUMPI DUP1 PUSH4 0xE0EA0EE2 EQ PUSH2 0xE8 JUMPI PUSH4 0xF34D85E4 SUB PUSH2 0xE JUMPI PUSH2 0xB39 JUMP JUMPDEST PUSH2 0xABF JUMP JUMPDEST PUSH2 0xA80 JUMP JUMPDEST PUSH2 0xA4B JUMP JUMPDEST PUSH2 0xA12 JUMP JUMPDEST PUSH2 0x96C JUMP JUMPDEST PUSH2 0x906 JUMP JUMPDEST PUSH2 0x854 JUMP JUMPDEST PUSH2 0x7B6 JUMP JUMPDEST PUSH2 0x780 JUMP JUMPDEST PUSH2 0x60B JUMP JUMPDEST PUSH2 0x5D6 JUMP JUMPDEST PUSH2 0x582 JUMP JUMPDEST PUSH2 0x50B JUMP JUMPDEST PUSH2 0x4D5 JUMP JUMPDEST PUSH2 0x440 JUMP JUMPDEST PUSH2 0x244 JUMP JUMPDEST PUSH2 0x1E9 JUMP JUMPDEST PUSH1 0xE0 SHR SWAP1 JUMP JUMPDEST PUSH1 0x40 MLOAD SWAP1 JUMP JUMPDEST PUSH1 0x0 DUP1 REVERT JUMPDEST PUSH1 0x0 DUP1 REVERT JUMPDEST PUSH1 0x0 SWAP2 SUB SLT PUSH2 0x15E JUMPI JUMP JUMPDEST PUSH2 0x14E JUMP JUMPDEST MLOAD SWAP1 JUMP JUMPDEST PUSH1 0x20 SWAP2 DUP2 MSTORE ADD SWAP1 JUMP JUMPDEST PUSH1 0x0 JUMPDEST DUP4 DUP2 LT PUSH2 0x184 JUMPI POP POP SWAP1 PUSH1 0x0 SWAP2 ADD MSTORE JUMP JUMPDEST DUP1 PUSH1 0x20 SWAP2 DUP4 ADD MLOAD DUP2 DUP6 ADD MSTORE ADD PUSH2 0x173 JUMP JUMPDEST PUSH1 0x1F DUP1 NOT SWAP2 ADD AND SWAP1 JUMP JUMPDEST PUSH2 0x1BE PUSH2 0x1C7 PUSH1 0x20 SWAP4 PUSH2 0x1CC SWAP4 PUSH2 0x1B5 DUP2 PUSH2 0x163 JUMP JUMPDEST SWAP4 DUP5 DUP1 SWAP4 PUSH2 0x167 JUMP JUMPDEST SWAP6 DUP7 SWAP2 ADD PUSH2 0x170 JUMP JUMPDEST PUSH2 0x195 JUMP JUMPDEST ADD SWAP1 JUMP JUMPDEST PUSH2 0x1E6 SWAP2 PUSH1 0x20 DUP3 ADD SWAP2 PUSH1 0x0 DUP2 DUP5 SUB SWAP2 ADD MSTORE PUSH2 0x19F JUMP JUMPDEST SWAP1 JUMP JUMPDEST CALLVALUE PUSH2 0x219 JUMPI PUSH2 0x1F9 CALLDATASIZE PUSH1 0x4 PUSH2 0x153 JUMP JUMPDEST PUSH2 0x215 PUSH2 0x204 PUSH2 0xC02 JUMP JUMPDEST PUSH2 0x20C PUSH2 0x143 JUMP JUMPDEST SWAP2 DUP3 SWAP2 DUP3 PUSH2 0x1D0 JUMP JUMPDEST SUB SWAP1 RETURN JUMPDEST PUSH2 0x149 JUMP JUMPDEST SWAP1 JUMP JUMPDEST PUSH2 0x22A SWAP1 PUSH2 0x21E JUMP JUMPDEST SWAP1 MSTORE JUMP JUMPDEST SWAP2 SWAP1 PUSH2 0x242 SWAP1 PUSH1 0x0 PUSH1 0x20 DUP6 ADD SWAP5 ADD SWAP1 PUSH2 0x221 JUMP JUMPDEST JUMP JUMPDEST CALLVALUE PUSH2 0x274 JUMPI PUSH2 0x254 CALLDATASIZE PUSH1 0x4 PUSH2 0x153 JUMP JUMPDEST PUSH2 0x270 PUSH2 0x25F PUSH2 0xC53 JUMP JUMPDEST PUSH2 0x267 PUSH2 0x143 JUMP JUMPDEST SWAP2 DUP3 SWAP2 DUP3 PUSH2 0x22E JUMP JUMPDEST SUB SWAP1 RETURN JUMPDEST PUSH2 0x149 JUMP JUMPDEST PUSH1 0x0 DUP1 REVERT JUMPDEST PUSH1 0x1 DUP1 PUSH1 0xA0 SHL SUB AND SWAP1 JUMP JUMPDEST PUSH2 0x292 SWAP1 PUSH2 0x27E JUMP JUMPDEST SWAP1 JUMP JUMPDEST PUSH2 0x29E DUP2 PUSH2 0x289 JUMP JUMPDEST SUB PUSH2 0x2A5 JUMPI JUMP JUMPDEST PUSH1 0x0 DUP1 REVERT JUMPDEST SWAP1 POP CALLDATALOAD SWAP1 PUSH2 0x2B7 DUP3 PUSH2 0x295 JUMP JUMPDEST JUMP JUMPDEST SWAP1 JUMP JUMPDEST PUSH2 0x2C5 DUP2 PUSH2 0x2B9 JUMP JUMPDEST SUB PUSH2 0x2CC JUMPI JUMP JUMPDEST PUSH1 0x0 DUP1 REVERT JUMPDEST SWAP1 POP CALLDATALOAD SWAP1 PUSH2 0x2DE DUP3 PUSH2 0x2BC JUMP JUMPDEST JUMP JUMPDEST PUSH1 0x0 DUP1 REVERT JUMPDEST PUSH1 0x0 DUP1 REVERT JUMPDEST PUSH4 0x4E487B71 PUSH1 0xE0 SHL PUSH1 0x0 MSTORE PUSH1 0x41 PUSH1 0x4 MSTORE PUSH1 0x24 PUSH1 0x0 REVERT JUMPDEST SWAP1 PUSH2 0x30A SWAP1 PUSH2 0x195 JUMP JUMPDEST DUP2 ADD SWAP1 DUP2 LT PUSH8 0xFFFFFFFFFFFFFFFF DUP3 GT OR PUSH2 0x324 JUMPI PUSH1 0x40 MSTORE JUMP JUMPDEST PUSH2 0x2EA JUMP JUMPDEST SWAP1 PUSH2 0x33C PUSH2 0x335 PUSH2 0x143 JUMP JUMPDEST SWAP3 DUP4 PUSH2 0x300 JUMP JUMPDEST JUMP JUMPDEST PUSH8 0xFFFFFFFFFFFFFFFF DUP2 GT PUSH2 0x35C JUMPI PUSH2 0x358 PUSH1 0x20 SWAP2 PUSH2 0x195 JUMP JUMPDEST ADD SWAP1 JUMP JUMPDEST PUSH2 0x2EA JUMP JUMPDEST SWAP1 DUP3 PUSH1 0x0 SWAP4 SWAP3 DUP3 CALLDATACOPY ADD MSTORE JUMP JUMPDEST SWAP1 SWAP3 SWAP2 SWAP3 PUSH2 0x382 PUSH2 0x37D DUP3 PUSH2 0x33E JUMP JUMPDEST PUSH2 0x329 JUMP JUMPDEST SWAP4 DUP2 DUP6 MSTORE PUSH1 0x20 DUP6 ADD SWAP1 DUP3 DUP5 ADD GT PUSH2 0x39E JUMPI PUSH2 0x39C SWAP3 PUSH2 0x361 JUMP JUMPDEST JUMP JUMPDEST PUSH2 0x2E5 JUMP JUMPDEST SWAP1 DUP1 PUSH1 0x1F DUP4 ADD SLT ISZERO PUSH2 0x3C1 JUMPI DUP2 PUSH1 0x20 PUSH2 0x3BE SWAP4 CALLDATALOAD SWAP2 ADD PUSH2 0x36D JUMP JUMPDEST SWAP1 JUMP JUMPDEST PUSH2 0x2E0 JUMP JUMPDEST SWAP2 PUSH1 0x60 DUP4 DUP4 SUB SLT PUSH2 0x413 JUMPI PUSH2 0x3DE DUP3 PUSH1 0x0 DUP6 ADD PUSH2 0x2AA JUMP JUMPDEST SWAP3 PUSH2 0x3EC DUP4 PUSH1 0x20 DUP4 ADD PUSH2 0x2D1 JUMP JUMPDEST SWAP3 PUSH1 0x40 DUP3 ADD CALLDATALOAD PUSH8 0xFFFFFFFFFFFFFFFF DUP2 GT PUSH2 0x40E JUMPI PUSH2 0x40B SWAP3 ADD PUSH2 0x3A3 JUMP JUMPDEST SWAP1 JUMP JUMPDEST PUSH2 0x279 JUMP JUMPDEST PUSH2 0x14E JUMP JUMPDEST ISZERO ISZERO SWAP1 JUMP JUMPDEST PUSH2 0x426 SWAP1 PUSH2 0x418 JUMP JUMPDEST SWAP1 MSTORE JUMP JUMPDEST SWAP2 SWAP1 PUSH2 0x43E SWAP1 PUSH1 0x0 PUSH1 0x20 DUP6 ADD SWAP5 ADD SWAP1 PUSH2 0x41D JUMP JUMPDEST JUMP JUMPDEST CALLVALUE PUSH2 0x471 JUMPI PUSH2 0x46D PUSH2 0x45C PUSH2 0x456 CALLDATASIZE PUSH1 0x4 PUSH2 0x3C6 JUMP JUMPDEST SWAP2 PUSH2 0xC6C JUMP JUMPDEST PUSH2 0x464 PUSH2 0x143 JUMP JUMPDEST SWAP2 DUP3 SWAP2 DUP3 PUSH2 0x42A JUMP JUMPDEST SUB SWAP1 RETURN JUMPDEST PUSH2 0x149 JUMP JUMPDEST PUSH2 0x47F DUP2 PUSH2 0x21E JUMP JUMPDEST SUB PUSH2 0x486 JUMPI JUMP JUMPDEST PUSH1 0x0 DUP1 REVERT JUMPDEST SWAP1 POP CALLDATALOAD SWAP1 PUSH2 0x498 DUP3 PUSH2 0x476 JUMP JUMPDEST JUMP JUMPDEST SWAP1 SWAP2 PUSH1 0x60 DUP3 DUP5 SUB SLT PUSH2 0x4D0 JUMPI PUSH2 0x4CD PUSH2 0x4B6 DUP5 PUSH1 0x0 DUP6 ADD PUSH2 0x2AA JUMP JUMPDEST SWAP4 PUSH2 0x4C4 DUP2 PUSH1 0x20 DUP7 ADD PUSH2 0x2AA JUMP JUMPDEST SWAP4 PUSH1 0x40 ADD PUSH2 0x48B JUMP JUMPDEST SWAP1 JUMP JUMPDEST PUSH2 0x14E JUMP JUMPDEST CALLVALUE PUSH2 0x506 JUMPI PUSH2 0x502 PUSH2 0x4F1 PUSH2 0x4EB CALLDATASIZE PUSH1 0x4 PUSH2 0x49A JUMP JUMPDEST SWAP2 PUSH2 0xC96 JUMP JUMPDEST PUSH2 0x4F9 PUSH2 0x143 JUMP JUMPDEST SWAP2 DUP3 SWAP2 DUP3 PUSH2 0x42A JUMP JUMPDEST SUB SWAP1 RETURN JUMPDEST PUSH2 0x149 JUMP JUMPDEST CALLVALUE PUSH2 0x53B JUMPI PUSH2 0x51B CALLDATASIZE PUSH1 0x4 PUSH2 0x153 JUMP JUMPDEST PUSH2 0x537 PUSH2 0x526 PUSH2 0xCC6 JUMP JUMPDEST PUSH2 0x52E PUSH2 0x143 JUMP JUMPDEST SWAP2 DUP3 SWAP2 DUP3 PUSH2 0x22E JUMP JUMPDEST SUB SWAP1 RETURN JUMPDEST PUSH2 0x149 JUMP JUMPDEST SWAP1 PUSH1 0x20 DUP3 DUP3 SUB SLT PUSH2 0x55A JUMPI PUSH2 0x557 SWAP2 PUSH1 0x0 ADD PUSH2 0x2D1 JUMP JUMPDEST SWAP1 JUMP JUMPDEST PUSH2 0x14E JUMP JUMPDEST PUSH2 0x568 SWAP1 PUSH2 0x2B9 JUMP JUMPDEST SWAP1 MSTORE JUMP JUMPDEST SWAP2 SWAP1 PUSH2 0x580 SWAP1 PUSH1 0x0 PUSH1 0x20 DUP6 ADD SWAP5 ADD SWAP1 PUSH2 0x55F JUMP JUMPDEST JUMP JUMPDEST CALLVALUE PUSH2 0x5B2 JUMPI PUSH2 0x5AE PUSH2 0x59D PUSH2 0x598 CALLDATASIZE PUSH1 0x4 PUSH2 0x540 JUMP JUMPDEST PUSH2 0xD63 JUMP JUMPDEST PUSH2 0x5A5 PUSH2 0x143 JUMP JUMPDEST SWAP2 DUP3 SWAP2 DUP3 PUSH2 0x56C JUMP JUMPDEST SUB SWAP1 RETURN JUMPDEST PUSH2 0x149 JUMP JUMPDEST SWAP1 PUSH1 0x20 DUP3 DUP3 SUB SLT PUSH2 0x5D1 JUMPI PUSH2 0x5CE SWAP2 PUSH1 0x0 ADD PUSH2 0x2AA JUMP JUMPDEST SWAP1 JUMP JUMPDEST PUSH2 0x14E JUMP JUMPDEST CALLVALUE PUSH2 0x606 JUMPI PUSH2 0x602 PUSH2 0x5F1 PUSH2 0x5EC CALLDATASIZE PUSH1 0x4 PUSH2 0x5B7 JUMP JUMPDEST PUSH2 0xE22 JUMP JUMPDEST PUSH2 0x5F9 PUSH2 0x143 JUMP JUMPDEST SWAP2 DUP3 SWAP2 DUP3 PUSH2 0x22E JUMP JUMPDEST SUB SWAP1 RETURN JUMPDEST PUSH2 0x149 JUMP JUMPDEST CALLVALUE PUSH2 0x63B JUMPI PUSH2 0x61B CALLDATASIZE PUSH1 0x4 PUSH2 0x153 JUMP JUMPDEST PUSH2 0x637 PUSH2 0x626 PUSH2 0xF0E JUMP JUMPDEST PUSH2 0x62E PUSH2 0x143 JUMP JUMPDEST SWAP2 DUP3 SWAP2 DUP3 PUSH2 0x42A JUMP JUMPDEST SUB SWAP1 RETURN JUMPDEST PUSH2 0x149 JUMP JUMPDEST PUSH1 0x0 DUP1 REVERT JUMPDEST PUSH1 0x0 DUP1 REVERT JUMPDEST PUSH2 0x653 DUP2 PUSH2 0x418 JUMP JUMPDEST SUB PUSH2 0x65A JUMPI JUMP JUMPDEST PUSH1 0x0 DUP1 REVERT JUMPDEST SWAP1 POP CALLDATALOAD SWAP1 PUSH2 0x66C DUP3 PUSH2 0x64A JUMP JUMPDEST JUMP JUMPDEST SWAP2 SWAP1 SWAP2 PUSH1 0xE0 DUP2 DUP5 SUB SLT PUSH2 0x71D JUMPI PUSH2 0x685 PUSH1 0xE0 PUSH2 0x329 JUMP JUMPDEST SWAP3 PUSH2 0x693 DUP2 PUSH1 0x0 DUP5 ADD PUSH2 0x2AA JUMP JUMPDEST PUSH1 0x0 DUP6 ADD MSTORE PUSH2 0x6A5 DUP2 PUSH1 0x20 DUP5 ADD PUSH2 0x2AA JUMP JUMPDEST PUSH1 0x20 DUP6 ADD MSTORE PUSH2 0x6B7 DUP2 PUSH1 0x40 DUP5 ADD PUSH2 0x48B JUMP JUMPDEST PUSH1 0x40 DUP6 ADD MSTORE PUSH1 0x60 DUP3 ADD CALLDATALOAD SWAP2 PUSH8 0xFFFFFFFFFFFFFFFF DUP4 GT PUSH2 0x718 JUMPI PUSH2 0x6E0 DUP3 PUSH2 0x711 SWAP5 DUP4 ADD PUSH2 0x3A3 JUMP JUMPDEST PUSH1 0x60 DUP7 ADD MSTORE PUSH2 0x6F2 DUP3 PUSH1 0x80 DUP4 ADD PUSH2 0x48B JUMP JUMPDEST PUSH1 0x80 DUP7 ADD MSTORE PUSH2 0x704 DUP3 PUSH1 0xA0 DUP4 ADD PUSH2 0x48B JUMP JUMPDEST PUSH1 0xA0 DUP7 ADD MSTORE PUSH1 0xC0 ADD PUSH2 0x65F JUMP JUMPDEST PUSH1 0xC0 DUP4 ADD MSTORE JUMP JUMPDEST PUSH2 0x645 JUMP JUMPDEST PUSH2 0x640 JUMP JUMPDEST SWAP2 SWAP1 SWAP2 PUSH1 0x40 DUP2 DUP5 SUB SLT PUSH2 0x77B JUMPI PUSH1 0x0 DUP2 ADD CALLDATALOAD PUSH8 0xFFFFFFFFFFFFFFFF DUP2 GT PUSH2 0x776 JUMPI DUP4 PUSH2 0x74F SWAP2 DUP4 ADD PUSH2 0x66E JUMP JUMPDEST SWAP3 PUSH1 0x20 DUP3 ADD CALLDATALOAD PUSH8 0xFFFFFFFFFFFFFFFF DUP2 GT PUSH2 0x771 JUMPI PUSH2 0x76E SWAP3 ADD PUSH2 0x3A3 JUMP JUMPDEST SWAP1 JUMP JUMPDEST PUSH2 0x279 JUMP JUMPDEST PUSH2 0x279 JUMP JUMPDEST PUSH2 0x14E JUMP JUMPDEST CALLVALUE PUSH2 0x7B1 JUMPI PUSH2 0x7AD PUSH2 0x79C PUSH2 0x796 CALLDATASIZE PUSH1 0x4 PUSH2 0x722 JUMP JUMPDEST SWAP1 PUSH2 0xFB8 JUMP JUMPDEST PUSH2 0x7A4 PUSH2 0x143 JUMP JUMPDEST SWAP2 DUP3 SWAP2 DUP3 PUSH2 0x42A JUMP JUMPDEST SUB SWAP1 RETURN JUMPDEST PUSH2 0x149 JUMP JUMPDEST CALLVALUE PUSH2 0x7E6 JUMPI PUSH2 0x7C6 CALLDATASIZE PUSH1 0x4 PUSH2 0x153 JUMP JUMPDEST PUSH2 0x7E2 PUSH2 0x7D1 PUSH2 0x1069 JUMP JUMPDEST PUSH2 0x7D9 PUSH2 0x143 JUMP JUMPDEST SWAP2 DUP3 SWAP2 DUP3 PUSH2 0x1D0 JUMP JUMPDEST SUB SWAP1 RETURN JUMPDEST PUSH2 0x149 JUMP JUMPDEST SWAP2 SWAP1 SWAP2 PUSH1 0x40 DUP2 DUP5 SUB SLT PUSH2 0x82C JUMPI PUSH2 0x805 DUP4 PUSH1 0x0 DUP4 ADD PUSH2 0x2D1 JUMP JUMPDEST SWAP3 PUSH1 0x20 DUP3 ADD CALLDATALOAD PUSH8 0xFFFFFFFFFFFFFFFF DUP2 GT PUSH2 0x827 JUMPI PUSH2 0x824 SWAP3 ADD PUSH2 0x3A3 JUMP JUMPDEST SWAP1 JUMP JUMPDEST PUSH2 0x279 JUMP JUMPDEST PUSH2 0x14E JUMP JUMPDEST PUSH2 0x83A SWAP1 PUSH2 0x289 JUMP JUMPDEST SWAP1 MSTORE JUMP JUMPDEST SWAP2 SWAP1 PUSH2 0x852 SWAP1 PUSH1 0x0 PUSH1 0x20 DUP6 ADD SWAP5 ADD SWAP1 PUSH2 0x831 JUMP JUMPDEST JUMP JUMPDEST CALLVALUE PUSH2 0x885 JUMPI PUSH2 0x881 PUSH2 0x870 PUSH2 0x86A CALLDATASIZE PUSH1 0x4 PUSH2 0x7EB JUMP JUMPDEST SWAP1 PUSH2 0x10D8 JUMP JUMPDEST PUSH2 0x878 PUSH2 0x143 JUMP JUMPDEST SWAP2 DUP3 SWAP2 DUP3 PUSH2 0x83E JUMP JUMPDEST SUB SWAP1 RETURN JUMPDEST PUSH2 0x149 JUMP JUMPDEST SWAP1 PUSH1 0x20 DUP3 DUP3 SUB SLT PUSH2 0x8BB JUMPI PUSH1 0x0 DUP3 ADD CALLDATALOAD PUSH8 0xFFFFFFFFFFFFFFFF DUP2 GT PUSH2 0x8B6 JUMPI PUSH2 0x8B3 SWAP3 ADD PUSH2 0x3A3 JUMP JUMPDEST SWAP1 JUMP JUMPDEST PUSH2 0x279 JUMP JUMPDEST PUSH2 0x14E JUMP JUMPDEST PUSH1 0xFF AND SWAP1 JUMP JUMPDEST PUSH2 0x8CF SWAP1 PUSH2 0x8C0 JUMP JUMPDEST SWAP1 MSTORE JUMP JUMPDEST PUSH1 0x40 SWAP1 PUSH2 0x8FD PUSH2 0x904 SWAP5 SWAP7 SWAP6 SWAP4 SWAP7 PUSH2 0x8F3 PUSH1 0x60 DUP5 ADD SWAP9 PUSH1 0x0 DUP6 ADD SWAP1 PUSH2 0x55F JUMP JUMPDEST PUSH1 0x20 DUP4 ADD SWAP1 PUSH2 0x55F JUMP JUMPDEST ADD SWAP1 PUSH2 0x8C6 JUMP JUMPDEST JUMP JUMPDEST CALLVALUE PUSH2 0x939 JUMPI PUSH2 0x935 PUSH2 0x921 PUSH2 0x91C CALLDATASIZE PUSH1 0x4 PUSH2 0x88A JUMP JUMPDEST PUSH2 0x1214 JUMP JUMPDEST PUSH2 0x92C SWAP4 SWAP2 SWAP4 PUSH2 0x143 JUMP JUMPDEST SWAP4 DUP5 SWAP4 DUP5 PUSH2 0x8D3 JUMP JUMPDEST SUB SWAP1 RETURN JUMPDEST PUSH2 0x149 JUMP JUMPDEST SWAP2 SWAP1 PUSH1 0x40 DUP4 DUP3 SUB SLT PUSH2 0x967 JUMPI DUP1 PUSH2 0x95B PUSH2 0x964 SWAP3 PUSH1 0x0 DUP7 ADD PUSH2 0x2AA JUMP JUMPDEST SWAP4 PUSH1 0x20 ADD PUSH2 0x48B JUMP JUMPDEST SWAP1 JUMP JUMPDEST PUSH2 0x14E JUMP JUMPDEST CALLVALUE PUSH2 0x99D JUMPI PUSH2 0x999 PUSH2 0x988 PUSH2 0x982 CALLDATASIZE PUSH1 0x4 PUSH2 0x93E JUMP JUMPDEST SWAP1 PUSH2 0x129F JUMP JUMPDEST PUSH2 0x990 PUSH2 0x143 JUMP JUMPDEST SWAP2 DUP3 SWAP2 DUP3 PUSH2 0x42A JUMP JUMPDEST SUB SWAP1 RETURN JUMPDEST PUSH2 0x149 JUMP JUMPDEST SWAP2 SWAP1 PUSH1 0xA0 DUP4 DUP3 SUB SLT PUSH2 0xA0D JUMPI PUSH2 0x9BB DUP2 PUSH1 0x0 DUP6 ADD PUSH2 0x2AA JUMP JUMPDEST SWAP3 PUSH2 0x9C9 DUP3 PUSH1 0x20 DUP4 ADD PUSH2 0x2AA JUMP JUMPDEST SWAP3 PUSH2 0x9D7 DUP4 PUSH1 0x40 DUP5 ADD PUSH2 0x48B JUMP JUMPDEST SWAP3 PUSH1 0x60 DUP4 ADD CALLDATALOAD SWAP1 PUSH8 0xFFFFFFFFFFFFFFFF DUP3 GT PUSH2 0xA08 JUMPI PUSH2 0x9FC DUP2 PUSH2 0xA05 SWAP4 DUP7 ADD PUSH2 0x3A3 JUMP JUMPDEST SWAP4 PUSH1 0x80 ADD PUSH2 0x48B JUMP JUMPDEST SWAP1 JUMP JUMPDEST PUSH2 0x279 JUMP JUMPDEST PUSH2 0x14E JUMP JUMPDEST CALLVALUE PUSH2 0xA46 JUMPI PUSH2 0xA42 PUSH2 0xA31 PUSH2 0xA28 CALLDATASIZE PUSH1 0x4 PUSH2 0x9A2 JUMP JUMPDEST SWAP4 SWAP3 SWAP1 SWAP3 PUSH2 0x1AC4 JUMP JUMPDEST PUSH2 0xA39 PUSH2 0x143 JUMP JUMPDEST SWAP2 DUP3 SWAP2 DUP3 PUSH2 0x42A JUMP JUMPDEST SUB SWAP1 RETURN JUMPDEST PUSH2 0x149 JUMP JUMPDEST CALLVALUE PUSH2 0xA7B JUMPI PUSH2 0xA5B CALLDATASIZE PUSH1 0x4 PUSH2 0x153 JUMP JUMPDEST PUSH2 0xA77 PUSH2 0xA66 PUSH2 0x1C3F JUMP JUMPDEST PUSH2 0xA6E PUSH2 0x143 JUMP JUMPDEST SWAP2 DUP3 SWAP2 DUP3 PUSH2 0x22E JUMP JUMPDEST SUB SWAP1 RETURN JUMPDEST PUSH2 0x149 JUMP JUMPDEST CALLVALUE PUSH2 0xAB4 JUMPI PUSH2 0xAB0 PUSH2 0xA9F PUSH2 0xA96 CALLDATASIZE PUSH1 0x4 PUSH2 0x9A2 JUMP JUMPDEST SWAP4 SWAP3 SWAP1 SWAP3 PUSH2 0x1CD9 JUMP JUMPDEST PUSH2 0xAA7 PUSH2 0x143 JUMP JUMPDEST SWAP2 DUP3 SWAP2 DUP3 PUSH2 0x42A JUMP JUMPDEST SUB SWAP1 RETURN JUMPDEST PUSH2 0x149 JUMP JUMPDEST PUSH1 0x0 ADD SWAP1 JUMP JUMPDEST CALLVALUE PUSH2 0xAED JUMPI PUSH2 0xACF CALLDATASIZE PUSH1 0x4 PUSH2 0x153 JUMP JUMPDEST PUSH2 0xAD7 PUSH2 0x228E JUMP JUMPDEST PUSH2 0xADF PUSH2 0x143 JUMP JUMPDEST DUP1 PUSH2 0xAE9 DUP2 PUSH2 0xAB9 JUMP JUMPDEST SUB SWAP1 RETURN JUMPDEST PUSH2 0x149 JUMP JUMPDEST PUSH1 0x80 DUP2 DUP4 SUB SLT PUSH2 0xB34 JUMPI PUSH2 0xB09 DUP3 PUSH1 0x0 DUP4 ADD PUSH2 0x2AA JUMP JUMPDEST SWAP3 PUSH2 0xB31 PUSH2 0xB1A DUP5 PUSH1 0x20 DUP6 ADD PUSH2 0x2AA JUMP JUMPDEST SWAP4 PUSH2 0xB28 DUP2 PUSH1 0x40 DUP7 ADD PUSH2 0x48B JUMP JUMPDEST SWAP4 PUSH1 0x60 ADD PUSH2 0x48B JUMP JUMPDEST SWAP1 JUMP JUMPDEST PUSH2 0x14E JUMP JUMPDEST CALLVALUE PUSH2 0xB6D JUMPI PUSH2 0xB69 PUSH2 0xB58 PUSH2 0xB4F CALLDATASIZE PUSH1 0x4 PUSH2 0xAF2 JUMP JUMPDEST SWAP3 SWAP2 SWAP1 SWAP2 PUSH2 0x2649 JUMP JUMPDEST PUSH2 0xB60 PUSH2 0x143 JUMP JUMPDEST SWAP2 DUP3 SWAP2 DUP3 PUSH2 0x56C JUMP JUMPDEST SUB SWAP1 RETURN JUMPDEST PUSH2 0x149 JUMP JUMPDEST PUSH1 0x0 DUP1 REVERT JUMPDEST PUSH1 0x60 SWAP1 JUMP JUMPDEST PUSH8 0xFFFFFFFFFFFFFFFF DUP2 GT PUSH2 0xB9A JUMPI PUSH2 0xB96 PUSH1 0x20 SWAP2 PUSH2 0x195 JUMP JUMPDEST ADD SWAP1 JUMP JUMPDEST PUSH2 0x2EA JUMP JUMPDEST SWAP1 PUSH2 0xBB1 PUSH2 0xBAC DUP4 PUSH2 0xB7C JUMP JUMPDEST PUSH2 0x329 JUMP JUMPDEST SWAP2 DUP3 MSTORE JUMP JUMPDEST PUSH1 0x0 PUSH32 0x5669616475637400000000000000000000000000000000000000000000000000 SWAP2 ADD MSTORE JUMP JUMPDEST PUSH2 0xBE8 PUSH1 0x7 PUSH2 0xB9F JUMP JUMPDEST SWAP1 PUSH2 0xBF5 PUSH1 0x20 DUP4 ADD PUSH2 0xBB6 JUMP JUMPDEST JUMP JUMPDEST PUSH2 0xBFF PUSH2 0xBDE JUMP JUMPDEST SWAP1 JUMP JUMPDEST PUSH2 0xC0A PUSH2 0xB77 JUMP JUMPDEST POP PUSH2 0xC13 PUSH2 0xBF7 JUMP JUMPDEST SWAP1 JUMP JUMPDEST PUSH1 0x0 SWAP1 JUMP JUMPDEST SWAP1 JUMP JUMPDEST SWAP1 JUMP JUMPDEST PUSH2 0xC35 PUSH2 0xC30 PUSH2 0xC3A SWAP3 PUSH2 0xC1B JUMP JUMPDEST PUSH2 0xC1E JUMP JUMPDEST PUSH2 0x21E JUMP JUMPDEST SWAP1 JUMP JUMPDEST PUSH2 0xC50 PUSH10 0x21E19E0C9BAB2400000 PUSH2 0xC21 JUMP JUMPDEST SWAP1 JUMP JUMPDEST PUSH2 0xC5B PUSH2 0xC16 JUMP JUMPDEST POP PUSH2 0xC64 PUSH2 0xC3D JUMP JUMPDEST SWAP1 JUMP JUMPDEST PUSH1 0x0 SWAP1 JUMP JUMPDEST SWAP2 PUSH2 0xC86 PUSH2 0xC8C SWAP2 PUSH2 0xC92 SWAP4 PUSH2 0xC80 PUSH2 0xC67 JUMP JUMPDEST POP PUSH2 0x10D8 JUMP JUMPDEST SWAP3 PUSH2 0x289 JUMP JUMPDEST SWAP2 PUSH2 0x289 JUMP JUMPDEST EQ SWAP1 JUMP JUMPDEST POP POP POP PUSH2 0xCA1 PUSH2 0xC67 JUMP JUMPDEST POP PUSH1 0x0 SWAP1 JUMP JUMPDEST SWAP1 JUMP JUMPDEST PUSH2 0xCBE PUSH2 0xCB9 PUSH2 0xCC3 SWAP3 PUSH2 0xCA7 JUMP JUMPDEST PUSH2 0xC1E JUMP JUMPDEST PUSH2 0x21E JUMP JUMPDEST SWAP1 JUMP JUMPDEST PUSH2 0xCCE PUSH2 0xC16 JUMP JUMPDEST POP PUSH2 0xCD9 PUSH1 0x12 PUSH2 0xCAA JUMP JUMPDEST SWAP1 JUMP JUMPDEST PUSH1 0x0 SWAP1 JUMP JUMPDEST SWAP1 POP SWAP1 JUMP JUMPDEST PUSH1 0x0 PUSH32 0x19457468657265756D205369676E6564204D6573736167653A0A333200000000 SWAP2 ADD MSTORE JUMP JUMPDEST PUSH2 0xD1A PUSH1 0x1C DUP1 SWAP3 PUSH2 0xCE1 JUMP JUMPDEST PUSH2 0xD23 DUP2 PUSH2 0xCE6 JUMP JUMPDEST ADD SWAP1 JUMP JUMPDEST SWAP1 JUMP JUMPDEST PUSH2 0xD36 PUSH2 0xD3B SWAP2 PUSH2 0x2B9 JUMP JUMPDEST PUSH2 0xD27 JUMP JUMPDEST SWAP1 MSTORE JUMP JUMPDEST SWAP1 PUSH2 0xD55 PUSH2 0xD4E PUSH1 0x20 SWAP4 PUSH2 0xD0E JUMP JUMPDEST DUP1 SWAP3 PUSH2 0xD2A JUMP JUMPDEST ADD SWAP1 JUMP JUMPDEST PUSH1 0x20 ADD SWAP1 JUMP JUMPDEST MLOAD SWAP1 JUMP JUMPDEST PUSH2 0xD96 PUSH2 0xD87 SWAP2 PUSH2 0xD72 PUSH2 0xCDC JUMP JUMPDEST POP PUSH2 0xD7B PUSH2 0x143 JUMP JUMPDEST SWAP3 DUP4 SWAP2 PUSH1 0x20 DUP4 ADD PUSH2 0xD3F JUMP JUMPDEST PUSH1 0x20 DUP3 ADD DUP2 SUB DUP3 MSTORE SUB DUP3 PUSH2 0x300 JUMP JUMPDEST PUSH2 0xDA8 PUSH2 0xDA2 DUP3 PUSH2 0xD5F JUMP JUMPDEST SWAP2 PUSH2 0xD59 JUMP JUMPDEST KECCAK256 SWAP1 JUMP JUMPDEST PUSH2 0xDC0 PUSH2 0xDBB PUSH2 0xDC5 SWAP3 PUSH2 0x27E JUMP JUMPDEST PUSH2 0xC1E JUMP JUMPDEST PUSH2 0x27E JUMP JUMPDEST SWAP1 JUMP JUMPDEST PUSH2 0xDD1 SWAP1 PUSH2 0xDAC JUMP JUMPDEST SWAP1 JUMP JUMPDEST PUSH2 0xDDD SWAP1 PUSH2 0xDC8 JUMP JUMPDEST SWAP1 JUMP JUMPDEST SWAP1 PUSH2 0xDEA SWAP1 PUSH2 0xDD4 JUMP JUMPDEST PUSH1 0x0 MSTORE PUSH1 0x20 MSTORE PUSH1 0x40 PUSH1 0x0 KECCAK256 SWAP1 JUMP JUMPDEST PUSH1 0x0 SHR SWAP1 JUMP JUMPDEST SWAP1 JUMP JUMPDEST PUSH2 0xE0D PUSH2 0xE12 SWAP2 PUSH2 0xDF8 JUMP JUMPDEST PUSH2 0xDFE JUMP JUMPDEST SWAP1 JUMP JUMPDEST PUSH2 0xE1F SWAP1 SLOAD PUSH2 0xE01 JUMP JUMPDEST SWAP1 JUMP JUMPDEST PUSH2 0xE39 PUSH2 0xE3E SWAP2 PUSH2 0xE31 PUSH2 0xC16 JUMP JUMPDEST POP PUSH1 0x3 PUSH2 0xDE0 JUMP JUMPDEST PUSH2 0xE15 JUMP JUMPDEST SWAP1 JUMP JUMPDEST PUSH4 0x4E487B71 PUSH1 0xE0 SHL PUSH1 0x0 MSTORE PUSH1 0x11 PUSH1 0x4 MSTORE PUSH1 0x24 PUSH1 0x0 REVERT JUMPDEST PUSH2 0xE66 PUSH2 0xE6C SWAP2 SWAP4 SWAP3 SWAP4 PUSH2 0x21E JUMP JUMPDEST SWAP3 PUSH2 0x21E JUMP JUMPDEST DUP3 SUB SWAP2 DUP3 GT PUSH2 0xE77 JUMPI JUMP JUMPDEST PUSH2 0xE41 JUMP JUMPDEST SWAP1 JUMP JUMPDEST PUSH2 0xE93 PUSH2 0xE8E PUSH2 0xE98 SWAP3 PUSH2 0xE7C JUMP JUMPDEST PUSH2 0xC1E JUMP JUMPDEST PUSH2 0x21E JUMP JUMPDEST SWAP1 JUMP JUMPDEST PUSH2 0xEA6 PUSH2 0x258 PUSH2 0xE7F JUMP JUMPDEST SWAP1 JUMP JUMPDEST PUSH4 0x4E487B71 PUSH1 0xE0 SHL PUSH1 0x0 MSTORE PUSH1 0x12 PUSH1 0x4 MSTORE PUSH1 0x24 PUSH1 0x0 REVERT JUMPDEST PUSH2 0xECB PUSH2 0xED1 SWAP2 PUSH2 0x21E JUMP JUMPDEST SWAP2 PUSH2 0x21E JUMP JUMPDEST SWAP1 DUP2 ISZERO PUSH2 0xEDC JUMPI MOD SWAP1 JUMP JUMPDEST PUSH2 0xEA9 JUMP JUMPDEST SWAP1 JUMP JUMPDEST PUSH2 0xEF8 PUSH2 0xEF3 PUSH2 0xEFD SWAP3 PUSH2 0xEE1 JUMP JUMPDEST PUSH2 0xC1E JUMP JUMPDEST PUSH2 0x21E JUMP JUMPDEST SWAP1 JUMP JUMPDEST PUSH2 0xF0B PUSH2 0x1A4 PUSH2 0xEE4 JUMP JUMPDEST SWAP1 JUMP JUMPDEST PUSH2 0xF16 PUSH2 0xC67 JUMP JUMPDEST POP PUSH2 0xF53 PUSH2 0xF45 TIMESTAMP PUSH32 0x0 SWAP1 PUSH2 0xE57 JUMP JUMPDEST PUSH2 0xF4D PUSH2 0xE9B JUMP JUMPDEST SWAP1 PUSH2 0xEBF JUMP JUMPDEST PUSH2 0xF6C PUSH2 0xF66 PUSH2 0xF61 PUSH2 0xF00 JUMP JUMPDEST PUSH2 0x21E JUMP JUMPDEST SWAP2 PUSH2 0x21E JUMP JUMPDEST LT DUP1 ISZERO PUSH2 0xF77 JUMPI JUMPDEST SWAP1 JUMP JUMPDEST POP PUSH32 0x0 PUSH2 0xF74 JUMP JUMPDEST PUSH2 0xFA8 SWAP1 MLOAD PUSH2 0x289 JUMP JUMPDEST SWAP1 JUMP JUMPDEST PUSH2 0xFB5 SWAP1 MLOAD PUSH2 0x21E JUMP JUMPDEST SWAP1 JUMP JUMPDEST PUSH2 0x101A SWAP2 PUSH2 0xFC4 PUSH2 0xC67 JUMP JUMPDEST POP PUSH2 0x1012 PUSH1 0x0 PUSH2 0x100B PUSH2 0x1006 PUSH2 0xFDB DUP4 DUP8 ADD PUSH2 0xF9E JUMP JUMPDEST PUSH2 0xFE7 PUSH1 0x20 DUP9 ADD PUSH2 0xF9E JUMP JUMPDEST PUSH2 0xFF3 PUSH1 0x40 DUP10 ADD PUSH2 0xFAB JUMP JUMPDEST SWAP1 PUSH2 0x1000 PUSH1 0x80 DUP11 ADD PUSH2 0xFAB JUMP JUMPDEST SWAP3 PUSH2 0x2649 JUMP JUMPDEST PUSH2 0xD63 JUMP JUMPDEST SWAP4 ADD PUSH2 0xF9E JUMP JUMPDEST SWAP2 SWAP1 SWAP2 PUSH2 0xC6C JUMP JUMPDEST SWAP1 JUMP JUMPDEST PUSH1 0x0 PUSH32 0x5649410000000000000000000000000000000000000000000000000000000000 SWAP2 ADD MSTORE JUMP JUMPDEST PUSH2 0x104F PUSH1 0x3 PUSH2 0xB9F JUMP JUMPDEST SWAP1 PUSH2 0x105C PUSH1 0x20 DUP4 ADD PUSH2 0x101D JUMP JUMPDEST JUMP JUMPDEST PUSH2 0x1066 PUSH2 0x1045 JUMP JUMPDEST SWAP1 JUMP JUMPDEST PUSH2 0x1071 PUSH2 0xB77 JUMP JUMPDEST POP PUSH2 0x107A PUSH2 0x105E JUMP JUMPDEST SWAP1 JUMP JUMPDEST PUSH1 0x0 SWAP1 JUMP JUMPDEST PUSH1 0x0 SHL SWAP1 JUMP JUMPDEST PUSH2 0x10BE PUSH2 0x10C5 SWAP5 PUSH2 0x10B4 PUSH1 0x60 SWAP5 SWAP9 SWAP8 SWAP6 PUSH2 0x10AA PUSH1 0x80 DUP7 ADD SWAP11 PUSH1 0x0 DUP8 ADD SWAP1 PUSH2 0x55F JUMP JUMPDEST PUSH1 0x20 DUP6 ADD SWAP1 PUSH2 0x8C6 JUMP JUMPDEST PUSH1 0x40 DUP4 ADD SWAP1 PUSH2 0x55F JUMP JUMPDEST ADD SWAP1 PUSH2 0x55F JUMP JUMPDEST JUMP JUMPDEST PUSH2 0x10CF PUSH2 0x143 JUMP JUMPDEST RETURNDATASIZE PUSH1 0x0 DUP3 RETURNDATACOPY RETURNDATASIZE SWAP1 REVERT JUMPDEST PUSH2 0x1109 PUSH1 0x0 SWAP2 PUSH2 0x10F2 PUSH1 0x20 SWAP5 PUSH2 0x10EC PUSH2 0x107D JUMP JUMPDEST POP PUSH2 0x1214 JUMP JUMPDEST SWAP1 SWAP4 SWAP2 SWAP4 SWAP1 SWAP4 PUSH2 0x1100 PUSH2 0x143 JUMP JUMPDEST SWAP5 DUP6 SWAP5 DUP6 PUSH2 0x1088 JUMP JUMPDEST DUP4 DUP1 MSTORE SUB SWAP1 PUSH1 0x1 GAS STATICCALL ISZERO PUSH2 0x1125 JUMPI PUSH2 0x1122 PUSH1 0x0 MLOAD PUSH2 0x1082 JUMP JUMPDEST SWAP1 JUMP JUMPDEST PUSH2 0x10C7 JUMP JUMPDEST PUSH1 0x0 SWAP1 JUMP JUMPDEST SWAP1 JUMP JUMPDEST PUSH2 0x1146 PUSH2 0x1141 PUSH2 0x114B SWAP3 PUSH2 0x112F JUMP JUMPDEST PUSH2 0xC1E JUMP JUMPDEST PUSH2 0x21E JUMP JUMPDEST SWAP1 JUMP JUMPDEST PUSH1 0x0 PUSH32 0x496E76616C6964207369676E6174757265206C656E6774680000000000000000 SWAP2 ADD MSTORE JUMP JUMPDEST PUSH2 0x1183 PUSH1 0x18 PUSH1 0x20 SWAP3 PUSH2 0x167 JUMP JUMPDEST PUSH2 0x118C DUP2 PUSH2 0x114E JUMP JUMPDEST ADD SWAP1 JUMP JUMPDEST PUSH2 0x11A6 SWAP1 PUSH1 0x20 DUP2 ADD SWAP1 PUSH1 0x0 DUP2 DUP4 SUB SWAP2 ADD MSTORE PUSH2 0x1176 JUMP JUMPDEST SWAP1 JUMP JUMPDEST ISZERO PUSH2 0x11B0 JUMPI JUMP JUMPDEST PUSH2 0x11B8 PUSH2 0x143 JUMP JUMPDEST PUSH3 0x461BCD PUSH1 0xE5 SHL DUP2 MSTORE DUP1 PUSH2 0x11CE PUSH1 0x4 DUP3 ADD PUSH2 0x1190 JUMP JUMPDEST SUB SWAP1 REVERT JUMPDEST SWAP1 JUMP JUMPDEST PUSH2 0x11E9 PUSH2 0x11E4 PUSH2 0x11EE SWAP3 PUSH2 0x11D2 JUMP JUMPDEST PUSH2 0xC1E JUMP JUMPDEST PUSH2 0x8C0 JUMP JUMPDEST SWAP1 JUMP JUMPDEST PUSH2 0x11FD PUSH2 0x1203 SWAP2 PUSH2 0x8C0 JUMP JUMPDEST SWAP2 PUSH2 0x8C0 JUMP JUMPDEST ADD SWAP1 PUSH1 0xFF DUP3 GT PUSH2 0x120F JUMPI JUMP JUMPDEST PUSH2 0xE41 JUMP JUMPDEST PUSH2 0x121C PUSH2 0xCDC JUMP JUMPDEST POP PUSH2 0x1225 PUSH2 0xCDC JUMP JUMPDEST POP PUSH2 0x122E PUSH2 0x112A JUMP JUMPDEST POP PUSH2 0x1254 PUSH2 0x123B DUP3 PUSH2 0xD5F JUMP JUMPDEST PUSH2 0x124E PUSH2 0x1248 PUSH1 0x41 PUSH2 0x1132 JUMP JUMPDEST SWAP2 PUSH2 0x21E JUMP JUMPDEST EQ PUSH2 0x11A9 JUMP JUMPDEST PUSH1 0x20 DUP2 ADD MLOAD SWAP2 PUSH1 0x60 PUSH1 0x40 DUP4 ADD MLOAD SWAP3 ADD MLOAD PUSH1 0x0 BYTE SWAP1 DUP2 PUSH2 0x127C PUSH2 0x1276 PUSH1 0x1B PUSH2 0x11D5 JUMP JUMPDEST SWAP2 PUSH2 0x8C0 JUMP JUMPDEST LT PUSH2 0x1284 JUMPI JUMPDEST JUMP JUMPDEST SWAP1 PUSH2 0x1299 SWAP1 PUSH2 0x1293 PUSH1 0x1B PUSH2 0x11D5 JUMP JUMPDEST SWAP1 PUSH2 0x11F1 JUMP JUMPDEST SWAP1 PUSH2 0x1282 JUMP JUMPDEST POP POP PUSH2 0x12A9 PUSH2 0xC67 JUMP JUMPDEST POP PUSH1 0x0 SWAP1 JUMP JUMPDEST PUSH2 0x12C3 PUSH2 0x12BE PUSH2 0x12C8 SWAP3 PUSH2 0x21E JUMP JUMPDEST PUSH2 0xC1E JUMP JUMPDEST PUSH2 0x21E JUMP JUMPDEST SWAP1 JUMP JUMPDEST SWAP1 PUSH2 0x12D5 SWAP1 PUSH2 0x12AF JUMP JUMPDEST PUSH1 0x0 MSTORE PUSH1 0x20 MSTORE PUSH1 0x40 PUSH1 0x0 KECCAK256 SWAP1 JUMP JUMPDEST PUSH1 0xFF AND SWAP1 JUMP JUMPDEST PUSH2 0x12F5 PUSH2 0x12FA SWAP2 PUSH2 0xDF8 JUMP JUMPDEST PUSH2 0x12E3 JUMP JUMPDEST SWAP1 JUMP JUMPDEST PUSH2 0x1307 SWAP1 SLOAD PUSH2 0x12E9 JUMP JUMPDEST SWAP1 JUMP JUMPDEST PUSH1 0x0 PUSH32 0x4E6F6E636520616C726561647920757365642E00000000000000000000000000 SWAP2 ADD MSTORE JUMP JUMPDEST PUSH2 0x133F PUSH1 0x13 PUSH1 0x20 SWAP3 PUSH2 0x167 JUMP JUMPDEST PUSH2 0x1348 DUP2 PUSH2 0x130A JUMP JUMPDEST ADD SWAP1 JUMP JUMPDEST PUSH2 0x1362 SWAP1 PUSH1 0x20 DUP2 ADD SWAP1 PUSH1 0x0 DUP2 DUP4 SUB SWAP2 ADD MSTORE PUSH2 0x1332 JUMP JUMPDEST SWAP1 JUMP JUMPDEST ISZERO PUSH2 0x136C JUMPI JUMP JUMPDEST PUSH2 0x1374 PUSH2 0x143 JUMP JUMPDEST PUSH3 0x461BCD PUSH1 0xE5 SHL DUP2 MSTORE DUP1 PUSH2 0x138A PUSH1 0x4 DUP3 ADD PUSH2 0x134C JUMP JUMPDEST SUB SWAP1 REVERT JUMPDEST SWAP1 PUSH2 0x139A PUSH1 0xFF SWAP2 PUSH2 0x1082 JUMP JUMPDEST SWAP2 DUP2 NOT AND SWAP2 AND OR SWAP1 JUMP JUMPDEST PUSH2 0x13AD SWAP1 PUSH2 0x418 JUMP JUMPDEST SWAP1 JUMP JUMPDEST SWAP1 JUMP JUMPDEST SWAP1 PUSH2 0x13C8 PUSH2 0x13C3 PUSH2 0x13CF SWAP3 PUSH2 0x13A4 JUMP JUMPDEST PUSH2 0x13B0 JUMP JUMPDEST DUP3 SLOAD PUSH2 0x138E JUMP JUMPDEST SWAP1 SSTORE JUMP JUMPDEST PUSH1 0x0 PUSH32 0x43616E6E6F742070726F706F7365000000000000000000000000000000000000 SWAP2 ADD MSTORE JUMP JUMPDEST PUSH2 0x1408 PUSH1 0xE PUSH1 0x20 SWAP3 PUSH2 0x167 JUMP JUMPDEST PUSH2 0x1411 DUP2 PUSH2 0x13D3 JUMP JUMPDEST ADD SWAP1 JUMP JUMPDEST PUSH2 0x142B SWAP1 PUSH1 0x20 DUP2 ADD SWAP1 PUSH1 0x0 DUP2 DUP4 SUB SWAP2 ADD MSTORE PUSH2 0x13FB JUMP JUMPDEST SWAP1 JUMP JUMPDEST ISZERO PUSH2 0x1435 JUMPI JUMP JUMPDEST PUSH2 0x143D PUSH2 0x143 JUMP JUMPDEST PUSH3 0x461BCD PUSH1 0xE5 SHL DUP2 MSTORE DUP1 PUSH2 0x1453 PUSH1 0x4 DUP3 ADD PUSH2 0x1415 JUMP JUMPDEST SUB SWAP1 REVERT JUMPDEST PUSH1 0x0 PUSH32 0x496E73756666696369656E742062616C616E6365000000000000000000000000 SWAP2 ADD MSTORE JUMP JUMPDEST PUSH2 0x148C PUSH1 0x14 PUSH1 0x20 SWAP3 PUSH2 0x167 JUMP JUMPDEST PUSH2 0x1495 DUP2 PUSH2 0x1457 JUMP JUMPDEST ADD SWAP1 JUMP JUMPDEST PUSH2 0x14AF SWAP1 PUSH1 0x20 DUP2 ADD SWAP1 PUSH1 0x0 DUP2 DUP4 SUB SWAP2 ADD MSTORE PUSH2 0x147F JUMP JUMPDEST SWAP1 JUMP JUMPDEST ISZERO PUSH2 0x14B9 JUMPI JUMP JUMPDEST PUSH2 0x14C1 PUSH2 0x143 JUMP JUMPDEST PUSH3 0x461BCD PUSH1 0xE5 SHL DUP2 MSTORE DUP1 PUSH2 0x14D7 PUSH1 0x4 DUP3 ADD PUSH2 0x1499 JUMP JUMPDEST SUB SWAP1 REVERT JUMPDEST PUSH2 0x14E5 PUSH1 0xE0 PUSH2 0x329 JUMP JUMPDEST SWAP1 JUMP JUMPDEST PUSH1 0x0 SWAP1 JUMP JUMPDEST PUSH1 0x0 SWAP1 JUMP JUMPDEST PUSH1 0x60 SWAP1 JUMP JUMPDEST PUSH1 0x0 SWAP1 JUMP JUMPDEST PUSH2 0x1504 PUSH2 0x14DB JUMP JUMPDEST SWAP1 PUSH1 0x20 DUP1 DUP1 DUP1 DUP1 DUP1 DUP1 DUP9 PUSH2 0x1516 PUSH2 0x14E8 JUMP JUMPDEST DUP2 MSTORE ADD PUSH2 0x1521 PUSH2 0x14E8 JUMP JUMPDEST DUP2 MSTORE ADD PUSH2 0x152C PUSH2 0x14ED JUMP JUMPDEST DUP2 MSTORE ADD PUSH2 0x1537 PUSH2 0x14F2 JUMP JUMPDEST DUP2 MSTORE ADD PUSH2 0x1542 PUSH2 0x14ED JUMP JUMPDEST DUP2 MSTORE ADD PUSH2 0x154D PUSH2 0x14ED JUMP JUMPDEST DUP2 MSTORE ADD PUSH2 0x1558 PUSH2 0x14F7 JUMP JUMPDEST DUP2 MSTORE POP POP JUMP JUMPDEST PUSH2 0x1566 PUSH2 0x14FC JUMP JUMPDEST SWAP1 JUMP JUMPDEST SWAP1 PUSH2 0x1573 SWAP1 PUSH2 0x289 JUMP JUMPDEST SWAP1 MSTORE JUMP JUMPDEST SWAP1 PUSH2 0x1581 SWAP1 PUSH2 0x21E JUMP JUMPDEST SWAP1 MSTORE JUMP JUMPDEST PUSH1 0x0 PUSH32 0x496E76616C6964207369676E6174757265000000000000000000000000000000 SWAP2 ADD MSTORE JUMP JUMPDEST PUSH2 0x15BA PUSH1 0x11 PUSH1 0x20 SWAP3 PUSH2 0x167 JUMP JUMPDEST PUSH2 0x15C3 DUP2 PUSH2 0x1585 JUMP JUMPDEST ADD SWAP1 JUMP JUMPDEST PUSH2 0x15DD SWAP1 PUSH1 0x20 DUP2 ADD SWAP1 PUSH1 0x0 DUP2 DUP4 SUB SWAP2 ADD MSTORE PUSH2 0x15AD JUMP JUMPDEST SWAP1 JUMP JUMPDEST ISZERO PUSH2 0x15E7 JUMPI JUMP JUMPDEST PUSH2 0x15EF PUSH2 0x143 JUMP JUMPDEST PUSH3 0x461BCD PUSH1 0xE5 SHL DUP2 MSTORE DUP1 PUSH2 0x1605 PUSH1 0x4 DUP3 ADD PUSH2 0x15C7 JUMP JUMPDEST SUB SWAP1 REVERT JUMPDEST SWAP1 PUSH2 0x1613 SWAP1 PUSH2 0x418 JUMP JUMPDEST SWAP1 MSTORE JUMP JUMPDEST SWAP1 JUMP JUMPDEST PUSH1 0x0 MSTORE PUSH1 0x20 PUSH1 0x0 KECCAK256 SWAP1 JUMP JUMPDEST PUSH4 0x4E487B71 PUSH1 0xE0 SHL PUSH1 0x0 MSTORE PUSH1 0x32 PUSH1 0x4 MSTORE PUSH1 0x24 PUSH1 0x0 REVERT JUMPDEST SLOAD SWAP1 JUMP JUMPDEST PUSH2 0x1648 DUP2 PUSH2 0x163B JUMP JUMPDEST DUP3 LT ISZERO PUSH2 0x1663 JUMPI PUSH2 0x165A PUSH1 0x7 SWAP2 PUSH2 0x161A JUMP JUMPDEST SWAP2 MUL ADD SWAP1 PUSH1 0x0 SWAP1 JUMP JUMPDEST PUSH2 0x1625 JUMP JUMPDEST PUSH4 0x4E487B71 PUSH1 0xE0 SHL PUSH1 0x0 MSTORE PUSH1 0x0 PUSH1 0x4 MSTORE PUSH1 0x24 PUSH1 0x0 REVERT JUMPDEST SWAP1 PUSH2 0x168F PUSH1 0x1 DUP1 PUSH1 0xA0 SHL SUB SWAP2 PUSH2 0x1082 JUMP JUMPDEST SWAP2 DUP2 NOT AND SWAP2 AND OR SWAP1 JUMP JUMPDEST SWAP1 JUMP JUMPDEST SWAP1 PUSH2 0x16B1 PUSH2 0x16AC PUSH2 0x16B8 SWAP3 PUSH2 0xDD4 JUMP JUMPDEST PUSH2 0x1699 JUMP JUMPDEST DUP3 SLOAD PUSH2 0x167E JUMP JUMPDEST SWAP1 SSTORE JUMP JUMPDEST SWAP1 PUSH2 0x16C9 PUSH1 0x0 NOT SWAP2 PUSH2 0x1082 JUMP JUMPDEST SWAP2 DUP2 NOT AND SWAP2 AND OR SWAP1 JUMP JUMPDEST SWAP1 JUMP JUMPDEST SWAP1 PUSH2 0x16EB PUSH2 0x16E6 PUSH2 0x16F2 SWAP3 PUSH2 0x12AF JUMP JUMPDEST PUSH2 0x16D3 JUMP JUMPDEST DUP3 SLOAD PUSH2 0x16BC JUMP JUMPDEST SWAP1 SSTORE JUMP JUMPDEST MLOAD SWAP1 JUMP JUMPDEST PUSH4 0x4E487B71 PUSH1 0xE0 SHL PUSH1 0x0 MSTORE PUSH1 0x22 PUSH1 0x4 MSTORE PUSH1 0x24 PUSH1 0x0 REVERT JUMPDEST SWAP1 PUSH1 0x1 PUSH1 0x2 DUP4 DIV SWAP3 AND DUP1 ISZERO PUSH2 0x1730 JUMPI JUMPDEST PUSH1 0x20 DUP4 LT EQ PUSH2 0x172B JUMPI JUMP JUMPDEST PUSH2 0x16FA JUMP JUMPDEST SWAP2 PUSH1 0x7F AND SWAP2 PUSH2 0x1720 JUMP JUMPDEST PUSH1 0x0 MSTORE PUSH1 0x20 PUSH1 0x0 KECCAK256 SWAP1 JUMP JUMPDEST PUSH1 0x1F PUSH1 0x20 SWAP2 ADD DIV SWAP1 JUMP JUMPDEST SHL SWAP1 JUMP JUMPDEST SWAP2 SWAP1 PUSH1 0x8 PUSH2 0x176F SWAP2 MUL SWAP2 PUSH2 0x1769 PUSH1 0x0 NOT DUP5 PUSH2 0x174F JUMP JUMPDEST SWAP3 PUSH2 0x174F JUMP JUMPDEST SWAP2 DUP2 NOT AND SWAP2 AND OR SWAP1 JUMP JUMPDEST SWAP2 SWAP1 PUSH2 0x178F PUSH2 0x178A PUSH2 0x1797 SWAP4 PUSH2 0x12AF JUMP JUMPDEST PUSH2 0x16D3 JUMP JUMPDEST SWAP1 DUP4 SLOAD PUSH2 0x1753 JUMP JUMPDEST SWAP1 SSTORE JUMP JUMPDEST PUSH2 0x17AD SWAP2 PUSH2 0x17A7 PUSH2 0xC16 JUMP JUMPDEST SWAP2 PUSH2 0x1779 JUMP JUMPDEST JUMP JUMPDEST JUMPDEST DUP2 DUP2 LT PUSH2 0x17BB JUMPI POP POP JUMP JUMPDEST DUP1 PUSH2 0x17C9 PUSH1 0x0 PUSH1 0x1 SWAP4 PUSH2 0x179B JUMP JUMPDEST ADD PUSH2 0x17B0 JUMP JUMPDEST SWAP2 SWAP1 PUSH1 0x1F DUP2 GT PUSH2 0x17DF JUMPI JUMPDEST POP POP POP JUMP JUMPDEST PUSH2 0x17EB PUSH2 0x1810 SWAP4 PUSH2 0x173A JUMP JUMPDEST SWAP1 PUSH1 0x20 PUSH2 0x17F7 DUP5 PUSH2 0x1745 JUMP JUMPDEST DUP4 ADD SWAP4 LT PUSH2 0x1818 JUMPI JUMPDEST PUSH2 0x1809 SWAP1 PUSH2 0x1745 JUMP JUMPDEST ADD SWAP1 PUSH2 0x17AF JUMP JUMPDEST CODESIZE DUP1 DUP1 PUSH2 0x17DA JUMP JUMPDEST SWAP2 POP PUSH2 0x1809 DUP2 SWAP3 SWAP1 POP PUSH2 0x1800 JUMP JUMPDEST SHR SWAP1 JUMP JUMPDEST SWAP1 PUSH2 0x183B SWAP1 PUSH1 0x0 NOT SWAP1 PUSH1 0x8 MUL PUSH2 0x1826 JUMP JUMPDEST NOT AND SWAP1 JUMP JUMPDEST DUP2 PUSH2 0x184A SWAP2 PUSH2 0x182A JUMP JUMPDEST SWAP1 PUSH1 0x2 MUL OR SWAP1 JUMP JUMPDEST SWAP1 PUSH2 0x185C DUP2 PUSH2 0xD5F JUMP JUMPDEST SWAP1 PUSH8 0xFFFFFFFFFFFFFFFF DUP3 GT PUSH2 0x191E JUMPI PUSH2 0x1880 DUP3 PUSH2 0x187A DUP6 SLOAD PUSH2 0x1710 JUMP JUMPDEST DUP6 PUSH2 0x17CF JUMP JUMPDEST PUSH1 0x20 SWAP1 PUSH1 0x1F DUP4 GT PUSH1 0x1 EQ PUSH2 0x18B5 JUMPI SWAP2 DUP1 SWAP2 PUSH2 0x18A4 SWAP4 PUSH1 0x0 SWAP3 PUSH2 0x18A9 JUMPI JUMPDEST POP POP PUSH2 0x1840 JUMP JUMPDEST SWAP1 SSTORE JUMPDEST JUMP JUMPDEST SWAP1 SWAP2 POP ADD MLOAD CODESIZE DUP1 PUSH2 0x189D JUMP JUMPDEST PUSH1 0x1F NOT DUP4 AND SWAP2 PUSH2 0x18C4 DUP6 PUSH2 0x173A JUMP JUMPDEST SWAP3 PUSH1 0x0 JUMPDEST DUP2 DUP2 LT PUSH2 0x1906 JUMPI POP SWAP2 PUSH1 0x2 SWAP4 SWAP2 DUP6 PUSH1 0x1 SWAP7 SWAP5 LT PUSH2 0x18EC JUMPI JUMPDEST POP POP POP MUL ADD SWAP1 SSTORE PUSH2 0x18A7 JUMP JUMPDEST PUSH2 0x18FC SWAP2 ADD MLOAD PUSH1 0x1F DUP5 AND SWAP1 PUSH2 0x182A JUMP JUMPDEST SWAP1 SSTORE CODESIZE DUP1 DUP1 PUSH2 0x18E0 JUMP JUMPDEST SWAP2 SWAP4 PUSH1 0x20 PUSH1 0x1 DUP2 SWAP3 DUP8 DUP8 ADD MLOAD DUP2 SSTORE ADD SWAP6 ADD SWAP3 ADD PUSH2 0x18C8 JUMP JUMPDEST PUSH2 0x2EA JUMP JUMPDEST SWAP1 PUSH2 0x192D SWAP2 PUSH2 0x1852 JUMP JUMPDEST JUMP JUMPDEST PUSH2 0x1939 SWAP1 MLOAD PUSH2 0x418 JUMP JUMPDEST SWAP1 JUMP JUMPDEST SWAP1 PUSH2 0x19E6 PUSH1 0xC0 PUSH1 0x6 PUSH2 0x19EC SWAP5 PUSH2 0x1961 PUSH1 0x0 DUP3 ADD PUSH2 0x195B PUSH1 0x0 DUP9 ADD PUSH2 0xF9E JUMP JUMPDEST SWAP1 PUSH2 0x169C JUMP JUMPDEST PUSH2 0x197A PUSH1 0x1 DUP3 ADD PUSH2 0x1974 PUSH1 0x20 DUP9 ADD PUSH2 0xF9E JUMP JUMPDEST SWAP1 PUSH2 0x169C JUMP JUMPDEST PUSH2 0x1993 PUSH1 0x2 DUP3 ADD PUSH2 0x198D PUSH1 0x40 DUP9 ADD PUSH2 0xFAB JUMP JUMPDEST SWAP1 PUSH2 0x16D6 JUMP JUMPDEST PUSH2 0x19AC PUSH1 0x3 DUP3 ADD PUSH2 0x19A6 PUSH1 0x60 DUP9 ADD PUSH2 0x16F6 JUMP JUMPDEST SWAP1 PUSH2 0x1923 JUMP JUMPDEST PUSH2 0x19C5 PUSH1 0x4 DUP3 ADD PUSH2 0x19BF PUSH1 0x80 DUP9 ADD PUSH2 0xFAB JUMP JUMPDEST SWAP1 PUSH2 0x16D6 JUMP JUMPDEST PUSH2 0x19DE PUSH1 0x5 DUP3 ADD PUSH2 0x19D8 PUSH1 0xA0 DUP9 ADD PUSH2 0xFAB JUMP JUMPDEST SWAP1 PUSH2 0x16D6 JUMP JUMPDEST ADD SWAP3 ADD PUSH2 0x192F JUMP JUMPDEST SWAP1 PUSH2 0x13B3 JUMP JUMPDEST JUMP JUMPDEST SWAP2 SWAP1 PUSH2 0x19FF JUMPI PUSH2 0x19FD SWAP2 PUSH2 0x193C JUMP JUMPDEST JUMP JUMPDEST PUSH2 0x1668 JUMP JUMPDEST SWAP1 DUP2 SLOAD SWAP2 PUSH9 0x10000000000000000 DUP4 LT ISZERO PUSH2 0x1A34 JUMPI DUP3 PUSH2 0x1A2C SWAP2 PUSH1 0x1 PUSH2 0x1A32 SWAP6 ADD DUP2 SSTORE PUSH2 0x163F JUMP JUMPDEST SWAP1 PUSH2 0x19EE JUMP JUMPDEST JUMP JUMPDEST PUSH2 0x2EA JUMP JUMPDEST PUSH1 0x20 SWAP2 DUP2 MSTORE ADD SWAP1 JUMP JUMPDEST PUSH2 0x1A61 PUSH2 0x1A6A PUSH1 0x20 SWAP4 PUSH2 0x1A6F SWAP4 PUSH2 0x1A58 DUP2 PUSH2 0xD5F JUMP JUMPDEST SWAP4 DUP5 DUP1 SWAP4 PUSH2 0x1A39 JUMP JUMPDEST SWAP6 DUP7 SWAP2 ADD PUSH2 0x170 JUMP JUMPDEST PUSH2 0x195 JUMP JUMPDEST ADD SWAP1 JUMP JUMPDEST PUSH2 0x1AC2 SWAP5 PUSH2 0x1AAD DUP3 SWAP9 SWAP8 SWAP6 PUSH2 0x1AA3 PUSH1 0x80 SWAP7 PUSH2 0x1A99 PUSH2 0x1ABA SWAP8 PUSH1 0x0 PUSH1 0xA0 DUP10 ADD SWAP9 ADD SWAP1 PUSH2 0x831 JUMP JUMPDEST PUSH1 0x20 DUP13 ADD SWAP1 PUSH2 0x831 JUMP JUMPDEST PUSH1 0x40 DUP11 ADD SWAP1 PUSH2 0x221 JUMP JUMPDEST DUP8 DUP3 SUB PUSH1 0x60 DUP10 ADD MSTORE PUSH2 0x1A42 JUMP JUMPDEST SWAP5 ADD SWAP1 PUSH2 0x221 JUMP JUMPDEST JUMP JUMPDEST SWAP4 PUSH2 0x1C18 SWAP2 SWAP3 SWAP4 SWAP5 PUSH2 0x1AD4 PUSH2 0xC67 JUMP JUMPDEST POP PUSH2 0x1AFA PUSH2 0x1AF5 PUSH2 0x1AEF PUSH2 0x1AEA PUSH1 0x4 DUP7 SWAP1 PUSH2 0x12CB JUMP JUMPDEST PUSH2 0x12FD JUMP JUMPDEST ISZERO PUSH2 0x418 JUMP JUMPDEST PUSH2 0x1365 JUMP JUMPDEST PUSH2 0x1B10 PUSH1 0x1 PUSH2 0x1B0B PUSH1 0x4 DUP6 SWAP1 PUSH2 0x12CB JUMP JUMPDEST PUSH2 0x13B3 JUMP JUMPDEST PUSH2 0x1B20 PUSH2 0x1B1B PUSH2 0xF0E JUMP JUMPDEST PUSH2 0x142E JUMP JUMPDEST PUSH2 0x1B50 PUSH2 0x1B37 PUSH2 0x1B32 PUSH1 0x3 DUP5 SWAP1 PUSH2 0xDE0 JUMP JUMPDEST PUSH2 0xE15 JUMP JUMPDEST PUSH2 0x1B49 PUSH2 0x1B43 DUP9 PUSH2 0x21E JUMP JUMPDEST SWAP2 PUSH2 0x21E JUMP JUMPDEST LT ISZERO PUSH2 0x14B2 JUMP JUMPDEST PUSH2 0x1BE2 PUSH2 0x1B5B PUSH2 0x155E JUMP JUMPDEST PUSH2 0x1B68 DUP4 PUSH1 0x0 DUP4 ADD PUSH2 0x1569 JUMP JUMPDEST PUSH2 0x1B75 DUP7 PUSH1 0x20 DUP4 ADD PUSH2 0x1569 JUMP JUMPDEST PUSH2 0x1B82 DUP8 PUSH1 0x40 DUP4 ADD PUSH2 0x1577 JUMP JUMPDEST DUP8 PUSH1 0x60 DUP3 ADD MSTORE PUSH2 0x1B95 DUP5 PUSH1 0x80 DUP4 ADD PUSH2 0x1577 JUMP JUMPDEST PUSH2 0x1BA2 TIMESTAMP PUSH1 0xA0 DUP4 ADD PUSH2 0x1577 JUMP JUMPDEST PUSH2 0x1BB5 PUSH2 0x1BB0 DUP3 DUP11 SWAP1 PUSH2 0xFB8 JUMP JUMPDEST PUSH2 0x15E0 JUMP JUMPDEST PUSH2 0x1BC3 PUSH1 0x0 PUSH1 0xC0 DUP4 ADD PUSH2 0x1609 JUMP JUMPDEST PUSH2 0x1BCE DUP4 DUP9 SWAP1 PUSH2 0x2931 JUMP JUMPDEST PUSH2 0x1C28 JUMPI JUMPDEST PUSH2 0x1BDD PUSH1 0x0 PUSH2 0x1617 JUMP JUMPDEST PUSH2 0x1A04 JUMP JUMPDEST SWAP3 SWAP4 SWAP5 PUSH32 0x4FA994AA29CFE03CF996E8A94BEC96ED4B14C748957DF777D0613CF57A589471 SWAP6 PUSH2 0x1C0F PUSH2 0x143 JUMP JUMPDEST SWAP6 DUP7 SWAP6 DUP7 PUSH2 0x1A73 JUMP JUMPDEST SUB SWAP1 LOG1 PUSH2 0x1C23 PUSH2 0x228E JUMP JUMPDEST PUSH1 0x1 SWAP1 JUMP JUMPDEST PUSH2 0x1C36 PUSH1 0x1 PUSH1 0xC0 DUP4 ADD PUSH2 0x1609 JUMP JUMPDEST PUSH2 0x1BD3 JUMP JUMPDEST SLOAD SWAP1 JUMP JUMPDEST PUSH2 0x1C47 PUSH2 0xC16 JUMP JUMPDEST POP PUSH2 0x1C52 PUSH1 0x0 PUSH2 0x1C3B JUMP JUMPDEST SWAP1 JUMP JUMPDEST PUSH1 0x0 PUSH32 0x4368616C6C656E676520756E7375636365737366756C00000000000000000000 SWAP2 ADD MSTORE JUMP JUMPDEST PUSH2 0x1C8A PUSH1 0x16 PUSH1 0x20 SWAP3 PUSH2 0x167 JUMP JUMPDEST PUSH2 0x1C93 DUP2 PUSH2 0x1C55 JUMP JUMPDEST ADD SWAP1 JUMP JUMPDEST PUSH2 0x1CAD SWAP1 PUSH1 0x20 DUP2 ADD SWAP1 PUSH1 0x0 DUP2 DUP4 SUB SWAP2 ADD MSTORE PUSH2 0x1C7D JUMP JUMPDEST SWAP1 JUMP JUMPDEST ISZERO PUSH2 0x1CB7 JUMPI JUMP JUMPDEST PUSH2 0x1CBF PUSH2 0x143 JUMP JUMPDEST PUSH3 0x461BCD PUSH1 0xE5 SHL DUP2 MSTORE DUP1 PUSH2 0x1CD5 PUSH1 0x4 DUP3 ADD PUSH2 0x1C97 JUMP JUMPDEST SUB SWAP1 REVERT JUMPDEST SWAP2 PUSH2 0x1D68 SWAP3 PUSH2 0x1D5E PUSH2 0x1D59 PUSH2 0x1D63 SWAP5 SWAP7 PUSH2 0x1D38 PUSH2 0x1D77 SWAP10 PUSH2 0x1CF8 PUSH2 0xC67 JUMP JUMPDEST POP PUSH2 0x1D1C PUSH2 0x1D04 PUSH2 0x155E JUMP JUMPDEST SWAP11 PUSH2 0x1D13 DUP13 PUSH1 0x0 DUP11 SWAP2 ADD PUSH2 0x1569 JUMP JUMPDEST PUSH1 0x20 DUP13 ADD PUSH2 0x1569 JUMP JUMPDEST PUSH2 0x1D29 DUP8 PUSH1 0x40 DUP13 ADD PUSH2 0x1577 JUMP JUMPDEST DUP3 PUSH1 0x60 DUP12 ADD MSTORE PUSH1 0x80 DUP11 ADD PUSH2 0x1577 JUMP JUMPDEST PUSH2 0x1D45 TIMESTAMP PUSH1 0xA0 DUP11 ADD PUSH2 0x1577 JUMP JUMPDEST PUSH2 0x1D53 PUSH1 0x1 PUSH1 0xC0 DUP11 ADD PUSH2 0x1609 JUMP JUMPDEST DUP8 PUSH2 0xFB8 JUMP JUMPDEST PUSH2 0x15E0 JUMP JUMPDEST PUSH2 0x2931 JUMP JUMPDEST PUSH2 0x1CB0 JUMP JUMPDEST PUSH2 0x1D72 PUSH1 0x0 PUSH2 0x1617 JUMP JUMPDEST PUSH2 0x1A04 JUMP JUMPDEST PUSH2 0x1D7F PUSH2 0x228E JUMP JUMPDEST PUSH1 0x1 SWAP1 JUMP JUMPDEST PUSH2 0x1D8D SWAP1 PUSH2 0x21E JUMP JUMPDEST PUSH1 0x0 NOT DUP2 EQ PUSH2 0x1D9C JUMPI PUSH1 0x1 ADD SWAP1 JUMP JUMPDEST PUSH2 0xE41 JUMP JUMPDEST PUSH2 0x1DAA SWAP1 PUSH2 0x21E JUMP JUMPDEST PUSH1 0x0 DUP2 EQ PUSH2 0x1DB9 JUMPI PUSH1 0x1 SWAP1 SUB SWAP1 JUMP JUMPDEST PUSH2 0xE41 JUMP JUMPDEST PUSH1 0x0 MSTORE PUSH1 0x20 PUSH1 0x0 KECCAK256 SWAP1 JUMP JUMPDEST PUSH2 0x1DD2 DUP2 PUSH2 0x1C3B JUMP JUMPDEST DUP3 LT ISZERO PUSH2 0x1DED JUMPI PUSH2 0x1DE4 PUSH1 0x7 SWAP2 PUSH2 0x1DBE JUMP JUMPDEST SWAP2 MUL ADD SWAP1 PUSH1 0x0 SWAP1 JUMP JUMPDEST PUSH2 0x1625 JUMP JUMPDEST PUSH1 0x1 DUP1 PUSH1 0xA0 SHL SUB AND SWAP1 JUMP JUMPDEST PUSH2 0x1E09 PUSH2 0x1E0E SWAP2 PUSH2 0xDF8 JUMP JUMPDEST PUSH2 0x1DF2 JUMP JUMPDEST SWAP1 JUMP JUMPDEST PUSH2 0x1E1B SWAP1 SLOAD PUSH2 0x1DFD JUMP JUMPDEST SWAP1 JUMP JUMPDEST PUSH2 0x1E2D PUSH2 0x1E33 SWAP2 SWAP4 SWAP3 SWAP4 PUSH2 0x21E JUMP JUMPDEST SWAP3 PUSH2 0x21E JUMP JUMPDEST DUP3 ADD DUP1 SWAP3 GT PUSH2 0x1E3E JUMPI JUMP JUMPDEST PUSH2 0xE41 JUMP JUMPDEST SWAP1 JUMP JUMPDEST PUSH2 0x1E5A PUSH2 0x1E55 PUSH2 0x1E5F SWAP3 PUSH2 0x1E43 JUMP JUMPDEST PUSH2 0xC1E JUMP JUMPDEST PUSH2 0x21E JUMP JUMPDEST SWAP1 JUMP JUMPDEST PUSH2 0x1E6C SWAP1 SLOAD PUSH2 0x1710 JUMP JUMPDEST SWAP1 JUMP JUMPDEST SWAP1 DUP1 DUP3 EQ PUSH2 0x1F51 JUMPI PUSH2 0x1E80 DUP2 PUSH2 0x1E62 JUMP JUMPDEST SWAP1 PUSH8 0xFFFFFFFFFFFFFFFF DUP3 GT PUSH2 0x1F4C JUMPI PUSH2 0x1EA4 DUP3 PUSH2 0x1E9E DUP6 SLOAD PUSH2 0x1710 JUMP JUMPDEST DUP6 PUSH2 0x17CF JUMP JUMPDEST PUSH1 0x0 SWAP1 PUSH1 0x1F DUP4 GT PUSH1 0x1 EQ PUSH2 0x1ED9 JUMPI SWAP2 DUP1 SWAP2 PUSH2 0x1EC8 SWAP4 PUSH1 0x0 SWAP3 PUSH2 0x1ECD JUMPI JUMPDEST POP POP PUSH2 0x1840 JUMP JUMPDEST SWAP1 SSTORE JUMPDEST JUMP JUMPDEST SWAP1 SWAP2 POP ADD SLOAD CODESIZE DUP1 PUSH2 0x1EC1 JUMP JUMPDEST SWAP1 PUSH2 0x1EE8 PUSH1 0x1F NOT DUP5 AND SWAP3 PUSH2 0x173A JUMP JUMPDEST SWAP1 PUSH2 0x1EF2 DUP6 PUSH2 0x173A JUMP JUMPDEST SWAP3 PUSH1 0x0 JUMPDEST DUP2 DUP2 LT PUSH2 0x1F34 JUMPI POP SWAP2 PUSH1 0x2 SWAP4 SWAP2 DUP6 PUSH1 0x1 SWAP7 SWAP5 LT PUSH2 0x1F1A JUMPI JUMPDEST POP POP POP MUL ADD SWAP1 SSTORE PUSH2 0x1ECB JUMP JUMPDEST PUSH2 0x1F2A SWAP2 ADD SLOAD PUSH1 0x1F DUP5 AND SWAP1 PUSH2 0x182A JUMP JUMPDEST SWAP1 SSTORE CODESIZE DUP1 DUP1 PUSH2 0x1F0E JUMP JUMPDEST SWAP2 SWAP4 PUSH1 0x1 DUP1 PUSH1 0x20 SWAP3 DUP8 DUP8 ADD SLOAD DUP2 SSTORE ADD SWAP6 ADD SWAP3 ADD PUSH2 0x1EF6 JUMP JUMPDEST PUSH2 0x2EA JUMP JUMPDEST POP POP JUMP JUMPDEST SWAP1 PUSH2 0x1F5F SWAP2 PUSH2 0x1E6F JUMP JUMPDEST JUMP JUMPDEST SWAP1 DUP1 DUP3 SUB PUSH2 0x1F6E JUMPI JUMPDEST POP POP JUMP JUMPDEST PUSH2 0x200E PUSH1 0x6 DUP1 DUP5 PUSH2 0x1F91 PUSH1 0x0 PUSH2 0x2014 SWAP8 ADD PUSH2 0x1F8B PUSH1 0x0 DUP9 ADD PUSH2 0x1E11 JUMP JUMPDEST SWAP1 PUSH2 0x169C JUMP JUMPDEST PUSH2 0x1FAA PUSH1 0x1 DUP3 ADD PUSH2 0x1FA4 PUSH1 0x1 DUP9 ADD PUSH2 0x1E11 JUMP JUMPDEST SWAP1 PUSH2 0x169C JUMP JUMPDEST PUSH2 0x1FC3 PUSH1 0x2 DUP3 ADD PUSH2 0x1FBD PUSH1 0x2 DUP9 ADD PUSH2 0xE15 JUMP JUMPDEST SWAP1 PUSH2 0x16D6 JUMP JUMPDEST PUSH2 0x1FD4 PUSH1 0x3 DUP3 ADD PUSH1 0x3 DUP8 ADD SWAP1 PUSH2 0x1F55 JUMP JUMPDEST PUSH2 0x1FED PUSH1 0x4 DUP3 ADD PUSH2 0x1FE7 PUSH1 0x4 DUP9 ADD PUSH2 0xE15 JUMP JUMPDEST SWAP1 PUSH2 0x16D6 JUMP JUMPDEST PUSH2 0x2006 PUSH1 0x5 DUP3 ADD PUSH2 0x2000 PUSH1 0x5 DUP9 ADD PUSH2 0xE15 JUMP JUMPDEST SWAP1 PUSH2 0x16D6 JUMP JUMPDEST ADD SWAP3 ADD PUSH2 0x12FD JUMP JUMPDEST SWAP1 PUSH2 0x13B3 JUMP JUMPDEST CODESIZE DUP1 PUSH2 0x1F6A JUMP JUMPDEST SWAP2 SWAP1 PUSH2 0x202C JUMPI PUSH2 0x202A SWAP2 PUSH2 0x1F61 JUMP JUMPDEST JUMP JUMPDEST PUSH2 0x1668 JUMP JUMPDEST PUSH4 0x4E487B71 PUSH1 0xE0 SHL PUSH1 0x0 MSTORE PUSH1 0x31 PUSH1 0x4 MSTORE PUSH1 0x24 PUSH1 0x0 REVERT JUMPDEST SWAP1 PUSH2 0x205B SWAP1 PUSH1 0x0 NOT SWAP1 PUSH1 0x20 SUB PUSH1 0x8 MUL PUSH2 0x1826 JUMP JUMPDEST DUP2 SLOAD AND SWAP1 SSTORE JUMP JUMPDEST SWAP1 PUSH1 0x0 SWAP2 PUSH2 0x207A PUSH2 0x2072 DUP3 PUSH2 0x173A JUMP JUMPDEST SWAP3 DUP4 SLOAD PUSH2 0x1840 JUMP JUMPDEST SWAP1 SSTORE SSTORE JUMP JUMPDEST SWAP2 SWAP3 SWAP1 PUSH1 0x20 DUP3 LT PUSH1 0x0 EQ PUSH2 0x20D9 JUMPI PUSH1 0x1F DUP5 GT PUSH1 0x1 EQ PUSH2 0x20A9 JUMPI PUSH2 0x20A3 SWAP3 SWAP4 POP PUSH2 0x1840 JUMP JUMPDEST SWAP1 SSTORE JUMPDEST JUMPDEST JUMP JUMPDEST POP SWAP1 PUSH2 0x20CF PUSH2 0x20D4 SWAP4 PUSH1 0x1 PUSH2 0x20C6 PUSH2 0x20C0 DUP6 PUSH2 0x173A JUMP JUMPDEST SWAP3 PUSH2 0x1745 JUMP JUMPDEST DUP3 ADD SWAP2 ADD PUSH2 0x17AF JUMP JUMPDEST PUSH2 0x2062 JUMP JUMPDEST PUSH2 0x20A6 JUMP JUMPDEST POP PUSH2 0x2110 DUP3 SWAP4 PUSH2 0x20EA PUSH1 0x1 SWAP5 PUSH2 0x173A JUMP JUMPDEST PUSH2 0x2109 PUSH2 0x20F6 DUP6 PUSH2 0x1745 JUMP JUMPDEST DUP3 ADD SWAP3 PUSH1 0x1F DUP7 AND DUP1 PUSH2 0x211B JUMPI JUMPDEST POP PUSH2 0x1745 JUMP JUMPDEST ADD SWAP1 PUSH2 0x17AF JUMP JUMPDEST PUSH1 0x2 MUL OR SWAP1 SSTORE PUSH2 0x20A7 JUMP JUMPDEST PUSH2 0x2127 SWAP1 DUP9 DUP7 SUB PUSH2 0x2047 JUMP JUMPDEST CODESIZE PUSH2 0x2103 JUMP JUMPDEST SWAP3 SWAP1 SWAP2 PUSH9 0x10000000000000000 DUP3 GT PUSH2 0x218F JUMPI PUSH1 0x20 GT PUSH1 0x0 EQ PUSH2 0x2180 JUMPI PUSH1 0x20 DUP2 LT PUSH1 0x0 EQ PUSH2 0x2164 JUMPI PUSH2 0x215E SWAP2 PUSH2 0x1840 JUMP JUMPDEST SWAP1 SSTORE JUMPDEST JUMPDEST JUMP JUMPDEST PUSH1 0x1 SWAP2 PUSH1 0xFF NOT AND PUSH2 0x2174 DUP5 PUSH2 0x173A JUMP JUMPDEST SSTORE PUSH1 0x2 MUL ADD SWAP1 SSTORE PUSH2 0x2161 JUMP JUMPDEST PUSH1 0x1 SWAP2 POP PUSH1 0x2 MUL ADD SWAP1 SSTORE PUSH2 0x2162 JUMP JUMPDEST PUSH2 0x2EA JUMP JUMPDEST SWAP1 DUP2 SLOAD PUSH2 0x21A0 DUP2 PUSH2 0x1710 JUMP JUMPDEST SWAP1 DUP2 DUP4 GT PUSH2 0x21C9 JUMPI JUMPDEST DUP2 DUP4 LT PUSH2 0x21B7 JUMPI JUMPDEST POP POP POP POP JUMP JUMPDEST PUSH2 0x21C0 SWAP4 PUSH2 0x207F JUMP JUMPDEST CODESIZE DUP1 DUP1 DUP1 PUSH2 0x21B1 JUMP JUMPDEST PUSH2 0x21D5 DUP4 DUP4 DUP4 DUP8 PUSH2 0x212D JUMP JUMPDEST PUSH2 0x21A9 JUMP JUMPDEST PUSH1 0x0 PUSH2 0x21E5 SWAP2 PUSH2 0x2194 JUMP JUMPDEST JUMP JUMPDEST SWAP1 PUSH1 0x0 SUB PUSH2 0x21FA JUMPI PUSH2 0x21F8 SWAP1 PUSH2 0x21DA JUMP JUMPDEST JUMP JUMPDEST PUSH2 0x1668 JUMP JUMPDEST PUSH1 0x6 PUSH1 0x0 SWAP2 DUP3 DUP1 DUP3 ADD SSTORE DUP3 PUSH1 0x1 DUP3 ADD SSTORE PUSH2 0x221C DUP4 PUSH1 0x2 DUP4 ADD PUSH2 0x179B JUMP JUMPDEST PUSH2 0x2229 DUP4 PUSH1 0x3 DUP4 ADD PUSH2 0x21E7 JUMP JUMPDEST PUSH2 0x2236 DUP4 PUSH1 0x4 DUP4 ADD PUSH2 0x179B JUMP JUMPDEST PUSH2 0x2243 DUP4 PUSH1 0x5 DUP4 ADD PUSH2 0x179B JUMP JUMPDEST ADD SSTORE JUMP JUMPDEST SWAP1 PUSH1 0x0 SUB PUSH2 0x225A JUMPI PUSH2 0x2258 SWAP1 PUSH2 0x21FF JUMP JUMPDEST JUMP JUMPDEST PUSH2 0x1668 JUMP JUMPDEST PUSH2 0x2268 DUP2 PUSH2 0x163B JUMP JUMPDEST DUP1 ISZERO PUSH2 0x2289 JUMPI PUSH1 0x1 SWAP1 SUB SWAP1 PUSH2 0x2286 PUSH2 0x2280 DUP4 DUP4 PUSH2 0x163F JUMP JUMPDEST SWAP1 PUSH2 0x2247 JUMP JUMPDEST SSTORE JUMP JUMPDEST PUSH2 0x2031 JUMP JUMPDEST PUSH2 0x22D4 TIMESTAMP PUSH2 0x22CE PUSH2 0x22C0 TIMESTAMP PUSH32 0x0 SWAP1 PUSH2 0xE57 JUMP JUMPDEST PUSH2 0x22C8 PUSH2 0xE9B JUMP JUMPDEST SWAP1 PUSH2 0xEBF JUMP JUMPDEST SWAP1 PUSH2 0xE57 JUMP JUMPDEST SWAP1 PUSH1 0x1 SWAP2 PUSH2 0x22E0 PUSH2 0xC16 JUMP JUMPDEST SWAP3 JUMPDEST DUP4 PUSH2 0x22FE PUSH2 0x22F8 PUSH2 0x22F3 PUSH1 0x0 PUSH2 0x1C3B JUMP JUMPDEST PUSH2 0x21E JUMP JUMPDEST SWAP2 PUSH2 0x21E JUMP JUMPDEST LT ISZERO PUSH2 0x249A JUMPI PUSH2 0x230E SWAP1 ISZERO PUSH2 0x418 JUMP JUMPDEST PUSH2 0x248A JUMPI JUMPDEST PUSH1 0x1 SWAP3 PUSH2 0x232E PUSH1 0x5 PUSH2 0x2327 PUSH1 0x0 DUP5 SWAP1 PUSH2 0x1DC9 JUMP JUMPDEST POP ADD PUSH2 0xE15 JUMP JUMPDEST PUSH2 0x2340 PUSH2 0x233A DUP5 PUSH2 0x21E JUMP JUMPDEST SWAP2 PUSH2 0x21E JUMP JUMPDEST LT PUSH2 0x2355 JUMPI JUMPDEST PUSH2 0x234F SWAP1 PUSH2 0x1D84 JUMP JUMPDEST SWAP3 PUSH2 0x22E2 JUMP JUMPDEST SWAP3 POP PUSH2 0x2378 PUSH2 0x2372 PUSH1 0x6 PUSH2 0x236B PUSH1 0x0 DUP8 SWAP1 PUSH2 0x1DC9 JUMP JUMPDEST POP ADD PUSH2 0x12FD JUMP JUMPDEST ISZERO PUSH2 0x418 JUMP JUMPDEST PUSH2 0x23DA JUMPI JUMPDEST PUSH2 0x23BB PUSH2 0x23A8 PUSH1 0x0 PUSH2 0x23A2 PUSH2 0x2392 PUSH1 0x0 PUSH2 0x1C3B JUMP JUMPDEST PUSH2 0x239C PUSH1 0x1 PUSH2 0x1E46 JUMP JUMPDEST SWAP1 PUSH2 0xE57 JUMP JUMPDEST SWAP1 PUSH2 0x1DC9 JUMP JUMPDEST POP PUSH2 0x23B5 PUSH1 0x0 DUP7 SWAP1 PUSH2 0x1DC9 JUMP JUMPDEST SWAP1 PUSH2 0x201B JUMP JUMPDEST PUSH2 0x23CD PUSH2 0x23C8 PUSH1 0x0 PUSH2 0x1617 JUMP JUMPDEST PUSH2 0x225F JUMP JUMPDEST PUSH2 0x234F PUSH1 0x0 SWAP4 SWAP1 POP PUSH2 0x2346 JUMP JUMPDEST PUSH2 0x242F PUSH2 0x23F5 PUSH1 0x2 PUSH2 0x23EE PUSH1 0x0 DUP8 SWAP1 PUSH2 0x1DC9 JUMP JUMPDEST POP ADD PUSH2 0xE15 JUMP JUMPDEST PUSH2 0x2429 PUSH2 0x241A PUSH1 0x3 PUSH2 0x2414 PUSH1 0x0 PUSH2 0x240D DUP2 DUP12 SWAP1 PUSH2 0x1DC9 JUMP JUMPDEST POP ADD PUSH2 0x1E11 JUMP JUMPDEST SWAP1 PUSH2 0xDE0 JUMP JUMPDEST SWAP2 PUSH2 0x2424 DUP4 PUSH2 0xE15 JUMP JUMPDEST PUSH2 0xE57 JUMP JUMPDEST SWAP1 PUSH2 0x16D6 JUMP JUMPDEST PUSH2 0x2485 PUSH2 0x244A PUSH1 0x2 PUSH2 0x2443 PUSH1 0x0 DUP8 SWAP1 PUSH2 0x1DC9 JUMP JUMPDEST POP ADD PUSH2 0xE15 JUMP JUMPDEST PUSH2 0x247F PUSH2 0x2470 PUSH1 0x3 PUSH2 0x246A PUSH1 0x1 PUSH2 0x2463 PUSH1 0x0 DUP12 SWAP1 PUSH2 0x1DC9 JUMP JUMPDEST POP ADD PUSH2 0x1E11 JUMP JUMPDEST SWAP1 PUSH2 0xDE0 JUMP JUMPDEST SWAP2 PUSH2 0x247A DUP4 PUSH2 0xE15 JUMP JUMPDEST PUSH2 0x1E1E JUMP JUMPDEST SWAP1 PUSH2 0x16D6 JUMP JUMPDEST PUSH2 0x237D JUMP JUMPDEST SWAP2 PUSH2 0x2494 SWAP1 PUSH2 0x1DA1 JUMP JUMPDEST SWAP2 PUSH2 0x2313 JUMP JUMPDEST POP POP SWAP1 POP JUMP JUMPDEST PUSH1 0x0 PUSH32 0x56696164756374205369676E6564204D6573736167653A2046524F4D20000000 SWAP2 ADD MSTORE JUMP JUMPDEST PUSH2 0x24D4 PUSH1 0x1D DUP1 SWAP3 PUSH2 0xCE1 JUMP JUMPDEST PUSH2 0x24DD DUP2 PUSH2 0x24A0 JUMP JUMPDEST ADD SWAP1 JUMP JUMPDEST PUSH1 0x60 SHL SWAP1 JUMP JUMPDEST PUSH2 0x24F0 SWAP1 PUSH2 0x24E1 JUMP JUMPDEST SWAP1 JUMP JUMPDEST PUSH2 0x24FC SWAP1 PUSH2 0x24E7 JUMP JUMPDEST SWAP1 JUMP JUMPDEST PUSH2 0x250B PUSH2 0x2510 SWAP2 PUSH2 0x289 JUMP JUMPDEST PUSH2 0x24F3 JUMP JUMPDEST SWAP1 MSTORE JUMP JUMPDEST PUSH1 0x0 PUSH32 0x20544F2000000000000000000000000000000000000000000000000000000000 SWAP2 ADD MSTORE JUMP JUMPDEST PUSH2 0x2548 PUSH1 0x4 DUP1 SWAP3 PUSH2 0xCE1 JUMP JUMPDEST PUSH2 0x2551 DUP2 PUSH2 0x2514 JUMP JUMPDEST ADD SWAP1 JUMP JUMPDEST PUSH1 0x0 PUSH32 0x2056414C55452000000000000000000000000000000000000000000000000000 SWAP2 ADD MSTORE JUMP JUMPDEST PUSH2 0x2589 PUSH1 0x7 DUP1 SWAP3 PUSH2 0xCE1 JUMP JUMPDEST PUSH2 0x2592 DUP2 PUSH2 0x2555 JUMP JUMPDEST ADD SWAP1 JUMP JUMPDEST SWAP1 JUMP JUMPDEST PUSH2 0x25A5 PUSH2 0x25AA SWAP2 PUSH2 0x21E JUMP JUMPDEST PUSH2 0x2596 JUMP JUMPDEST SWAP1 MSTORE JUMP JUMPDEST PUSH1 0x0 PUSH32 0x204E4F4E43452000000000000000000000000000000000000000000000000000 SWAP2 ADD MSTORE JUMP JUMPDEST PUSH2 0x25E2 PUSH1 0x7 DUP1 SWAP3 PUSH2 0xCE1 JUMP JUMPDEST PUSH2 0x25EB DUP2 PUSH2 0x25AE JUMP JUMPDEST ADD SWAP1 JUMP JUMPDEST PUSH1 0x20 SWAP5 SWAP4 PUSH2 0x2638 PUSH2 0x2631 PUSH1 0x14 PUSH2 0x2645 SWAP7 PUSH2 0x262B PUSH2 0x2624 DUP4 PUSH2 0x263E SWAP10 PUSH2 0x261E PUSH2 0x2617 DUP16 SWAP12 PUSH2 0x24C8 JUMP JUMPDEST DUP1 SWAP3 PUSH2 0x24FF JUMP JUMPDEST ADD PUSH2 0x253C JUMP JUMPDEST DUP1 SWAP3 PUSH2 0x24FF JUMP JUMPDEST ADD PUSH2 0x257D JUMP JUMPDEST DUP1 SWAP3 PUSH2 0x2599 JUMP JUMPDEST ADD PUSH2 0x25D6 JUMP JUMPDEST DUP1 SWAP3 PUSH2 0x2599 JUMP JUMPDEST ADD SWAP1 JUMP JUMPDEST PUSH2 0x2680 SWAP3 SWAP4 PUSH2 0x2671 SWAP2 PUSH2 0x265A PUSH2 0xCDC JUMP JUMPDEST POP SWAP3 SWAP5 PUSH2 0x2665 PUSH2 0x143 JUMP JUMPDEST SWAP6 DUP7 SWAP5 PUSH1 0x20 DUP7 ADD PUSH2 0x25EF JUMP JUMPDEST PUSH1 0x20 DUP3 ADD DUP2 SUB DUP3 MSTORE SUB DUP3 PUSH2 0x300 JUMP JUMPDEST PUSH2 0x2692 PUSH2 0x268C DUP3 PUSH2 0xD5F JUMP JUMPDEST SWAP2 PUSH2 0xD59 JUMP JUMPDEST KECCAK256 SWAP1 JUMP JUMPDEST PUSH1 0x1 PUSH2 0x26A2 SWAP2 ADD PUSH2 0x21E JUMP JUMPDEST SWAP1 JUMP JUMPDEST SWAP1 DUP2 SLOAD SWAP2 PUSH9 0x10000000000000000 DUP4 LT ISZERO PUSH2 0x26D5 JUMPI DUP3 PUSH2 0x26CD SWAP2 PUSH1 0x1 PUSH2 0x26D3 SWAP6 ADD DUP2 SSTORE PUSH2 0x163F JUMP JUMPDEST SWAP1 PUSH2 0x201B JUMP JUMPDEST JUMP JUMPDEST PUSH2 0x2EA JUMP JUMPDEST SWAP1 JUMP JUMPDEST PUSH1 0x0 MSTORE PUSH1 0x20 PUSH1 0x0 KECCAK256 SWAP1 JUMP JUMPDEST SLOAD SWAP1 JUMP JUMPDEST PUSH2 0x26F5 DUP2 PUSH2 0x26E8 JUMP JUMPDEST DUP3 LT ISZERO PUSH2 0x2710 JUMPI PUSH2 0x2707 PUSH1 0x1 SWAP2 PUSH2 0x26DD JUMP JUMPDEST SWAP2 MUL ADD SWAP1 PUSH1 0x0 SWAP1 JUMP JUMPDEST PUSH2 0x1625 JUMP JUMPDEST SWAP1 DUP2 SLOAD SWAP2 PUSH9 0x10000000000000000 DUP4 LT ISZERO PUSH2 0x2745 JUMPI DUP3 PUSH2 0x273D SWAP2 PUSH1 0x1 PUSH2 0x2743 SWAP6 ADD DUP2 SSTORE PUSH2 0x26EC JUMP JUMPDEST SWAP1 PUSH2 0x1779 JUMP JUMPDEST JUMP JUMPDEST PUSH2 0x2EA JUMP JUMPDEST SLOAD SWAP1 JUMP JUMPDEST PUSH1 0x0 MSTORE PUSH1 0x20 PUSH1 0x0 KECCAK256 SWAP1 JUMP JUMPDEST PUSH2 0x2762 DUP2 PUSH2 0x274A JUMP JUMPDEST DUP3 LT ISZERO PUSH2 0x277D JUMPI PUSH2 0x2774 PUSH1 0x1 SWAP2 PUSH2 0x274E JUMP JUMPDEST SWAP2 MUL ADD SWAP1 PUSH1 0x0 SWAP1 JUMP JUMPDEST PUSH2 0x1625 JUMP JUMPDEST PUSH2 0x2792 SWAP1 PUSH1 0x8 PUSH2 0x2797 SWAP4 MUL PUSH2 0x1826 JUMP JUMPDEST PUSH2 0xDFE JUMP JUMPDEST SWAP1 JUMP JUMPDEST SWAP1 PUSH2 0x27A5 SWAP2 SLOAD PUSH2 0x2782 JUMP JUMPDEST SWAP1 JUMP JUMPDEST PUSH1 0x20 SWAP2 DUP2 MSTORE ADD SWAP1 JUMP JUMPDEST SWAP1 PUSH1 0x0 SWAP3 SWAP2 DUP1 SLOAD SWAP1 PUSH2 0x27CC PUSH2 0x27C5 DUP4 PUSH2 0x1710 JUMP JUMPDEST DUP1 SWAP5 PUSH2 0x27A8 JUMP JUMPDEST SWAP2 PUSH1 0x1 DUP2 AND SWAP1 DUP2 PUSH1 0x0 EQ PUSH2 0x2825 JUMPI POP PUSH1 0x1 EQ PUSH2 0x27E8 JUMPI JUMPDEST POP POP POP JUMP JUMPDEST PUSH2 0x27F5 SWAP2 SWAP3 SWAP4 SWAP5 POP PUSH2 0x173A JUMP JUMPDEST SWAP2 PUSH1 0x0 SWAP3 JUMPDEST DUP2 DUP5 LT PUSH2 0x280D JUMPI POP POP ADD SWAP1 CODESIZE DUP1 DUP1 PUSH2 0x27E3 JUMP JUMPDEST PUSH1 0x1 DUP2 PUSH1 0x20 SWAP3 SWAP6 SWAP4 SWAP6 SLOAD DUP5 DUP7 ADD MSTORE ADD SWAP2 ADD SWAP3 SWAP1 PUSH2 0x27FA JUMP JUMPDEST SWAP3 SWAP5 SWAP6 POP POP POP PUSH1 0xFF NOT AND DUP3 MSTORE ISZERO ISZERO PUSH1 0x20 MUL ADD SWAP1 CODESIZE DUP1 DUP1 PUSH2 0x27E3 JUMP JUMPDEST SWAP1 PUSH2 0x284A SWAP2 PUSH2 0x27B1 JUMP JUMPDEST SWAP1 JUMP JUMPDEST SWAP1 PUSH2 0x286D PUSH2 0x2866 SWAP3 PUSH2 0x285D PUSH2 0x143 JUMP JUMPDEST SWAP4 DUP5 DUP1 SWAP3 PUSH2 0x2840 JUMP JUMPDEST SUB DUP4 PUSH2 0x300 JUMP JUMPDEST JUMP JUMPDEST MSTORE JUMP JUMPDEST SWAP1 PUSH2 0x2923 PUSH2 0x291A PUSH1 0x6 PUSH2 0x2883 PUSH2 0x14DB JUMP JUMPDEST SWAP5 PUSH2 0x289C PUSH2 0x2893 PUSH1 0x0 DUP4 ADD PUSH2 0x1E11 JUMP JUMPDEST PUSH1 0x0 DUP9 ADD PUSH2 0x1569 JUMP JUMPDEST PUSH2 0x28B4 PUSH2 0x28AB PUSH1 0x1 DUP4 ADD PUSH2 0x1E11 JUMP JUMPDEST PUSH1 0x20 DUP9 ADD PUSH2 0x1569 JUMP JUMPDEST PUSH2 0x28CC PUSH2 0x28C3 PUSH1 0x2 DUP4 ADD PUSH2 0xE15 JUMP JUMPDEST PUSH1 0x40 DUP9 ADD PUSH2 0x1577 JUMP JUMPDEST PUSH2 0x28E4 PUSH2 0x28DB PUSH1 0x3 DUP4 ADD PUSH2 0x284D JUMP JUMPDEST PUSH1 0x60 DUP9 ADD PUSH2 0x286F JUMP JUMPDEST PUSH2 0x28FC PUSH2 0x28F3 PUSH1 0x4 DUP4 ADD PUSH2 0xE15 JUMP JUMPDEST PUSH1 0x80 DUP9 ADD PUSH2 0x1577 JUMP JUMPDEST PUSH2 0x2914 PUSH2 0x290B PUSH1 0x5 DUP4 ADD PUSH2 0xE15 JUMP JUMPDEST PUSH1 0xA0 DUP9 ADD PUSH2 0x1577 JUMP JUMPDEST ADD PUSH2 0x12FD JUMP JUMPDEST PUSH1 0xC0 DUP5 ADD PUSH2 0x1609 JUMP JUMPDEST JUMP JUMPDEST PUSH2 0x292E SWAP1 PUSH2 0x2872 JUMP JUMPDEST SWAP1 JUMP JUMPDEST SWAP1 PUSH2 0x293A PUSH2 0xC67 JUMP JUMPDEST POP PUSH2 0x2943 PUSH2 0xC16 JUMP JUMPDEST JUMPDEST DUP1 PUSH2 0x2960 PUSH2 0x295A PUSH2 0x2955 PUSH1 0x0 PUSH2 0x1C3B JUMP JUMPDEST PUSH2 0x21E JUMP JUMPDEST SWAP2 PUSH2 0x21E JUMP JUMPDEST LT ISZERO PUSH2 0x2A05 JUMPI PUSH2 0x297D PUSH1 0x0 PUSH2 0x2976 DUP2 DUP5 SWAP1 PUSH2 0x1DC9 JUMP JUMPDEST POP ADD PUSH2 0x1E11 JUMP JUMPDEST PUSH2 0x298F PUSH2 0x2989 DUP6 PUSH2 0x289 JUMP JUMPDEST SWAP2 PUSH2 0x289 JUMP JUMPDEST EQ PUSH2 0x29A3 JUMPI JUMPDEST PUSH2 0x299E SWAP1 PUSH2 0x2696 JUMP JUMPDEST PUSH2 0x2944 JUMP JUMPDEST SWAP1 PUSH2 0x29C9 PUSH2 0x299E SWAP2 PUSH2 0x29C3 PUSH1 0x2 PUSH2 0x29BC PUSH1 0x0 DUP8 SWAP1 PUSH2 0x1DC9 JUMP JUMPDEST POP ADD PUSH2 0xE15 JUMP JUMPDEST SWAP1 PUSH2 0x1E1E JUMP JUMPDEST SWAP2 PUSH2 0x29EA PUSH2 0x29D7 PUSH1 0x2 PUSH2 0x1617 JUMP JUMPDEST PUSH2 0x29E3 PUSH1 0x0 DUP5 SWAP1 PUSH2 0x1DC9 JUMP JUMPDEST POP SWAP1 PUSH2 0x26A5 JUMP JUMPDEST PUSH2 0x29FE PUSH2 0x29F7 PUSH1 0x1 PUSH2 0x26DA JUMP JUMPDEST DUP3 SWAP1 PUSH2 0x2715 JUMP JUMPDEST SWAP1 POP PUSH2 0x2995 JUMP JUMPDEST POP SWAP1 PUSH2 0x2A26 PUSH2 0x2A20 PUSH2 0x2A1B PUSH2 0x2A2C SWAP4 PUSH1 0x3 PUSH2 0xDE0 JUMP JUMPDEST PUSH2 0xE15 JUMP JUMPDEST SWAP3 PUSH2 0x21E JUMP JUMPDEST SWAP2 PUSH2 0x21E JUMP JUMPDEST GT PUSH2 0x2B18 JUMPI PUSH2 0x2A39 PUSH2 0xC16 JUMP JUMPDEST JUMPDEST DUP1 PUSH2 0x2A56 PUSH2 0x2A50 PUSH2 0x2A4B PUSH1 0x1 PUSH2 0x274A JUMP JUMPDEST PUSH2 0x21E JUMP JUMPDEST SWAP2 PUSH2 0x21E JUMP JUMPDEST LT ISZERO PUSH2 0x2B12 JUMPI PUSH2 0x2B0D SWAP1 PUSH2 0x2A89 PUSH2 0x2A83 PUSH1 0x0 PUSH2 0x2A7D PUSH2 0x2A77 PUSH1 0x1 DUP7 SWAP1 PUSH2 0x2759 JUMP JUMPDEST SWAP1 PUSH2 0x279A JUMP JUMPDEST SWAP1 PUSH2 0x1DC9 JUMP JUMPDEST POP PUSH2 0x2925 JUMP JUMPDEST PUSH2 0x2A97 PUSH1 0x1 PUSH1 0xC0 DUP4 ADD PUSH2 0x1609 JUMP JUMPDEST PUSH2 0x2AA3 PUSH1 0x0 DUP3 ADD PUSH2 0xF9E JUMP JUMPDEST PUSH2 0x2AAF PUSH1 0x20 DUP4 ADD PUSH2 0xF9E JUMP JUMPDEST SWAP1 PUSH2 0x2B05 PUSH2 0x2ABF PUSH1 0x40 DUP6 ADD PUSH2 0xFAB JUMP JUMPDEST SWAP4 PUSH2 0x2AD1 PUSH1 0x80 PUSH1 0x60 DUP4 ADD MLOAD SWAP3 ADD PUSH2 0xFAB JUMP JUMPDEST SWAP1 PUSH32 0xBA3CD9CC90BE8A4BAE3A12A3AD76861E142F2BA0E44241B2699EE849D834ADBC SWAP6 PUSH2 0x2AFC PUSH2 0x143 JUMP JUMPDEST SWAP6 DUP7 SWAP6 DUP7 PUSH2 0x1A73 JUMP JUMPDEST SUB SWAP1 LOG1 PUSH2 0x2696 JUMP JUMPDEST PUSH2 0x2A3A JUMP JUMPDEST POP PUSH1 0x1 SWAP1 JUMP JUMPDEST PUSH1 0x0 SWAP1 JUMP INVALID LOG2 PUSH5 0x6970667358 0x22 SLT KECCAK256 DUP11 PUSH0 0x2C 0xD6 SWAP9 0xD9 0x24 PUSH0 ADDRESS DUP11 0x4D EXTCODEHASH 0xCA PUSH1 0x8C 0x1E 0xC0 XOR PUSH30 0x880107D3B6C8AB9569804743C664736F6C634300081B0033000000000000 "},"methodIdentifiers":{"balanceOf(address)":"70a08231","calculateSignedMessageHash(bytes32)":"45e872b6","canPropose()":"76e14804","challengeAndRecord(address,address,uint256,bytes,uint256)":"c03ab09c","cleanChallengeWindow()":"e0ea0ee2","decimals()":"313ce567","getValidHash(address,address,uint256,uint256)":"f34d85e4","name()":"06fdde03","objectiveTransfer(address,address,uint256,bytes,uint256)":"b052b8df","pendingTransferCount()":"b63e56de","recoverSigner(bytes32,bytes)":"97aba7f9","splitSignature(bytes)":"a7bb5803","symbol()":"95d89b41","totalSupply()":"18160ddd","transfer(address,uint256)":"a9059cbb","transferFrom(address,address,uint256)":"23b872dd","verify(address,bytes32,bytes)":"1a86b550","verifyTransfer((address,address,uint256,bytes,uint256,uint256,bool),bytes)":"78216859"}}}}}