{"contracts/OrderBook.sol":{"OrderBook":{"abi":[{"inputs":[{"internalType":"contract IERC20","name":"_standardToken","type":"address"}],"stateMutability":"nonpayable","type":"constructor"},{"inputs":[{"internalType":"uint256","name":"_tick","type":"uint256"},{"internalType":"uint256","name":"_amountIn","type":"uint256"},{"internalType":"uint256","name":"_nonce","type":"uint256"}],"name":"prepareTransfers","outputs":[{"internalType":"bytes32[16]","name":"hashes","type":"bytes32[16]"},{"internalType":"uint256[16]","name":"ids","type":"uint256[16]"},{"internalType":"uint256","name":"quote","type":"uint256"},{"internalType":"uint256[16]","name":"nonces","type":"uint256[16]"}],"stateMutability":"view","type":"function"},{"inputs":[{"internalType":"uint256","name":"_tick","type":"uint256"},{"internalType":"uint256[]","name":"_ids","type":"uint256[]"},{"internalType":"uint256[]","name":"_nonces","type":"uint256[]"},{"internalType":"bytes[]","name":"_sigs","type":"bytes[]"}],"name":"swapOff","outputs":[],"stateMutability":"nonpayable","type":"function"},{"inputs":[{"internalType":"uint256","name":"_tick","type":"uint256"},{"internalType":"uint256","name":"_amountIn","type":"uint256"}],"name":"swapOn","outputs":[],"stateMutability":"nonpayable","type":"function"}],"evm":{"bytecode":{"linkReferences":{},"object":"60806040523461002f57610019610014610106565b6101a2565b610021610034565b6116d36101b082396116d390f35b61003a565b60405190565b600080fd5b601f801991011690565b634e487b7160e01b600052604160045260246000fd5b906100699061003f565b810190811060018060401b0382111761008157604052565b610049565b90610099610092610034565b928361005f565b565b600080fd5b60018060a01b031690565b6100b4906100a0565b90565b6100c0906100ab565b90565b6100cc816100b7565b036100d357565b600080fd5b905051906100e5826100c3565b565b90602082820312610101576100fe916000016100d8565b90565b61009b565b6101246118838038038061011981610086565b9283398101906100e7565b90565b60001b90565b9061013e60018060a01b0391610127565b9181191691161790565b90565b61015f61015a610164926100a0565b610148565b6100a0565b90565b6101709061014b565b90565b61017c90610167565b90565b90565b9061019761019261019e92610173565b61017f565b825461012d565b9055565b6101ad906001610182565b56fe60806040526004361015610013575b6105be565b61001e60003561004d565b80637ce3d0da1461004857806380901ecd146100435763f27370160361000e57610584565b6103c6565b610361565b60e01c90565b60405190565b600080fd5b600080fd5b600080fd5b90565b61007481610068565b0361007b57565b600080fd5b9050359061008d8261006b565b565b600080fd5b601f801991011690565b634e487b7160e01b600052604160045260246000fd5b906100be90610094565b810190811067ffffffffffffffff8211176100d857604052565b61009e565b906100f06100e9610053565b92836100b4565b565b67ffffffffffffffff811161010a5760208091020190565b61009e565b600080fd5b90929192610129610124826100f2565b6100dd565b938185526020808601920283019281841161016657915b83831061014d5750505050565b6020809161015b8486610080565b815201920191610140565b61010f565b9080601f830112156101895781602061018693359101610114565b90565b61008f565b67ffffffffffffffff81116101a65760208091020190565b61009e565b600080fd5b67ffffffffffffffff81116101ce576101ca602091610094565b0190565b61009e565b90826000939282370152565b909291926101f46101ef826101b0565b6100dd565b938185526020850190828401116102105761020e926101d3565b565b6101ab565b9080601f8301121561023357816020610230933591016101df565b90565b61008f565b92919061024c6102478261018e565b6100dd565b93818552602080860192028101918383116102a35781905b838210610272575050505050565b813567ffffffffffffffff811161029e576020916102938784938701610215565b815201910190610264565b61008f565b61010f565b9080601f830112156102c6578160206102c393359101610238565b90565b61008f565b90608082820312610356576102e38160008401610080565b92602083013567ffffffffffffffff8111610351578261030491850161016b565b92604081013567ffffffffffffffff811161034c578361032591830161016b565b92606082013567ffffffffffffffff81116103475761034492016102a8565b90565b610063565b610063565b610063565b61005e565b60000190565b346103935761037d6103743660046102cb565b92919091610c67565b610385610053565b8061038f8161035b565b0390f35b610059565b91906040838203126103c157806103b56103be9260008601610080565b93602001610080565b90565b61005e565b346103f5576103df6103d9366004610398565b90611197565b6103e7610053565b806103f18161035b565b0390f35b610059565b90916060828403126104305761042d6104168460008501610080565b936104248160208601610080565b93604001610080565b90565b61005e565b50601090565b905090565b90565b90565b61044f90610443565b9052565b9061046081602093610446565b0190565b60200190565b61048661048061047983610435565b809461043b565b91610440565b6000915b8383106104975750505050565b6104ad6104a76001928451610453565b92610464565b9201919061048a565b50601090565b905090565b90565b6104cd90610068565b9052565b906104de816020936104c4565b0190565b60200190565b6105046104fe6104f7836104b6565b80946104bc565b916104c1565b6000915b8383106105155750505050565b61052b61052560019284516104d1565b926104e2565b92019190610508565b61053d90610068565b9052565b61057b610582946105706104209498979561056561062086019a600087019061046a565b6102008501906104e8565b610400830190610534565b01906104e8565b565b346105b9576105b56105a061059a3660046103fa565b91611444565b906105ac949294610053565b94859485610541565b0390f35b610059565b600080fd5b90565b90565b6105dd6105d86105e2926105c3565b6105c6565b610068565b90565b600090565b634e487b7160e01b600052601160045260246000fd5b61060990610068565b60001981146106185760010190565b6105ea565b61063161062c61063692610068565b6105c6565b610068565b90565b906106439061061d565b600052602052604060002090565b5490565b61065e90610068565b6000811461066d576001900390565b6105ea565b600161067e9101610068565b90565b5190565b634e487b7160e01b600052603260045260246000fd5b906106a582610681565b8110156106b6576020809102010190565b610685565b6106c59051610068565b90565b600052602060002090565b6106dc81610651565b8210156106f7576106ee6003916106c8565b91020190600090565b610685565b60001c90565b90565b610711610716916106fc565b610702565b90565b6107239054610705565b90565b151590565b60018060a01b031690565b610742610747916106fc565b61072b565b90565b6107549054610736565b90565b60018060a01b031690565b61077661077161077b92610757565b6105c6565b610757565b90565b61078790610762565b90565b6107939061077e565b90565b60018060a01b031690565b6107ad6107b2916106fc565b610796565b90565b6107bf90546107a1565b90565b5190565b906107d0826107c2565b8110156107e1576020809102010190565b610685565b60e01b90565b6107f581610726565b036107fc57565b600080fd5b9050519061080e826107ec565b565b9060208282031261082a5761082791600001610801565b90565b61005e565b61083890610757565b90565b6108449061082f565b9052565b5190565b60209181520190565b60005b838110610869575050906000910152565b806020918301518185015201610858565b6108996108a26020936108a79361089081610848565b9384809361084c565b95869101610855565b610094565b0190565b6108fa946108e5829897956108db6080966108d16108f297600060a0890198019061083b565b60208c019061083b565b60408a0190610534565b878203606089015261087a565b940190610534565b565b610904610053565b3d6000823e3d90fd5b90565b61092461091f6109299261090d565b6105c6565b610068565b90565b61093b61094191939293610068565b92610068565b820391821161094c57565b6105ea565b634e487b7160e01b600052600060045260246000fd5b60001b90565b9061097a60001991610967565b9181191691161790565b90565b9061099c6109976109a39261061d565b610984565b825461096d565b9055565b906109b860018060a01b0391610967565b9181191691161790565b6109cb9061077e565b90565b90565b906109e66109e16109ed926109c2565b6109ce565b82546109a7565b9055565b908082036109fe575b5050565b610a4260028084610a216000610a489701610a1b60008801610719565b90610987565b610a3a60018201610a34600188016107b5565b906109d1565b019201610719565b90610987565b38806109fa565b9190610a6057610a5e916109f1565b565b610951565b90565b634e487b7160e01b600052603160045260246000fd5b5490565b600052602060002090565b610a9681610a7e565b821015610ab157610aa8600391610a82565b91020190600090565b610685565b1b90565b91906008610ad6910291610ad060001984610ab6565b92610ab6565b9181191691161790565b9190610af6610af1610afe9361061d565b610984565b908354610aba565b9055565b610b1491610b0e6105e5565b91610ae0565b565b60006002610b3692610b2a83808301610b02565b82600182015501610b02565b565b90600003610b4b57610b4990610b16565b565b610951565b610b5981610a7e565b8015610b7a576001900390610b77610b718383610a8d565b90610b38565b55565b610a68565b90565b610b96610b91610b9b92610b7f565b6105c6565b610068565b90565b610bad610bb391939293610068565b92610068565b91610bbf838202610068565b928184041490151715610bce57565b6105ea565b634e487b7160e01b600052601260045260246000fd5b610bf5610bfb91610068565b91610068565b908115610c06570490565b610bd3565b60018060a01b031690565b610c22610c27916106fc565b610c0b565b90565b610c349054610c16565b90565b610c409061077e565b90565b916020610c65929493610c5e6040820196600083019061083b565b0190610534565b565b9091939293600092610c7960006105c9565b610c816105e5565b945b85610ca9610ca3610c9e610c9960038a90610639565b610651565b610068565b91610068565b1015610f085780610ef5575b610cbd6105e5565b91600097610cc96105e5565b5b80610ce5610cdf610cda89610681565b610068565b91610068565b1015610ee55787610d30610d2a610d256002610d1e8e610d19610d11610d0c8f8b9061069b565b6106bb565b976003610639565b6106d3565b5001610719565b610068565b91610068565b14610d4357610d3e90610672565b610cca565b509250958093975090610d5860015b15610726565b610eda5750610d67600061074a565b610d709061078a565b63b052b8df3390600388610d8391610639565b86610d8d916106d3565b50600101610d9a906107b5565b91600389610da791610639565b87610db1916106d3565b50600001610dbe90610719565b948c81610dca916107c6565b51908990610dd79161069b565b610de0906106bb565b90610de9610053565b968795610df687966107e6565b86526004860194610e06956108ab565b03815a602094600091f18015610ed557610ea9575b50610e78610e5b610e2e60038790610639565b610e55610e45610e4060038a90610639565b610651565b610e4f6001610910565b9061092c565b906106d3565b50610e72610e6b60038890610639565b85906106d3565b90610a4f565b610e94610e8f610e8a60038790610639565b610a65565b610b50565b610ea06001925b610600565b94909591610c83565b610ec99060203d8111610ece575b610ec181836100b4565b810190610810565b610e1b565b503d610eb7565b6108fc565b92610ea09150610e9b565b50929190969397610d5890610d52565b5093610f0090610655565b936000610cb5565b50915050610f2d939450610f28919250610f226064610b82565b90610b9e565b610be9565b6020610f41610f3c6001610c2a565b610c37565b9163a9059cbb92610f676000339395610f72610f5b610053565b978896879586946107e6565b845260048401610c43565b03925af18015610fb057610f84575b50565b610fa49060203d8111610fa9575b610f9c81836100b4565b810190610810565b610f81565b503d610f92565b6108fc565b610fbf60606100dd565b90565b600090565b600090565b610fd4610fb5565b906020808084610fe2610fc2565b815201610fed610fc7565b815201610ff8610fc2565b81525050565b611006610fcc565b90565b9061101390610068565b9052565b60209181520190565b60007f4f7264657220746f6f20736d616c6c2e00000000000000000000000000000000910152565b6110556010602092611017565b61105e81611020565b0190565b6110789060208101906000818303910152611048565b90565b1561108257565b61108a610053565b62461bcd60e51b8152806110a060048201611062565b0390fd5b906110ae9061082f565b9052565b6110bb9061077e565b90565b6040906110e86110ef94969593966110de6060840198600085019061083b565b602083019061083b565b0190610534565b565b6110fb905161082f565b90565b906111446040600261114a946111236000820161111d600088016106bb565b90610987565b61113c60018201611136602088016110f1565b906109d1565b0192016106bb565b90610987565b565b919061115d5761115b916110fe565b565b610951565b9081549168010000000000000000831015611192578261118a91600161119095018155610a8d565b9061114c565b565b61009e565b906111a0610ffe565b906111cb6111c2826111bc866111b66064610b82565b90610be9565b90610b9e565b60008401611009565b6111f36111da600084016106bb565b6111ed6111e760006105c9565b91610068565b1161107b565b61120033602084016110a4565b61120d4260408401611009565b602061122161121c6001610c2a565b610c37565b6323b872dd9061124f6000339361125a61123a306110b2565b97611243610053565b988997889687956107e6565b8552600485016110be565b03925af180156112b557611287936112829261127d92611289575b506003610639565b610a65565b611162565b565b6112a99060203d81116112ae575b6112a181836100b4565b810190610810565b611275565b503d611297565b6108fc565b67ffffffffffffffff81116112cf5760200290565b61009e565b6112e06112e5916112ba565b6100dd565b90565b369037565b9061130b6112fa836112d4565b9261130584916112ba565b906112e8565b565b61131760106112ed565b90565b67ffffffffffffffff811161132f5760200290565b61009e565b6113406113459161131a565b6100dd565b90565b369037565b9061136b61135a83611334565b92611365849161131a565b90611348565b565b611377601061134d565b90565b61138381610443565b0361138a57565b600080fd5b9050519061139c8261137a565b565b906020828203126113b8576113b59160000161138f565b90565b61005e565b6113f36113fa946113e96060949897956113df608086019a600087019061083b565b602085019061083b565b6040830190610534565b0190610534565b565b9061140682610435565b811015611414576020020190565b610685565b9061142390610443565b9052565b90611431826104b6565b81101561143f576020020190565b610685565b91909261144f61130d565b9361145861136d565b926114616105e5565b5061146a61136d565b91809161147760006105c9565b906114806105e5565b5b806114a66114a061149b6114968d6003610639565b610651565b610068565b91610068565b101561168d57886114cf60006114c86114c160038590610639565b85906106d3565b5001610719565b6114e16114db88610068565b91610068565b11156114f7575b506114f290610672565b611481565b909160208261150e611509600061074a565b61078a565b6115728661157d61155c600061155561154e611546600161153f63f34d85e49861153a339d6003610639565b6106d3565b50016107b5565b9b6003610639565b8c906106d3565b5001610719565b8790611566610053565b998a97889687966107e6565b8652600486016113bd565b03915afa8015611688576115d860026115d16115ca8f8f996115bd6115c2926115b86115ea996116269c60009161165a575b508490926113fc565b611419565b610600565b986003610639565b87906106d3565b5001610719565b6115e58b91879092611427565b611009565b6116218a61161c89611615600261160e6116078894966003610639565b8a906106d3565b5001610719565b9092611427565b611009565b610600565b908461163b61163560006105c9565b91610068565b1461164657886114e8565b50505061165792939495505b61092c565b91565b61167b915060203d8111611681575b61167381836100b4565b81019061139e565b386115af565b503d611669565b6108fc565b505050611657929394955061165256fea2646970667358221220183144a9dbc55c42fd56136fe88c3248d3e83d791ed1b919ce3761ae154ffab064736f6c634300081b0033","opcodes":"PUSH1 0x80 PUSH1 0x40 MSTORE CALLVALUE PUSH2 0x2F JUMPI PUSH2 0x19 PUSH2 0x14 PUSH2 0x106 JUMP JUMPDEST PUSH2 0x1A2 JUMP JUMPDEST PUSH2 0x21 PUSH2 0x34 JUMP JUMPDEST PUSH2 0x16D3 PUSH2 0x1B0 DUP3 CODECOPY PUSH2 0x16D3 SWAP1 RETURN JUMPDEST PUSH2 0x3A JUMP JUMPDEST PUSH1 0x40 MLOAD SWAP1 JUMP JUMPDEST PUSH1 0x0 DUP1 REVERT JUMPDEST PUSH1 0x1F DUP1 NOT SWAP2 ADD AND SWAP1 JUMP JUMPDEST PUSH4 0x4E487B71 PUSH1 0xE0 SHL PUSH1 0x0 MSTORE PUSH1 0x41 PUSH1 0x4 MSTORE PUSH1 0x24 PUSH1 0x0 REVERT JUMPDEST SWAP1 PUSH2 0x69 SWAP1 PUSH2 0x3F JUMP JUMPDEST DUP2 ADD SWAP1 DUP2 LT PUSH1 0x1 DUP1 PUSH1 0x40 SHL SUB DUP3 GT OR PUSH2 0x81 JUMPI PUSH1 0x40 MSTORE JUMP JUMPDEST PUSH2 0x49 JUMP JUMPDEST SWAP1 PUSH2 0x99 PUSH2 0x92 PUSH2 0x34 JUMP JUMPDEST SWAP3 DUP4 PUSH2 0x5F JUMP JUMPDEST JUMP JUMPDEST PUSH1 0x0 DUP1 REVERT JUMPDEST PUSH1 0x1 DUP1 PUSH1 0xA0 SHL SUB AND SWAP1 JUMP JUMPDEST PUSH2 0xB4 SWAP1 PUSH2 0xA0 JUMP JUMPDEST SWAP1 JUMP JUMPDEST PUSH2 0xC0 SWAP1 PUSH2 0xAB JUMP JUMPDEST SWAP1 JUMP JUMPDEST PUSH2 0xCC DUP2 PUSH2 0xB7 JUMP JUMPDEST SUB PUSH2 0xD3 JUMPI JUMP JUMPDEST PUSH1 0x0 DUP1 REVERT JUMPDEST SWAP1 POP MLOAD SWAP1 PUSH2 0xE5 DUP3 PUSH2 0xC3 JUMP JUMPDEST JUMP JUMPDEST SWAP1 PUSH1 0x20 DUP3 DUP3 SUB SLT PUSH2 0x101 JUMPI PUSH2 0xFE SWAP2 PUSH1 0x0 ADD PUSH2 0xD8 JUMP JUMPDEST SWAP1 JUMP JUMPDEST PUSH2 0x9B JUMP JUMPDEST PUSH2 0x124 PUSH2 0x1883 DUP1 CODESIZE SUB DUP1 PUSH2 0x119 DUP2 PUSH2 0x86 JUMP JUMPDEST SWAP3 DUP4 CODECOPY DUP2 ADD SWAP1 PUSH2 0xE7 JUMP JUMPDEST SWAP1 JUMP JUMPDEST PUSH1 0x0 SHL SWAP1 JUMP JUMPDEST SWAP1 PUSH2 0x13E PUSH1 0x1 DUP1 PUSH1 0xA0 SHL SUB SWAP2 PUSH2 0x127 JUMP JUMPDEST SWAP2 DUP2 NOT AND SWAP2 AND OR SWAP1 JUMP JUMPDEST SWAP1 JUMP JUMPDEST PUSH2 0x15F PUSH2 0x15A PUSH2 0x164 SWAP3 PUSH2 0xA0 JUMP JUMPDEST PUSH2 0x148 JUMP JUMPDEST PUSH2 0xA0 JUMP JUMPDEST SWAP1 JUMP JUMPDEST PUSH2 0x170 SWAP1 PUSH2 0x14B JUMP JUMPDEST SWAP1 JUMP JUMPDEST PUSH2 0x17C SWAP1 PUSH2 0x167 JUMP JUMPDEST SWAP1 JUMP JUMPDEST SWAP1 JUMP JUMPDEST SWAP1 PUSH2 0x197 PUSH2 0x192 PUSH2 0x19E SWAP3 PUSH2 0x173 JUMP JUMPDEST PUSH2 0x17F JUMP JUMPDEST DUP3 SLOAD PUSH2 0x12D JUMP JUMPDEST SWAP1 SSTORE JUMP JUMPDEST PUSH2 0x1AD SWAP1 PUSH1 0x1 PUSH2 0x182 JUMP JUMPDEST JUMP INVALID PUSH1 0x80 PUSH1 0x40 MSTORE PUSH1 0x4 CALLDATASIZE LT ISZERO PUSH2 0x13 JUMPI JUMPDEST PUSH2 0x5BE JUMP JUMPDEST PUSH2 0x1E PUSH1 0x0 CALLDATALOAD PUSH2 0x4D JUMP JUMPDEST DUP1 PUSH4 0x7CE3D0DA EQ PUSH2 0x48 JUMPI DUP1 PUSH4 0x80901ECD EQ PUSH2 0x43 JUMPI PUSH4 0xF2737016 SUB PUSH2 0xE JUMPI PUSH2 0x584 JUMP JUMPDEST PUSH2 0x3C6 JUMP JUMPDEST PUSH2 0x361 JUMP JUMPDEST PUSH1 0xE0 SHR SWAP1 JUMP JUMPDEST PUSH1 0x40 MLOAD SWAP1 JUMP JUMPDEST PUSH1 0x0 DUP1 REVERT JUMPDEST PUSH1 0x0 DUP1 REVERT JUMPDEST PUSH1 0x0 DUP1 REVERT JUMPDEST SWAP1 JUMP JUMPDEST PUSH2 0x74 DUP2 PUSH2 0x68 JUMP JUMPDEST SUB PUSH2 0x7B JUMPI JUMP JUMPDEST PUSH1 0x0 DUP1 REVERT JUMPDEST SWAP1 POP CALLDATALOAD SWAP1 PUSH2 0x8D DUP3 PUSH2 0x6B JUMP JUMPDEST JUMP JUMPDEST PUSH1 0x0 DUP1 REVERT JUMPDEST PUSH1 0x1F DUP1 NOT SWAP2 ADD AND SWAP1 JUMP JUMPDEST PUSH4 0x4E487B71 PUSH1 0xE0 SHL PUSH1 0x0 MSTORE PUSH1 0x41 PUSH1 0x4 MSTORE PUSH1 0x24 PUSH1 0x0 REVERT JUMPDEST SWAP1 PUSH2 0xBE SWAP1 PUSH2 0x94 JUMP JUMPDEST DUP2 ADD SWAP1 DUP2 LT PUSH8 0xFFFFFFFFFFFFFFFF DUP3 GT OR PUSH2 0xD8 JUMPI PUSH1 0x40 MSTORE JUMP JUMPDEST PUSH2 0x9E JUMP JUMPDEST SWAP1 PUSH2 0xF0 PUSH2 0xE9 PUSH2 0x53 JUMP JUMPDEST SWAP3 DUP4 PUSH2 0xB4 JUMP JUMPDEST JUMP JUMPDEST PUSH8 0xFFFFFFFFFFFFFFFF DUP2 GT PUSH2 0x10A JUMPI PUSH1 0x20 DUP1 SWAP2 MUL ADD SWAP1 JUMP JUMPDEST PUSH2 0x9E JUMP JUMPDEST PUSH1 0x0 DUP1 REVERT JUMPDEST SWAP1 SWAP3 SWAP2 SWAP3 PUSH2 0x129 PUSH2 0x124 DUP3 PUSH2 0xF2 JUMP JUMPDEST PUSH2 0xDD JUMP JUMPDEST SWAP4 DUP2 DUP6 MSTORE PUSH1 0x20 DUP1 DUP7 ADD SWAP3 MUL DUP4 ADD SWAP3 DUP2 DUP5 GT PUSH2 0x166 JUMPI SWAP2 JUMPDEST DUP4 DUP4 LT PUSH2 0x14D JUMPI POP POP POP POP JUMP JUMPDEST PUSH1 0x20 DUP1 SWAP2 PUSH2 0x15B DUP5 DUP7 PUSH2 0x80 JUMP JUMPDEST DUP2 MSTORE ADD SWAP3 ADD SWAP2 PUSH2 0x140 JUMP JUMPDEST PUSH2 0x10F JUMP JUMPDEST SWAP1 DUP1 PUSH1 0x1F DUP4 ADD SLT ISZERO PUSH2 0x189 JUMPI DUP2 PUSH1 0x20 PUSH2 0x186 SWAP4 CALLDATALOAD SWAP2 ADD PUSH2 0x114 JUMP JUMPDEST SWAP1 JUMP JUMPDEST PUSH2 0x8F JUMP JUMPDEST PUSH8 0xFFFFFFFFFFFFFFFF DUP2 GT PUSH2 0x1A6 JUMPI PUSH1 0x20 DUP1 SWAP2 MUL ADD SWAP1 JUMP JUMPDEST PUSH2 0x9E JUMP JUMPDEST PUSH1 0x0 DUP1 REVERT JUMPDEST PUSH8 0xFFFFFFFFFFFFFFFF DUP2 GT PUSH2 0x1CE JUMPI PUSH2 0x1CA PUSH1 0x20 SWAP2 PUSH2 0x94 JUMP JUMPDEST ADD SWAP1 JUMP JUMPDEST PUSH2 0x9E JUMP JUMPDEST SWAP1 DUP3 PUSH1 0x0 SWAP4 SWAP3 DUP3 CALLDATACOPY ADD MSTORE JUMP JUMPDEST SWAP1 SWAP3 SWAP2 SWAP3 PUSH2 0x1F4 PUSH2 0x1EF DUP3 PUSH2 0x1B0 JUMP JUMPDEST PUSH2 0xDD JUMP JUMPDEST SWAP4 DUP2 DUP6 MSTORE PUSH1 0x20 DUP6 ADD SWAP1 DUP3 DUP5 ADD GT PUSH2 0x210 JUMPI PUSH2 0x20E SWAP3 PUSH2 0x1D3 JUMP JUMPDEST JUMP JUMPDEST PUSH2 0x1AB JUMP JUMPDEST SWAP1 DUP1 PUSH1 0x1F DUP4 ADD SLT ISZERO PUSH2 0x233 JUMPI DUP2 PUSH1 0x20 PUSH2 0x230 SWAP4 CALLDATALOAD SWAP2 ADD PUSH2 0x1DF JUMP JUMPDEST SWAP1 JUMP JUMPDEST PUSH2 0x8F JUMP JUMPDEST SWAP3 SWAP2 SWAP1 PUSH2 0x24C PUSH2 0x247 DUP3 PUSH2 0x18E JUMP JUMPDEST PUSH2 0xDD JUMP JUMPDEST SWAP4 DUP2 DUP6 MSTORE PUSH1 0x20 DUP1 DUP7 ADD SWAP3 MUL DUP2 ADD SWAP2 DUP4 DUP4 GT PUSH2 0x2A3 JUMPI DUP2 SWAP1 JUMPDEST DUP4 DUP3 LT PUSH2 0x272 JUMPI POP POP POP POP POP JUMP JUMPDEST DUP2 CALLDATALOAD PUSH8 0xFFFFFFFFFFFFFFFF DUP2 GT PUSH2 0x29E JUMPI PUSH1 0x20 SWAP2 PUSH2 0x293 DUP8 DUP5 SWAP4 DUP8 ADD PUSH2 0x215 JUMP JUMPDEST DUP2 MSTORE ADD SWAP2 ADD SWAP1 PUSH2 0x264 JUMP JUMPDEST PUSH2 0x8F JUMP JUMPDEST PUSH2 0x10F JUMP JUMPDEST SWAP1 DUP1 PUSH1 0x1F DUP4 ADD SLT ISZERO PUSH2 0x2C6 JUMPI DUP2 PUSH1 0x20 PUSH2 0x2C3 SWAP4 CALLDATALOAD SWAP2 ADD PUSH2 0x238 JUMP JUMPDEST SWAP1 JUMP JUMPDEST PUSH2 0x8F JUMP JUMPDEST SWAP1 PUSH1 0x80 DUP3 DUP3 SUB SLT PUSH2 0x356 JUMPI PUSH2 0x2E3 DUP2 PUSH1 0x0 DUP5 ADD PUSH2 0x80 JUMP JUMPDEST SWAP3 PUSH1 0x20 DUP4 ADD CALLDATALOAD PUSH8 0xFFFFFFFFFFFFFFFF DUP2 GT PUSH2 0x351 JUMPI DUP3 PUSH2 0x304 SWAP2 DUP6 ADD PUSH2 0x16B JUMP JUMPDEST SWAP3 PUSH1 0x40 DUP2 ADD CALLDATALOAD PUSH8 0xFFFFFFFFFFFFFFFF DUP2 GT PUSH2 0x34C JUMPI DUP4 PUSH2 0x325 SWAP2 DUP4 ADD PUSH2 0x16B JUMP JUMPDEST SWAP3 PUSH1 0x60 DUP3 ADD CALLDATALOAD PUSH8 0xFFFFFFFFFFFFFFFF DUP2 GT PUSH2 0x347 JUMPI PUSH2 0x344 SWAP3 ADD PUSH2 0x2A8 JUMP JUMPDEST SWAP1 JUMP JUMPDEST PUSH2 0x63 JUMP JUMPDEST PUSH2 0x63 JUMP JUMPDEST PUSH2 0x63 JUMP JUMPDEST PUSH2 0x5E JUMP JUMPDEST PUSH1 0x0 ADD SWAP1 JUMP JUMPDEST CALLVALUE PUSH2 0x393 JUMPI PUSH2 0x37D PUSH2 0x374 CALLDATASIZE PUSH1 0x4 PUSH2 0x2CB JUMP JUMPDEST SWAP3 SWAP2 SWAP1 SWAP2 PUSH2 0xC67 JUMP JUMPDEST PUSH2 0x385 PUSH2 0x53 JUMP JUMPDEST DUP1 PUSH2 0x38F DUP2 PUSH2 0x35B JUMP JUMPDEST SUB SWAP1 RETURN JUMPDEST PUSH2 0x59 JUMP JUMPDEST SWAP2 SWAP1 PUSH1 0x40 DUP4 DUP3 SUB SLT PUSH2 0x3C1 JUMPI DUP1 PUSH2 0x3B5 PUSH2 0x3BE SWAP3 PUSH1 0x0 DUP7 ADD PUSH2 0x80 JUMP JUMPDEST SWAP4 PUSH1 0x20 ADD PUSH2 0x80 JUMP JUMPDEST SWAP1 JUMP JUMPDEST PUSH2 0x5E JUMP JUMPDEST CALLVALUE PUSH2 0x3F5 JUMPI PUSH2 0x3DF PUSH2 0x3D9 CALLDATASIZE PUSH1 0x4 PUSH2 0x398 JUMP JUMPDEST SWAP1 PUSH2 0x1197 JUMP JUMPDEST PUSH2 0x3E7 PUSH2 0x53 JUMP JUMPDEST DUP1 PUSH2 0x3F1 DUP2 PUSH2 0x35B JUMP JUMPDEST SUB SWAP1 RETURN JUMPDEST PUSH2 0x59 JUMP JUMPDEST SWAP1 SWAP2 PUSH1 0x60 DUP3 DUP5 SUB SLT PUSH2 0x430 JUMPI PUSH2 0x42D PUSH2 0x416 DUP5 PUSH1 0x0 DUP6 ADD PUSH2 0x80 JUMP JUMPDEST SWAP4 PUSH2 0x424 DUP2 PUSH1 0x20 DUP7 ADD PUSH2 0x80 JUMP JUMPDEST SWAP4 PUSH1 0x40 ADD PUSH2 0x80 JUMP JUMPDEST SWAP1 JUMP JUMPDEST PUSH2 0x5E JUMP JUMPDEST POP PUSH1 0x10 SWAP1 JUMP JUMPDEST SWAP1 POP SWAP1 JUMP JUMPDEST SWAP1 JUMP JUMPDEST SWAP1 JUMP JUMPDEST PUSH2 0x44F SWAP1 PUSH2 0x443 JUMP JUMPDEST SWAP1 MSTORE JUMP JUMPDEST SWAP1 PUSH2 0x460 DUP2 PUSH1 0x20 SWAP4 PUSH2 0x446 JUMP JUMPDEST ADD SWAP1 JUMP JUMPDEST PUSH1 0x20 ADD SWAP1 JUMP JUMPDEST PUSH2 0x486 PUSH2 0x480 PUSH2 0x479 DUP4 PUSH2 0x435 JUMP JUMPDEST DUP1 SWAP5 PUSH2 0x43B JUMP JUMPDEST SWAP2 PUSH2 0x440 JUMP JUMPDEST PUSH1 0x0 SWAP2 JUMPDEST DUP4 DUP4 LT PUSH2 0x497 JUMPI POP POP POP POP JUMP JUMPDEST PUSH2 0x4AD PUSH2 0x4A7 PUSH1 0x1 SWAP3 DUP5 MLOAD PUSH2 0x453 JUMP JUMPDEST SWAP3 PUSH2 0x464 JUMP JUMPDEST SWAP3 ADD SWAP2 SWAP1 PUSH2 0x48A JUMP JUMPDEST POP PUSH1 0x10 SWAP1 JUMP JUMPDEST SWAP1 POP SWAP1 JUMP JUMPDEST SWAP1 JUMP JUMPDEST PUSH2 0x4CD SWAP1 PUSH2 0x68 JUMP JUMPDEST SWAP1 MSTORE JUMP JUMPDEST SWAP1 PUSH2 0x4DE DUP2 PUSH1 0x20 SWAP4 PUSH2 0x4C4 JUMP JUMPDEST ADD SWAP1 JUMP JUMPDEST PUSH1 0x20 ADD SWAP1 JUMP JUMPDEST PUSH2 0x504 PUSH2 0x4FE PUSH2 0x4F7 DUP4 PUSH2 0x4B6 JUMP JUMPDEST DUP1 SWAP5 PUSH2 0x4BC JUMP JUMPDEST SWAP2 PUSH2 0x4C1 JUMP JUMPDEST PUSH1 0x0 SWAP2 JUMPDEST DUP4 DUP4 LT PUSH2 0x515 JUMPI POP POP POP POP JUMP JUMPDEST PUSH2 0x52B PUSH2 0x525 PUSH1 0x1 SWAP3 DUP5 MLOAD PUSH2 0x4D1 JUMP JUMPDEST SWAP3 PUSH2 0x4E2 JUMP JUMPDEST SWAP3 ADD SWAP2 SWAP1 PUSH2 0x508 JUMP JUMPDEST PUSH2 0x53D SWAP1 PUSH2 0x68 JUMP JUMPDEST SWAP1 MSTORE JUMP JUMPDEST PUSH2 0x57B PUSH2 0x582 SWAP5 PUSH2 0x570 PUSH2 0x420 SWAP5 SWAP9 SWAP8 SWAP6 PUSH2 0x565 PUSH2 0x620 DUP7 ADD SWAP11 PUSH1 0x0 DUP8 ADD SWAP1 PUSH2 0x46A JUMP JUMPDEST PUSH2 0x200 DUP6 ADD SWAP1 PUSH2 0x4E8 JUMP JUMPDEST PUSH2 0x400 DUP4 ADD SWAP1 PUSH2 0x534 JUMP JUMPDEST ADD SWAP1 PUSH2 0x4E8 JUMP JUMPDEST JUMP JUMPDEST CALLVALUE PUSH2 0x5B9 JUMPI PUSH2 0x5B5 PUSH2 0x5A0 PUSH2 0x59A CALLDATASIZE PUSH1 0x4 PUSH2 0x3FA JUMP JUMPDEST SWAP2 PUSH2 0x1444 JUMP JUMPDEST SWAP1 PUSH2 0x5AC SWAP5 SWAP3 SWAP5 PUSH2 0x53 JUMP JUMPDEST SWAP5 DUP6 SWAP5 DUP6 PUSH2 0x541 JUMP JUMPDEST SUB SWAP1 RETURN JUMPDEST PUSH2 0x59 JUMP JUMPDEST PUSH1 0x0 DUP1 REVERT JUMPDEST SWAP1 JUMP JUMPDEST SWAP1 JUMP JUMPDEST PUSH2 0x5DD PUSH2 0x5D8 PUSH2 0x5E2 SWAP3 PUSH2 0x5C3 JUMP JUMPDEST PUSH2 0x5C6 JUMP JUMPDEST PUSH2 0x68 JUMP JUMPDEST SWAP1 JUMP JUMPDEST PUSH1 0x0 SWAP1 JUMP JUMPDEST PUSH4 0x4E487B71 PUSH1 0xE0 SHL PUSH1 0x0 MSTORE PUSH1 0x11 PUSH1 0x4 MSTORE PUSH1 0x24 PUSH1 0x0 REVERT JUMPDEST PUSH2 0x609 SWAP1 PUSH2 0x68 JUMP JUMPDEST PUSH1 0x0 NOT DUP2 EQ PUSH2 0x618 JUMPI PUSH1 0x1 ADD SWAP1 JUMP JUMPDEST PUSH2 0x5EA JUMP JUMPDEST PUSH2 0x631 PUSH2 0x62C PUSH2 0x636 SWAP3 PUSH2 0x68 JUMP JUMPDEST PUSH2 0x5C6 JUMP JUMPDEST PUSH2 0x68 JUMP JUMPDEST SWAP1 JUMP JUMPDEST SWAP1 PUSH2 0x643 SWAP1 PUSH2 0x61D JUMP JUMPDEST PUSH1 0x0 MSTORE PUSH1 0x20 MSTORE PUSH1 0x40 PUSH1 0x0 KECCAK256 SWAP1 JUMP JUMPDEST SLOAD SWAP1 JUMP JUMPDEST PUSH2 0x65E SWAP1 PUSH2 0x68 JUMP JUMPDEST PUSH1 0x0 DUP2 EQ PUSH2 0x66D JUMPI PUSH1 0x1 SWAP1 SUB SWAP1 JUMP JUMPDEST PUSH2 0x5EA JUMP JUMPDEST PUSH1 0x1 PUSH2 0x67E SWAP2 ADD PUSH2 0x68 JUMP JUMPDEST SWAP1 JUMP JUMPDEST MLOAD SWAP1 JUMP JUMPDEST PUSH4 0x4E487B71 PUSH1 0xE0 SHL PUSH1 0x0 MSTORE PUSH1 0x32 PUSH1 0x4 MSTORE PUSH1 0x24 PUSH1 0x0 REVERT JUMPDEST SWAP1 PUSH2 0x6A5 DUP3 PUSH2 0x681 JUMP JUMPDEST DUP2 LT ISZERO PUSH2 0x6B6 JUMPI PUSH1 0x20 DUP1 SWAP2 MUL ADD ADD SWAP1 JUMP JUMPDEST PUSH2 0x685 JUMP JUMPDEST PUSH2 0x6C5 SWAP1 MLOAD PUSH2 0x68 JUMP JUMPDEST SWAP1 JUMP JUMPDEST PUSH1 0x0 MSTORE PUSH1 0x20 PUSH1 0x0 KECCAK256 SWAP1 JUMP JUMPDEST PUSH2 0x6DC DUP2 PUSH2 0x651 JUMP JUMPDEST DUP3 LT ISZERO PUSH2 0x6F7 JUMPI PUSH2 0x6EE PUSH1 0x3 SWAP2 PUSH2 0x6C8 JUMP JUMPDEST SWAP2 MUL ADD SWAP1 PUSH1 0x0 SWAP1 JUMP JUMPDEST PUSH2 0x685 JUMP JUMPDEST PUSH1 0x0 SHR SWAP1 JUMP JUMPDEST SWAP1 JUMP JUMPDEST PUSH2 0x711 PUSH2 0x716 SWAP2 PUSH2 0x6FC JUMP JUMPDEST PUSH2 0x702 JUMP JUMPDEST SWAP1 JUMP JUMPDEST PUSH2 0x723 SWAP1 SLOAD PUSH2 0x705 JUMP JUMPDEST SWAP1 JUMP JUMPDEST ISZERO ISZERO SWAP1 JUMP JUMPDEST PUSH1 0x1 DUP1 PUSH1 0xA0 SHL SUB AND SWAP1 JUMP JUMPDEST PUSH2 0x742 PUSH2 0x747 SWAP2 PUSH2 0x6FC JUMP JUMPDEST PUSH2 0x72B JUMP JUMPDEST SWAP1 JUMP JUMPDEST PUSH2 0x754 SWAP1 SLOAD PUSH2 0x736 JUMP JUMPDEST SWAP1 JUMP JUMPDEST PUSH1 0x1 DUP1 PUSH1 0xA0 SHL SUB AND SWAP1 JUMP JUMPDEST PUSH2 0x776 PUSH2 0x771 PUSH2 0x77B SWAP3 PUSH2 0x757 JUMP JUMPDEST PUSH2 0x5C6 JUMP JUMPDEST PUSH2 0x757 JUMP JUMPDEST SWAP1 JUMP JUMPDEST PUSH2 0x787 SWAP1 PUSH2 0x762 JUMP JUMPDEST SWAP1 JUMP JUMPDEST PUSH2 0x793 SWAP1 PUSH2 0x77E JUMP JUMPDEST SWAP1 JUMP JUMPDEST PUSH1 0x1 DUP1 PUSH1 0xA0 SHL SUB AND SWAP1 JUMP JUMPDEST PUSH2 0x7AD PUSH2 0x7B2 SWAP2 PUSH2 0x6FC JUMP JUMPDEST PUSH2 0x796 JUMP JUMPDEST SWAP1 JUMP JUMPDEST PUSH2 0x7BF SWAP1 SLOAD PUSH2 0x7A1 JUMP JUMPDEST SWAP1 JUMP JUMPDEST MLOAD SWAP1 JUMP JUMPDEST SWAP1 PUSH2 0x7D0 DUP3 PUSH2 0x7C2 JUMP JUMPDEST DUP2 LT ISZERO PUSH2 0x7E1 JUMPI PUSH1 0x20 DUP1 SWAP2 MUL ADD ADD SWAP1 JUMP JUMPDEST PUSH2 0x685 JUMP JUMPDEST PUSH1 0xE0 SHL SWAP1 JUMP JUMPDEST PUSH2 0x7F5 DUP2 PUSH2 0x726 JUMP JUMPDEST SUB PUSH2 0x7FC JUMPI JUMP JUMPDEST PUSH1 0x0 DUP1 REVERT JUMPDEST SWAP1 POP MLOAD SWAP1 PUSH2 0x80E DUP3 PUSH2 0x7EC JUMP JUMPDEST JUMP JUMPDEST SWAP1 PUSH1 0x20 DUP3 DUP3 SUB SLT PUSH2 0x82A JUMPI PUSH2 0x827 SWAP2 PUSH1 0x0 ADD PUSH2 0x801 JUMP JUMPDEST SWAP1 JUMP JUMPDEST PUSH2 0x5E JUMP JUMPDEST PUSH2 0x838 SWAP1 PUSH2 0x757 JUMP JUMPDEST SWAP1 JUMP JUMPDEST PUSH2 0x844 SWAP1 PUSH2 0x82F JUMP JUMPDEST SWAP1 MSTORE JUMP JUMPDEST MLOAD SWAP1 JUMP JUMPDEST PUSH1 0x20 SWAP2 DUP2 MSTORE ADD SWAP1 JUMP JUMPDEST PUSH1 0x0 JUMPDEST DUP4 DUP2 LT PUSH2 0x869 JUMPI POP POP SWAP1 PUSH1 0x0 SWAP2 ADD MSTORE JUMP JUMPDEST DUP1 PUSH1 0x20 SWAP2 DUP4 ADD MLOAD DUP2 DUP6 ADD MSTORE ADD PUSH2 0x858 JUMP JUMPDEST PUSH2 0x899 PUSH2 0x8A2 PUSH1 0x20 SWAP4 PUSH2 0x8A7 SWAP4 PUSH2 0x890 DUP2 PUSH2 0x848 JUMP JUMPDEST SWAP4 DUP5 DUP1 SWAP4 PUSH2 0x84C JUMP JUMPDEST SWAP6 DUP7 SWAP2 ADD PUSH2 0x855 JUMP JUMPDEST PUSH2 0x94 JUMP JUMPDEST ADD SWAP1 JUMP JUMPDEST PUSH2 0x8FA SWAP5 PUSH2 0x8E5 DUP3 SWAP9 SWAP8 SWAP6 PUSH2 0x8DB PUSH1 0x80 SWAP7 PUSH2 0x8D1 PUSH2 0x8F2 SWAP8 PUSH1 0x0 PUSH1 0xA0 DUP10 ADD SWAP9 ADD SWAP1 PUSH2 0x83B JUMP JUMPDEST PUSH1 0x20 DUP13 ADD SWAP1 PUSH2 0x83B JUMP JUMPDEST PUSH1 0x40 DUP11 ADD SWAP1 PUSH2 0x534 JUMP JUMPDEST DUP8 DUP3 SUB PUSH1 0x60 DUP10 ADD MSTORE PUSH2 0x87A JUMP JUMPDEST SWAP5 ADD SWAP1 PUSH2 0x534 JUMP JUMPDEST JUMP JUMPDEST PUSH2 0x904 PUSH2 0x53 JUMP JUMPDEST RETURNDATASIZE PUSH1 0x0 DUP3 RETURNDATACOPY RETURNDATASIZE SWAP1 REVERT JUMPDEST SWAP1 JUMP JUMPDEST PUSH2 0x924 PUSH2 0x91F PUSH2 0x929 SWAP3 PUSH2 0x90D JUMP JUMPDEST PUSH2 0x5C6 JUMP JUMPDEST PUSH2 0x68 JUMP JUMPDEST SWAP1 JUMP JUMPDEST PUSH2 0x93B PUSH2 0x941 SWAP2 SWAP4 SWAP3 SWAP4 PUSH2 0x68 JUMP JUMPDEST SWAP3 PUSH2 0x68 JUMP JUMPDEST DUP3 SUB SWAP2 DUP3 GT PUSH2 0x94C JUMPI JUMP JUMPDEST PUSH2 0x5EA JUMP JUMPDEST PUSH4 0x4E487B71 PUSH1 0xE0 SHL PUSH1 0x0 MSTORE PUSH1 0x0 PUSH1 0x4 MSTORE PUSH1 0x24 PUSH1 0x0 REVERT JUMPDEST PUSH1 0x0 SHL SWAP1 JUMP JUMPDEST SWAP1 PUSH2 0x97A PUSH1 0x0 NOT SWAP2 PUSH2 0x967 JUMP JUMPDEST SWAP2 DUP2 NOT AND SWAP2 AND OR SWAP1 JUMP JUMPDEST SWAP1 JUMP JUMPDEST SWAP1 PUSH2 0x99C PUSH2 0x997 PUSH2 0x9A3 SWAP3 PUSH2 0x61D JUMP JUMPDEST PUSH2 0x984 JUMP JUMPDEST DUP3 SLOAD PUSH2 0x96D JUMP JUMPDEST SWAP1 SSTORE JUMP JUMPDEST SWAP1 PUSH2 0x9B8 PUSH1 0x1 DUP1 PUSH1 0xA0 SHL SUB SWAP2 PUSH2 0x967 JUMP JUMPDEST SWAP2 DUP2 NOT AND SWAP2 AND OR SWAP1 JUMP JUMPDEST PUSH2 0x9CB SWAP1 PUSH2 0x77E JUMP JUMPDEST SWAP1 JUMP JUMPDEST SWAP1 JUMP JUMPDEST SWAP1 PUSH2 0x9E6 PUSH2 0x9E1 PUSH2 0x9ED SWAP3 PUSH2 0x9C2 JUMP JUMPDEST PUSH2 0x9CE JUMP JUMPDEST DUP3 SLOAD PUSH2 0x9A7 JUMP JUMPDEST SWAP1 SSTORE JUMP JUMPDEST SWAP1 DUP1 DUP3 SUB PUSH2 0x9FE JUMPI JUMPDEST POP POP JUMP JUMPDEST PUSH2 0xA42 PUSH1 0x2 DUP1 DUP5 PUSH2 0xA21 PUSH1 0x0 PUSH2 0xA48 SWAP8 ADD PUSH2 0xA1B PUSH1 0x0 DUP9 ADD PUSH2 0x719 JUMP JUMPDEST SWAP1 PUSH2 0x987 JUMP JUMPDEST PUSH2 0xA3A PUSH1 0x1 DUP3 ADD PUSH2 0xA34 PUSH1 0x1 DUP9 ADD PUSH2 0x7B5 JUMP JUMPDEST SWAP1 PUSH2 0x9D1 JUMP JUMPDEST ADD SWAP3 ADD PUSH2 0x719 JUMP JUMPDEST SWAP1 PUSH2 0x987 JUMP JUMPDEST CODESIZE DUP1 PUSH2 0x9FA JUMP JUMPDEST SWAP2 SWAP1 PUSH2 0xA60 JUMPI PUSH2 0xA5E SWAP2 PUSH2 0x9F1 JUMP JUMPDEST JUMP JUMPDEST PUSH2 0x951 JUMP JUMPDEST SWAP1 JUMP JUMPDEST PUSH4 0x4E487B71 PUSH1 0xE0 SHL PUSH1 0x0 MSTORE PUSH1 0x31 PUSH1 0x4 MSTORE PUSH1 0x24 PUSH1 0x0 REVERT JUMPDEST SLOAD SWAP1 JUMP JUMPDEST PUSH1 0x0 MSTORE PUSH1 0x20 PUSH1 0x0 KECCAK256 SWAP1 JUMP JUMPDEST PUSH2 0xA96 DUP2 PUSH2 0xA7E JUMP JUMPDEST DUP3 LT ISZERO PUSH2 0xAB1 JUMPI PUSH2 0xAA8 PUSH1 0x3 SWAP2 PUSH2 0xA82 JUMP JUMPDEST SWAP2 MUL ADD SWAP1 PUSH1 0x0 SWAP1 JUMP JUMPDEST PUSH2 0x685 JUMP JUMPDEST SHL SWAP1 JUMP JUMPDEST SWAP2 SWAP1 PUSH1 0x8 PUSH2 0xAD6 SWAP2 MUL SWAP2 PUSH2 0xAD0 PUSH1 0x0 NOT DUP5 PUSH2 0xAB6 JUMP JUMPDEST SWAP3 PUSH2 0xAB6 JUMP JUMPDEST SWAP2 DUP2 NOT AND SWAP2 AND OR SWAP1 JUMP JUMPDEST SWAP2 SWAP1 PUSH2 0xAF6 PUSH2 0xAF1 PUSH2 0xAFE SWAP4 PUSH2 0x61D JUMP JUMPDEST PUSH2 0x984 JUMP JUMPDEST SWAP1 DUP4 SLOAD PUSH2 0xABA JUMP JUMPDEST SWAP1 SSTORE JUMP JUMPDEST PUSH2 0xB14 SWAP2 PUSH2 0xB0E PUSH2 0x5E5 JUMP JUMPDEST SWAP2 PUSH2 0xAE0 JUMP JUMPDEST JUMP JUMPDEST PUSH1 0x0 PUSH1 0x2 PUSH2 0xB36 SWAP3 PUSH2 0xB2A DUP4 DUP1 DUP4 ADD PUSH2 0xB02 JUMP JUMPDEST DUP3 PUSH1 0x1 DUP3 ADD SSTORE ADD PUSH2 0xB02 JUMP JUMPDEST JUMP JUMPDEST SWAP1 PUSH1 0x0 SUB PUSH2 0xB4B JUMPI PUSH2 0xB49 SWAP1 PUSH2 0xB16 JUMP JUMPDEST JUMP JUMPDEST PUSH2 0x951 JUMP JUMPDEST PUSH2 0xB59 DUP2 PUSH2 0xA7E JUMP JUMPDEST DUP1 ISZERO PUSH2 0xB7A JUMPI PUSH1 0x1 SWAP1 SUB SWAP1 PUSH2 0xB77 PUSH2 0xB71 DUP4 DUP4 PUSH2 0xA8D JUMP JUMPDEST SWAP1 PUSH2 0xB38 JUMP JUMPDEST SSTORE JUMP JUMPDEST PUSH2 0xA68 JUMP JUMPDEST SWAP1 JUMP JUMPDEST PUSH2 0xB96 PUSH2 0xB91 PUSH2 0xB9B SWAP3 PUSH2 0xB7F JUMP JUMPDEST PUSH2 0x5C6 JUMP JUMPDEST PUSH2 0x68 JUMP JUMPDEST SWAP1 JUMP JUMPDEST PUSH2 0xBAD PUSH2 0xBB3 SWAP2 SWAP4 SWAP3 SWAP4 PUSH2 0x68 JUMP JUMPDEST SWAP3 PUSH2 0x68 JUMP JUMPDEST SWAP2 PUSH2 0xBBF DUP4 DUP3 MUL PUSH2 0x68 JUMP JUMPDEST SWAP3 DUP2 DUP5 DIV EQ SWAP1 ISZERO OR ISZERO PUSH2 0xBCE JUMPI JUMP JUMPDEST PUSH2 0x5EA JUMP JUMPDEST PUSH4 0x4E487B71 PUSH1 0xE0 SHL PUSH1 0x0 MSTORE PUSH1 0x12 PUSH1 0x4 MSTORE PUSH1 0x24 PUSH1 0x0 REVERT JUMPDEST PUSH2 0xBF5 PUSH2 0xBFB SWAP2 PUSH2 0x68 JUMP JUMPDEST SWAP2 PUSH2 0x68 JUMP JUMPDEST SWAP1 DUP2 ISZERO PUSH2 0xC06 JUMPI DIV SWAP1 JUMP JUMPDEST PUSH2 0xBD3 JUMP JUMPDEST PUSH1 0x1 DUP1 PUSH1 0xA0 SHL SUB AND SWAP1 JUMP JUMPDEST PUSH2 0xC22 PUSH2 0xC27 SWAP2 PUSH2 0x6FC JUMP JUMPDEST PUSH2 0xC0B JUMP JUMPDEST SWAP1 JUMP JUMPDEST PUSH2 0xC34 SWAP1 SLOAD PUSH2 0xC16 JUMP JUMPDEST SWAP1 JUMP JUMPDEST PUSH2 0xC40 SWAP1 PUSH2 0x77E JUMP JUMPDEST SWAP1 JUMP JUMPDEST SWAP2 PUSH1 0x20 PUSH2 0xC65 SWAP3 SWAP5 SWAP4 PUSH2 0xC5E PUSH1 0x40 DUP3 ADD SWAP7 PUSH1 0x0 DUP4 ADD SWAP1 PUSH2 0x83B JUMP JUMPDEST ADD SWAP1 PUSH2 0x534 JUMP JUMPDEST JUMP JUMPDEST SWAP1 SWAP2 SWAP4 SWAP3 SWAP4 PUSH1 0x0 SWAP3 PUSH2 0xC79 PUSH1 0x0 PUSH2 0x5C9 JUMP JUMPDEST PUSH2 0xC81 PUSH2 0x5E5 JUMP JUMPDEST SWAP5 JUMPDEST DUP6 PUSH2 0xCA9 PUSH2 0xCA3 PUSH2 0xC9E PUSH2 0xC99 PUSH1 0x3 DUP11 SWAP1 PUSH2 0x639 JUMP JUMPDEST PUSH2 0x651 JUMP JUMPDEST PUSH2 0x68 JUMP JUMPDEST SWAP2 PUSH2 0x68 JUMP JUMPDEST LT ISZERO PUSH2 0xF08 JUMPI DUP1 PUSH2 0xEF5 JUMPI JUMPDEST PUSH2 0xCBD PUSH2 0x5E5 JUMP JUMPDEST SWAP2 PUSH1 0x0 SWAP8 PUSH2 0xCC9 PUSH2 0x5E5 JUMP JUMPDEST JUMPDEST DUP1 PUSH2 0xCE5 PUSH2 0xCDF PUSH2 0xCDA DUP10 PUSH2 0x681 JUMP JUMPDEST PUSH2 0x68 JUMP JUMPDEST SWAP2 PUSH2 0x68 JUMP JUMPDEST LT ISZERO PUSH2 0xEE5 JUMPI DUP8 PUSH2 0xD30 PUSH2 0xD2A PUSH2 0xD25 PUSH1 0x2 PUSH2 0xD1E DUP15 PUSH2 0xD19 PUSH2 0xD11 PUSH2 0xD0C DUP16 DUP12 SWAP1 PUSH2 0x69B JUMP JUMPDEST PUSH2 0x6BB JUMP JUMPDEST SWAP8 PUSH1 0x3 PUSH2 0x639 JUMP JUMPDEST PUSH2 0x6D3 JUMP JUMPDEST POP ADD PUSH2 0x719 JUMP JUMPDEST PUSH2 0x68 JUMP JUMPDEST SWAP2 PUSH2 0x68 JUMP JUMPDEST EQ PUSH2 0xD43 JUMPI PUSH2 0xD3E SWAP1 PUSH2 0x672 JUMP JUMPDEST PUSH2 0xCCA JUMP JUMPDEST POP SWAP3 POP SWAP6 DUP1 SWAP4 SWAP8 POP SWAP1 PUSH2 0xD58 PUSH1 0x1 JUMPDEST ISZERO PUSH2 0x726 JUMP JUMPDEST PUSH2 0xEDA JUMPI POP PUSH2 0xD67 PUSH1 0x0 PUSH2 0x74A JUMP JUMPDEST PUSH2 0xD70 SWAP1 PUSH2 0x78A JUMP JUMPDEST PUSH4 0xB052B8DF CALLER SWAP1 PUSH1 0x3 DUP9 PUSH2 0xD83 SWAP2 PUSH2 0x639 JUMP JUMPDEST DUP7 PUSH2 0xD8D SWAP2 PUSH2 0x6D3 JUMP JUMPDEST POP PUSH1 0x1 ADD PUSH2 0xD9A SWAP1 PUSH2 0x7B5 JUMP JUMPDEST SWAP2 PUSH1 0x3 DUP10 PUSH2 0xDA7 SWAP2 PUSH2 0x639 JUMP JUMPDEST DUP8 PUSH2 0xDB1 SWAP2 PUSH2 0x6D3 JUMP JUMPDEST POP PUSH1 0x0 ADD PUSH2 0xDBE SWAP1 PUSH2 0x719 JUMP JUMPDEST SWAP5 DUP13 DUP2 PUSH2 0xDCA SWAP2 PUSH2 0x7C6 JUMP JUMPDEST MLOAD SWAP1 DUP10 SWAP1 PUSH2 0xDD7 SWAP2 PUSH2 0x69B JUMP JUMPDEST PUSH2 0xDE0 SWAP1 PUSH2 0x6BB JUMP JUMPDEST SWAP1 PUSH2 0xDE9 PUSH2 0x53 JUMP JUMPDEST SWAP7 DUP8 SWAP6 PUSH2 0xDF6 DUP8 SWAP7 PUSH2 0x7E6 JUMP JUMPDEST DUP7 MSTORE PUSH1 0x4 DUP7 ADD SWAP5 PUSH2 0xE06 SWAP6 PUSH2 0x8AB JUMP JUMPDEST SUB DUP2 GAS PUSH1 0x20 SWAP5 PUSH1 0x0 SWAP2 CALL DUP1 ISZERO PUSH2 0xED5 JUMPI PUSH2 0xEA9 JUMPI JUMPDEST POP PUSH2 0xE78 PUSH2 0xE5B PUSH2 0xE2E PUSH1 0x3 DUP8 SWAP1 PUSH2 0x639 JUMP JUMPDEST PUSH2 0xE55 PUSH2 0xE45 PUSH2 0xE40 PUSH1 0x3 DUP11 SWAP1 PUSH2 0x639 JUMP JUMPDEST PUSH2 0x651 JUMP JUMPDEST PUSH2 0xE4F PUSH1 0x1 PUSH2 0x910 JUMP JUMPDEST SWAP1 PUSH2 0x92C JUMP JUMPDEST SWAP1 PUSH2 0x6D3 JUMP JUMPDEST POP PUSH2 0xE72 PUSH2 0xE6B PUSH1 0x3 DUP9 SWAP1 PUSH2 0x639 JUMP JUMPDEST DUP6 SWAP1 PUSH2 0x6D3 JUMP JUMPDEST SWAP1 PUSH2 0xA4F JUMP JUMPDEST PUSH2 0xE94 PUSH2 0xE8F PUSH2 0xE8A PUSH1 0x3 DUP8 SWAP1 PUSH2 0x639 JUMP JUMPDEST PUSH2 0xA65 JUMP JUMPDEST PUSH2 0xB50 JUMP JUMPDEST PUSH2 0xEA0 PUSH1 0x1 SWAP3 JUMPDEST PUSH2 0x600 JUMP JUMPDEST SWAP5 SWAP1 SWAP6 SWAP2 PUSH2 0xC83 JUMP JUMPDEST PUSH2 0xEC9 SWAP1 PUSH1 0x20 RETURNDATASIZE DUP2 GT PUSH2 0xECE JUMPI JUMPDEST PUSH2 0xEC1 DUP2 DUP4 PUSH2 0xB4 JUMP JUMPDEST DUP2 ADD SWAP1 PUSH2 0x810 JUMP JUMPDEST PUSH2 0xE1B JUMP JUMPDEST POP RETURNDATASIZE PUSH2 0xEB7 JUMP JUMPDEST PUSH2 0x8FC JUMP JUMPDEST SWAP3 PUSH2 0xEA0 SWAP2 POP PUSH2 0xE9B JUMP JUMPDEST POP SWAP3 SWAP2 SWAP1 SWAP7 SWAP4 SWAP8 PUSH2 0xD58 SWAP1 PUSH2 0xD52 JUMP JUMPDEST POP SWAP4 PUSH2 0xF00 SWAP1 PUSH2 0x655 JUMP JUMPDEST SWAP4 PUSH1 0x0 PUSH2 0xCB5 JUMP JUMPDEST POP SWAP2 POP POP PUSH2 0xF2D SWAP4 SWAP5 POP PUSH2 0xF28 SWAP2 SWAP3 POP PUSH2 0xF22 PUSH1 0x64 PUSH2 0xB82 JUMP JUMPDEST SWAP1 PUSH2 0xB9E JUMP JUMPDEST PUSH2 0xBE9 JUMP JUMPDEST PUSH1 0x20 PUSH2 0xF41 PUSH2 0xF3C PUSH1 0x1 PUSH2 0xC2A JUMP JUMPDEST PUSH2 0xC37 JUMP JUMPDEST SWAP2 PUSH4 0xA9059CBB SWAP3 PUSH2 0xF67 PUSH1 0x0 CALLER SWAP4 SWAP6 PUSH2 0xF72 PUSH2 0xF5B PUSH2 0x53 JUMP JUMPDEST SWAP8 DUP9 SWAP7 DUP8 SWAP6 DUP7 SWAP5 PUSH2 0x7E6 JUMP JUMPDEST DUP5 MSTORE PUSH1 0x4 DUP5 ADD PUSH2 0xC43 JUMP JUMPDEST SUB SWAP3 GAS CALL DUP1 ISZERO PUSH2 0xFB0 JUMPI PUSH2 0xF84 JUMPI JUMPDEST POP JUMP JUMPDEST PUSH2 0xFA4 SWAP1 PUSH1 0x20 RETURNDATASIZE DUP2 GT PUSH2 0xFA9 JUMPI JUMPDEST PUSH2 0xF9C DUP2 DUP4 PUSH2 0xB4 JUMP JUMPDEST DUP2 ADD SWAP1 PUSH2 0x810 JUMP JUMPDEST PUSH2 0xF81 JUMP JUMPDEST POP RETURNDATASIZE PUSH2 0xF92 JUMP JUMPDEST PUSH2 0x8FC JUMP JUMPDEST PUSH2 0xFBF PUSH1 0x60 PUSH2 0xDD JUMP JUMPDEST SWAP1 JUMP JUMPDEST PUSH1 0x0 SWAP1 JUMP JUMPDEST PUSH1 0x0 SWAP1 JUMP JUMPDEST PUSH2 0xFD4 PUSH2 0xFB5 JUMP JUMPDEST SWAP1 PUSH1 0x20 DUP1 DUP1 DUP5 PUSH2 0xFE2 PUSH2 0xFC2 JUMP JUMPDEST DUP2 MSTORE ADD PUSH2 0xFED PUSH2 0xFC7 JUMP JUMPDEST DUP2 MSTORE ADD PUSH2 0xFF8 PUSH2 0xFC2 JUMP JUMPDEST DUP2 MSTORE POP POP JUMP JUMPDEST PUSH2 0x1006 PUSH2 0xFCC JUMP JUMPDEST SWAP1 JUMP JUMPDEST SWAP1 PUSH2 0x1013 SWAP1 PUSH2 0x68 JUMP JUMPDEST SWAP1 MSTORE JUMP JUMPDEST PUSH1 0x20 SWAP2 DUP2 MSTORE ADD SWAP1 JUMP JUMPDEST PUSH1 0x0 PUSH32 0x4F7264657220746F6F20736D616C6C2E00000000000000000000000000000000 SWAP2 ADD MSTORE JUMP JUMPDEST PUSH2 0x1055 PUSH1 0x10 PUSH1 0x20 SWAP3 PUSH2 0x1017 JUMP JUMPDEST PUSH2 0x105E DUP2 PUSH2 0x1020 JUMP JUMPDEST ADD SWAP1 JUMP JUMPDEST PUSH2 0x1078 SWAP1 PUSH1 0x20 DUP2 ADD SWAP1 PUSH1 0x0 DUP2 DUP4 SUB SWAP2 ADD MSTORE PUSH2 0x1048 JUMP JUMPDEST SWAP1 JUMP JUMPDEST ISZERO PUSH2 0x1082 JUMPI JUMP JUMPDEST PUSH2 0x108A PUSH2 0x53 JUMP JUMPDEST PUSH3 0x461BCD PUSH1 0xE5 SHL DUP2 MSTORE DUP1 PUSH2 0x10A0 PUSH1 0x4 DUP3 ADD PUSH2 0x1062 JUMP JUMPDEST SUB SWAP1 REVERT JUMPDEST SWAP1 PUSH2 0x10AE SWAP1 PUSH2 0x82F JUMP JUMPDEST SWAP1 MSTORE JUMP JUMPDEST PUSH2 0x10BB SWAP1 PUSH2 0x77E JUMP JUMPDEST SWAP1 JUMP JUMPDEST PUSH1 0x40 SWAP1 PUSH2 0x10E8 PUSH2 0x10EF SWAP5 SWAP7 SWAP6 SWAP4 SWAP7 PUSH2 0x10DE PUSH1 0x60 DUP5 ADD SWAP9 PUSH1 0x0 DUP6 ADD SWAP1 PUSH2 0x83B JUMP JUMPDEST PUSH1 0x20 DUP4 ADD SWAP1 PUSH2 0x83B JUMP JUMPDEST ADD SWAP1 PUSH2 0x534 JUMP JUMPDEST JUMP JUMPDEST PUSH2 0x10FB SWAP1 MLOAD PUSH2 0x82F JUMP JUMPDEST SWAP1 JUMP JUMPDEST SWAP1 PUSH2 0x1144 PUSH1 0x40 PUSH1 0x2 PUSH2 0x114A SWAP5 PUSH2 0x1123 PUSH1 0x0 DUP3 ADD PUSH2 0x111D PUSH1 0x0 DUP9 ADD PUSH2 0x6BB JUMP JUMPDEST SWAP1 PUSH2 0x987 JUMP JUMPDEST PUSH2 0x113C PUSH1 0x1 DUP3 ADD PUSH2 0x1136 PUSH1 0x20 DUP9 ADD PUSH2 0x10F1 JUMP JUMPDEST SWAP1 PUSH2 0x9D1 JUMP JUMPDEST ADD SWAP3 ADD PUSH2 0x6BB JUMP JUMPDEST SWAP1 PUSH2 0x987 JUMP JUMPDEST JUMP JUMPDEST SWAP2 SWAP1 PUSH2 0x115D JUMPI PUSH2 0x115B SWAP2 PUSH2 0x10FE JUMP JUMPDEST JUMP JUMPDEST PUSH2 0x951 JUMP JUMPDEST SWAP1 DUP2 SLOAD SWAP2 PUSH9 0x10000000000000000 DUP4 LT ISZERO PUSH2 0x1192 JUMPI DUP3 PUSH2 0x118A SWAP2 PUSH1 0x1 PUSH2 0x1190 SWAP6 ADD DUP2 SSTORE PUSH2 0xA8D JUMP JUMPDEST SWAP1 PUSH2 0x114C JUMP JUMPDEST JUMP JUMPDEST PUSH2 0x9E JUMP JUMPDEST SWAP1 PUSH2 0x11A0 PUSH2 0xFFE JUMP JUMPDEST SWAP1 PUSH2 0x11CB PUSH2 0x11C2 DUP3 PUSH2 0x11BC DUP7 PUSH2 0x11B6 PUSH1 0x64 PUSH2 0xB82 JUMP JUMPDEST SWAP1 PUSH2 0xBE9 JUMP JUMPDEST SWAP1 PUSH2 0xB9E JUMP JUMPDEST PUSH1 0x0 DUP5 ADD PUSH2 0x1009 JUMP JUMPDEST PUSH2 0x11F3 PUSH2 0x11DA PUSH1 0x0 DUP5 ADD PUSH2 0x6BB JUMP JUMPDEST PUSH2 0x11ED PUSH2 0x11E7 PUSH1 0x0 PUSH2 0x5C9 JUMP JUMPDEST SWAP2 PUSH2 0x68 JUMP JUMPDEST GT PUSH2 0x107B JUMP JUMPDEST PUSH2 0x1200 CALLER PUSH1 0x20 DUP5 ADD PUSH2 0x10A4 JUMP JUMPDEST PUSH2 0x120D TIMESTAMP PUSH1 0x40 DUP5 ADD PUSH2 0x1009 JUMP JUMPDEST PUSH1 0x20 PUSH2 0x1221 PUSH2 0x121C PUSH1 0x1 PUSH2 0xC2A JUMP JUMPDEST PUSH2 0xC37 JUMP JUMPDEST PUSH4 0x23B872DD SWAP1 PUSH2 0x124F PUSH1 0x0 CALLER SWAP4 PUSH2 0x125A PUSH2 0x123A ADDRESS PUSH2 0x10B2 JUMP JUMPDEST SWAP8 PUSH2 0x1243 PUSH2 0x53 JUMP JUMPDEST SWAP9 DUP10 SWAP8 DUP9 SWAP7 DUP8 SWAP6 PUSH2 0x7E6 JUMP JUMPDEST DUP6 MSTORE PUSH1 0x4 DUP6 ADD PUSH2 0x10BE JUMP JUMPDEST SUB SWAP3 GAS CALL DUP1 ISZERO PUSH2 0x12B5 JUMPI PUSH2 0x1287 SWAP4 PUSH2 0x1282 SWAP3 PUSH2 0x127D SWAP3 PUSH2 0x1289 JUMPI JUMPDEST POP PUSH1 0x3 PUSH2 0x639 JUMP JUMPDEST PUSH2 0xA65 JUMP JUMPDEST PUSH2 0x1162 JUMP JUMPDEST JUMP JUMPDEST PUSH2 0x12A9 SWAP1 PUSH1 0x20 RETURNDATASIZE DUP2 GT PUSH2 0x12AE JUMPI JUMPDEST PUSH2 0x12A1 DUP2 DUP4 PUSH2 0xB4 JUMP JUMPDEST DUP2 ADD SWAP1 PUSH2 0x810 JUMP JUMPDEST PUSH2 0x1275 JUMP JUMPDEST POP RETURNDATASIZE PUSH2 0x1297 JUMP JUMPDEST PUSH2 0x8FC JUMP JUMPDEST PUSH8 0xFFFFFFFFFFFFFFFF DUP2 GT PUSH2 0x12CF JUMPI PUSH1 0x20 MUL SWAP1 JUMP JUMPDEST PUSH2 0x9E JUMP JUMPDEST PUSH2 0x12E0 PUSH2 0x12E5 SWAP2 PUSH2 0x12BA JUMP JUMPDEST PUSH2 0xDD JUMP JUMPDEST SWAP1 JUMP JUMPDEST CALLDATASIZE SWAP1 CALLDATACOPY JUMP JUMPDEST SWAP1 PUSH2 0x130B PUSH2 0x12FA DUP4 PUSH2 0x12D4 JUMP JUMPDEST SWAP3 PUSH2 0x1305 DUP5 SWAP2 PUSH2 0x12BA JUMP JUMPDEST SWAP1 PUSH2 0x12E8 JUMP JUMPDEST JUMP JUMPDEST PUSH2 0x1317 PUSH1 0x10 PUSH2 0x12ED JUMP JUMPDEST SWAP1 JUMP JUMPDEST PUSH8 0xFFFFFFFFFFFFFFFF DUP2 GT PUSH2 0x132F JUMPI PUSH1 0x20 MUL SWAP1 JUMP JUMPDEST PUSH2 0x9E JUMP JUMPDEST PUSH2 0x1340 PUSH2 0x1345 SWAP2 PUSH2 0x131A JUMP JUMPDEST PUSH2 0xDD JUMP JUMPDEST SWAP1 JUMP JUMPDEST CALLDATASIZE SWAP1 CALLDATACOPY JUMP JUMPDEST SWAP1 PUSH2 0x136B PUSH2 0x135A DUP4 PUSH2 0x1334 JUMP JUMPDEST SWAP3 PUSH2 0x1365 DUP5 SWAP2 PUSH2 0x131A JUMP JUMPDEST SWAP1 PUSH2 0x1348 JUMP JUMPDEST JUMP JUMPDEST PUSH2 0x1377 PUSH1 0x10 PUSH2 0x134D JUMP JUMPDEST SWAP1 JUMP JUMPDEST PUSH2 0x1383 DUP2 PUSH2 0x443 JUMP JUMPDEST SUB PUSH2 0x138A JUMPI JUMP JUMPDEST PUSH1 0x0 DUP1 REVERT JUMPDEST SWAP1 POP MLOAD SWAP1 PUSH2 0x139C DUP3 PUSH2 0x137A JUMP JUMPDEST JUMP JUMPDEST SWAP1 PUSH1 0x20 DUP3 DUP3 SUB SLT PUSH2 0x13B8 JUMPI PUSH2 0x13B5 SWAP2 PUSH1 0x0 ADD PUSH2 0x138F JUMP JUMPDEST SWAP1 JUMP JUMPDEST PUSH2 0x5E JUMP JUMPDEST PUSH2 0x13F3 PUSH2 0x13FA SWAP5 PUSH2 0x13E9 PUSH1 0x60 SWAP5 SWAP9 SWAP8 SWAP6 PUSH2 0x13DF PUSH1 0x80 DUP7 ADD SWAP11 PUSH1 0x0 DUP8 ADD SWAP1 PUSH2 0x83B JUMP JUMPDEST PUSH1 0x20 DUP6 ADD SWAP1 PUSH2 0x83B JUMP JUMPDEST PUSH1 0x40 DUP4 ADD SWAP1 PUSH2 0x534 JUMP JUMPDEST ADD SWAP1 PUSH2 0x534 JUMP JUMPDEST JUMP JUMPDEST SWAP1 PUSH2 0x1406 DUP3 PUSH2 0x435 JUMP JUMPDEST DUP2 LT ISZERO PUSH2 0x1414 JUMPI PUSH1 0x20 MUL ADD SWAP1 JUMP JUMPDEST PUSH2 0x685 JUMP JUMPDEST SWAP1 PUSH2 0x1423 SWAP1 PUSH2 0x443 JUMP JUMPDEST SWAP1 MSTORE JUMP JUMPDEST SWAP1 PUSH2 0x1431 DUP3 PUSH2 0x4B6 JUMP JUMPDEST DUP2 LT ISZERO PUSH2 0x143F JUMPI PUSH1 0x20 MUL ADD SWAP1 JUMP JUMPDEST PUSH2 0x685 JUMP JUMPDEST SWAP2 SWAP1 SWAP3 PUSH2 0x144F PUSH2 0x130D JUMP JUMPDEST SWAP4 PUSH2 0x1458 PUSH2 0x136D JUMP JUMPDEST SWAP3 PUSH2 0x1461 PUSH2 0x5E5 JUMP JUMPDEST POP PUSH2 0x146A PUSH2 0x136D JUMP JUMPDEST SWAP2 DUP1 SWAP2 PUSH2 0x1477 PUSH1 0x0 PUSH2 0x5C9 JUMP JUMPDEST SWAP1 PUSH2 0x1480 PUSH2 0x5E5 JUMP JUMPDEST JUMPDEST DUP1 PUSH2 0x14A6 PUSH2 0x14A0 PUSH2 0x149B PUSH2 0x1496 DUP14 PUSH1 0x3 PUSH2 0x639 JUMP JUMPDEST PUSH2 0x651 JUMP JUMPDEST PUSH2 0x68 JUMP JUMPDEST SWAP2 PUSH2 0x68 JUMP JUMPDEST LT ISZERO PUSH2 0x168D JUMPI DUP9 PUSH2 0x14CF PUSH1 0x0 PUSH2 0x14C8 PUSH2 0x14C1 PUSH1 0x3 DUP6 SWAP1 PUSH2 0x639 JUMP JUMPDEST DUP6 SWAP1 PUSH2 0x6D3 JUMP JUMPDEST POP ADD PUSH2 0x719 JUMP JUMPDEST PUSH2 0x14E1 PUSH2 0x14DB DUP9 PUSH2 0x68 JUMP JUMPDEST SWAP2 PUSH2 0x68 JUMP JUMPDEST GT ISZERO PUSH2 0x14F7 JUMPI JUMPDEST POP PUSH2 0x14F2 SWAP1 PUSH2 0x672 JUMP JUMPDEST PUSH2 0x1481 JUMP JUMPDEST SWAP1 SWAP2 PUSH1 0x20 DUP3 PUSH2 0x150E PUSH2 0x1509 PUSH1 0x0 PUSH2 0x74A JUMP JUMPDEST PUSH2 0x78A JUMP JUMPDEST PUSH2 0x1572 DUP7 PUSH2 0x157D PUSH2 0x155C PUSH1 0x0 PUSH2 0x1555 PUSH2 0x154E PUSH2 0x1546 PUSH1 0x1 PUSH2 0x153F PUSH4 0xF34D85E4 SWAP9 PUSH2 0x153A CALLER SWAP14 PUSH1 0x3 PUSH2 0x639 JUMP JUMPDEST PUSH2 0x6D3 JUMP JUMPDEST POP ADD PUSH2 0x7B5 JUMP JUMPDEST SWAP12 PUSH1 0x3 PUSH2 0x639 JUMP JUMPDEST DUP13 SWAP1 PUSH2 0x6D3 JUMP JUMPDEST POP ADD PUSH2 0x719 JUMP JUMPDEST DUP8 SWAP1 PUSH2 0x1566 PUSH2 0x53 JUMP JUMPDEST SWAP10 DUP11 SWAP8 DUP9 SWAP7 DUP8 SWAP7 PUSH2 0x7E6 JUMP JUMPDEST DUP7 MSTORE PUSH1 0x4 DUP7 ADD PUSH2 0x13BD JUMP JUMPDEST SUB SWAP2 GAS STATICCALL DUP1 ISZERO PUSH2 0x1688 JUMPI PUSH2 0x15D8 PUSH1 0x2 PUSH2 0x15D1 PUSH2 0x15CA DUP16 DUP16 SWAP10 PUSH2 0x15BD PUSH2 0x15C2 SWAP3 PUSH2 0x15B8 PUSH2 0x15EA SWAP10 PUSH2 0x1626 SWAP13 PUSH1 0x0 SWAP2 PUSH2 0x165A JUMPI JUMPDEST POP DUP5 SWAP1 SWAP3 PUSH2 0x13FC JUMP JUMPDEST PUSH2 0x1419 JUMP JUMPDEST PUSH2 0x600 JUMP JUMPDEST SWAP9 PUSH1 0x3 PUSH2 0x639 JUMP JUMPDEST DUP8 SWAP1 PUSH2 0x6D3 JUMP JUMPDEST POP ADD PUSH2 0x719 JUMP JUMPDEST PUSH2 0x15E5 DUP12 SWAP2 DUP8 SWAP1 SWAP3 PUSH2 0x1427 JUMP JUMPDEST PUSH2 0x1009 JUMP JUMPDEST PUSH2 0x1621 DUP11 PUSH2 0x161C DUP10 PUSH2 0x1615 PUSH1 0x2 PUSH2 0x160E PUSH2 0x1607 DUP9 SWAP5 SWAP7 PUSH1 0x3 PUSH2 0x639 JUMP JUMPDEST DUP11 SWAP1 PUSH2 0x6D3 JUMP JUMPDEST POP ADD PUSH2 0x719 JUMP JUMPDEST SWAP1 SWAP3 PUSH2 0x1427 JUMP JUMPDEST PUSH2 0x1009 JUMP JUMPDEST PUSH2 0x600 JUMP JUMPDEST SWAP1 DUP5 PUSH2 0x163B PUSH2 0x1635 PUSH1 0x0 PUSH2 0x5C9 JUMP JUMPDEST SWAP2 PUSH2 0x68 JUMP JUMPDEST EQ PUSH2 0x1646 JUMPI DUP9 PUSH2 0x14E8 JUMP JUMPDEST POP POP POP PUSH2 0x1657 SWAP3 SWAP4 SWAP5 SWAP6 POP JUMPDEST PUSH2 0x92C JUMP JUMPDEST SWAP2 JUMP JUMPDEST PUSH2 0x167B SWAP2 POP PUSH1 0x20 RETURNDATASIZE DUP2 GT PUSH2 0x1681 JUMPI JUMPDEST PUSH2 0x1673 DUP2 DUP4 PUSH2 0xB4 JUMP JUMPDEST DUP2 ADD SWAP1 PUSH2 0x139E JUMP JUMPDEST CODESIZE PUSH2 0x15AF JUMP JUMPDEST POP RETURNDATASIZE PUSH2 0x1669 JUMP JUMPDEST PUSH2 0x8FC JUMP JUMPDEST POP POP POP PUSH2 0x1657 SWAP3 SWAP4 SWAP5 SWAP6 POP PUSH2 0x1652 JUMP INVALID LOG2 PUSH5 0x6970667358 0x22 SLT KECCAK256 XOR BALANCE PREVRANDAO 0xA9 0xDB 0xC5 TLOAD TIMESTAMP REVERT JUMP SGT PUSH16 0xE88C3248D3E83D791ED1B919CE3761AE ISZERO 0x4F STATICCALL 0xB0 PUSH5 0x736F6C6343 STOP ADDMOD SHL STOP CALLER "},"methodIdentifiers":{"prepareTransfers(uint256,uint256,uint256)":"f2737016","swapOff(uint256,uint256[],uint256[],bytes[])":"7ce3d0da","swapOn(uint256,uint256)":"80901ecd"}}}}}