{
  "contracts/ViaductCore.sol": {
    "ViaductCore": {
      "abi": [
        {
          "inputs": [
            {
              "internalType": "bool",
              "name": "_isRoot",
              "type": "bool"
            },
            {
              "internalType": "uint256",
              "name": "_genesisTimestamp",
              "type": "uint256"
            },
            {
              "internalType": "bool",
              "name": "_forTesting",
              "type": "bool"
            }
          ],
          "stateMutability": "nonpayable",
          "type": "constructor"
        },
        {
          "anonymous": false,
          "inputs": [
            {
              "indexed": false,
              "internalType": "address",
              "name": "_from",
              "type": "address"
            },
            {
              "indexed": false,
              "internalType": "address",
              "name": "_to",
              "type": "address"
            },
            {
              "indexed": false,
              "internalType": "uint256",
              "name": "_value",
              "type": "uint256"
            },
            {
              "indexed": false,
              "internalType": "bytes",
              "name": "_sig",
              "type": "bytes"
            },
            {
              "indexed": false,
              "internalType": "uint256",
              "name": "nonce",
              "type": "uint256"
            }
          ],
          "name": "ChallengedTransfer",
          "type": "event"
        },
        {
          "anonymous": false,
          "inputs": [
            {
              "indexed": false,
              "internalType": "address",
              "name": "_from",
              "type": "address"
            },
            {
              "indexed": false,
              "internalType": "address",
              "name": "_to",
              "type": "address"
            },
            {
              "indexed": false,
              "internalType": "uint256",
              "name": "_value",
              "type": "uint256"
            },
            {
              "indexed": false,
              "internalType": "bytes",
              "name": "_sig",
              "type": "bytes"
            },
            {
              "indexed": false,
              "internalType": "uint256",
              "name": "nonce",
              "type": "uint256"
            }
          ],
          "name": "ObjectiveTransfer",
          "type": "event"
        },
        {
          "inputs": [
            {
              "internalType": "address",
              "name": "_owner",
              "type": "address"
            }
          ],
          "name": "balanceOf",
          "outputs": [
            {
              "internalType": "uint256",
              "name": "",
              "type": "uint256"
            }
          ],
          "stateMutability": "view",
          "type": "function"
        },
        {
          "inputs": [
            {
              "internalType": "bytes32",
              "name": "_messageHash",
              "type": "bytes32"
            }
          ],
          "name": "calculateSignedMessageHash",
          "outputs": [
            {
              "internalType": "bytes32",
              "name": "",
              "type": "bytes32"
            }
          ],
          "stateMutability": "pure",
          "type": "function"
        },
        {
          "inputs": [],
          "name": "canPropose",
          "outputs": [
            {
              "internalType": "bool",
              "name": "",
              "type": "bool"
            }
          ],
          "stateMutability": "view",
          "type": "function"
        },
        {
          "inputs": [
            {
              "internalType": "address",
              "name": "_from",
              "type": "address"
            },
            {
              "internalType": "address",
              "name": "_to",
              "type": "address"
            },
            {
              "internalType": "uint256",
              "name": "_value",
              "type": "uint256"
            },
            {
              "internalType": "bytes",
              "name": "_sig",
              "type": "bytes"
            },
            {
              "internalType": "uint256",
              "name": "_nonce",
              "type": "uint256"
            }
          ],
          "name": "challengeAndRecord",
          "outputs": [
            {
              "internalType": "bool",
              "name": "success",
              "type": "bool"
            }
          ],
          "stateMutability": "nonpayable",
          "type": "function"
        },
        {
          "inputs": [],
          "name": "cleanChallengeWindow",
          "outputs": [],
          "stateMutability": "nonpayable",
          "type": "function"
        },
        {
          "inputs": [],
          "name": "decimals",
          "outputs": [
            {
              "internalType": "uint256",
              "name": "",
              "type": "uint256"
            }
          ],
          "stateMutability": "pure",
          "type": "function"
        },
        {
          "inputs": [
            {
              "internalType": "address",
              "name": "_from",
              "type": "address"
            },
            {
              "internalType": "address",
              "name": "_to",
              "type": "address"
            },
            {
              "internalType": "uint256",
              "name": "_value",
              "type": "uint256"
            },
            {
              "internalType": "uint256",
              "name": "_nonce",
              "type": "uint256"
            }
          ],
          "name": "getValidHash",
          "outputs": [
            {
              "internalType": "bytes32",
              "name": "messageHash",
              "type": "bytes32"
            }
          ],
          "stateMutability": "pure",
          "type": "function"
        },
        {
          "inputs": [],
          "name": "name",
          "outputs": [
            {
              "internalType": "string",
              "name": "",
              "type": "string"
            }
          ],
          "stateMutability": "pure",
          "type": "function"
        },
        {
          "inputs": [
            {
              "internalType": "address",
              "name": "_from",
              "type": "address"
            },
            {
              "internalType": "address",
              "name": "_to",
              "type": "address"
            },
            {
              "internalType": "uint256",
              "name": "_value",
              "type": "uint256"
            },
            {
              "internalType": "bytes",
              "name": "_sig",
              "type": "bytes"
            },
            {
              "internalType": "uint256",
              "name": "_nonce",
              "type": "uint256"
            }
          ],
          "name": "objectiveTransfer",
          "outputs": [
            {
              "internalType": "bool",
              "name": "success",
              "type": "bool"
            }
          ],
          "stateMutability": "nonpayable",
          "type": "function"
        },
        {
          "inputs": [],
          "name": "pendingTransferCount",
          "outputs": [
            {
              "internalType": "uint256",
              "name": "",
              "type": "uint256"
            }
          ],
          "stateMutability": "view",
          "type": "function"
        },
        {
          "inputs": [
            {
              "internalType": "bytes32",
              "name": "_signedMessageHash",
              "type": "bytes32"
            },
            {
              "internalType": "bytes",
              "name": "_signature",
              "type": "bytes"
            }
          ],
          "name": "recoverSigner",
          "outputs": [
            {
              "internalType": "address",
              "name": "",
              "type": "address"
            }
          ],
          "stateMutability": "pure",
          "type": "function"
        },
        {
          "inputs": [
            {
              "internalType": "bytes",
              "name": "sig",
              "type": "bytes"
            }
          ],
          "name": "splitSignature",
          "outputs": [
            {
              "internalType": "bytes32",
              "name": "r",
              "type": "bytes32"
            },
            {
              "internalType": "bytes32",
              "name": "s",
              "type": "bytes32"
            },
            {
              "internalType": "uint8",
              "name": "v",
              "type": "uint8"
            }
          ],
          "stateMutability": "pure",
          "type": "function"
        },
        {
          "inputs": [],
          "name": "symbol",
          "outputs": [
            {
              "internalType": "string",
              "name": "",
              "type": "string"
            }
          ],
          "stateMutability": "pure",
          "type": "function"
        },
        {
          "inputs": [],
          "name": "totalSupply",
          "outputs": [
            {
              "internalType": "uint256",
              "name": "",
              "type": "uint256"
            }
          ],
          "stateMutability": "pure",
          "type": "function"
        },
        {
          "inputs": [
            {
              "internalType": "address",
              "name": "",
              "type": "address"
            },
            {
              "internalType": "uint256",
              "name": "",
              "type": "uint256"
            }
          ],
          "name": "transfer",
          "outputs": [
            {
              "internalType": "bool",
              "name": "",
              "type": "bool"
            }
          ],
          "stateMutability": "pure",
          "type": "function"
        },
        {
          "inputs": [
            {
              "internalType": "address",
              "name": "",
              "type": "address"
            },
            {
              "internalType": "address",
              "name": "",
              "type": "address"
            },
            {
              "internalType": "uint256",
              "name": "",
              "type": "uint256"
            }
          ],
          "name": "transferFrom",
          "outputs": [
            {
              "internalType": "bool",
              "name": "",
              "type": "bool"
            }
          ],
          "stateMutability": "pure",
          "type": "function"
        },
        {
          "inputs": [
            {
              "internalType": "address",
              "name": "_signer",
              "type": "address"
            },
            {
              "internalType": "bytes32",
              "name": "_hash",
              "type": "bytes32"
            },
            {
              "internalType": "bytes",
              "name": "_signature",
              "type": "bytes"
            }
          ],
          "name": "verify",
          "outputs": [
            {
              "internalType": "bool",
              "name": "",
              "type": "bool"
            }
          ],
          "stateMutability": "pure",
          "type": "function"
        },
        {
          "inputs": [
            {
              "components": [
                {
                  "internalType": "address",
                  "name": "from",
                  "type": "address"
                },
                {
                  "internalType": "address",
                  "name": "to",
                  "type": "address"
                },
                {
                  "internalType": "uint256",
                  "name": "amount",
                  "type": "uint256"
                },
                {
                  "internalType": "bytes",
                  "name": "sig",
                  "type": "bytes"
                },
                {
                  "internalType": "uint256",
                  "name": "nonce",
                  "type": "uint256"
                },
                {
                  "internalType": "uint256",
                  "name": "timestamp",
                  "type": "uint256"
                },
                {
                  "internalType": "bool",
                  "name": "problematic",
                  "type": "bool"
                }
              ],
              "internalType": "struct ViaductCore.Transfer",
              "name": "_transfer",
              "type": "tuple"
            },
            {
              "internalType": "bytes",
              "name": "_signature",
              "type": "bytes"
            }
          ],
          "name": "verifyTransfer",
          "outputs": [
            {
              "internalType": "bool",
              "name": "",
              "type": "bool"
            }
          ],
          "stateMutability": "pure",
          "type": "function"
        }
      ],
      "evm": {
        "bytecode": {
          "linkReferences": {},
          "object": "60c0604052346100495761001a610014610145565b91610253565b61002261004e565b612b9e6102858239608051818181610f2001526122e6015260a05181610f7a0152612b9e90f35b610054565b60405190565b600080fd5b601f801991011690565b634e487b7160e01b600052604160045260246000fd5b9061008390610059565b810190811060018060401b0382111761009b57604052565b610063565b906100b36100ac61004e565b9283610079565b565b600080fd5b151590565b6100c8816100ba565b036100cf57565b600080fd5b905051906100e1826100bf565b565b90565b6100ef816100e3565b036100f657565b600080fd5b90505190610108826100e6565b565b90916060828403126101405761013d61012684600085016100d4565b9361013481602086016100fb565b936040016100d4565b90565b6100b5565b610163612e2380380380610158816100a0565b92833981019061010a565b909192565b90565b90565b61018261017d61018792610168565b61016b565b6100e3565b90565b61019d69021e19e0c9bab240000061016e565b90565b60018060a01b031690565b6101bf6101ba6101c4926101a0565b61016b565b6101a0565b90565b6101d0906101ab565b90565b6101dc906101c7565b90565b906101e9906101d3565b600052602052604060002090565b60001b90565b9061020a600019916101f7565b9181191691161790565b61022861022361022d926100e3565b61016b565b6100e3565b90565b90565b9061024861024361024f92610214565b610230565b82546101fd565b9055565b919091610263575b60a052608052565b61027f61026e61018a565b61027a600333906101df565b610233565b61025b56fe60806040526004361015610013575b610b72565b61001e60003561013d565b806306fdde031461013857806318160ddd146101335780631a86b5501461012e57806323b872dd14610129578063313ce5671461012457806345e872b61461011f57806370a082311461011a57806376e1480414610115578063782168591461011057806395d89b411461010b57806397aba7f914610106578063a7bb580314610101578063a9059cbb146100fc578063b052b8df146100f7578063b63e56de146100f2578063c03ab09c146100ed578063e0ea0ee2146100e85763f34d85e40361000e57610b39565b610abf565b610a80565b610a4b565b610a12565b61096c565b610906565b610854565b6107b6565b610780565b61060b565b6105d6565b610582565b61050b565b6104d5565b610440565b610244565b6101e9565b60e01c90565b60405190565b600080fd5b600080fd5b600091031261015e57565b61014e565b5190565b60209181520190565b60005b838110610184575050906000910152565b806020918301518185015201610173565b601f801991011690565b6101be6101c76020936101cc936101b581610163565b93848093610167565b95869101610170565b610195565b0190565b6101e6916020820191600081840391015261019f565b90565b34610219576101f9366004610153565b610215610204610c02565b61020c610143565b918291826101d0565b0390f35b610149565b90565b61022a9061021e565b9052565b919061024290600060208501940190610221565b565b3461027457610254366004610153565b61027061025f610c53565b610267610143565b9182918261022e565b0390f35b610149565b600080fd5b60018060a01b031690565b6102929061027e565b90565b61029e81610289565b036102a557565b600080fd5b905035906102b782610295565b565b90565b6102c5816102b9565b036102cc57565b600080fd5b905035906102de826102bc565b565b600080fd5b600080fd5b634e487b7160e01b600052604160045260246000fd5b9061030a90610195565b810190811067ffffffffffffffff82111761032457604052565b6102ea565b9061033c610335610143565b9283610300565b565b67ffffffffffffffff811161035c57610358602091610195565b0190565b6102ea565b90826000939282370152565b9092919261038261037d8261033e565b610329565b9381855260208501908284011161039e5761039c92610361565b565b6102e5565b9080601f830112156103c1578160206103be9335910161036d565b90565b6102e0565b91606083830312610413576103de82600085016102aa565b926103ec83602083016102d1565b92604082013567ffffffffffffffff811161040e5761040b92016103a3565b90565b610279565b61014e565b151590565b61042690610418565b9052565b919061043e9060006020850194019061041d565b565b346104715761046d61045c6104563660046103c6565b91610c6c565b610464610143565b9182918261042a565b0390f35b610149565b61047f8161021e565b0361048657565b600080fd5b9050359061049882610476565b565b90916060828403126104d0576104cd6104b684600085016102aa565b936104c481602086016102aa565b9360400161048b565b90565b61014e565b34610506576105026104f16104eb36600461049a565b91610c96565b6104f9610143565b9182918261042a565b0390f35b610149565b3461053b5761051b366004610153565b610537610526610cc6565b61052e610143565b9182918261022e565b0390f35b610149565b9060208282031261055a57610557916000016102d1565b90565b61014e565b610568906102b9565b9052565b91906105809060006020850194019061055f565b565b346105b2576105ae61059d610598366004610540565b610d63565b6105a5610143565b9182918261056c565b0390f35b610149565b906020828203126105d1576105ce916000016102aa565b90565b61014e565b34610606576106026105f16105ec3660046105b7565b610e22565b6105f9610143565b9182918261022e565b0390f35b610149565b3461063b5761061b366004610153565b610637610626610f0e565b61062e610143565b9182918261042a565b0390f35b610149565b600080fd5b600080fd5b61065381610418565b0361065a57565b600080fd5b9050359061066c8261064a565b565b91909160e08184031261071d5761068560e0610329565b9261069381600084016102aa565b60008501526106a581602084016102aa565b60208501526106b7816040840161048b565b604085015260608201359167ffffffffffffffff8311610718576106e0826107119483016103a3565b60608601526106f2826080830161048b565b60808601526107048260a0830161048b565b60a086015260c00161065f565b60c0830152565b610645565b610640565b91909160408184031261077b57600081013567ffffffffffffffff8111610776578361074f91830161066e565b92602082013567ffffffffffffffff81116107715761076e92016103a3565b90565b610279565b610279565b61014e565b346107b1576107ad61079c610796366004610722565b90610fb8565b6107a4610143565b9182918261042a565b0390f35b610149565b346107e6576107c6366004610153565b6107e26107d1611069565b6107d9610143565b918291826101d0565b0390f35b610149565b91909160408184031261082c5761080583600083016102d1565b92602082013567ffffffffffffffff81116108275761082492016103a3565b90565b610279565b61014e565b61083a90610289565b9052565b919061085290600060208501940190610831565b565b346108855761088161087061086a3660046107eb565b906110d8565b610878610143565b9182918261083e565b0390f35b610149565b906020828203126108bb57600082013567ffffffffffffffff81116108b6576108b392016103a3565b90565b610279565b61014e565b60ff1690565b6108cf906108c0565b9052565b6040906108fd61090494969593966108f36060840198600085019061055f565b602083019061055f565b01906108c6565b565b346109395761093561092161091c36600461088a565b611214565b61092c939193610143565b938493846108d3565b0390f35b610149565b9190604083820312610967578061095b61096492600086016102aa565b9360200161048b565b90565b61014e565b3461099d5761099961098861098236600461093e565b9061129f565b610990610143565b9182918261042a565b0390f35b610149565b919060a083820312610a0d576109bb81600085016102aa565b926109c982602083016102aa565b926109d7836040840161048b565b9260608301359067ffffffffffffffff8211610a08576109fc81610a059386016103a3565b9360800161048b565b90565b610279565b61014e565b34610a4657610a42610a31610a283660046109a2565b93929092611ad0565b610a39610143565b9182918261042a565b0390f35b610149565b34610a7b57610a5b366004610153565b610a77610a66611c58565b610a6e610143565b9182918261022e565b0390f35b610149565b34610ab457610ab0610a9f610a963660046109a2565b93929092611cf2565b610aa7610143565b9182918261042a565b0390f35b610149565b60000190565b34610aed57610acf366004610153565b610ad76122d9565b610adf610143565b80610ae981610ab9565b0390f35b610149565b608081830312610b3457610b0982600083016102aa565b92610b31610b1a84602085016102aa565b93610b28816040860161048b565b9360600161048b565b90565b61014e565b34610b6d57610b69610b58610b4f366004610af2565b92919091612694565b610b60610143565b9182918261056c565b0390f35b610149565b600080fd5b606090565b67ffffffffffffffff8111610b9a57610b96602091610195565b0190565b6102ea565b90610bb1610bac83610b7c565b610329565b918252565b60007f5669616475637400000000000000000000000000000000000000000000000000910152565b610be86007610b9f565b90610bf560208301610bb6565b565b610bff610bde565b90565b610c0a610b77565b50610c13610bf7565b90565b600090565b90565b90565b610c35610c30610c3a92610c1b565b610c1e565b61021e565b90565b610c5069021e19e0c9bab2400000610c21565b90565b610c5b610c16565b50610c64610c3d565b90565b600090565b91610c86610c8c91610c9293610c80610c67565b506110d8565b92610289565b91610289565b1490565b505050610ca1610c67565b50600090565b90565b610cbe610cb9610cc392610ca7565b610c1e565b61021e565b90565b610cce610c16565b50610cd96012610caa565b90565b600090565b905090565b60007f19457468657265756d205369676e6564204d6573736167653a0a333200000000910152565b610d1a601c8092610ce1565b610d2381610ce6565b0190565b90565b610d36610d3b916102b9565b610d27565b9052565b90610d55610d4e602093610d0e565b8092610d2a565b0190565b60200190565b5190565b610d96610d8791610d72610cdc565b50610d7b610143565b92839160208301610d3f565b60208201810382520382610300565b610da8610da282610d5f565b91610d59565b2090565b610dc0610dbb610dc59261027e565b610c1e565b61027e565b90565b610dd190610dac565b90565b610ddd90610dc8565b90565b90610dea90610dd4565b600052602052604060002090565b60001c90565b90565b610e0d610e1291610df8565b610dfe565b90565b610e1f9054610e01565b90565b610e39610e3e91610e31610c16565b506003610de0565b610e15565b90565b634e487b7160e01b600052601160045260246000fd5b610e66610e6c9193929361021e565b9261021e565b8203918211610e7757565b610e41565b90565b610e93610e8e610e9892610e7c565b610c1e565b61021e565b90565b610ea6610258610e7f565b90565b634e487b7160e01b600052601260045260246000fd5b610ecb610ed19161021e565b9161021e565b908115610edc570690565b610ea9565b90565b610ef8610ef3610efd92610ee1565b610c1e565b61021e565b90565b610f0b6101a4610ee4565b90565b610f16610c67565b50610f53610f45427f000000000000000000000000000000000000000000000000000000000000000090610e57565b610f4d610e9b565b90610ebf565b610f6c610f66610f61610f00565b61021e565b9161021e565b108015610f77575b90565b507f0000000000000000000000000000000000000000000000000000000000000000610f74565b610fa89051610289565b90565b610fb5905161021e565b90565b61101a91610fc4610c67565b50611012600061100b611006610fdb838701610f9e565b610fe760208801610f9e565b610ff360408901610fab565b9061100060808a01610fab565b92612694565b610d63565b9301610f9e565b919091610c6c565b90565b60007f5649410000000000000000000000000000000000000000000000000000000000910152565b61104f6003610b9f565b9061105c6020830161101d565b565b611066611045565b90565b611071610b77565b5061107a61105e565b90565b600090565b60001b90565b6110be6110c5946110b46060949897956110aa608086019a600087019061055f565b60208501906108c6565b604083019061055f565b019061055f565b565b6110cf610143565b3d6000823e3d90fd5b6111096000916110f26020946110ec61107d565b50611214565b909391939093611100610143565b94859485611088565b838052039060015afa1561112557611122600051611082565b90565b6110c7565b600090565b90565b61114661114161114b9261112f565b610c1e565b61021e565b90565b60007f496e76616c6964207369676e6174757265206c656e6774680000000000000000910152565b6111836018602092610167565b61118c8161114e565b0190565b6111a69060208101906000818303910152611176565b90565b156111b057565b6111b8610143565b62461bcd60e51b8152806111ce60048201611190565b0390fd5b90565b6111e96111e46111ee926111d2565b610c1e565b6108c0565b90565b6111fd611203916108c0565b916108c0565b019060ff821161120f57565b610e41565b61121c610cdc565b50611225610cdc565b5061122e61112a565b5061125461123b82610d5f565b61124e6112486041611132565b9161021e565b146111a9565b6020810151916060604083015192015160001a908161127c611276601b6111d5565b916108c0565b10611284575b565b9061129990611293601b6111d5565b906111f1565b90611282565b50506112a9610c67565b50600090565b6112b8906102b9565b90565b906112c5906112af565b600052602052604060002090565b60ff1690565b6112e56112ea91610df8565b6112d3565b90565b6112f790546112d9565b90565b60007f5265706561746564207472616e73616374696f6e2e0000000000000000000000910152565b61132f6015602092610167565b611338816112fa565b0190565b6113529060208101906000818303910152611322565b90565b1561135c57565b611364610143565b62461bcd60e51b81528061137a6004820161133c565b0390fd5b9061138a60ff91611082565b9181191691161790565b61139d90610418565b90565b90565b906113b86113b36113bf92611394565b6113a0565b825461137e565b9055565b60007f43616e6e6f742070726f706f7365000000000000000000000000000000000000910152565b6113f8600e602092610167565b611401816113c3565b0190565b61141b90602081019060008183039101526113eb565b90565b1561142557565b61142d610143565b62461bcd60e51b81528061144360048201611405565b0390fd5b60007f496e73756666696369656e742062616c616e6365000000000000000000000000910152565b61147c6014602092610167565b61148581611447565b0190565b61149f906020810190600081830391015261146f565b90565b156114a957565b6114b1610143565b62461bcd60e51b8152806114c760048201611489565b0390fd5b6114d560e0610329565b90565b600090565b600090565b606090565b600090565b6114f46114cb565b906020808080808080886115066114d8565b8152016115116114d8565b81520161151c6114dd565b8152016115276114e2565b8152016115326114dd565b81520161153d6114dd565b8152016115486114e7565b81525050565b6115566114ec565b90565b9061156390610289565b9052565b906115719061021e565b9052565b60007f496e76616c6964207369676e6174757265000000000000000000000000000000910152565b6115aa6011602092610167565b6115b381611575565b0190565b6115cd906020810190600081830391015261159d565b90565b156115d757565b6115df610143565b62461bcd60e51b8152806115f5600482016115b7565b0390fd5b9061160390610418565b9052565b90565b600052602060002090565b634e487b7160e01b600052603260045260246000fd5b5490565b6116388161162b565b8210156116535761164a60079161160a565b91020190600090565b611615565b634e487b7160e01b600052600060045260246000fd5b9061167f60018060a01b0391611082565b9181191691161790565b90565b906116a161169c6116a892610dd4565b611689565b825461166e565b9055565b906116b960001991611082565b9181191691161790565b6116d76116d26116dc9261021e565b610c1e565b61021e565b90565b90565b906116f76116f26116fe926116c3565b6116df565b82546116ac565b9055565b5190565b634e487b7160e01b600052602260045260246000fd5b906001600283049216801561173c575b602083101461173757565b611706565b91607f169161172c565b600052602060002090565b601f602091010490565b1b90565b9190600861177b9102916117756000198461175b565b9261175b565b9181191691161790565b919061179b6117966117a3936116c3565b6116df565b90835461175f565b9055565b6117b9916117b3610c16565b91611785565b565b5b8181106117c7575050565b806117d560006001936117a7565b016117bc565b9190601f81116117eb575b505050565b6117f761181c93611746565b90602061180384611751565b83019310611824575b61181590611751565b01906117bb565b3880806117e6565b91506118158192905061180c565b1c90565b906118479060001990600802611832565b191690565b8161185691611836565b906002021790565b9061186881610d5f565b9067ffffffffffffffff821161192a5761188c82611886855461171c565b856117db565b602090601f83116001146118c1579180916118b0936000926118b5575b505061184c565b90555b565b909150015138806118a9565b601f198316916118d085611746565b9260005b818110611912575091600293918560019694106118f8575b505050020190556118b3565b611908910151601f841690611836565b90553880806118ec565b919360206001819287870151815501950192016118d4565b6102ea565b906119399161185e565b565b6119459051610418565b90565b906119f260c060066119f89461196d6000820161196760008801610f9e565b9061168c565b6119866001820161198060208801610f9e565b9061168c565b61199f6002820161199960408801610fab565b906116e2565b6119b8600382016119b260608801611702565b9061192f565b6119d1600482016119cb60808801610fab565b906116e2565b6119ea600582016119e460a08801610fab565b906116e2565b01920161193b565b906113a3565b565b9190611a0b57611a0991611948565b565b611658565b9081549168010000000000000000831015611a405782611a38916001611a3e9501815561162f565b906119fa565b565b6102ea565b60209181520190565b611a6d611a76602093611a7b93611a6481610d5f565b93848093611a45565b95869101610170565b610195565b0190565b611ace94611ab982989795611aaf608096611aa5611ac697600060a08901980190610831565b60208c0190610831565b60408a0190610221565b8782036060890152611a4e565b940190610221565b565b93611c3191929394611ae0610c67565b50611b29611af2828688908692612694565b611b17611b12611b0c611b07600485906112bb565b6112ed565b15610418565b611355565b611b2460019160046112bb565b6113a3565b611b39611b34610f0e565b61141e565b611b69611b50611b4b60038490610de0565b610e15565b611b62611b5c8861021e565b9161021e565b10156114a2565b611bfb611b7461154e565b611b818360008301611559565b611b8e8660208301611559565b611b9b8760408301611567565b876060820152611bae8460808301611567565b611bbb4260a08301611567565b611bce611bc9828a90610fb8565b6115d0565b611bdc600060c083016115f9565b611be783889061297c565b611c41575b611bf66000611607565b611a10565b9293947f4fa994aa29cfe03cf996e8a94bec96ed4b14c748957df777d0613cf57a58947195611c28610143565b95869586611a7f565b0390a1611c3c6122d9565b600190565b611c4f600160c083016115f9565b611bec565b5490565b611c60610c16565b50611c6b6000611c54565b90565b60007f4368616c6c656e676520756e7375636365737366756c00000000000000000000910152565b611ca36016602092610167565b611cac81611c6e565b0190565b611cc69060208101906000818303910152611c96565b90565b15611cd057565b611cd8610143565b62461bcd60e51b815280611cee60048201611cb0565b0390fd5b91611db392611da9611da48496611d83611dc299611d44611d3f611d39611d34611d2d611dae9c611d21610c67565b508b908d908892612694565b60046112bb565b6112ed565b15610418565b611355565b611d67611d4f61154e565b9a611d5e8c60008a9101611559565b60208c01611559565b611d748760408c01611567565b8260608b015260808a01611567565b611d904260a08a01611567565b611d9e600160c08a016115f9565b87610fb8565b6115d0565b61297c565b611cc9565b611dbd6000611607565b611a10565b611dca6122d9565b600190565b611dd89061021e565b6000198114611de75760010190565b610e41565b611df59061021e565b60008114611e04576001900390565b610e41565b600052602060002090565b611e1d81611c54565b821015611e3857611e2f600791611e09565b91020190600090565b611615565b60018060a01b031690565b611e54611e5991610df8565b611e3d565b90565b611e669054611e48565b90565b611e78611e7e9193929361021e565b9261021e565b8201809211611e8957565b610e41565b90565b611ea5611ea0611eaa92611e8e565b610c1e565b61021e565b90565b611eb7905461171c565b90565b90808214611f9c57611ecb81611ead565b9067ffffffffffffffff8211611f9757611eef82611ee9855461171c565b856117db565b600090601f8311600114611f2457918091611f1393600092611f18575b505061184c565b90555b565b90915001543880611f0c565b90611f33601f19841692611746565b90611f3d85611746565b9260005b818110611f7f57509160029391856001969410611f65575b50505002019055611f16565b611f75910154601f841690611836565b9055388080611f59565b91936001806020928787015481550195019201611f41565b6102ea565b5050565b90611faa91611eba565b565b90808203611fb9575b5050565b61205960068084611fdc600061205f9701611fd660008801611e5c565b9061168c565b611ff560018201611fef60018801611e5c565b9061168c565b61200e6002820161200860028801610e15565b906116e2565b61201f600382016003870190611fa0565b6120386004820161203260048801610e15565b906116e2565b6120516005820161204b60058801610e15565b906116e2565b0192016112ed565b906113a3565b3880611fb5565b91906120775761207591611fac565b565b611658565b634e487b7160e01b600052603160045260246000fd5b906120a69060001990602003600802611832565b8154169055565b906000916120c56120bd82611746565b92835461184c565b905555565b9192906020821060001461212457601f84116001146120f4576120ee92935061184c565b90555b5b565b509061211a61211f93600161211161210b85611746565b92611751565b820191016117bb565b6120ad565b6120f1565b5061215b8293612135600194611746565b61215461214185611751565b820192601f861680612166575b50611751565b01906117bb565b6002021790556120f2565b61217290888603612092565b3861214e565b9290916801000000000000000082116121da576020116000146121cb57602081106000146121af576121a99161184c565b90555b5b565b60019160ff19166121bf84611746565b556002020190556121ac565b600191506002020190556121ad565b6102ea565b9081546121eb8161171c565b90818311612214575b818310612202575b50505050565b61220b936120ca565b388080806121fc565b61222083838387612178565b6121f4565b6000612230916121df565b565b906000036122455761224390612225565b565b611658565b6006600091828082015582600182015561226783600283016117a7565b6122748360038301612232565b61228183600483016117a7565b61228e83600583016117a7565b0155565b906000036122a5576122a39061224a565b565b611658565b6122b38161162b565b80156122d45760019003906122d16122cb838361162f565b90612292565b55565b61207c565b61231f4261231961230b427f000000000000000000000000000000000000000000000000000000000000000090610e57565b612313610e9b565b90610ebf565b90610e57565b9060019161232b610c16565b925b8361234961234361233e6000611c54565b61021e565b9161021e565b10156124e5576123599015610418565b6124d5575b600192612379600561237260008490611e14565b5001610e15565b61238b6123858461021e565b9161021e565b106123a0575b61239a90611dcf565b9261232d565b92506123c36123bd60066123b660008790611e14565b50016112ed565b15610418565b612425575b6124066123f360006123ed6123dd6000611c54565b6123e76001611e91565b90610e57565b90611e14565b5061240060008690611e14565b90612066565b6124186124136000611607565b6122aa565b61239a6000939050612391565b61247a612440600261243960008790611e14565b5001610e15565b612474612465600361245f6000612458818b90611e14565b5001611e5c565b90610de0565b9161246f83610e15565b610e57565b906116e2565b6124d0612495600261248e60008790611e14565b5001610e15565b6124ca6124bb60036124b560016124ae60008b90611e14565b5001611e5c565b90610de0565b916124c583610e15565b611e69565b906116e2565b6123c8565b916124df90611dec565b9161235e565b50509050565b60007f56696164756374205369676e6564204d6573736167653a2046524f4d20000000910152565b61251f601d8092610ce1565b612528816124eb565b0190565b60601b90565b61253b9061252c565b90565b61254790612532565b90565b61255661255b91610289565b61253e565b9052565b60007f20544f2000000000000000000000000000000000000000000000000000000000910152565b61259360048092610ce1565b61259c8161255f565b0190565b60007f2056414c55452000000000000000000000000000000000000000000000000000910152565b6125d460078092610ce1565b6125dd816125a0565b0190565b90565b6125f06125f59161021e565b6125e1565b9052565b60007f204e4f4e43452000000000000000000000000000000000000000000000000000910152565b61262d60078092610ce1565b612636816125f9565b0190565b6020949361268361267c60146126909661267661266f83612689996126696126628f9b612513565b809261254a565b01612587565b809261254a565b016125c8565b80926125e4565b01612621565b80926125e4565b0190565b6126cb92936126bc916126a5610cdc565b5092946126b0610143565b9586946020860161263a565b60208201810382520382610300565b6126dd6126d782610d5f565b91610d59565b2090565b60016126ed910161021e565b90565b9081549168010000000000000000831015612720578261271891600161271e9501815561162f565b90612066565b565b6102ea565b90565b600052602060002090565b5490565b61274081612733565b82101561275b57612752600191612728565b91020190600090565b611615565b9081549168010000000000000000831015612790578261278891600161278e95018155612737565b90611785565b565b6102ea565b5490565b600052602060002090565b6127ad81612795565b8210156127c8576127bf600191612799565b91020190600090565b611615565b6127dd9060086127e29302611832565b610dfe565b90565b906127f091546127cd565b90565b60209181520190565b90600092918054906128176128108361171c565b80946127f3565b916001811690816000146128705750600114612833575b505050565b6128409192939450611746565b916000925b818410612858575050019038808061282e565b60018160209295939554848601520191019290612845565b92949550505060ff191682521515602002019038808061282e565b90612895916127fc565b90565b906128b86128b1926128a8610143565b9384809261288b565b0383610300565b565b52565b9061296e61296560066128ce6114cb565b946128e76128de60008301611e5c565b60008801611559565b6128ff6128f660018301611e5c565b60208801611559565b61291761290e60028301610e15565b60408801611567565b61292f61292660038301612898565b606088016128ba565b61294761293e60048301610e15565b60808801611567565b61295f61295660058301610e15565b60a08801611567565b016112ed565b60c084016115f9565b565b612979906128bd565b90565b90612985610c67565b5061298e610c16565b5b806129ab6129a56129a06000611c54565b61021e565b9161021e565b1015612a50576129c860006129c1818490611e14565b5001611e5c565b6129da6129d485610289565b91610289565b146129ee575b6129e9906126e1565b61298f565b90612a146129e991612a0e6002612a0760008790611e14565b5001610e15565b90611e69565b91612a35612a226002611607565b612a2e60008490611e14565b50906126f0565b612a49612a426001612725565b8290612760565b90506129e0565b5090612a71612a6b612a66612a77936003610de0565b610e15565b9261021e565b9161021e565b11612b6357612a84610c16565b5b80612aa1612a9b612a966001612795565b61021e565b9161021e565b1015612b5d57612b5890612ad4612ace6000612ac8612ac2600186906127a4565b906127e5565b90611e14565b50612970565b612ae2600160c083016115f9565b612aee60008201610f9e565b612afa60208301610f9e565b90612b50612b0a60408501610fab565b93612b1c608060608301519201610fab565b907fba3cd9cc90be8a4bae3a12a3ad76861e142f2ba0e44241b2699ee849d834adbc95612b47610143565b95869586611a7f565b0390a16126e1565b612a85565b50600190565b60009056fea26469706673582212200f725010559c04ebf80801652b7c3cc65dbec5dbf688436daec44fb4ee123a8964736f6c634300081b0033",
          "opcodes": "PUSH1 0xC0 PUSH1 0x40 MSTORE CALLVALUE PUSH2 0x49 JUMPI PUSH2 0x1A PUSH2 0x14 PUSH2 0x145 JUMP JUMPDEST SWAP2 PUSH2 0x253 JUMP JUMPDEST PUSH2 0x22 PUSH2 0x4E JUMP JUMPDEST PUSH2 0x2B9E PUSH2 0x285 DUP3 CODECOPY PUSH1 0x80 MLOAD DUP2 DUP2 DUP2 PUSH2 0xF20 ADD MSTORE PUSH2 0x22E6 ADD MSTORE PUSH1 0xA0 MLOAD DUP2 PUSH2 0xF7A ADD MSTORE PUSH2 0x2B9E SWAP1 RETURN JUMPDEST PUSH2 0x54 JUMP JUMPDEST PUSH1 0x40 MLOAD SWAP1 JUMP JUMPDEST PUSH1 0x0 DUP1 REVERT JUMPDEST PUSH1 0x1F DUP1 NOT SWAP2 ADD AND SWAP1 JUMP JUMPDEST PUSH4 0x4E487B71 PUSH1 0xE0 SHL PUSH1 0x0 MSTORE PUSH1 0x41 PUSH1 0x4 MSTORE PUSH1 0x24 PUSH1 0x0 REVERT JUMPDEST SWAP1 PUSH2 0x83 SWAP1 PUSH2 0x59 JUMP JUMPDEST DUP2 ADD SWAP1 DUP2 LT PUSH1 0x1 DUP1 PUSH1 0x40 SHL SUB DUP3 GT OR PUSH2 0x9B JUMPI PUSH1 0x40 MSTORE JUMP JUMPDEST PUSH2 0x63 JUMP JUMPDEST SWAP1 PUSH2 0xB3 PUSH2 0xAC PUSH2 0x4E JUMP JUMPDEST SWAP3 DUP4 PUSH2 0x79 JUMP JUMPDEST JUMP JUMPDEST PUSH1 0x0 DUP1 REVERT JUMPDEST ISZERO ISZERO SWAP1 JUMP JUMPDEST PUSH2 0xC8 DUP2 PUSH2 0xBA JUMP JUMPDEST SUB PUSH2 0xCF JUMPI JUMP JUMPDEST PUSH1 0x0 DUP1 REVERT JUMPDEST SWAP1 POP MLOAD SWAP1 PUSH2 0xE1 DUP3 PUSH2 0xBF JUMP JUMPDEST JUMP JUMPDEST SWAP1 JUMP JUMPDEST PUSH2 0xEF DUP2 PUSH2 0xE3 JUMP JUMPDEST SUB PUSH2 0xF6 JUMPI JUMP JUMPDEST PUSH1 0x0 DUP1 REVERT JUMPDEST SWAP1 POP MLOAD SWAP1 PUSH2 0x108 DUP3 PUSH2 0xE6 JUMP JUMPDEST JUMP JUMPDEST SWAP1 SWAP2 PUSH1 0x60 DUP3 DUP5 SUB SLT PUSH2 0x140 JUMPI PUSH2 0x13D PUSH2 0x126 DUP5 PUSH1 0x0 DUP6 ADD PUSH2 0xD4 JUMP JUMPDEST SWAP4 PUSH2 0x134 DUP2 PUSH1 0x20 DUP7 ADD PUSH2 0xFB JUMP JUMPDEST SWAP4 PUSH1 0x40 ADD PUSH2 0xD4 JUMP JUMPDEST SWAP1 JUMP JUMPDEST PUSH2 0xB5 JUMP JUMPDEST PUSH2 0x163 PUSH2 0x2E23 DUP1 CODESIZE SUB DUP1 PUSH2 0x158 DUP2 PUSH2 0xA0 JUMP JUMPDEST SWAP3 DUP4 CODECOPY DUP2 ADD SWAP1 PUSH2 0x10A JUMP JUMPDEST SWAP1 SWAP2 SWAP3 JUMP JUMPDEST SWAP1 JUMP JUMPDEST SWAP1 JUMP JUMPDEST PUSH2 0x182 PUSH2 0x17D PUSH2 0x187 SWAP3 PUSH2 0x168 JUMP JUMPDEST PUSH2 0x16B JUMP JUMPDEST PUSH2 0xE3 JUMP JUMPDEST SWAP1 JUMP JUMPDEST PUSH2 0x19D PUSH10 0x21E19E0C9BAB2400000 PUSH2 0x16E JUMP JUMPDEST SWAP1 JUMP JUMPDEST PUSH1 0x1 DUP1 PUSH1 0xA0 SHL SUB AND SWAP1 JUMP JUMPDEST PUSH2 0x1BF PUSH2 0x1BA PUSH2 0x1C4 SWAP3 PUSH2 0x1A0 JUMP JUMPDEST PUSH2 0x16B JUMP JUMPDEST PUSH2 0x1A0 JUMP JUMPDEST SWAP1 JUMP JUMPDEST PUSH2 0x1D0 SWAP1 PUSH2 0x1AB JUMP JUMPDEST SWAP1 JUMP JUMPDEST PUSH2 0x1DC SWAP1 PUSH2 0x1C7 JUMP JUMPDEST SWAP1 JUMP JUMPDEST SWAP1 PUSH2 0x1E9 SWAP1 PUSH2 0x1D3 JUMP JUMPDEST PUSH1 0x0 MSTORE PUSH1 0x20 MSTORE PUSH1 0x40 PUSH1 0x0 KECCAK256 SWAP1 JUMP JUMPDEST PUSH1 0x0 SHL SWAP1 JUMP JUMPDEST SWAP1 PUSH2 0x20A PUSH1 0x0 NOT SWAP2 PUSH2 0x1F7 JUMP JUMPDEST SWAP2 DUP2 NOT AND SWAP2 AND OR SWAP1 JUMP JUMPDEST PUSH2 0x228 PUSH2 0x223 PUSH2 0x22D SWAP3 PUSH2 0xE3 JUMP JUMPDEST PUSH2 0x16B JUMP JUMPDEST PUSH2 0xE3 JUMP JUMPDEST SWAP1 JUMP JUMPDEST SWAP1 JUMP JUMPDEST SWAP1 PUSH2 0x248 PUSH2 0x243 PUSH2 0x24F SWAP3 PUSH2 0x214 JUMP JUMPDEST PUSH2 0x230 JUMP JUMPDEST DUP3 SLOAD PUSH2 0x1FD JUMP JUMPDEST SWAP1 SSTORE JUMP JUMPDEST SWAP2 SWAP1 SWAP2 PUSH2 0x263 JUMPI JUMPDEST PUSH1 0xA0 MSTORE PUSH1 0x80 MSTORE JUMP JUMPDEST PUSH2 0x27F PUSH2 0x26E PUSH2 0x18A JUMP JUMPDEST PUSH2 0x27A PUSH1 0x3 CALLER SWAP1 PUSH2 0x1DF JUMP JUMPDEST PUSH2 0x233 JUMP JUMPDEST PUSH2 0x25B JUMP INVALID PUSH1 0x80 PUSH1 0x40 MSTORE PUSH1 0x4 CALLDATASIZE LT ISZERO PUSH2 0x13 JUMPI JUMPDEST PUSH2 0xB72 JUMP JUMPDEST PUSH2 0x1E PUSH1 0x0 CALLDATALOAD PUSH2 0x13D JUMP JUMPDEST DUP1 PUSH4 0x6FDDE03 EQ PUSH2 0x138 JUMPI DUP1 PUSH4 0x18160DDD EQ PUSH2 0x133 JUMPI DUP1 PUSH4 0x1A86B550 EQ PUSH2 0x12E JUMPI DUP1 PUSH4 0x23B872DD EQ PUSH2 0x129 JUMPI DUP1 PUSH4 0x313CE567 EQ PUSH2 0x124 JUMPI DUP1 PUSH4 0x45E872B6 EQ PUSH2 0x11F JUMPI DUP1 PUSH4 0x70A08231 EQ PUSH2 0x11A JUMPI DUP1 PUSH4 0x76E14804 EQ PUSH2 0x115 JUMPI DUP1 PUSH4 0x78216859 EQ PUSH2 0x110 JUMPI DUP1 PUSH4 0x95D89B41 EQ PUSH2 0x10B JUMPI DUP1 PUSH4 0x97ABA7F9 EQ PUSH2 0x106 JUMPI DUP1 PUSH4 0xA7BB5803 EQ PUSH2 0x101 JUMPI DUP1 PUSH4 0xA9059CBB EQ PUSH2 0xFC JUMPI DUP1 PUSH4 0xB052B8DF EQ PUSH2 0xF7 JUMPI DUP1 PUSH4 0xB63E56DE EQ PUSH2 0xF2 JUMPI DUP1 PUSH4 0xC03AB09C EQ PUSH2 0xED JUMPI DUP1 PUSH4 0xE0EA0EE2 EQ PUSH2 0xE8 JUMPI PUSH4 0xF34D85E4 SUB PUSH2 0xE JUMPI PUSH2 0xB39 JUMP JUMPDEST PUSH2 0xABF JUMP JUMPDEST PUSH2 0xA80 JUMP JUMPDEST PUSH2 0xA4B JUMP JUMPDEST PUSH2 0xA12 JUMP JUMPDEST PUSH2 0x96C JUMP JUMPDEST PUSH2 0x906 JUMP JUMPDEST PUSH2 0x854 JUMP JUMPDEST PUSH2 0x7B6 JUMP JUMPDEST PUSH2 0x780 JUMP JUMPDEST PUSH2 0x60B JUMP JUMPDEST PUSH2 0x5D6 JUMP JUMPDEST PUSH2 0x582 JUMP JUMPDEST PUSH2 0x50B JUMP JUMPDEST PUSH2 0x4D5 JUMP JUMPDEST PUSH2 0x440 JUMP JUMPDEST PUSH2 0x244 JUMP JUMPDEST PUSH2 0x1E9 JUMP JUMPDEST PUSH1 0xE0 SHR SWAP1 JUMP JUMPDEST PUSH1 0x40 MLOAD SWAP1 JUMP JUMPDEST PUSH1 0x0 DUP1 REVERT JUMPDEST PUSH1 0x0 DUP1 REVERT JUMPDEST PUSH1 0x0 SWAP2 SUB SLT PUSH2 0x15E JUMPI JUMP JUMPDEST PUSH2 0x14E JUMP JUMPDEST MLOAD SWAP1 JUMP JUMPDEST PUSH1 0x20 SWAP2 DUP2 MSTORE ADD SWAP1 JUMP JUMPDEST PUSH1 0x0 JUMPDEST DUP4 DUP2 LT PUSH2 0x184 JUMPI POP POP SWAP1 PUSH1 0x0 SWAP2 ADD MSTORE JUMP JUMPDEST DUP1 PUSH1 0x20 SWAP2 DUP4 ADD MLOAD DUP2 DUP6 ADD MSTORE ADD PUSH2 0x173 JUMP JUMPDEST PUSH1 0x1F DUP1 NOT SWAP2 ADD AND SWAP1 JUMP JUMPDEST PUSH2 0x1BE PUSH2 0x1C7 PUSH1 0x20 SWAP4 PUSH2 0x1CC SWAP4 PUSH2 0x1B5 DUP2 PUSH2 0x163 JUMP JUMPDEST SWAP4 DUP5 DUP1 SWAP4 PUSH2 0x167 JUMP JUMPDEST SWAP6 DUP7 SWAP2 ADD PUSH2 0x170 JUMP JUMPDEST PUSH2 0x195 JUMP JUMPDEST ADD SWAP1 JUMP JUMPDEST PUSH2 0x1E6 SWAP2 PUSH1 0x20 DUP3 ADD SWAP2 PUSH1 0x0 DUP2 DUP5 SUB SWAP2 ADD MSTORE PUSH2 0x19F JUMP JUMPDEST SWAP1 JUMP JUMPDEST CALLVALUE PUSH2 0x219 JUMPI PUSH2 0x1F9 CALLDATASIZE PUSH1 0x4 PUSH2 0x153 JUMP JUMPDEST PUSH2 0x215 PUSH2 0x204 PUSH2 0xC02 JUMP JUMPDEST PUSH2 0x20C PUSH2 0x143 JUMP JUMPDEST SWAP2 DUP3 SWAP2 DUP3 PUSH2 0x1D0 JUMP JUMPDEST SUB SWAP1 RETURN JUMPDEST PUSH2 0x149 JUMP JUMPDEST SWAP1 JUMP JUMPDEST PUSH2 0x22A SWAP1 PUSH2 0x21E JUMP JUMPDEST SWAP1 MSTORE JUMP JUMPDEST SWAP2 SWAP1 PUSH2 0x242 SWAP1 PUSH1 0x0 PUSH1 0x20 DUP6 ADD SWAP5 ADD SWAP1 PUSH2 0x221 JUMP JUMPDEST JUMP JUMPDEST CALLVALUE PUSH2 0x274 JUMPI PUSH2 0x254 CALLDATASIZE PUSH1 0x4 PUSH2 0x153 JUMP JUMPDEST PUSH2 0x270 PUSH2 0x25F PUSH2 0xC53 JUMP JUMPDEST PUSH2 0x267 PUSH2 0x143 JUMP JUMPDEST SWAP2 DUP3 SWAP2 DUP3 PUSH2 0x22E JUMP JUMPDEST SUB SWAP1 RETURN JUMPDEST PUSH2 0x149 JUMP JUMPDEST PUSH1 0x0 DUP1 REVERT JUMPDEST PUSH1 0x1 DUP1 PUSH1 0xA0 SHL SUB AND SWAP1 JUMP JUMPDEST PUSH2 0x292 SWAP1 PUSH2 0x27E JUMP JUMPDEST SWAP1 JUMP JUMPDEST PUSH2 0x29E DUP2 PUSH2 0x289 JUMP JUMPDEST SUB PUSH2 0x2A5 JUMPI JUMP JUMPDEST PUSH1 0x0 DUP1 REVERT JUMPDEST SWAP1 POP CALLDATALOAD SWAP1 PUSH2 0x2B7 DUP3 PUSH2 0x295 JUMP JUMPDEST JUMP JUMPDEST SWAP1 JUMP JUMPDEST PUSH2 0x2C5 DUP2 PUSH2 0x2B9 JUMP JUMPDEST SUB PUSH2 0x2CC JUMPI JUMP JUMPDEST PUSH1 0x0 DUP1 REVERT JUMPDEST SWAP1 POP CALLDATALOAD SWAP1 PUSH2 0x2DE DUP3 PUSH2 0x2BC JUMP JUMPDEST JUMP JUMPDEST PUSH1 0x0 DUP1 REVERT JUMPDEST PUSH1 0x0 DUP1 REVERT JUMPDEST PUSH4 0x4E487B71 PUSH1 0xE0 SHL PUSH1 0x0 MSTORE PUSH1 0x41 PUSH1 0x4 MSTORE PUSH1 0x24 PUSH1 0x0 REVERT JUMPDEST SWAP1 PUSH2 0x30A SWAP1 PUSH2 0x195 JUMP JUMPDEST DUP2 ADD SWAP1 DUP2 LT PUSH8 0xFFFFFFFFFFFFFFFF DUP3 GT OR PUSH2 0x324 JUMPI PUSH1 0x40 MSTORE JUMP JUMPDEST PUSH2 0x2EA JUMP JUMPDEST SWAP1 PUSH2 0x33C PUSH2 0x335 PUSH2 0x143 JUMP JUMPDEST SWAP3 DUP4 PUSH2 0x300 JUMP JUMPDEST JUMP JUMPDEST PUSH8 0xFFFFFFFFFFFFFFFF DUP2 GT PUSH2 0x35C JUMPI PUSH2 0x358 PUSH1 0x20 SWAP2 PUSH2 0x195 JUMP JUMPDEST ADD SWAP1 JUMP JUMPDEST PUSH2 0x2EA JUMP JUMPDEST SWAP1 DUP3 PUSH1 0x0 SWAP4 SWAP3 DUP3 CALLDATACOPY ADD MSTORE JUMP JUMPDEST SWAP1 SWAP3 SWAP2 SWAP3 PUSH2 0x382 PUSH2 0x37D DUP3 PUSH2 0x33E JUMP JUMPDEST PUSH2 0x329 JUMP JUMPDEST SWAP4 DUP2 DUP6 MSTORE PUSH1 0x20 DUP6 ADD SWAP1 DUP3 DUP5 ADD GT PUSH2 0x39E JUMPI PUSH2 0x39C SWAP3 PUSH2 0x361 JUMP JUMPDEST JUMP JUMPDEST PUSH2 0x2E5 JUMP JUMPDEST SWAP1 DUP1 PUSH1 0x1F DUP4 ADD SLT ISZERO PUSH2 0x3C1 JUMPI DUP2 PUSH1 0x20 PUSH2 0x3BE SWAP4 CALLDATALOAD SWAP2 ADD PUSH2 0x36D JUMP JUMPDEST SWAP1 JUMP JUMPDEST PUSH2 0x2E0 JUMP JUMPDEST SWAP2 PUSH1 0x60 DUP4 DUP4 SUB SLT PUSH2 0x413 JUMPI PUSH2 0x3DE DUP3 PUSH1 0x0 DUP6 ADD PUSH2 0x2AA JUMP JUMPDEST SWAP3 PUSH2 0x3EC DUP4 PUSH1 0x20 DUP4 ADD PUSH2 0x2D1 JUMP JUMPDEST SWAP3 PUSH1 0x40 DUP3 ADD CALLDATALOAD PUSH8 0xFFFFFFFFFFFFFFFF DUP2 GT PUSH2 0x40E JUMPI PUSH2 0x40B SWAP3 ADD PUSH2 0x3A3 JUMP JUMPDEST SWAP1 JUMP JUMPDEST PUSH2 0x279 JUMP JUMPDEST PUSH2 0x14E JUMP JUMPDEST ISZERO ISZERO SWAP1 JUMP JUMPDEST PUSH2 0x426 SWAP1 PUSH2 0x418 JUMP JUMPDEST SWAP1 MSTORE JUMP JUMPDEST SWAP2 SWAP1 PUSH2 0x43E SWAP1 PUSH1 0x0 PUSH1 0x20 DUP6 ADD SWAP5 ADD SWAP1 PUSH2 0x41D JUMP JUMPDEST JUMP JUMPDEST CALLVALUE PUSH2 0x471 JUMPI PUSH2 0x46D PUSH2 0x45C PUSH2 0x456 CALLDATASIZE PUSH1 0x4 PUSH2 0x3C6 JUMP JUMPDEST SWAP2 PUSH2 0xC6C JUMP JUMPDEST PUSH2 0x464 PUSH2 0x143 JUMP JUMPDEST SWAP2 DUP3 SWAP2 DUP3 PUSH2 0x42A JUMP JUMPDEST SUB SWAP1 RETURN JUMPDEST PUSH2 0x149 JUMP JUMPDEST PUSH2 0x47F DUP2 PUSH2 0x21E JUMP JUMPDEST SUB PUSH2 0x486 JUMPI JUMP JUMPDEST PUSH1 0x0 DUP1 REVERT JUMPDEST SWAP1 POP CALLDATALOAD SWAP1 PUSH2 0x498 DUP3 PUSH2 0x476 JUMP JUMPDEST JUMP JUMPDEST SWAP1 SWAP2 PUSH1 0x60 DUP3 DUP5 SUB SLT PUSH2 0x4D0 JUMPI PUSH2 0x4CD PUSH2 0x4B6 DUP5 PUSH1 0x0 DUP6 ADD PUSH2 0x2AA JUMP JUMPDEST SWAP4 PUSH2 0x4C4 DUP2 PUSH1 0x20 DUP7 ADD PUSH2 0x2AA JUMP JUMPDEST SWAP4 PUSH1 0x40 ADD PUSH2 0x48B JUMP JUMPDEST SWAP1 JUMP JUMPDEST PUSH2 0x14E JUMP JUMPDEST CALLVALUE PUSH2 0x506 JUMPI PUSH2 0x502 PUSH2 0x4F1 PUSH2 0x4EB CALLDATASIZE PUSH1 0x4 PUSH2 0x49A JUMP JUMPDEST SWAP2 PUSH2 0xC96 JUMP JUMPDEST PUSH2 0x4F9 PUSH2 0x143 JUMP JUMPDEST SWAP2 DUP3 SWAP2 DUP3 PUSH2 0x42A JUMP JUMPDEST SUB SWAP1 RETURN JUMPDEST PUSH2 0x149 JUMP JUMPDEST CALLVALUE PUSH2 0x53B JUMPI PUSH2 0x51B CALLDATASIZE PUSH1 0x4 PUSH2 0x153 JUMP JUMPDEST PUSH2 0x537 PUSH2 0x526 PUSH2 0xCC6 JUMP JUMPDEST PUSH2 0x52E PUSH2 0x143 JUMP JUMPDEST SWAP2 DUP3 SWAP2 DUP3 PUSH2 0x22E JUMP JUMPDEST SUB SWAP1 RETURN JUMPDEST PUSH2 0x149 JUMP JUMPDEST SWAP1 PUSH1 0x20 DUP3 DUP3 SUB SLT PUSH2 0x55A JUMPI PUSH2 0x557 SWAP2 PUSH1 0x0 ADD PUSH2 0x2D1 JUMP JUMPDEST SWAP1 JUMP JUMPDEST PUSH2 0x14E JUMP JUMPDEST PUSH2 0x568 SWAP1 PUSH2 0x2B9 JUMP JUMPDEST SWAP1 MSTORE JUMP JUMPDEST SWAP2 SWAP1 PUSH2 0x580 SWAP1 PUSH1 0x0 PUSH1 0x20 DUP6 ADD SWAP5 ADD SWAP1 PUSH2 0x55F JUMP JUMPDEST JUMP JUMPDEST CALLVALUE PUSH2 0x5B2 JUMPI PUSH2 0x5AE PUSH2 0x59D PUSH2 0x598 CALLDATASIZE PUSH1 0x4 PUSH2 0x540 JUMP JUMPDEST PUSH2 0xD63 JUMP JUMPDEST PUSH2 0x5A5 PUSH2 0x143 JUMP JUMPDEST SWAP2 DUP3 SWAP2 DUP3 PUSH2 0x56C JUMP JUMPDEST SUB SWAP1 RETURN JUMPDEST PUSH2 0x149 JUMP JUMPDEST SWAP1 PUSH1 0x20 DUP3 DUP3 SUB SLT PUSH2 0x5D1 JUMPI PUSH2 0x5CE SWAP2 PUSH1 0x0 ADD PUSH2 0x2AA JUMP JUMPDEST SWAP1 JUMP JUMPDEST PUSH2 0x14E JUMP JUMPDEST CALLVALUE PUSH2 0x606 JUMPI PUSH2 0x602 PUSH2 0x5F1 PUSH2 0x5EC CALLDATASIZE PUSH1 0x4 PUSH2 0x5B7 JUMP JUMPDEST PUSH2 0xE22 JUMP JUMPDEST PUSH2 0x5F9 PUSH2 0x143 JUMP JUMPDEST SWAP2 DUP3 SWAP2 DUP3 PUSH2 0x22E JUMP JUMPDEST SUB SWAP1 RETURN JUMPDEST PUSH2 0x149 JUMP JUMPDEST CALLVALUE PUSH2 0x63B JUMPI PUSH2 0x61B CALLDATASIZE PUSH1 0x4 PUSH2 0x153 JUMP JUMPDEST PUSH2 0x637 PUSH2 0x626 PUSH2 0xF0E JUMP JUMPDEST PUSH2 0x62E PUSH2 0x143 JUMP JUMPDEST SWAP2 DUP3 SWAP2 DUP3 PUSH2 0x42A JUMP JUMPDEST SUB SWAP1 RETURN JUMPDEST PUSH2 0x149 JUMP JUMPDEST PUSH1 0x0 DUP1 REVERT JUMPDEST PUSH1 0x0 DUP1 REVERT JUMPDEST PUSH2 0x653 DUP2 PUSH2 0x418 JUMP JUMPDEST SUB PUSH2 0x65A JUMPI JUMP JUMPDEST PUSH1 0x0 DUP1 REVERT JUMPDEST SWAP1 POP CALLDATALOAD SWAP1 PUSH2 0x66C DUP3 PUSH2 0x64A JUMP JUMPDEST JUMP JUMPDEST SWAP2 SWAP1 SWAP2 PUSH1 0xE0 DUP2 DUP5 SUB SLT PUSH2 0x71D JUMPI PUSH2 0x685 PUSH1 0xE0 PUSH2 0x329 JUMP JUMPDEST SWAP3 PUSH2 0x693 DUP2 PUSH1 0x0 DUP5 ADD PUSH2 0x2AA JUMP JUMPDEST PUSH1 0x0 DUP6 ADD MSTORE PUSH2 0x6A5 DUP2 PUSH1 0x20 DUP5 ADD PUSH2 0x2AA JUMP JUMPDEST PUSH1 0x20 DUP6 ADD MSTORE PUSH2 0x6B7 DUP2 PUSH1 0x40 DUP5 ADD PUSH2 0x48B JUMP JUMPDEST PUSH1 0x40 DUP6 ADD MSTORE PUSH1 0x60 DUP3 ADD CALLDATALOAD SWAP2 PUSH8 0xFFFFFFFFFFFFFFFF DUP4 GT PUSH2 0x718 JUMPI PUSH2 0x6E0 DUP3 PUSH2 0x711 SWAP5 DUP4 ADD PUSH2 0x3A3 JUMP JUMPDEST PUSH1 0x60 DUP7 ADD MSTORE PUSH2 0x6F2 DUP3 PUSH1 0x80 DUP4 ADD PUSH2 0x48B JUMP JUMPDEST PUSH1 0x80 DUP7 ADD MSTORE PUSH2 0x704 DUP3 PUSH1 0xA0 DUP4 ADD PUSH2 0x48B JUMP JUMPDEST PUSH1 0xA0 DUP7 ADD MSTORE PUSH1 0xC0 ADD PUSH2 0x65F JUMP JUMPDEST PUSH1 0xC0 DUP4 ADD MSTORE JUMP JUMPDEST PUSH2 0x645 JUMP JUMPDEST PUSH2 0x640 JUMP JUMPDEST SWAP2 SWAP1 SWAP2 PUSH1 0x40 DUP2 DUP5 SUB SLT PUSH2 0x77B JUMPI PUSH1 0x0 DUP2 ADD CALLDATALOAD PUSH8 0xFFFFFFFFFFFFFFFF DUP2 GT PUSH2 0x776 JUMPI DUP4 PUSH2 0x74F SWAP2 DUP4 ADD PUSH2 0x66E JUMP JUMPDEST SWAP3 PUSH1 0x20 DUP3 ADD CALLDATALOAD PUSH8 0xFFFFFFFFFFFFFFFF DUP2 GT PUSH2 0x771 JUMPI PUSH2 0x76E SWAP3 ADD PUSH2 0x3A3 JUMP JUMPDEST SWAP1 JUMP JUMPDEST PUSH2 0x279 JUMP JUMPDEST PUSH2 0x279 JUMP JUMPDEST PUSH2 0x14E JUMP JUMPDEST CALLVALUE PUSH2 0x7B1 JUMPI PUSH2 0x7AD PUSH2 0x79C PUSH2 0x796 CALLDATASIZE PUSH1 0x4 PUSH2 0x722 JUMP JUMPDEST SWAP1 PUSH2 0xFB8 JUMP JUMPDEST PUSH2 0x7A4 PUSH2 0x143 JUMP JUMPDEST SWAP2 DUP3 SWAP2 DUP3 PUSH2 0x42A JUMP JUMPDEST SUB SWAP1 RETURN JUMPDEST PUSH2 0x149 JUMP JUMPDEST CALLVALUE PUSH2 0x7E6 JUMPI PUSH2 0x7C6 CALLDATASIZE PUSH1 0x4 PUSH2 0x153 JUMP JUMPDEST PUSH2 0x7E2 PUSH2 0x7D1 PUSH2 0x1069 JUMP JUMPDEST PUSH2 0x7D9 PUSH2 0x143 JUMP JUMPDEST SWAP2 DUP3 SWAP2 DUP3 PUSH2 0x1D0 JUMP JUMPDEST SUB SWAP1 RETURN JUMPDEST PUSH2 0x149 JUMP JUMPDEST SWAP2 SWAP1 SWAP2 PUSH1 0x40 DUP2 DUP5 SUB SLT PUSH2 0x82C JUMPI PUSH2 0x805 DUP4 PUSH1 0x0 DUP4 ADD PUSH2 0x2D1 JUMP JUMPDEST SWAP3 PUSH1 0x20 DUP3 ADD CALLDATALOAD PUSH8 0xFFFFFFFFFFFFFFFF DUP2 GT PUSH2 0x827 JUMPI PUSH2 0x824 SWAP3 ADD PUSH2 0x3A3 JUMP JUMPDEST SWAP1 JUMP JUMPDEST PUSH2 0x279 JUMP JUMPDEST PUSH2 0x14E JUMP JUMPDEST PUSH2 0x83A SWAP1 PUSH2 0x289 JUMP JUMPDEST SWAP1 MSTORE JUMP JUMPDEST SWAP2 SWAP1 PUSH2 0x852 SWAP1 PUSH1 0x0 PUSH1 0x20 DUP6 ADD SWAP5 ADD SWAP1 PUSH2 0x831 JUMP JUMPDEST JUMP JUMPDEST CALLVALUE PUSH2 0x885 JUMPI PUSH2 0x881 PUSH2 0x870 PUSH2 0x86A CALLDATASIZE PUSH1 0x4 PUSH2 0x7EB JUMP JUMPDEST SWAP1 PUSH2 0x10D8 JUMP JUMPDEST PUSH2 0x878 PUSH2 0x143 JUMP JUMPDEST SWAP2 DUP3 SWAP2 DUP3 PUSH2 0x83E JUMP JUMPDEST SUB SWAP1 RETURN JUMPDEST PUSH2 0x149 JUMP JUMPDEST SWAP1 PUSH1 0x20 DUP3 DUP3 SUB SLT PUSH2 0x8BB JUMPI PUSH1 0x0 DUP3 ADD CALLDATALOAD PUSH8 0xFFFFFFFFFFFFFFFF DUP2 GT PUSH2 0x8B6 JUMPI PUSH2 0x8B3 SWAP3 ADD PUSH2 0x3A3 JUMP JUMPDEST SWAP1 JUMP JUMPDEST PUSH2 0x279 JUMP JUMPDEST PUSH2 0x14E JUMP JUMPDEST PUSH1 0xFF AND SWAP1 JUMP JUMPDEST PUSH2 0x8CF SWAP1 PUSH2 0x8C0 JUMP JUMPDEST SWAP1 MSTORE JUMP JUMPDEST PUSH1 0x40 SWAP1 PUSH2 0x8FD PUSH2 0x904 SWAP5 SWAP7 SWAP6 SWAP4 SWAP7 PUSH2 0x8F3 PUSH1 0x60 DUP5 ADD SWAP9 PUSH1 0x0 DUP6 ADD SWAP1 PUSH2 0x55F JUMP JUMPDEST PUSH1 0x20 DUP4 ADD SWAP1 PUSH2 0x55F JUMP JUMPDEST ADD SWAP1 PUSH2 0x8C6 JUMP JUMPDEST JUMP JUMPDEST CALLVALUE PUSH2 0x939 JUMPI PUSH2 0x935 PUSH2 0x921 PUSH2 0x91C CALLDATASIZE PUSH1 0x4 PUSH2 0x88A JUMP JUMPDEST PUSH2 0x1214 JUMP JUMPDEST PUSH2 0x92C SWAP4 SWAP2 SWAP4 PUSH2 0x143 JUMP JUMPDEST SWAP4 DUP5 SWAP4 DUP5 PUSH2 0x8D3 JUMP JUMPDEST SUB SWAP1 RETURN JUMPDEST PUSH2 0x149 JUMP JUMPDEST SWAP2 SWAP1 PUSH1 0x40 DUP4 DUP3 SUB SLT PUSH2 0x967 JUMPI DUP1 PUSH2 0x95B PUSH2 0x964 SWAP3 PUSH1 0x0 DUP7 ADD PUSH2 0x2AA JUMP JUMPDEST SWAP4 PUSH1 0x20 ADD PUSH2 0x48B JUMP JUMPDEST SWAP1 JUMP JUMPDEST PUSH2 0x14E JUMP JUMPDEST CALLVALUE PUSH2 0x99D JUMPI PUSH2 0x999 PUSH2 0x988 PUSH2 0x982 CALLDATASIZE PUSH1 0x4 PUSH2 0x93E JUMP JUMPDEST SWAP1 PUSH2 0x129F JUMP JUMPDEST PUSH2 0x990 PUSH2 0x143 JUMP JUMPDEST SWAP2 DUP3 SWAP2 DUP3 PUSH2 0x42A JUMP JUMPDEST SUB SWAP1 RETURN JUMPDEST PUSH2 0x149 JUMP JUMPDEST SWAP2 SWAP1 PUSH1 0xA0 DUP4 DUP3 SUB SLT PUSH2 0xA0D JUMPI PUSH2 0x9BB DUP2 PUSH1 0x0 DUP6 ADD PUSH2 0x2AA JUMP JUMPDEST SWAP3 PUSH2 0x9C9 DUP3 PUSH1 0x20 DUP4 ADD PUSH2 0x2AA JUMP JUMPDEST SWAP3 PUSH2 0x9D7 DUP4 PUSH1 0x40 DUP5 ADD PUSH2 0x48B JUMP JUMPDEST SWAP3 PUSH1 0x60 DUP4 ADD CALLDATALOAD SWAP1 PUSH8 0xFFFFFFFFFFFFFFFF DUP3 GT PUSH2 0xA08 JUMPI PUSH2 0x9FC DUP2 PUSH2 0xA05 SWAP4 DUP7 ADD PUSH2 0x3A3 JUMP JUMPDEST SWAP4 PUSH1 0x80 ADD PUSH2 0x48B JUMP JUMPDEST SWAP1 JUMP JUMPDEST PUSH2 0x279 JUMP JUMPDEST PUSH2 0x14E JUMP JUMPDEST CALLVALUE PUSH2 0xA46 JUMPI PUSH2 0xA42 PUSH2 0xA31 PUSH2 0xA28 CALLDATASIZE PUSH1 0x4 PUSH2 0x9A2 JUMP JUMPDEST SWAP4 SWAP3 SWAP1 SWAP3 PUSH2 0x1AD0 JUMP JUMPDEST PUSH2 0xA39 PUSH2 0x143 JUMP JUMPDEST SWAP2 DUP3 SWAP2 DUP3 PUSH2 0x42A JUMP JUMPDEST SUB SWAP1 RETURN JUMPDEST PUSH2 0x149 JUMP JUMPDEST CALLVALUE PUSH2 0xA7B JUMPI PUSH2 0xA5B CALLDATASIZE PUSH1 0x4 PUSH2 0x153 JUMP JUMPDEST PUSH2 0xA77 PUSH2 0xA66 PUSH2 0x1C58 JUMP JUMPDEST PUSH2 0xA6E PUSH2 0x143 JUMP JUMPDEST SWAP2 DUP3 SWAP2 DUP3 PUSH2 0x22E JUMP JUMPDEST SUB SWAP1 RETURN JUMPDEST PUSH2 0x149 JUMP JUMPDEST CALLVALUE PUSH2 0xAB4 JUMPI PUSH2 0xAB0 PUSH2 0xA9F PUSH2 0xA96 CALLDATASIZE PUSH1 0x4 PUSH2 0x9A2 JUMP JUMPDEST SWAP4 SWAP3 SWAP1 SWAP3 PUSH2 0x1CF2 JUMP JUMPDEST PUSH2 0xAA7 PUSH2 0x143 JUMP JUMPDEST SWAP2 DUP3 SWAP2 DUP3 PUSH2 0x42A JUMP JUMPDEST SUB SWAP1 RETURN JUMPDEST PUSH2 0x149 JUMP JUMPDEST PUSH1 0x0 ADD SWAP1 JUMP JUMPDEST CALLVALUE PUSH2 0xAED JUMPI PUSH2 0xACF CALLDATASIZE PUSH1 0x4 PUSH2 0x153 JUMP JUMPDEST PUSH2 0xAD7 PUSH2 0x22D9 JUMP JUMPDEST PUSH2 0xADF PUSH2 0x143 JUMP JUMPDEST DUP1 PUSH2 0xAE9 DUP2 PUSH2 0xAB9 JUMP JUMPDEST SUB SWAP1 RETURN JUMPDEST PUSH2 0x149 JUMP JUMPDEST PUSH1 0x80 DUP2 DUP4 SUB SLT PUSH2 0xB34 JUMPI PUSH2 0xB09 DUP3 PUSH1 0x0 DUP4 ADD PUSH2 0x2AA JUMP JUMPDEST SWAP3 PUSH2 0xB31 PUSH2 0xB1A DUP5 PUSH1 0x20 DUP6 ADD PUSH2 0x2AA JUMP JUMPDEST SWAP4 PUSH2 0xB28 DUP2 PUSH1 0x40 DUP7 ADD PUSH2 0x48B JUMP JUMPDEST SWAP4 PUSH1 0x60 ADD PUSH2 0x48B JUMP JUMPDEST SWAP1 JUMP JUMPDEST PUSH2 0x14E JUMP JUMPDEST CALLVALUE PUSH2 0xB6D JUMPI PUSH2 0xB69 PUSH2 0xB58 PUSH2 0xB4F CALLDATASIZE PUSH1 0x4 PUSH2 0xAF2 JUMP JUMPDEST SWAP3 SWAP2 SWAP1 SWAP2 PUSH2 0x2694 JUMP JUMPDEST PUSH2 0xB60 PUSH2 0x143 JUMP JUMPDEST SWAP2 DUP3 SWAP2 DUP3 PUSH2 0x56C JUMP JUMPDEST SUB SWAP1 RETURN JUMPDEST PUSH2 0x149 JUMP JUMPDEST PUSH1 0x0 DUP1 REVERT JUMPDEST PUSH1 0x60 SWAP1 JUMP JUMPDEST PUSH8 0xFFFFFFFFFFFFFFFF DUP2 GT PUSH2 0xB9A JUMPI PUSH2 0xB96 PUSH1 0x20 SWAP2 PUSH2 0x195 JUMP JUMPDEST ADD SWAP1 JUMP JUMPDEST PUSH2 0x2EA JUMP JUMPDEST SWAP1 PUSH2 0xBB1 PUSH2 0xBAC DUP4 PUSH2 0xB7C JUMP JUMPDEST PUSH2 0x329 JUMP JUMPDEST SWAP2 DUP3 MSTORE JUMP JUMPDEST PUSH1 0x0 PUSH32 0x5669616475637400000000000000000000000000000000000000000000000000 SWAP2 ADD MSTORE JUMP JUMPDEST PUSH2 0xBE8 PUSH1 0x7 PUSH2 0xB9F JUMP JUMPDEST SWAP1 PUSH2 0xBF5 PUSH1 0x20 DUP4 ADD PUSH2 0xBB6 JUMP JUMPDEST JUMP JUMPDEST PUSH2 0xBFF PUSH2 0xBDE JUMP JUMPDEST SWAP1 JUMP JUMPDEST PUSH2 0xC0A PUSH2 0xB77 JUMP JUMPDEST POP PUSH2 0xC13 PUSH2 0xBF7 JUMP JUMPDEST SWAP1 JUMP JUMPDEST PUSH1 0x0 SWAP1 JUMP JUMPDEST SWAP1 JUMP JUMPDEST SWAP1 JUMP JUMPDEST PUSH2 0xC35 PUSH2 0xC30 PUSH2 0xC3A SWAP3 PUSH2 0xC1B JUMP JUMPDEST PUSH2 0xC1E JUMP JUMPDEST PUSH2 0x21E JUMP JUMPDEST SWAP1 JUMP JUMPDEST PUSH2 0xC50 PUSH10 0x21E19E0C9BAB2400000 PUSH2 0xC21 JUMP JUMPDEST SWAP1 JUMP JUMPDEST PUSH2 0xC5B PUSH2 0xC16 JUMP JUMPDEST POP PUSH2 0xC64 PUSH2 0xC3D JUMP JUMPDEST SWAP1 JUMP JUMPDEST PUSH1 0x0 SWAP1 JUMP JUMPDEST SWAP2 PUSH2 0xC86 PUSH2 0xC8C SWAP2 PUSH2 0xC92 SWAP4 PUSH2 0xC80 PUSH2 0xC67 JUMP JUMPDEST POP PUSH2 0x10D8 JUMP JUMPDEST SWAP3 PUSH2 0x289 JUMP JUMPDEST SWAP2 PUSH2 0x289 JUMP JUMPDEST EQ SWAP1 JUMP JUMPDEST POP POP POP PUSH2 0xCA1 PUSH2 0xC67 JUMP JUMPDEST POP PUSH1 0x0 SWAP1 JUMP JUMPDEST SWAP1 JUMP JUMPDEST PUSH2 0xCBE PUSH2 0xCB9 PUSH2 0xCC3 SWAP3 PUSH2 0xCA7 JUMP JUMPDEST PUSH2 0xC1E JUMP JUMPDEST PUSH2 0x21E JUMP JUMPDEST SWAP1 JUMP JUMPDEST PUSH2 0xCCE PUSH2 0xC16 JUMP JUMPDEST POP PUSH2 0xCD9 PUSH1 0x12 PUSH2 0xCAA JUMP JUMPDEST SWAP1 JUMP JUMPDEST PUSH1 0x0 SWAP1 JUMP JUMPDEST SWAP1 POP SWAP1 JUMP JUMPDEST PUSH1 0x0 PUSH32 0x19457468657265756D205369676E6564204D6573736167653A0A333200000000 SWAP2 ADD MSTORE JUMP JUMPDEST PUSH2 0xD1A PUSH1 0x1C DUP1 SWAP3 PUSH2 0xCE1 JUMP JUMPDEST PUSH2 0xD23 DUP2 PUSH2 0xCE6 JUMP JUMPDEST ADD SWAP1 JUMP JUMPDEST SWAP1 JUMP JUMPDEST PUSH2 0xD36 PUSH2 0xD3B SWAP2 PUSH2 0x2B9 JUMP JUMPDEST PUSH2 0xD27 JUMP JUMPDEST SWAP1 MSTORE JUMP JUMPDEST SWAP1 PUSH2 0xD55 PUSH2 0xD4E PUSH1 0x20 SWAP4 PUSH2 0xD0E JUMP JUMPDEST DUP1 SWAP3 PUSH2 0xD2A JUMP JUMPDEST ADD SWAP1 JUMP JUMPDEST PUSH1 0x20 ADD SWAP1 JUMP JUMPDEST MLOAD SWAP1 JUMP JUMPDEST PUSH2 0xD96 PUSH2 0xD87 SWAP2 PUSH2 0xD72 PUSH2 0xCDC JUMP JUMPDEST POP PUSH2 0xD7B PUSH2 0x143 JUMP JUMPDEST SWAP3 DUP4 SWAP2 PUSH1 0x20 DUP4 ADD PUSH2 0xD3F JUMP JUMPDEST PUSH1 0x20 DUP3 ADD DUP2 SUB DUP3 MSTORE SUB DUP3 PUSH2 0x300 JUMP JUMPDEST PUSH2 0xDA8 PUSH2 0xDA2 DUP3 PUSH2 0xD5F JUMP JUMPDEST SWAP2 PUSH2 0xD59 JUMP JUMPDEST KECCAK256 SWAP1 JUMP JUMPDEST PUSH2 0xDC0 PUSH2 0xDBB PUSH2 0xDC5 SWAP3 PUSH2 0x27E JUMP JUMPDEST PUSH2 0xC1E JUMP JUMPDEST PUSH2 0x27E JUMP JUMPDEST SWAP1 JUMP JUMPDEST PUSH2 0xDD1 SWAP1 PUSH2 0xDAC JUMP JUMPDEST SWAP1 JUMP JUMPDEST PUSH2 0xDDD SWAP1 PUSH2 0xDC8 JUMP JUMPDEST SWAP1 JUMP JUMPDEST SWAP1 PUSH2 0xDEA SWAP1 PUSH2 0xDD4 JUMP JUMPDEST PUSH1 0x0 MSTORE PUSH1 0x20 MSTORE PUSH1 0x40 PUSH1 0x0 KECCAK256 SWAP1 JUMP JUMPDEST PUSH1 0x0 SHR SWAP1 JUMP JUMPDEST SWAP1 JUMP JUMPDEST PUSH2 0xE0D PUSH2 0xE12 SWAP2 PUSH2 0xDF8 JUMP JUMPDEST PUSH2 0xDFE JUMP JUMPDEST SWAP1 JUMP JUMPDEST PUSH2 0xE1F SWAP1 SLOAD PUSH2 0xE01 JUMP JUMPDEST SWAP1 JUMP JUMPDEST PUSH2 0xE39 PUSH2 0xE3E SWAP2 PUSH2 0xE31 PUSH2 0xC16 JUMP JUMPDEST POP PUSH1 0x3 PUSH2 0xDE0 JUMP JUMPDEST PUSH2 0xE15 JUMP JUMPDEST SWAP1 JUMP JUMPDEST PUSH4 0x4E487B71 PUSH1 0xE0 SHL PUSH1 0x0 MSTORE PUSH1 0x11 PUSH1 0x4 MSTORE PUSH1 0x24 PUSH1 0x0 REVERT JUMPDEST PUSH2 0xE66 PUSH2 0xE6C SWAP2 SWAP4 SWAP3 SWAP4 PUSH2 0x21E JUMP JUMPDEST SWAP3 PUSH2 0x21E JUMP JUMPDEST DUP3 SUB SWAP2 DUP3 GT PUSH2 0xE77 JUMPI JUMP JUMPDEST PUSH2 0xE41 JUMP JUMPDEST SWAP1 JUMP JUMPDEST PUSH2 0xE93 PUSH2 0xE8E PUSH2 0xE98 SWAP3 PUSH2 0xE7C JUMP JUMPDEST PUSH2 0xC1E JUMP JUMPDEST PUSH2 0x21E JUMP JUMPDEST SWAP1 JUMP JUMPDEST PUSH2 0xEA6 PUSH2 0x258 PUSH2 0xE7F JUMP JUMPDEST SWAP1 JUMP JUMPDEST PUSH4 0x4E487B71 PUSH1 0xE0 SHL PUSH1 0x0 MSTORE PUSH1 0x12 PUSH1 0x4 MSTORE PUSH1 0x24 PUSH1 0x0 REVERT JUMPDEST PUSH2 0xECB PUSH2 0xED1 SWAP2 PUSH2 0x21E JUMP JUMPDEST SWAP2 PUSH2 0x21E JUMP JUMPDEST SWAP1 DUP2 ISZERO PUSH2 0xEDC JUMPI MOD SWAP1 JUMP JUMPDEST PUSH2 0xEA9 JUMP JUMPDEST SWAP1 JUMP JUMPDEST PUSH2 0xEF8 PUSH2 0xEF3 PUSH2 0xEFD SWAP3 PUSH2 0xEE1 JUMP JUMPDEST PUSH2 0xC1E JUMP JUMPDEST PUSH2 0x21E JUMP JUMPDEST SWAP1 JUMP JUMPDEST PUSH2 0xF0B PUSH2 0x1A4 PUSH2 0xEE4 JUMP JUMPDEST SWAP1 JUMP JUMPDEST PUSH2 0xF16 PUSH2 0xC67 JUMP JUMPDEST POP PUSH2 0xF53 PUSH2 0xF45 TIMESTAMP PUSH32 0x0 SWAP1 PUSH2 0xE57 JUMP JUMPDEST PUSH2 0xF4D PUSH2 0xE9B JUMP JUMPDEST SWAP1 PUSH2 0xEBF JUMP JUMPDEST PUSH2 0xF6C PUSH2 0xF66 PUSH2 0xF61 PUSH2 0xF00 JUMP JUMPDEST PUSH2 0x21E JUMP JUMPDEST SWAP2 PUSH2 0x21E JUMP JUMPDEST LT DUP1 ISZERO PUSH2 0xF77 JUMPI JUMPDEST SWAP1 JUMP JUMPDEST POP PUSH32 0x0 PUSH2 0xF74 JUMP JUMPDEST PUSH2 0xFA8 SWAP1 MLOAD PUSH2 0x289 JUMP JUMPDEST SWAP1 JUMP JUMPDEST PUSH2 0xFB5 SWAP1 MLOAD PUSH2 0x21E JUMP JUMPDEST SWAP1 JUMP JUMPDEST PUSH2 0x101A SWAP2 PUSH2 0xFC4 PUSH2 0xC67 JUMP JUMPDEST POP PUSH2 0x1012 PUSH1 0x0 PUSH2 0x100B PUSH2 0x1006 PUSH2 0xFDB DUP4 DUP8 ADD PUSH2 0xF9E JUMP JUMPDEST PUSH2 0xFE7 PUSH1 0x20 DUP9 ADD PUSH2 0xF9E JUMP JUMPDEST PUSH2 0xFF3 PUSH1 0x40 DUP10 ADD PUSH2 0xFAB JUMP JUMPDEST SWAP1 PUSH2 0x1000 PUSH1 0x80 DUP11 ADD PUSH2 0xFAB JUMP JUMPDEST SWAP3 PUSH2 0x2694 JUMP JUMPDEST PUSH2 0xD63 JUMP JUMPDEST SWAP4 ADD PUSH2 0xF9E JUMP JUMPDEST SWAP2 SWAP1 SWAP2 PUSH2 0xC6C JUMP JUMPDEST SWAP1 JUMP JUMPDEST PUSH1 0x0 PUSH32 0x5649410000000000000000000000000000000000000000000000000000000000 SWAP2 ADD MSTORE JUMP JUMPDEST PUSH2 0x104F PUSH1 0x3 PUSH2 0xB9F JUMP JUMPDEST SWAP1 PUSH2 0x105C PUSH1 0x20 DUP4 ADD PUSH2 0x101D JUMP JUMPDEST JUMP JUMPDEST PUSH2 0x1066 PUSH2 0x1045 JUMP JUMPDEST SWAP1 JUMP JUMPDEST PUSH2 0x1071 PUSH2 0xB77 JUMP JUMPDEST POP PUSH2 0x107A PUSH2 0x105E JUMP JUMPDEST SWAP1 JUMP JUMPDEST PUSH1 0x0 SWAP1 JUMP JUMPDEST PUSH1 0x0 SHL SWAP1 JUMP JUMPDEST PUSH2 0x10BE PUSH2 0x10C5 SWAP5 PUSH2 0x10B4 PUSH1 0x60 SWAP5 SWAP9 SWAP8 SWAP6 PUSH2 0x10AA PUSH1 0x80 DUP7 ADD SWAP11 PUSH1 0x0 DUP8 ADD SWAP1 PUSH2 0x55F JUMP JUMPDEST PUSH1 0x20 DUP6 ADD SWAP1 PUSH2 0x8C6 JUMP JUMPDEST PUSH1 0x40 DUP4 ADD SWAP1 PUSH2 0x55F JUMP JUMPDEST ADD SWAP1 PUSH2 0x55F JUMP JUMPDEST JUMP JUMPDEST PUSH2 0x10CF PUSH2 0x143 JUMP JUMPDEST RETURNDATASIZE PUSH1 0x0 DUP3 RETURNDATACOPY RETURNDATASIZE SWAP1 REVERT JUMPDEST PUSH2 0x1109 PUSH1 0x0 SWAP2 PUSH2 0x10F2 PUSH1 0x20 SWAP5 PUSH2 0x10EC PUSH2 0x107D JUMP JUMPDEST POP PUSH2 0x1214 JUMP JUMPDEST SWAP1 SWAP4 SWAP2 SWAP4 SWAP1 SWAP4 PUSH2 0x1100 PUSH2 0x143 JUMP JUMPDEST SWAP5 DUP6 SWAP5 DUP6 PUSH2 0x1088 JUMP JUMPDEST DUP4 DUP1 MSTORE SUB SWAP1 PUSH1 0x1 GAS STATICCALL ISZERO PUSH2 0x1125 JUMPI PUSH2 0x1122 PUSH1 0x0 MLOAD PUSH2 0x1082 JUMP JUMPDEST SWAP1 JUMP JUMPDEST PUSH2 0x10C7 JUMP JUMPDEST PUSH1 0x0 SWAP1 JUMP JUMPDEST SWAP1 JUMP JUMPDEST PUSH2 0x1146 PUSH2 0x1141 PUSH2 0x114B SWAP3 PUSH2 0x112F JUMP JUMPDEST PUSH2 0xC1E JUMP JUMPDEST PUSH2 0x21E JUMP JUMPDEST SWAP1 JUMP JUMPDEST PUSH1 0x0 PUSH32 0x496E76616C6964207369676E6174757265206C656E6774680000000000000000 SWAP2 ADD MSTORE JUMP JUMPDEST PUSH2 0x1183 PUSH1 0x18 PUSH1 0x20 SWAP3 PUSH2 0x167 JUMP JUMPDEST PUSH2 0x118C DUP2 PUSH2 0x114E JUMP JUMPDEST ADD SWAP1 JUMP JUMPDEST PUSH2 0x11A6 SWAP1 PUSH1 0x20 DUP2 ADD SWAP1 PUSH1 0x0 DUP2 DUP4 SUB SWAP2 ADD MSTORE PUSH2 0x1176 JUMP JUMPDEST SWAP1 JUMP JUMPDEST ISZERO PUSH2 0x11B0 JUMPI JUMP JUMPDEST PUSH2 0x11B8 PUSH2 0x143 JUMP JUMPDEST PUSH3 0x461BCD PUSH1 0xE5 SHL DUP2 MSTORE DUP1 PUSH2 0x11CE PUSH1 0x4 DUP3 ADD PUSH2 0x1190 JUMP JUMPDEST SUB SWAP1 REVERT JUMPDEST SWAP1 JUMP JUMPDEST PUSH2 0x11E9 PUSH2 0x11E4 PUSH2 0x11EE SWAP3 PUSH2 0x11D2 JUMP JUMPDEST PUSH2 0xC1E JUMP JUMPDEST PUSH2 0x8C0 JUMP JUMPDEST SWAP1 JUMP JUMPDEST PUSH2 0x11FD PUSH2 0x1203 SWAP2 PUSH2 0x8C0 JUMP JUMPDEST SWAP2 PUSH2 0x8C0 JUMP JUMPDEST ADD SWAP1 PUSH1 0xFF DUP3 GT PUSH2 0x120F JUMPI JUMP JUMPDEST PUSH2 0xE41 JUMP JUMPDEST PUSH2 0x121C PUSH2 0xCDC JUMP JUMPDEST POP PUSH2 0x1225 PUSH2 0xCDC JUMP JUMPDEST POP PUSH2 0x122E PUSH2 0x112A JUMP JUMPDEST POP PUSH2 0x1254 PUSH2 0x123B DUP3 PUSH2 0xD5F JUMP JUMPDEST PUSH2 0x124E PUSH2 0x1248 PUSH1 0x41 PUSH2 0x1132 JUMP JUMPDEST SWAP2 PUSH2 0x21E JUMP JUMPDEST EQ PUSH2 0x11A9 JUMP JUMPDEST PUSH1 0x20 DUP2 ADD MLOAD SWAP2 PUSH1 0x60 PUSH1 0x40 DUP4 ADD MLOAD SWAP3 ADD MLOAD PUSH1 0x0 BYTE SWAP1 DUP2 PUSH2 0x127C PUSH2 0x1276 PUSH1 0x1B PUSH2 0x11D5 JUMP JUMPDEST SWAP2 PUSH2 0x8C0 JUMP JUMPDEST LT PUSH2 0x1284 JUMPI JUMPDEST JUMP JUMPDEST SWAP1 PUSH2 0x1299 SWAP1 PUSH2 0x1293 PUSH1 0x1B PUSH2 0x11D5 JUMP JUMPDEST SWAP1 PUSH2 0x11F1 JUMP JUMPDEST SWAP1 PUSH2 0x1282 JUMP JUMPDEST POP POP PUSH2 0x12A9 PUSH2 0xC67 JUMP JUMPDEST POP PUSH1 0x0 SWAP1 JUMP JUMPDEST PUSH2 0x12B8 SWAP1 PUSH2 0x2B9 JUMP JUMPDEST SWAP1 JUMP JUMPDEST SWAP1 PUSH2 0x12C5 SWAP1 PUSH2 0x12AF JUMP JUMPDEST PUSH1 0x0 MSTORE PUSH1 0x20 MSTORE PUSH1 0x40 PUSH1 0x0 KECCAK256 SWAP1 JUMP JUMPDEST PUSH1 0xFF AND SWAP1 JUMP JUMPDEST PUSH2 0x12E5 PUSH2 0x12EA SWAP2 PUSH2 0xDF8 JUMP JUMPDEST PUSH2 0x12D3 JUMP JUMPDEST SWAP1 JUMP JUMPDEST PUSH2 0x12F7 SWAP1 SLOAD PUSH2 0x12D9 JUMP JUMPDEST SWAP1 JUMP JUMPDEST PUSH1 0x0 PUSH32 0x5265706561746564207472616E73616374696F6E2E0000000000000000000000 SWAP2 ADD MSTORE JUMP JUMPDEST PUSH2 0x132F PUSH1 0x15 PUSH1 0x20 SWAP3 PUSH2 0x167 JUMP JUMPDEST PUSH2 0x1338 DUP2 PUSH2 0x12FA JUMP JUMPDEST ADD SWAP1 JUMP JUMPDEST PUSH2 0x1352 SWAP1 PUSH1 0x20 DUP2 ADD SWAP1 PUSH1 0x0 DUP2 DUP4 SUB SWAP2 ADD MSTORE PUSH2 0x1322 JUMP JUMPDEST SWAP1 JUMP JUMPDEST ISZERO PUSH2 0x135C JUMPI JUMP JUMPDEST PUSH2 0x1364 PUSH2 0x143 JUMP JUMPDEST PUSH3 0x461BCD PUSH1 0xE5 SHL DUP2 MSTORE DUP1 PUSH2 0x137A PUSH1 0x4 DUP3 ADD PUSH2 0x133C JUMP JUMPDEST SUB SWAP1 REVERT JUMPDEST SWAP1 PUSH2 0x138A PUSH1 0xFF SWAP2 PUSH2 0x1082 JUMP JUMPDEST SWAP2 DUP2 NOT AND SWAP2 AND OR SWAP1 JUMP JUMPDEST PUSH2 0x139D SWAP1 PUSH2 0x418 JUMP JUMPDEST SWAP1 JUMP JUMPDEST SWAP1 JUMP JUMPDEST SWAP1 PUSH2 0x13B8 PUSH2 0x13B3 PUSH2 0x13BF SWAP3 PUSH2 0x1394 JUMP JUMPDEST PUSH2 0x13A0 JUMP JUMPDEST DUP3 SLOAD PUSH2 0x137E JUMP JUMPDEST SWAP1 SSTORE JUMP JUMPDEST PUSH1 0x0 PUSH32 0x43616E6E6F742070726F706F7365000000000000000000000000000000000000 SWAP2 ADD MSTORE JUMP JUMPDEST PUSH2 0x13F8 PUSH1 0xE PUSH1 0x20 SWAP3 PUSH2 0x167 JUMP JUMPDEST PUSH2 0x1401 DUP2 PUSH2 0x13C3 JUMP JUMPDEST ADD SWAP1 JUMP JUMPDEST PUSH2 0x141B SWAP1 PUSH1 0x20 DUP2 ADD SWAP1 PUSH1 0x0 DUP2 DUP4 SUB SWAP2 ADD MSTORE PUSH2 0x13EB JUMP JUMPDEST SWAP1 JUMP JUMPDEST ISZERO PUSH2 0x1425 JUMPI JUMP JUMPDEST PUSH2 0x142D PUSH2 0x143 JUMP JUMPDEST PUSH3 0x461BCD PUSH1 0xE5 SHL DUP2 MSTORE DUP1 PUSH2 0x1443 PUSH1 0x4 DUP3 ADD PUSH2 0x1405 JUMP JUMPDEST SUB SWAP1 REVERT JUMPDEST PUSH1 0x0 PUSH32 0x496E73756666696369656E742062616C616E6365000000000000000000000000 SWAP2 ADD MSTORE JUMP JUMPDEST PUSH2 0x147C PUSH1 0x14 PUSH1 0x20 SWAP3 PUSH2 0x167 JUMP JUMPDEST PUSH2 0x1485 DUP2 PUSH2 0x1447 JUMP JUMPDEST ADD SWAP1 JUMP JUMPDEST PUSH2 0x149F SWAP1 PUSH1 0x20 DUP2 ADD SWAP1 PUSH1 0x0 DUP2 DUP4 SUB SWAP2 ADD MSTORE PUSH2 0x146F JUMP JUMPDEST SWAP1 JUMP JUMPDEST ISZERO PUSH2 0x14A9 JUMPI JUMP JUMPDEST PUSH2 0x14B1 PUSH2 0x143 JUMP JUMPDEST PUSH3 0x461BCD PUSH1 0xE5 SHL DUP2 MSTORE DUP1 PUSH2 0x14C7 PUSH1 0x4 DUP3 ADD PUSH2 0x1489 JUMP JUMPDEST SUB SWAP1 REVERT JUMPDEST PUSH2 0x14D5 PUSH1 0xE0 PUSH2 0x329 JUMP JUMPDEST SWAP1 JUMP JUMPDEST PUSH1 0x0 SWAP1 JUMP JUMPDEST PUSH1 0x0 SWAP1 JUMP JUMPDEST PUSH1 0x60 SWAP1 JUMP JUMPDEST PUSH1 0x0 SWAP1 JUMP JUMPDEST PUSH2 0x14F4 PUSH2 0x14CB JUMP JUMPDEST SWAP1 PUSH1 0x20 DUP1 DUP1 DUP1 DUP1 DUP1 DUP1 DUP9 PUSH2 0x1506 PUSH2 0x14D8 JUMP JUMPDEST DUP2 MSTORE ADD PUSH2 0x1511 PUSH2 0x14D8 JUMP JUMPDEST DUP2 MSTORE ADD PUSH2 0x151C PUSH2 0x14DD JUMP JUMPDEST DUP2 MSTORE ADD PUSH2 0x1527 PUSH2 0x14E2 JUMP JUMPDEST DUP2 MSTORE ADD PUSH2 0x1532 PUSH2 0x14DD JUMP JUMPDEST DUP2 MSTORE ADD PUSH2 0x153D PUSH2 0x14DD JUMP JUMPDEST DUP2 MSTORE ADD PUSH2 0x1548 PUSH2 0x14E7 JUMP JUMPDEST DUP2 MSTORE POP POP JUMP JUMPDEST PUSH2 0x1556 PUSH2 0x14EC JUMP JUMPDEST SWAP1 JUMP JUMPDEST SWAP1 PUSH2 0x1563 SWAP1 PUSH2 0x289 JUMP JUMPDEST SWAP1 MSTORE JUMP JUMPDEST SWAP1 PUSH2 0x1571 SWAP1 PUSH2 0x21E JUMP JUMPDEST SWAP1 MSTORE JUMP JUMPDEST PUSH1 0x0 PUSH32 0x496E76616C6964207369676E6174757265000000000000000000000000000000 SWAP2 ADD MSTORE JUMP JUMPDEST PUSH2 0x15AA PUSH1 0x11 PUSH1 0x20 SWAP3 PUSH2 0x167 JUMP JUMPDEST PUSH2 0x15B3 DUP2 PUSH2 0x1575 JUMP JUMPDEST ADD SWAP1 JUMP JUMPDEST PUSH2 0x15CD SWAP1 PUSH1 0x20 DUP2 ADD SWAP1 PUSH1 0x0 DUP2 DUP4 SUB SWAP2 ADD MSTORE PUSH2 0x159D JUMP JUMPDEST SWAP1 JUMP JUMPDEST ISZERO PUSH2 0x15D7 JUMPI JUMP JUMPDEST PUSH2 0x15DF PUSH2 0x143 JUMP JUMPDEST PUSH3 0x461BCD PUSH1 0xE5 SHL DUP2 MSTORE DUP1 PUSH2 0x15F5 PUSH1 0x4 DUP3 ADD PUSH2 0x15B7 JUMP JUMPDEST SUB SWAP1 REVERT JUMPDEST SWAP1 PUSH2 0x1603 SWAP1 PUSH2 0x418 JUMP JUMPDEST SWAP1 MSTORE JUMP JUMPDEST SWAP1 JUMP JUMPDEST PUSH1 0x0 MSTORE PUSH1 0x20 PUSH1 0x0 KECCAK256 SWAP1 JUMP JUMPDEST PUSH4 0x4E487B71 PUSH1 0xE0 SHL PUSH1 0x0 MSTORE PUSH1 0x32 PUSH1 0x4 MSTORE PUSH1 0x24 PUSH1 0x0 REVERT JUMPDEST SLOAD SWAP1 JUMP JUMPDEST PUSH2 0x1638 DUP2 PUSH2 0x162B JUMP JUMPDEST DUP3 LT ISZERO PUSH2 0x1653 JUMPI PUSH2 0x164A PUSH1 0x7 SWAP2 PUSH2 0x160A JUMP JUMPDEST SWAP2 MUL ADD SWAP1 PUSH1 0x0 SWAP1 JUMP JUMPDEST PUSH2 0x1615 JUMP JUMPDEST PUSH4 0x4E487B71 PUSH1 0xE0 SHL PUSH1 0x0 MSTORE PUSH1 0x0 PUSH1 0x4 MSTORE PUSH1 0x24 PUSH1 0x0 REVERT JUMPDEST SWAP1 PUSH2 0x167F PUSH1 0x1 DUP1 PUSH1 0xA0 SHL SUB SWAP2 PUSH2 0x1082 JUMP JUMPDEST SWAP2 DUP2 NOT AND SWAP2 AND OR SWAP1 JUMP JUMPDEST SWAP1 JUMP JUMPDEST SWAP1 PUSH2 0x16A1 PUSH2 0x169C PUSH2 0x16A8 SWAP3 PUSH2 0xDD4 JUMP JUMPDEST PUSH2 0x1689 JUMP JUMPDEST DUP3 SLOAD PUSH2 0x166E JUMP JUMPDEST SWAP1 SSTORE JUMP JUMPDEST SWAP1 PUSH2 0x16B9 PUSH1 0x0 NOT SWAP2 PUSH2 0x1082 JUMP JUMPDEST SWAP2 DUP2 NOT AND SWAP2 AND OR SWAP1 JUMP JUMPDEST PUSH2 0x16D7 PUSH2 0x16D2 PUSH2 0x16DC SWAP3 PUSH2 0x21E JUMP JUMPDEST PUSH2 0xC1E JUMP JUMPDEST PUSH2 0x21E JUMP JUMPDEST SWAP1 JUMP JUMPDEST SWAP1 JUMP JUMPDEST SWAP1 PUSH2 0x16F7 PUSH2 0x16F2 PUSH2 0x16FE SWAP3 PUSH2 0x16C3 JUMP JUMPDEST PUSH2 0x16DF JUMP JUMPDEST DUP3 SLOAD PUSH2 0x16AC JUMP JUMPDEST SWAP1 SSTORE JUMP JUMPDEST MLOAD SWAP1 JUMP JUMPDEST PUSH4 0x4E487B71 PUSH1 0xE0 SHL PUSH1 0x0 MSTORE PUSH1 0x22 PUSH1 0x4 MSTORE PUSH1 0x24 PUSH1 0x0 REVERT JUMPDEST SWAP1 PUSH1 0x1 PUSH1 0x2 DUP4 DIV SWAP3 AND DUP1 ISZERO PUSH2 0x173C JUMPI JUMPDEST PUSH1 0x20 DUP4 LT EQ PUSH2 0x1737 JUMPI JUMP JUMPDEST PUSH2 0x1706 JUMP JUMPDEST SWAP2 PUSH1 0x7F AND SWAP2 PUSH2 0x172C JUMP JUMPDEST PUSH1 0x0 MSTORE PUSH1 0x20 PUSH1 0x0 KECCAK256 SWAP1 JUMP JUMPDEST PUSH1 0x1F PUSH1 0x20 SWAP2 ADD DIV SWAP1 JUMP JUMPDEST SHL SWAP1 JUMP JUMPDEST SWAP2 SWAP1 PUSH1 0x8 PUSH2 0x177B SWAP2 MUL SWAP2 PUSH2 0x1775 PUSH1 0x0 NOT DUP5 PUSH2 0x175B JUMP JUMPDEST SWAP3 PUSH2 0x175B JUMP JUMPDEST SWAP2 DUP2 NOT AND SWAP2 AND OR SWAP1 JUMP JUMPDEST SWAP2 SWAP1 PUSH2 0x179B PUSH2 0x1796 PUSH2 0x17A3 SWAP4 PUSH2 0x16C3 JUMP JUMPDEST PUSH2 0x16DF JUMP JUMPDEST SWAP1 DUP4 SLOAD PUSH2 0x175F JUMP JUMPDEST SWAP1 SSTORE JUMP JUMPDEST PUSH2 0x17B9 SWAP2 PUSH2 0x17B3 PUSH2 0xC16 JUMP JUMPDEST SWAP2 PUSH2 0x1785 JUMP JUMPDEST JUMP JUMPDEST JUMPDEST DUP2 DUP2 LT PUSH2 0x17C7 JUMPI POP POP JUMP JUMPDEST DUP1 PUSH2 0x17D5 PUSH1 0x0 PUSH1 0x1 SWAP4 PUSH2 0x17A7 JUMP JUMPDEST ADD PUSH2 0x17BC JUMP JUMPDEST SWAP2 SWAP1 PUSH1 0x1F DUP2 GT PUSH2 0x17EB JUMPI JUMPDEST POP POP POP JUMP JUMPDEST PUSH2 0x17F7 PUSH2 0x181C SWAP4 PUSH2 0x1746 JUMP JUMPDEST SWAP1 PUSH1 0x20 PUSH2 0x1803 DUP5 PUSH2 0x1751 JUMP JUMPDEST DUP4 ADD SWAP4 LT PUSH2 0x1824 JUMPI JUMPDEST PUSH2 0x1815 SWAP1 PUSH2 0x1751 JUMP JUMPDEST ADD SWAP1 PUSH2 0x17BB JUMP JUMPDEST CODESIZE DUP1 DUP1 PUSH2 0x17E6 JUMP JUMPDEST SWAP2 POP PUSH2 0x1815 DUP2 SWAP3 SWAP1 POP PUSH2 0x180C JUMP JUMPDEST SHR SWAP1 JUMP JUMPDEST SWAP1 PUSH2 0x1847 SWAP1 PUSH1 0x0 NOT SWAP1 PUSH1 0x8 MUL PUSH2 0x1832 JUMP JUMPDEST NOT AND SWAP1 JUMP JUMPDEST DUP2 PUSH2 0x1856 SWAP2 PUSH2 0x1836 JUMP JUMPDEST SWAP1 PUSH1 0x2 MUL OR SWAP1 JUMP JUMPDEST SWAP1 PUSH2 0x1868 DUP2 PUSH2 0xD5F JUMP JUMPDEST SWAP1 PUSH8 0xFFFFFFFFFFFFFFFF DUP3 GT PUSH2 0x192A JUMPI PUSH2 0x188C DUP3 PUSH2 0x1886 DUP6 SLOAD PUSH2 0x171C JUMP JUMPDEST DUP6 PUSH2 0x17DB JUMP JUMPDEST PUSH1 0x20 SWAP1 PUSH1 0x1F DUP4 GT PUSH1 0x1 EQ PUSH2 0x18C1 JUMPI SWAP2 DUP1 SWAP2 PUSH2 0x18B0 SWAP4 PUSH1 0x0 SWAP3 PUSH2 0x18B5 JUMPI JUMPDEST POP POP PUSH2 0x184C JUMP JUMPDEST SWAP1 SSTORE JUMPDEST JUMP JUMPDEST SWAP1 SWAP2 POP ADD MLOAD CODESIZE DUP1 PUSH2 0x18A9 JUMP JUMPDEST PUSH1 0x1F NOT DUP4 AND SWAP2 PUSH2 0x18D0 DUP6 PUSH2 0x1746 JUMP JUMPDEST SWAP3 PUSH1 0x0 JUMPDEST DUP2 DUP2 LT PUSH2 0x1912 JUMPI POP SWAP2 PUSH1 0x2 SWAP4 SWAP2 DUP6 PUSH1 0x1 SWAP7 SWAP5 LT PUSH2 0x18F8 JUMPI JUMPDEST POP POP POP MUL ADD SWAP1 SSTORE PUSH2 0x18B3 JUMP JUMPDEST PUSH2 0x1908 SWAP2 ADD MLOAD PUSH1 0x1F DUP5 AND SWAP1 PUSH2 0x1836 JUMP JUMPDEST SWAP1 SSTORE CODESIZE DUP1 DUP1 PUSH2 0x18EC JUMP JUMPDEST SWAP2 SWAP4 PUSH1 0x20 PUSH1 0x1 DUP2 SWAP3 DUP8 DUP8 ADD MLOAD DUP2 SSTORE ADD SWAP6 ADD SWAP3 ADD PUSH2 0x18D4 JUMP JUMPDEST PUSH2 0x2EA JUMP JUMPDEST SWAP1 PUSH2 0x1939 SWAP2 PUSH2 0x185E JUMP JUMPDEST JUMP JUMPDEST PUSH2 0x1945 SWAP1 MLOAD PUSH2 0x418 JUMP JUMPDEST SWAP1 JUMP JUMPDEST SWAP1 PUSH2 0x19F2 PUSH1 0xC0 PUSH1 0x6 PUSH2 0x19F8 SWAP5 PUSH2 0x196D PUSH1 0x0 DUP3 ADD PUSH2 0x1967 PUSH1 0x0 DUP9 ADD PUSH2 0xF9E JUMP JUMPDEST SWAP1 PUSH2 0x168C JUMP JUMPDEST PUSH2 0x1986 PUSH1 0x1 DUP3 ADD PUSH2 0x1980 PUSH1 0x20 DUP9 ADD PUSH2 0xF9E JUMP JUMPDEST SWAP1 PUSH2 0x168C JUMP JUMPDEST PUSH2 0x199F PUSH1 0x2 DUP3 ADD PUSH2 0x1999 PUSH1 0x40 DUP9 ADD PUSH2 0xFAB JUMP JUMPDEST SWAP1 PUSH2 0x16E2 JUMP JUMPDEST PUSH2 0x19B8 PUSH1 0x3 DUP3 ADD PUSH2 0x19B2 PUSH1 0x60 DUP9 ADD PUSH2 0x1702 JUMP JUMPDEST SWAP1 PUSH2 0x192F JUMP JUMPDEST PUSH2 0x19D1 PUSH1 0x4 DUP3 ADD PUSH2 0x19CB PUSH1 0x80 DUP9 ADD PUSH2 0xFAB JUMP JUMPDEST SWAP1 PUSH2 0x16E2 JUMP JUMPDEST PUSH2 0x19EA PUSH1 0x5 DUP3 ADD PUSH2 0x19E4 PUSH1 0xA0 DUP9 ADD PUSH2 0xFAB JUMP JUMPDEST SWAP1 PUSH2 0x16E2 JUMP JUMPDEST ADD SWAP3 ADD PUSH2 0x193B JUMP JUMPDEST SWAP1 PUSH2 0x13A3 JUMP JUMPDEST JUMP JUMPDEST SWAP2 SWAP1 PUSH2 0x1A0B JUMPI PUSH2 0x1A09 SWAP2 PUSH2 0x1948 JUMP JUMPDEST JUMP JUMPDEST PUSH2 0x1658 JUMP JUMPDEST SWAP1 DUP2 SLOAD SWAP2 PUSH9 0x10000000000000000 DUP4 LT ISZERO PUSH2 0x1A40 JUMPI DUP3 PUSH2 0x1A38 SWAP2 PUSH1 0x1 PUSH2 0x1A3E SWAP6 ADD DUP2 SSTORE PUSH2 0x162F JUMP JUMPDEST SWAP1 PUSH2 0x19FA JUMP JUMPDEST JUMP JUMPDEST PUSH2 0x2EA JUMP JUMPDEST PUSH1 0x20 SWAP2 DUP2 MSTORE ADD SWAP1 JUMP JUMPDEST PUSH2 0x1A6D PUSH2 0x1A76 PUSH1 0x20 SWAP4 PUSH2 0x1A7B SWAP4 PUSH2 0x1A64 DUP2 PUSH2 0xD5F JUMP JUMPDEST SWAP4 DUP5 DUP1 SWAP4 PUSH2 0x1A45 JUMP JUMPDEST SWAP6 DUP7 SWAP2 ADD PUSH2 0x170 JUMP JUMPDEST PUSH2 0x195 JUMP JUMPDEST ADD SWAP1 JUMP JUMPDEST PUSH2 0x1ACE SWAP5 PUSH2 0x1AB9 DUP3 SWAP9 SWAP8 SWAP6 PUSH2 0x1AAF PUSH1 0x80 SWAP7 PUSH2 0x1AA5 PUSH2 0x1AC6 SWAP8 PUSH1 0x0 PUSH1 0xA0 DUP10 ADD SWAP9 ADD SWAP1 PUSH2 0x831 JUMP JUMPDEST PUSH1 0x20 DUP13 ADD SWAP1 PUSH2 0x831 JUMP JUMPDEST PUSH1 0x40 DUP11 ADD SWAP1 PUSH2 0x221 JUMP JUMPDEST DUP8 DUP3 SUB PUSH1 0x60 DUP10 ADD MSTORE PUSH2 0x1A4E JUMP JUMPDEST SWAP5 ADD SWAP1 PUSH2 0x221 JUMP JUMPDEST JUMP JUMPDEST SWAP4 PUSH2 0x1C31 SWAP2 SWAP3 SWAP4 SWAP5 PUSH2 0x1AE0 PUSH2 0xC67 JUMP JUMPDEST POP PUSH2 0x1B29 PUSH2 0x1AF2 DUP3 DUP7 DUP9 SWAP1 DUP7 SWAP3 PUSH2 0x2694 JUMP JUMPDEST PUSH2 0x1B17 PUSH2 0x1B12 PUSH2 0x1B0C PUSH2 0x1B07 PUSH1 0x4 DUP6 SWAP1 PUSH2 0x12BB JUMP JUMPDEST PUSH2 0x12ED JUMP JUMPDEST ISZERO PUSH2 0x418 JUMP JUMPDEST PUSH2 0x1355 JUMP JUMPDEST PUSH2 0x1B24 PUSH1 0x1 SWAP2 PUSH1 0x4 PUSH2 0x12BB JUMP JUMPDEST PUSH2 0x13A3 JUMP JUMPDEST PUSH2 0x1B39 PUSH2 0x1B34 PUSH2 0xF0E JUMP JUMPDEST PUSH2 0x141E JUMP JUMPDEST PUSH2 0x1B69 PUSH2 0x1B50 PUSH2 0x1B4B PUSH1 0x3 DUP5 SWAP1 PUSH2 0xDE0 JUMP JUMPDEST PUSH2 0xE15 JUMP JUMPDEST PUSH2 0x1B62 PUSH2 0x1B5C DUP9 PUSH2 0x21E JUMP JUMPDEST SWAP2 PUSH2 0x21E JUMP JUMPDEST LT ISZERO PUSH2 0x14A2 JUMP JUMPDEST PUSH2 0x1BFB PUSH2 0x1B74 PUSH2 0x154E JUMP JUMPDEST PUSH2 0x1B81 DUP4 PUSH1 0x0 DUP4 ADD PUSH2 0x1559 JUMP JUMPDEST PUSH2 0x1B8E DUP7 PUSH1 0x20 DUP4 ADD PUSH2 0x1559 JUMP JUMPDEST PUSH2 0x1B9B DUP8 PUSH1 0x40 DUP4 ADD PUSH2 0x1567 JUMP JUMPDEST DUP8 PUSH1 0x60 DUP3 ADD MSTORE PUSH2 0x1BAE DUP5 PUSH1 0x80 DUP4 ADD PUSH2 0x1567 JUMP JUMPDEST PUSH2 0x1BBB TIMESTAMP PUSH1 0xA0 DUP4 ADD PUSH2 0x1567 JUMP JUMPDEST PUSH2 0x1BCE PUSH2 0x1BC9 DUP3 DUP11 SWAP1 PUSH2 0xFB8 JUMP JUMPDEST PUSH2 0x15D0 JUMP JUMPDEST PUSH2 0x1BDC PUSH1 0x0 PUSH1 0xC0 DUP4 ADD PUSH2 0x15F9 JUMP JUMPDEST PUSH2 0x1BE7 DUP4 DUP9 SWAP1 PUSH2 0x297C JUMP JUMPDEST PUSH2 0x1C41 JUMPI JUMPDEST PUSH2 0x1BF6 PUSH1 0x0 PUSH2 0x1607 JUMP JUMPDEST PUSH2 0x1A10 JUMP JUMPDEST SWAP3 SWAP4 SWAP5 PUSH32 0x4FA994AA29CFE03CF996E8A94BEC96ED4B14C748957DF777D0613CF57A589471 SWAP6 PUSH2 0x1C28 PUSH2 0x143 JUMP JUMPDEST SWAP6 DUP7 SWAP6 DUP7 PUSH2 0x1A7F JUMP JUMPDEST SUB SWAP1 LOG1 PUSH2 0x1C3C PUSH2 0x22D9 JUMP JUMPDEST PUSH1 0x1 SWAP1 JUMP JUMPDEST PUSH2 0x1C4F PUSH1 0x1 PUSH1 0xC0 DUP4 ADD PUSH2 0x15F9 JUMP JUMPDEST PUSH2 0x1BEC JUMP JUMPDEST SLOAD SWAP1 JUMP JUMPDEST PUSH2 0x1C60 PUSH2 0xC16 JUMP JUMPDEST POP PUSH2 0x1C6B PUSH1 0x0 PUSH2 0x1C54 JUMP JUMPDEST SWAP1 JUMP JUMPDEST PUSH1 0x0 PUSH32 0x4368616C6C656E676520756E7375636365737366756C00000000000000000000 SWAP2 ADD MSTORE JUMP JUMPDEST PUSH2 0x1CA3 PUSH1 0x16 PUSH1 0x20 SWAP3 PUSH2 0x167 JUMP JUMPDEST PUSH2 0x1CAC DUP2 PUSH2 0x1C6E JUMP JUMPDEST ADD SWAP1 JUMP JUMPDEST PUSH2 0x1CC6 SWAP1 PUSH1 0x20 DUP2 ADD SWAP1 PUSH1 0x0 DUP2 DUP4 SUB SWAP2 ADD MSTORE PUSH2 0x1C96 JUMP JUMPDEST SWAP1 JUMP JUMPDEST ISZERO PUSH2 0x1CD0 JUMPI JUMP JUMPDEST PUSH2 0x1CD8 PUSH2 0x143 JUMP JUMPDEST PUSH3 0x461BCD PUSH1 0xE5 SHL DUP2 MSTORE DUP1 PUSH2 0x1CEE PUSH1 0x4 DUP3 ADD PUSH2 0x1CB0 JUMP JUMPDEST SUB SWAP1 REVERT JUMPDEST SWAP2 PUSH2 0x1DB3 SWAP3 PUSH2 0x1DA9 PUSH2 0x1DA4 DUP5 SWAP7 PUSH2 0x1D83 PUSH2 0x1DC2 SWAP10 PUSH2 0x1D44 PUSH2 0x1D3F PUSH2 0x1D39 PUSH2 0x1D34 PUSH2 0x1D2D PUSH2 0x1DAE SWAP13 PUSH2 0x1D21 PUSH2 0xC67 JUMP JUMPDEST POP DUP12 SWAP1 DUP14 SWAP1 DUP9 SWAP3 PUSH2 0x2694 JUMP JUMPDEST PUSH1 0x4 PUSH2 0x12BB JUMP JUMPDEST PUSH2 0x12ED JUMP JUMPDEST ISZERO PUSH2 0x418 JUMP JUMPDEST PUSH2 0x1355 JUMP JUMPDEST PUSH2 0x1D67 PUSH2 0x1D4F PUSH2 0x154E JUMP JUMPDEST SWAP11 PUSH2 0x1D5E DUP13 PUSH1 0x0 DUP11 SWAP2 ADD PUSH2 0x1559 JUMP JUMPDEST PUSH1 0x20 DUP13 ADD PUSH2 0x1559 JUMP JUMPDEST PUSH2 0x1D74 DUP8 PUSH1 0x40 DUP13 ADD PUSH2 0x1567 JUMP JUMPDEST DUP3 PUSH1 0x60 DUP12 ADD MSTORE PUSH1 0x80 DUP11 ADD PUSH2 0x1567 JUMP JUMPDEST PUSH2 0x1D90 TIMESTAMP PUSH1 0xA0 DUP11 ADD PUSH2 0x1567 JUMP JUMPDEST PUSH2 0x1D9E PUSH1 0x1 PUSH1 0xC0 DUP11 ADD PUSH2 0x15F9 JUMP JUMPDEST DUP8 PUSH2 0xFB8 JUMP JUMPDEST PUSH2 0x15D0 JUMP JUMPDEST PUSH2 0x297C JUMP JUMPDEST PUSH2 0x1CC9 JUMP JUMPDEST PUSH2 0x1DBD PUSH1 0x0 PUSH2 0x1607 JUMP JUMPDEST PUSH2 0x1A10 JUMP JUMPDEST PUSH2 0x1DCA PUSH2 0x22D9 JUMP JUMPDEST PUSH1 0x1 SWAP1 JUMP JUMPDEST PUSH2 0x1DD8 SWAP1 PUSH2 0x21E JUMP JUMPDEST PUSH1 0x0 NOT DUP2 EQ PUSH2 0x1DE7 JUMPI PUSH1 0x1 ADD SWAP1 JUMP JUMPDEST PUSH2 0xE41 JUMP JUMPDEST PUSH2 0x1DF5 SWAP1 PUSH2 0x21E JUMP JUMPDEST PUSH1 0x0 DUP2 EQ PUSH2 0x1E04 JUMPI PUSH1 0x1 SWAP1 SUB SWAP1 JUMP JUMPDEST PUSH2 0xE41 JUMP JUMPDEST PUSH1 0x0 MSTORE PUSH1 0x20 PUSH1 0x0 KECCAK256 SWAP1 JUMP JUMPDEST PUSH2 0x1E1D DUP2 PUSH2 0x1C54 JUMP JUMPDEST DUP3 LT ISZERO PUSH2 0x1E38 JUMPI PUSH2 0x1E2F PUSH1 0x7 SWAP2 PUSH2 0x1E09 JUMP JUMPDEST SWAP2 MUL ADD SWAP1 PUSH1 0x0 SWAP1 JUMP JUMPDEST PUSH2 0x1615 JUMP JUMPDEST PUSH1 0x1 DUP1 PUSH1 0xA0 SHL SUB AND SWAP1 JUMP JUMPDEST PUSH2 0x1E54 PUSH2 0x1E59 SWAP2 PUSH2 0xDF8 JUMP JUMPDEST PUSH2 0x1E3D JUMP JUMPDEST SWAP1 JUMP JUMPDEST PUSH2 0x1E66 SWAP1 SLOAD PUSH2 0x1E48 JUMP JUMPDEST SWAP1 JUMP JUMPDEST PUSH2 0x1E78 PUSH2 0x1E7E SWAP2 SWAP4 SWAP3 SWAP4 PUSH2 0x21E JUMP JUMPDEST SWAP3 PUSH2 0x21E JUMP JUMPDEST DUP3 ADD DUP1 SWAP3 GT PUSH2 0x1E89 JUMPI JUMP JUMPDEST PUSH2 0xE41 JUMP JUMPDEST SWAP1 JUMP JUMPDEST PUSH2 0x1EA5 PUSH2 0x1EA0 PUSH2 0x1EAA SWAP3 PUSH2 0x1E8E JUMP JUMPDEST PUSH2 0xC1E JUMP JUMPDEST PUSH2 0x21E JUMP JUMPDEST SWAP1 JUMP JUMPDEST PUSH2 0x1EB7 SWAP1 SLOAD PUSH2 0x171C JUMP JUMPDEST SWAP1 JUMP JUMPDEST SWAP1 DUP1 DUP3 EQ PUSH2 0x1F9C JUMPI PUSH2 0x1ECB DUP2 PUSH2 0x1EAD JUMP JUMPDEST SWAP1 PUSH8 0xFFFFFFFFFFFFFFFF DUP3 GT PUSH2 0x1F97 JUMPI PUSH2 0x1EEF DUP3 PUSH2 0x1EE9 DUP6 SLOAD PUSH2 0x171C JUMP JUMPDEST DUP6 PUSH2 0x17DB JUMP JUMPDEST PUSH1 0x0 SWAP1 PUSH1 0x1F DUP4 GT PUSH1 0x1 EQ PUSH2 0x1F24 JUMPI SWAP2 DUP1 SWAP2 PUSH2 0x1F13 SWAP4 PUSH1 0x0 SWAP3 PUSH2 0x1F18 JUMPI JUMPDEST POP POP PUSH2 0x184C JUMP JUMPDEST SWAP1 SSTORE JUMPDEST JUMP JUMPDEST SWAP1 SWAP2 POP ADD SLOAD CODESIZE DUP1 PUSH2 0x1F0C JUMP JUMPDEST SWAP1 PUSH2 0x1F33 PUSH1 0x1F NOT DUP5 AND SWAP3 PUSH2 0x1746 JUMP JUMPDEST SWAP1 PUSH2 0x1F3D DUP6 PUSH2 0x1746 JUMP JUMPDEST SWAP3 PUSH1 0x0 JUMPDEST DUP2 DUP2 LT PUSH2 0x1F7F JUMPI POP SWAP2 PUSH1 0x2 SWAP4 SWAP2 DUP6 PUSH1 0x1 SWAP7 SWAP5 LT PUSH2 0x1F65 JUMPI JUMPDEST POP POP POP MUL ADD SWAP1 SSTORE PUSH2 0x1F16 JUMP JUMPDEST PUSH2 0x1F75 SWAP2 ADD SLOAD PUSH1 0x1F DUP5 AND SWAP1 PUSH2 0x1836 JUMP JUMPDEST SWAP1 SSTORE CODESIZE DUP1 DUP1 PUSH2 0x1F59 JUMP JUMPDEST SWAP2 SWAP4 PUSH1 0x1 DUP1 PUSH1 0x20 SWAP3 DUP8 DUP8 ADD SLOAD DUP2 SSTORE ADD SWAP6 ADD SWAP3 ADD PUSH2 0x1F41 JUMP JUMPDEST PUSH2 0x2EA JUMP JUMPDEST POP POP JUMP JUMPDEST SWAP1 PUSH2 0x1FAA SWAP2 PUSH2 0x1EBA JUMP JUMPDEST JUMP JUMPDEST SWAP1 DUP1 DUP3 SUB PUSH2 0x1FB9 JUMPI JUMPDEST POP POP JUMP JUMPDEST PUSH2 0x2059 PUSH1 0x6 DUP1 DUP5 PUSH2 0x1FDC PUSH1 0x0 PUSH2 0x205F SWAP8 ADD PUSH2 0x1FD6 PUSH1 0x0 DUP9 ADD PUSH2 0x1E5C JUMP JUMPDEST SWAP1 PUSH2 0x168C JUMP JUMPDEST PUSH2 0x1FF5 PUSH1 0x1 DUP3 ADD PUSH2 0x1FEF PUSH1 0x1 DUP9 ADD PUSH2 0x1E5C JUMP JUMPDEST SWAP1 PUSH2 0x168C JUMP JUMPDEST PUSH2 0x200E PUSH1 0x2 DUP3 ADD PUSH2 0x2008 PUSH1 0x2 DUP9 ADD PUSH2 0xE15 JUMP JUMPDEST SWAP1 PUSH2 0x16E2 JUMP JUMPDEST PUSH2 0x201F PUSH1 0x3 DUP3 ADD PUSH1 0x3 DUP8 ADD SWAP1 PUSH2 0x1FA0 JUMP JUMPDEST PUSH2 0x2038 PUSH1 0x4 DUP3 ADD PUSH2 0x2032 PUSH1 0x4 DUP9 ADD PUSH2 0xE15 JUMP JUMPDEST SWAP1 PUSH2 0x16E2 JUMP JUMPDEST PUSH2 0x2051 PUSH1 0x5 DUP3 ADD PUSH2 0x204B PUSH1 0x5 DUP9 ADD PUSH2 0xE15 JUMP JUMPDEST SWAP1 PUSH2 0x16E2 JUMP JUMPDEST ADD SWAP3 ADD PUSH2 0x12ED JUMP JUMPDEST SWAP1 PUSH2 0x13A3 JUMP JUMPDEST CODESIZE DUP1 PUSH2 0x1FB5 JUMP JUMPDEST SWAP2 SWAP1 PUSH2 0x2077 JUMPI PUSH2 0x2075 SWAP2 PUSH2 0x1FAC JUMP JUMPDEST JUMP JUMPDEST PUSH2 0x1658 JUMP JUMPDEST PUSH4 0x4E487B71 PUSH1 0xE0 SHL PUSH1 0x0 MSTORE PUSH1 0x31 PUSH1 0x4 MSTORE PUSH1 0x24 PUSH1 0x0 REVERT JUMPDEST SWAP1 PUSH2 0x20A6 SWAP1 PUSH1 0x0 NOT SWAP1 PUSH1 0x20 SUB PUSH1 0x8 MUL PUSH2 0x1832 JUMP JUMPDEST DUP2 SLOAD AND SWAP1 SSTORE JUMP JUMPDEST SWAP1 PUSH1 0x0 SWAP2 PUSH2 0x20C5 PUSH2 0x20BD DUP3 PUSH2 0x1746 JUMP JUMPDEST SWAP3 DUP4 SLOAD PUSH2 0x184C JUMP JUMPDEST SWAP1 SSTORE SSTORE JUMP JUMPDEST SWAP2 SWAP3 SWAP1 PUSH1 0x20 DUP3 LT PUSH1 0x0 EQ PUSH2 0x2124 JUMPI PUSH1 0x1F DUP5 GT PUSH1 0x1 EQ PUSH2 0x20F4 JUMPI PUSH2 0x20EE SWAP3 SWAP4 POP PUSH2 0x184C JUMP JUMPDEST SWAP1 SSTORE JUMPDEST JUMPDEST JUMP JUMPDEST POP SWAP1 PUSH2 0x211A PUSH2 0x211F SWAP4 PUSH1 0x1 PUSH2 0x2111 PUSH2 0x210B DUP6 PUSH2 0x1746 JUMP JUMPDEST SWAP3 PUSH2 0x1751 JUMP JUMPDEST DUP3 ADD SWAP2 ADD PUSH2 0x17BB JUMP JUMPDEST PUSH2 0x20AD JUMP JUMPDEST PUSH2 0x20F1 JUMP JUMPDEST POP PUSH2 0x215B DUP3 SWAP4 PUSH2 0x2135 PUSH1 0x1 SWAP5 PUSH2 0x1746 JUMP JUMPDEST PUSH2 0x2154 PUSH2 0x2141 DUP6 PUSH2 0x1751 JUMP JUMPDEST DUP3 ADD SWAP3 PUSH1 0x1F DUP7 AND DUP1 PUSH2 0x2166 JUMPI JUMPDEST POP PUSH2 0x1751 JUMP JUMPDEST ADD SWAP1 PUSH2 0x17BB JUMP JUMPDEST PUSH1 0x2 MUL OR SWAP1 SSTORE PUSH2 0x20F2 JUMP JUMPDEST PUSH2 0x2172 SWAP1 DUP9 DUP7 SUB PUSH2 0x2092 JUMP JUMPDEST CODESIZE PUSH2 0x214E JUMP JUMPDEST SWAP3 SWAP1 SWAP2 PUSH9 0x10000000000000000 DUP3 GT PUSH2 0x21DA JUMPI PUSH1 0x20 GT PUSH1 0x0 EQ PUSH2 0x21CB JUMPI PUSH1 0x20 DUP2 LT PUSH1 0x0 EQ PUSH2 0x21AF JUMPI PUSH2 0x21A9 SWAP2 PUSH2 0x184C JUMP JUMPDEST SWAP1 SSTORE JUMPDEST JUMPDEST JUMP JUMPDEST PUSH1 0x1 SWAP2 PUSH1 0xFF NOT AND PUSH2 0x21BF DUP5 PUSH2 0x1746 JUMP JUMPDEST SSTORE PUSH1 0x2 MUL ADD SWAP1 SSTORE PUSH2 0x21AC JUMP JUMPDEST PUSH1 0x1 SWAP2 POP PUSH1 0x2 MUL ADD SWAP1 SSTORE PUSH2 0x21AD JUMP JUMPDEST PUSH2 0x2EA JUMP JUMPDEST SWAP1 DUP2 SLOAD PUSH2 0x21EB DUP2 PUSH2 0x171C JUMP JUMPDEST SWAP1 DUP2 DUP4 GT PUSH2 0x2214 JUMPI JUMPDEST DUP2 DUP4 LT PUSH2 0x2202 JUMPI JUMPDEST POP POP POP POP JUMP JUMPDEST PUSH2 0x220B SWAP4 PUSH2 0x20CA JUMP JUMPDEST CODESIZE DUP1 DUP1 DUP1 PUSH2 0x21FC JUMP JUMPDEST PUSH2 0x2220 DUP4 DUP4 DUP4 DUP8 PUSH2 0x2178 JUMP JUMPDEST PUSH2 0x21F4 JUMP JUMPDEST PUSH1 0x0 PUSH2 0x2230 SWAP2 PUSH2 0x21DF JUMP JUMPDEST JUMP JUMPDEST SWAP1 PUSH1 0x0 SUB PUSH2 0x2245 JUMPI PUSH2 0x2243 SWAP1 PUSH2 0x2225 JUMP JUMPDEST JUMP JUMPDEST PUSH2 0x1658 JUMP JUMPDEST PUSH1 0x6 PUSH1 0x0 SWAP2 DUP3 DUP1 DUP3 ADD SSTORE DUP3 PUSH1 0x1 DUP3 ADD SSTORE PUSH2 0x2267 DUP4 PUSH1 0x2 DUP4 ADD PUSH2 0x17A7 JUMP JUMPDEST PUSH2 0x2274 DUP4 PUSH1 0x3 DUP4 ADD PUSH2 0x2232 JUMP JUMPDEST PUSH2 0x2281 DUP4 PUSH1 0x4 DUP4 ADD PUSH2 0x17A7 JUMP JUMPDEST PUSH2 0x228E DUP4 PUSH1 0x5 DUP4 ADD PUSH2 0x17A7 JUMP JUMPDEST ADD SSTORE JUMP JUMPDEST SWAP1 PUSH1 0x0 SUB PUSH2 0x22A5 JUMPI PUSH2 0x22A3 SWAP1 PUSH2 0x224A JUMP JUMPDEST JUMP JUMPDEST PUSH2 0x1658 JUMP JUMPDEST PUSH2 0x22B3 DUP2 PUSH2 0x162B JUMP JUMPDEST DUP1 ISZERO PUSH2 0x22D4 JUMPI PUSH1 0x1 SWAP1 SUB SWAP1 PUSH2 0x22D1 PUSH2 0x22CB DUP4 DUP4 PUSH2 0x162F JUMP JUMPDEST SWAP1 PUSH2 0x2292 JUMP JUMPDEST SSTORE JUMP JUMPDEST PUSH2 0x207C JUMP JUMPDEST PUSH2 0x231F TIMESTAMP PUSH2 0x2319 PUSH2 0x230B TIMESTAMP PUSH32 0x0 SWAP1 PUSH2 0xE57 JUMP JUMPDEST PUSH2 0x2313 PUSH2 0xE9B JUMP JUMPDEST SWAP1 PUSH2 0xEBF JUMP JUMPDEST SWAP1 PUSH2 0xE57 JUMP JUMPDEST SWAP1 PUSH1 0x1 SWAP2 PUSH2 0x232B PUSH2 0xC16 JUMP JUMPDEST SWAP3 JUMPDEST DUP4 PUSH2 0x2349 PUSH2 0x2343 PUSH2 0x233E PUSH1 0x0 PUSH2 0x1C54 JUMP JUMPDEST PUSH2 0x21E JUMP JUMPDEST SWAP2 PUSH2 0x21E JUMP JUMPDEST LT ISZERO PUSH2 0x24E5 JUMPI PUSH2 0x2359 SWAP1 ISZERO PUSH2 0x418 JUMP JUMPDEST PUSH2 0x24D5 JUMPI JUMPDEST PUSH1 0x1 SWAP3 PUSH2 0x2379 PUSH1 0x5 PUSH2 0x2372 PUSH1 0x0 DUP5 SWAP1 PUSH2 0x1E14 JUMP JUMPDEST POP ADD PUSH2 0xE15 JUMP JUMPDEST PUSH2 0x238B PUSH2 0x2385 DUP5 PUSH2 0x21E JUMP JUMPDEST SWAP2 PUSH2 0x21E JUMP JUMPDEST LT PUSH2 0x23A0 JUMPI JUMPDEST PUSH2 0x239A SWAP1 PUSH2 0x1DCF JUMP JUMPDEST SWAP3 PUSH2 0x232D JUMP JUMPDEST SWAP3 POP PUSH2 0x23C3 PUSH2 0x23BD PUSH1 0x6 PUSH2 0x23B6 PUSH1 0x0 DUP8 SWAP1 PUSH2 0x1E14 JUMP JUMPDEST POP ADD PUSH2 0x12ED JUMP JUMPDEST ISZERO PUSH2 0x418 JUMP JUMPDEST PUSH2 0x2425 JUMPI JUMPDEST PUSH2 0x2406 PUSH2 0x23F3 PUSH1 0x0 PUSH2 0x23ED PUSH2 0x23DD PUSH1 0x0 PUSH2 0x1C54 JUMP JUMPDEST PUSH2 0x23E7 PUSH1 0x1 PUSH2 0x1E91 JUMP JUMPDEST SWAP1 PUSH2 0xE57 JUMP JUMPDEST SWAP1 PUSH2 0x1E14 JUMP JUMPDEST POP PUSH2 0x2400 PUSH1 0x0 DUP7 SWAP1 PUSH2 0x1E14 JUMP JUMPDEST SWAP1 PUSH2 0x2066 JUMP JUMPDEST PUSH2 0x2418 PUSH2 0x2413 PUSH1 0x0 PUSH2 0x1607 JUMP JUMPDEST PUSH2 0x22AA JUMP JUMPDEST PUSH2 0x239A PUSH1 0x0 SWAP4 SWAP1 POP PUSH2 0x2391 JUMP JUMPDEST PUSH2 0x247A PUSH2 0x2440 PUSH1 0x2 PUSH2 0x2439 PUSH1 0x0 DUP8 SWAP1 PUSH2 0x1E14 JUMP JUMPDEST POP ADD PUSH2 0xE15 JUMP JUMPDEST PUSH2 0x2474 PUSH2 0x2465 PUSH1 0x3 PUSH2 0x245F PUSH1 0x0 PUSH2 0x2458 DUP2 DUP12 SWAP1 PUSH2 0x1E14 JUMP JUMPDEST POP ADD PUSH2 0x1E5C JUMP JUMPDEST SWAP1 PUSH2 0xDE0 JUMP JUMPDEST SWAP2 PUSH2 0x246F DUP4 PUSH2 0xE15 JUMP JUMPDEST PUSH2 0xE57 JUMP JUMPDEST SWAP1 PUSH2 0x16E2 JUMP JUMPDEST PUSH2 0x24D0 PUSH2 0x2495 PUSH1 0x2 PUSH2 0x248E PUSH1 0x0 DUP8 SWAP1 PUSH2 0x1E14 JUMP JUMPDEST POP ADD PUSH2 0xE15 JUMP JUMPDEST PUSH2 0x24CA PUSH2 0x24BB PUSH1 0x3 PUSH2 0x24B5 PUSH1 0x1 PUSH2 0x24AE PUSH1 0x0 DUP12 SWAP1 PUSH2 0x1E14 JUMP JUMPDEST POP ADD PUSH2 0x1E5C JUMP JUMPDEST SWAP1 PUSH2 0xDE0 JUMP JUMPDEST SWAP2 PUSH2 0x24C5 DUP4 PUSH2 0xE15 JUMP JUMPDEST PUSH2 0x1E69 JUMP JUMPDEST SWAP1 PUSH2 0x16E2 JUMP JUMPDEST PUSH2 0x23C8 JUMP JUMPDEST SWAP2 PUSH2 0x24DF SWAP1 PUSH2 0x1DEC JUMP JUMPDEST SWAP2 PUSH2 0x235E JUMP JUMPDEST POP POP SWAP1 POP JUMP JUMPDEST PUSH1 0x0 PUSH32 0x56696164756374205369676E6564204D6573736167653A2046524F4D20000000 SWAP2 ADD MSTORE JUMP JUMPDEST PUSH2 0x251F PUSH1 0x1D DUP1 SWAP3 PUSH2 0xCE1 JUMP JUMPDEST PUSH2 0x2528 DUP2 PUSH2 0x24EB JUMP JUMPDEST ADD SWAP1 JUMP JUMPDEST PUSH1 0x60 SHL SWAP1 JUMP JUMPDEST PUSH2 0x253B SWAP1 PUSH2 0x252C JUMP JUMPDEST SWAP1 JUMP JUMPDEST PUSH2 0x2547 SWAP1 PUSH2 0x2532 JUMP JUMPDEST SWAP1 JUMP JUMPDEST PUSH2 0x2556 PUSH2 0x255B SWAP2 PUSH2 0x289 JUMP JUMPDEST PUSH2 0x253E JUMP JUMPDEST SWAP1 MSTORE JUMP JUMPDEST PUSH1 0x0 PUSH32 0x20544F2000000000000000000000000000000000000000000000000000000000 SWAP2 ADD MSTORE JUMP JUMPDEST PUSH2 0x2593 PUSH1 0x4 DUP1 SWAP3 PUSH2 0xCE1 JUMP JUMPDEST PUSH2 0x259C DUP2 PUSH2 0x255F JUMP JUMPDEST ADD SWAP1 JUMP JUMPDEST PUSH1 0x0 PUSH32 0x2056414C55452000000000000000000000000000000000000000000000000000 SWAP2 ADD MSTORE JUMP JUMPDEST PUSH2 0x25D4 PUSH1 0x7 DUP1 SWAP3 PUSH2 0xCE1 JUMP JUMPDEST PUSH2 0x25DD DUP2 PUSH2 0x25A0 JUMP JUMPDEST ADD SWAP1 JUMP JUMPDEST SWAP1 JUMP JUMPDEST PUSH2 0x25F0 PUSH2 0x25F5 SWAP2 PUSH2 0x21E JUMP JUMPDEST PUSH2 0x25E1 JUMP JUMPDEST SWAP1 MSTORE JUMP JUMPDEST PUSH1 0x0 PUSH32 0x204E4F4E43452000000000000000000000000000000000000000000000000000 SWAP2 ADD MSTORE JUMP JUMPDEST PUSH2 0x262D PUSH1 0x7 DUP1 SWAP3 PUSH2 0xCE1 JUMP JUMPDEST PUSH2 0x2636 DUP2 PUSH2 0x25F9 JUMP JUMPDEST ADD SWAP1 JUMP JUMPDEST PUSH1 0x20 SWAP5 SWAP4 PUSH2 0x2683 PUSH2 0x267C PUSH1 0x14 PUSH2 0x2690 SWAP7 PUSH2 0x2676 PUSH2 0x266F DUP4 PUSH2 0x2689 SWAP10 PUSH2 0x2669 PUSH2 0x2662 DUP16 SWAP12 PUSH2 0x2513 JUMP JUMPDEST DUP1 SWAP3 PUSH2 0x254A JUMP JUMPDEST ADD PUSH2 0x2587 JUMP JUMPDEST DUP1 SWAP3 PUSH2 0x254A JUMP JUMPDEST ADD PUSH2 0x25C8 JUMP JUMPDEST DUP1 SWAP3 PUSH2 0x25E4 JUMP JUMPDEST ADD PUSH2 0x2621 JUMP JUMPDEST DUP1 SWAP3 PUSH2 0x25E4 JUMP JUMPDEST ADD SWAP1 JUMP JUMPDEST PUSH2 0x26CB SWAP3 SWAP4 PUSH2 0x26BC SWAP2 PUSH2 0x26A5 PUSH2 0xCDC JUMP JUMPDEST POP SWAP3 SWAP5 PUSH2 0x26B0 PUSH2 0x143 JUMP JUMPDEST SWAP6 DUP7 SWAP5 PUSH1 0x20 DUP7 ADD PUSH2 0x263A JUMP JUMPDEST PUSH1 0x20 DUP3 ADD DUP2 SUB DUP3 MSTORE SUB DUP3 PUSH2 0x300 JUMP JUMPDEST PUSH2 0x26DD PUSH2 0x26D7 DUP3 PUSH2 0xD5F JUMP JUMPDEST SWAP2 PUSH2 0xD59 JUMP JUMPDEST KECCAK256 SWAP1 JUMP JUMPDEST PUSH1 0x1 PUSH2 0x26ED SWAP2 ADD PUSH2 0x21E JUMP JUMPDEST SWAP1 JUMP JUMPDEST SWAP1 DUP2 SLOAD SWAP2 PUSH9 0x10000000000000000 DUP4 LT ISZERO PUSH2 0x2720 JUMPI DUP3 PUSH2 0x2718 SWAP2 PUSH1 0x1 PUSH2 0x271E SWAP6 ADD DUP2 SSTORE PUSH2 0x162F JUMP JUMPDEST SWAP1 PUSH2 0x2066 JUMP JUMPDEST JUMP JUMPDEST PUSH2 0x2EA JUMP JUMPDEST SWAP1 JUMP JUMPDEST PUSH1 0x0 MSTORE PUSH1 0x20 PUSH1 0x0 KECCAK256 SWAP1 JUMP JUMPDEST SLOAD SWAP1 JUMP JUMPDEST PUSH2 0x2740 DUP2 PUSH2 0x2733 JUMP JUMPDEST DUP3 LT ISZERO PUSH2 0x275B JUMPI PUSH2 0x2752 PUSH1 0x1 SWAP2 PUSH2 0x2728 JUMP JUMPDEST SWAP2 MUL ADD SWAP1 PUSH1 0x0 SWAP1 JUMP JUMPDEST PUSH2 0x1615 JUMP JUMPDEST SWAP1 DUP2 SLOAD SWAP2 PUSH9 0x10000000000000000 DUP4 LT ISZERO PUSH2 0x2790 JUMPI DUP3 PUSH2 0x2788 SWAP2 PUSH1 0x1 PUSH2 0x278E SWAP6 ADD DUP2 SSTORE PUSH2 0x2737 JUMP JUMPDEST SWAP1 PUSH2 0x1785 JUMP JUMPDEST JUMP JUMPDEST PUSH2 0x2EA JUMP JUMPDEST SLOAD SWAP1 JUMP JUMPDEST PUSH1 0x0 MSTORE PUSH1 0x20 PUSH1 0x0 KECCAK256 SWAP1 JUMP JUMPDEST PUSH2 0x27AD DUP2 PUSH2 0x2795 JUMP JUMPDEST DUP3 LT ISZERO PUSH2 0x27C8 JUMPI PUSH2 0x27BF PUSH1 0x1 SWAP2 PUSH2 0x2799 JUMP JUMPDEST SWAP2 MUL ADD SWAP1 PUSH1 0x0 SWAP1 JUMP JUMPDEST PUSH2 0x1615 JUMP JUMPDEST PUSH2 0x27DD SWAP1 PUSH1 0x8 PUSH2 0x27E2 SWAP4 MUL PUSH2 0x1832 JUMP JUMPDEST PUSH2 0xDFE JUMP JUMPDEST SWAP1 JUMP JUMPDEST SWAP1 PUSH2 0x27F0 SWAP2 SLOAD PUSH2 0x27CD JUMP JUMPDEST SWAP1 JUMP JUMPDEST PUSH1 0x20 SWAP2 DUP2 MSTORE ADD SWAP1 JUMP JUMPDEST SWAP1 PUSH1 0x0 SWAP3 SWAP2 DUP1 SLOAD SWAP1 PUSH2 0x2817 PUSH2 0x2810 DUP4 PUSH2 0x171C JUMP JUMPDEST DUP1 SWAP5 PUSH2 0x27F3 JUMP JUMPDEST SWAP2 PUSH1 0x1 DUP2 AND SWAP1 DUP2 PUSH1 0x0 EQ PUSH2 0x2870 JUMPI POP PUSH1 0x1 EQ PUSH2 0x2833 JUMPI JUMPDEST POP POP POP JUMP JUMPDEST PUSH2 0x2840 SWAP2 SWAP3 SWAP4 SWAP5 POP PUSH2 0x1746 JUMP JUMPDEST SWAP2 PUSH1 0x0 SWAP3 JUMPDEST DUP2 DUP5 LT PUSH2 0x2858 JUMPI POP POP ADD SWAP1 CODESIZE DUP1 DUP1 PUSH2 0x282E JUMP JUMPDEST PUSH1 0x1 DUP2 PUSH1 0x20 SWAP3 SWAP6 SWAP4 SWAP6 SLOAD DUP5 DUP7 ADD MSTORE ADD SWAP2 ADD SWAP3 SWAP1 PUSH2 0x2845 JUMP JUMPDEST SWAP3 SWAP5 SWAP6 POP POP POP PUSH1 0xFF NOT AND DUP3 MSTORE ISZERO ISZERO PUSH1 0x20 MUL ADD SWAP1 CODESIZE DUP1 DUP1 PUSH2 0x282E JUMP JUMPDEST SWAP1 PUSH2 0x2895 SWAP2 PUSH2 0x27FC JUMP JUMPDEST SWAP1 JUMP JUMPDEST SWAP1 PUSH2 0x28B8 PUSH2 0x28B1 SWAP3 PUSH2 0x28A8 PUSH2 0x143 JUMP JUMPDEST SWAP4 DUP5 DUP1 SWAP3 PUSH2 0x288B JUMP JUMPDEST SUB DUP4 PUSH2 0x300 JUMP JUMPDEST JUMP JUMPDEST MSTORE JUMP JUMPDEST SWAP1 PUSH2 0x296E PUSH2 0x2965 PUSH1 0x6 PUSH2 0x28CE PUSH2 0x14CB JUMP JUMPDEST SWAP5 PUSH2 0x28E7 PUSH2 0x28DE PUSH1 0x0 DUP4 ADD PUSH2 0x1E5C JUMP JUMPDEST PUSH1 0x0 DUP9 ADD PUSH2 0x1559 JUMP JUMPDEST PUSH2 0x28FF PUSH2 0x28F6 PUSH1 0x1 DUP4 ADD PUSH2 0x1E5C JUMP JUMPDEST PUSH1 0x20 DUP9 ADD PUSH2 0x1559 JUMP JUMPDEST PUSH2 0x2917 PUSH2 0x290E PUSH1 0x2 DUP4 ADD PUSH2 0xE15 JUMP JUMPDEST PUSH1 0x40 DUP9 ADD PUSH2 0x1567 JUMP JUMPDEST PUSH2 0x292F PUSH2 0x2926 PUSH1 0x3 DUP4 ADD PUSH2 0x2898 JUMP JUMPDEST PUSH1 0x60 DUP9 ADD PUSH2 0x28BA JUMP JUMPDEST PUSH2 0x2947 PUSH2 0x293E PUSH1 0x4 DUP4 ADD PUSH2 0xE15 JUMP JUMPDEST PUSH1 0x80 DUP9 ADD PUSH2 0x1567 JUMP JUMPDEST PUSH2 0x295F PUSH2 0x2956 PUSH1 0x5 DUP4 ADD PUSH2 0xE15 JUMP JUMPDEST PUSH1 0xA0 DUP9 ADD PUSH2 0x1567 JUMP JUMPDEST ADD PUSH2 0x12ED JUMP JUMPDEST PUSH1 0xC0 DUP5 ADD PUSH2 0x15F9 JUMP JUMPDEST JUMP JUMPDEST PUSH2 0x2979 SWAP1 PUSH2 0x28BD JUMP JUMPDEST SWAP1 JUMP JUMPDEST SWAP1 PUSH2 0x2985 PUSH2 0xC67 JUMP JUMPDEST POP PUSH2 0x298E PUSH2 0xC16 JUMP JUMPDEST JUMPDEST DUP1 PUSH2 0x29AB PUSH2 0x29A5 PUSH2 0x29A0 PUSH1 0x0 PUSH2 0x1C54 JUMP JUMPDEST PUSH2 0x21E JUMP JUMPDEST SWAP2 PUSH2 0x21E JUMP JUMPDEST LT ISZERO PUSH2 0x2A50 JUMPI PUSH2 0x29C8 PUSH1 0x0 PUSH2 0x29C1 DUP2 DUP5 SWAP1 PUSH2 0x1E14 JUMP JUMPDEST POP ADD PUSH2 0x1E5C JUMP JUMPDEST PUSH2 0x29DA PUSH2 0x29D4 DUP6 PUSH2 0x289 JUMP JUMPDEST SWAP2 PUSH2 0x289 JUMP JUMPDEST EQ PUSH2 0x29EE JUMPI JUMPDEST PUSH2 0x29E9 SWAP1 PUSH2 0x26E1 JUMP JUMPDEST PUSH2 0x298F JUMP JUMPDEST SWAP1 PUSH2 0x2A14 PUSH2 0x29E9 SWAP2 PUSH2 0x2A0E PUSH1 0x2 PUSH2 0x2A07 PUSH1 0x0 DUP8 SWAP1 PUSH2 0x1E14 JUMP JUMPDEST POP ADD PUSH2 0xE15 JUMP JUMPDEST SWAP1 PUSH2 0x1E69 JUMP JUMPDEST SWAP2 PUSH2 0x2A35 PUSH2 0x2A22 PUSH1 0x2 PUSH2 0x1607 JUMP JUMPDEST PUSH2 0x2A2E PUSH1 0x0 DUP5 SWAP1 PUSH2 0x1E14 JUMP JUMPDEST POP SWAP1 PUSH2 0x26F0 JUMP JUMPDEST PUSH2 0x2A49 PUSH2 0x2A42 PUSH1 0x1 PUSH2 0x2725 JUMP JUMPDEST DUP3 SWAP1 PUSH2 0x2760 JUMP JUMPDEST SWAP1 POP PUSH2 0x29E0 JUMP JUMPDEST POP SWAP1 PUSH2 0x2A71 PUSH2 0x2A6B PUSH2 0x2A66 PUSH2 0x2A77 SWAP4 PUSH1 0x3 PUSH2 0xDE0 JUMP JUMPDEST PUSH2 0xE15 JUMP JUMPDEST SWAP3 PUSH2 0x21E JUMP JUMPDEST SWAP2 PUSH2 0x21E JUMP JUMPDEST GT PUSH2 0x2B63 JUMPI PUSH2 0x2A84 PUSH2 0xC16 JUMP JUMPDEST JUMPDEST DUP1 PUSH2 0x2AA1 PUSH2 0x2A9B PUSH2 0x2A96 PUSH1 0x1 PUSH2 0x2795 JUMP JUMPDEST PUSH2 0x21E JUMP JUMPDEST SWAP2 PUSH2 0x21E JUMP JUMPDEST LT ISZERO PUSH2 0x2B5D JUMPI PUSH2 0x2B58 SWAP1 PUSH2 0x2AD4 PUSH2 0x2ACE PUSH1 0x0 PUSH2 0x2AC8 PUSH2 0x2AC2 PUSH1 0x1 DUP7 SWAP1 PUSH2 0x27A4 JUMP JUMPDEST SWAP1 PUSH2 0x27E5 JUMP JUMPDEST SWAP1 PUSH2 0x1E14 JUMP JUMPDEST POP PUSH2 0x2970 JUMP JUMPDEST PUSH2 0x2AE2 PUSH1 0x1 PUSH1 0xC0 DUP4 ADD PUSH2 0x15F9 JUMP JUMPDEST PUSH2 0x2AEE PUSH1 0x0 DUP3 ADD PUSH2 0xF9E JUMP JUMPDEST PUSH2 0x2AFA PUSH1 0x20 DUP4 ADD PUSH2 0xF9E JUMP JUMPDEST SWAP1 PUSH2 0x2B50 PUSH2 0x2B0A PUSH1 0x40 DUP6 ADD PUSH2 0xFAB JUMP JUMPDEST SWAP4 PUSH2 0x2B1C PUSH1 0x80 PUSH1 0x60 DUP4 ADD MLOAD SWAP3 ADD PUSH2 0xFAB JUMP JUMPDEST SWAP1 PUSH32 0xBA3CD9CC90BE8A4BAE3A12A3AD76861E142F2BA0E44241B2699EE849D834ADBC SWAP6 PUSH2 0x2B47 PUSH2 0x143 JUMP JUMPDEST SWAP6 DUP7 SWAP6 DUP7 PUSH2 0x1A7F JUMP JUMPDEST SUB SWAP1 LOG1 PUSH2 0x26E1 JUMP JUMPDEST PUSH2 0x2A85 JUMP JUMPDEST POP PUSH1 0x1 SWAP1 JUMP JUMPDEST PUSH1 0x0 SWAP1 JUMP INVALID LOG2 PUSH5 0x6970667358 0x22 SLT KECCAK256 0xF PUSH19 0x5010559C04EBF80801652B7C3CC65DBEC5DBF6 DUP9 NUMBER PUSH14 0xAEC44FB4EE123A8964736F6C6343 STOP ADDMOD SHL STOP CALLER "
        },
        "methodIdentifiers": {
          "balanceOf(address)": "70a08231",
          "calculateSignedMessageHash(bytes32)": "45e872b6",
          "canPropose()": "76e14804",
          "challengeAndRecord(address,address,uint256,bytes,uint256)": "c03ab09c",
          "cleanChallengeWindow()": "e0ea0ee2",
          "decimals()": "313ce567",
          "getValidHash(address,address,uint256,uint256)": "f34d85e4",
          "name()": "06fdde03",
          "objectiveTransfer(address,address,uint256,bytes,uint256)": "b052b8df",
          "pendingTransferCount()": "b63e56de",
          "recoverSigner(bytes32,bytes)": "97aba7f9",
          "splitSignature(bytes)": "a7bb5803",
          "symbol()": "95d89b41",
          "totalSupply()": "18160ddd",
          "transfer(address,uint256)": "a9059cbb",
          "transferFrom(address,address,uint256)": "23b872dd",
          "verify(address,bytes32,bytes)": "1a86b550",
          "verifyTransfer((address,address,uint256,bytes,uint256,uint256,bool),bytes)": "78216859"
        }
      }
    }
  }
}