{
  "_format": "hh-sol-artifact-1",
  "contractName": "ViaductCore",
  "sourceName": "contracts/ViaductCore.sol",
  "abi": [
    {
      "inputs": [
        {
          "internalType": "bool",
          "name": "_isRoot",
          "type": "bool"
        },
        {
          "internalType": "uint256",
          "name": "_genesisTimestamp",
          "type": "uint256"
        },
        {
          "internalType": "bool",
          "name": "_forTesting",
          "type": "bool"
        }
      ],
      "stateMutability": "nonpayable",
      "type": "constructor"
    },
    {
      "anonymous": false,
      "inputs": [
        {
          "components": [
            {
              "internalType": "address",
              "name": "from",
              "type": "address"
            },
            {
              "internalType": "address",
              "name": "to",
              "type": "address"
            },
            {
              "internalType": "uint256",
              "name": "amount",
              "type": "uint256"
            },
            {
              "internalType": "uint256",
              "name": "nonce",
              "type": "uint256"
            },
            {
              "internalType": "uint256",
              "name": "timestamp",
              "type": "uint256"
            },
            {
              "internalType": "bool",
              "name": "problematic",
              "type": "bool"
            }
          ],
          "indexed": false,
          "internalType": "struct ViaductCore.Transfer[]",
          "name": "problematicTransfers",
          "type": "tuple[]"
        }
      ],
      "name": "ChallengedTransfer",
      "type": "event"
    },
    {
      "anonymous": false,
      "inputs": [
        {
          "indexed": false,
          "internalType": "address",
          "name": "_from",
          "type": "address"
        },
        {
          "indexed": false,
          "internalType": "address",
          "name": "_to",
          "type": "address"
        },
        {
          "indexed": false,
          "internalType": "uint256",
          "name": "_value",
          "type": "uint256"
        },
        {
          "indexed": false,
          "internalType": "bytes",
          "name": "_sig",
          "type": "bytes"
        },
        {
          "indexed": false,
          "internalType": "uint256",
          "name": "nonce",
          "type": "uint256"
        }
      ],
      "name": "ObjectiveTransfer",
      "type": "event"
    },
    {
      "inputs": [
        {
          "internalType": "address",
          "name": "_owner",
          "type": "address"
        }
      ],
      "name": "balanceOf",
      "outputs": [
        {
          "internalType": "uint256",
          "name": "",
          "type": "uint256"
        }
      ],
      "stateMutability": "view",
      "type": "function"
    },
    {
      "inputs": [
        {
          "internalType": "bytes32",
          "name": "_messageHash",
          "type": "bytes32"
        }
      ],
      "name": "calculateSignedMessageHash",
      "outputs": [
        {
          "internalType": "bytes32",
          "name": "",
          "type": "bytes32"
        }
      ],
      "stateMutability": "pure",
      "type": "function"
    },
    {
      "inputs": [],
      "name": "canPropose",
      "outputs": [
        {
          "internalType": "bool",
          "name": "",
          "type": "bool"
        }
      ],
      "stateMutability": "view",
      "type": "function"
    },
    {
      "inputs": [],
      "name": "cleanChallengeWindow",
      "outputs": [],
      "stateMutability": "nonpayable",
      "type": "function"
    },
    {
      "inputs": [],
      "name": "decimals",
      "outputs": [
        {
          "internalType": "uint256",
          "name": "",
          "type": "uint256"
        }
      ],
      "stateMutability": "pure",
      "type": "function"
    },
    {
      "inputs": [
        {
          "internalType": "address",
          "name": "_from",
          "type": "address"
        },
        {
          "internalType": "address",
          "name": "_to",
          "type": "address"
        },
        {
          "internalType": "uint256",
          "name": "_value",
          "type": "uint256"
        },
        {
          "internalType": "uint256",
          "name": "_nonce",
          "type": "uint256"
        }
      ],
      "name": "getValidHash",
      "outputs": [
        {
          "internalType": "bytes32",
          "name": "messageHash",
          "type": "bytes32"
        }
      ],
      "stateMutability": "pure",
      "type": "function"
    },
    {
      "inputs": [],
      "name": "name",
      "outputs": [
        {
          "internalType": "string",
          "name": "",
          "type": "string"
        }
      ],
      "stateMutability": "pure",
      "type": "function"
    },
    {
      "inputs": [
        {
          "internalType": "address",
          "name": "_from",
          "type": "address"
        },
        {
          "internalType": "address",
          "name": "_to",
          "type": "address"
        },
        {
          "internalType": "uint256",
          "name": "_value",
          "type": "uint256"
        },
        {
          "internalType": "bytes",
          "name": "_sig",
          "type": "bytes"
        },
        {
          "internalType": "uint256",
          "name": "_nonce",
          "type": "uint256"
        }
      ],
      "name": "objectiveTransfer",
      "outputs": [
        {
          "internalType": "bool",
          "name": "success",
          "type": "bool"
        }
      ],
      "stateMutability": "nonpayable",
      "type": "function"
    },
    {
      "inputs": [],
      "name": "pendingTransferCount",
      "outputs": [
        {
          "internalType": "uint256",
          "name": "",
          "type": "uint256"
        }
      ],
      "stateMutability": "view",
      "type": "function"
    },
    {
      "inputs": [
        {
          "internalType": "bytes32",
          "name": "_signedMessageHash",
          "type": "bytes32"
        },
        {
          "internalType": "bytes",
          "name": "_signature",
          "type": "bytes"
        }
      ],
      "name": "recoverSigner",
      "outputs": [
        {
          "internalType": "address",
          "name": "",
          "type": "address"
        }
      ],
      "stateMutability": "pure",
      "type": "function"
    },
    {
      "inputs": [
        {
          "internalType": "bytes",
          "name": "sig",
          "type": "bytes"
        }
      ],
      "name": "splitSignature",
      "outputs": [
        {
          "internalType": "bytes32",
          "name": "r",
          "type": "bytes32"
        },
        {
          "internalType": "bytes32",
          "name": "s",
          "type": "bytes32"
        },
        {
          "internalType": "uint8",
          "name": "v",
          "type": "uint8"
        }
      ],
      "stateMutability": "pure",
      "type": "function"
    },
    {
      "inputs": [],
      "name": "symbol",
      "outputs": [
        {
          "internalType": "string",
          "name": "",
          "type": "string"
        }
      ],
      "stateMutability": "pure",
      "type": "function"
    },
    {
      "inputs": [],
      "name": "totalSupply",
      "outputs": [
        {
          "internalType": "uint256",
          "name": "",
          "type": "uint256"
        }
      ],
      "stateMutability": "pure",
      "type": "function"
    },
    {
      "inputs": [
        {
          "internalType": "address",
          "name": "",
          "type": "address"
        },
        {
          "internalType": "uint256",
          "name": "",
          "type": "uint256"
        }
      ],
      "name": "transfer",
      "outputs": [
        {
          "internalType": "bool",
          "name": "",
          "type": "bool"
        }
      ],
      "stateMutability": "pure",
      "type": "function"
    },
    {
      "inputs": [
        {
          "internalType": "address",
          "name": "",
          "type": "address"
        },
        {
          "internalType": "address",
          "name": "",
          "type": "address"
        },
        {
          "internalType": "uint256",
          "name": "",
          "type": "uint256"
        }
      ],
      "name": "transferFrom",
      "outputs": [
        {
          "internalType": "bool",
          "name": "",
          "type": "bool"
        }
      ],
      "stateMutability": "pure",
      "type": "function"
    },
    {
      "inputs": [
        {
          "components": [
            {
              "internalType": "address",
              "name": "from",
              "type": "address"
            },
            {
              "internalType": "address",
              "name": "to",
              "type": "address"
            },
            {
              "internalType": "uint256",
              "name": "amount",
              "type": "uint256"
            },
            {
              "internalType": "uint256",
              "name": "nonce",
              "type": "uint256"
            },
            {
              "internalType": "uint256",
              "name": "timestamp",
              "type": "uint256"
            },
            {
              "internalType": "bool",
              "name": "problematic",
              "type": "bool"
            }
          ],
          "internalType": "struct ViaductCore.Transfer",
          "name": "_conflictingTransfer",
          "type": "tuple"
        }
      ],
      "name": "tryChallenge",
      "outputs": [
        {
          "internalType": "bool",
          "name": "",
          "type": "bool"
        }
      ],
      "stateMutability": "nonpayable",
      "type": "function"
    },
    {
      "inputs": [
        {
          "internalType": "address",
          "name": "_signer",
          "type": "address"
        },
        {
          "internalType": "bytes32",
          "name": "_hash",
          "type": "bytes32"
        },
        {
          "internalType": "bytes",
          "name": "_signature",
          "type": "bytes"
        }
      ],
      "name": "verify",
      "outputs": [
        {
          "internalType": "bool",
          "name": "",
          "type": "bool"
        }
      ],
      "stateMutability": "pure",
      "type": "function"
    },
    {
      "inputs": [
        {
          "components": [
            {
              "internalType": "address",
              "name": "from",
              "type": "address"
            },
            {
              "internalType": "address",
              "name": "to",
              "type": "address"
            },
            {
              "internalType": "uint256",
              "name": "amount",
              "type": "uint256"
            },
            {
              "internalType": "uint256",
              "name": "nonce",
              "type": "uint256"
            },
            {
              "internalType": "uint256",
              "name": "timestamp",
              "type": "uint256"
            },
            {
              "internalType": "bool",
              "name": "problematic",
              "type": "bool"
            }
          ],
          "internalType": "struct ViaductCore.Transfer",
          "name": "_transfer",
          "type": "tuple"
        },
        {
          "internalType": "bytes",
          "name": "_signature",
          "type": "bytes"
        }
      ],
      "name": "verifyTransfer",
      "outputs": [
        {
          "internalType": "bool",
          "name": "",
          "type": "bool"
        }
      ],
      "stateMutability": "pure",
      "type": "function"
    }
  ],
  "bytecode": "0x60806040526102586002556101a460035560b460045534801561002157600080fd5b5060405161261b38038061261b83398181016040528101906100439190610134565b82156100985769021e19e0c9bab2400000600860003373ffffffffffffffffffffffffffffffffffffffff1673ffffffffffffffffffffffffffffffffffffffff168152602001908152602001600020819055505b80600560006101000a81548160ff02191690831515021790555081600181905550505050610187565b600080fd5b60008115159050919050565b6100db816100c6565b81146100e657600080fd5b50565b6000815190506100f8816100d2565b92915050565b6000819050919050565b610111816100fe565b811461011c57600080fd5b50565b60008151905061012e81610108565b92915050565b60008060006060848603121561014d5761014c6100c1565b5b600061015b868287016100e9565b935050602061016c8682870161011f565b925050604061017d868287016100e9565b9150509250925092565b612485806101966000396000f3fe608060405234801561001057600080fd5b50600436106101165760003560e01c806395d89b41116100a2578063b052b8df11610071578063b052b8df14610333578063b63e56de14610363578063b950cacb14610381578063e0ea0ee2146103b1578063f34d85e4146103bb57610116565b806395d89b411461028357806397aba7f9146102a1578063a7bb5803146102d1578063a9059cbb1461030357610116565b8063313ce567116100e9578063313ce567146101b757806345e872b6146101d557806370a082311461020557806376e14804146102355780639223bb031461025357610116565b806306fdde031461011b57806318160ddd146101395780631a86b5501461015757806323b872dd14610187575b600080fd5b6101236103eb565b6040516101309190611317565b60405180910390f35b610141610428565b60405161014e9190611352565b60405180910390f35b610171600480360381019061016c919061154a565b61043a565b60405161017e91906115d4565b60405180910390f35b6101a1600480360381019061019c919061161b565b61047d565b6040516101ae91906115d4565b60405180910390f35b6101bf610486565b6040516101cc9190611352565b60405180910390f35b6101ef60048036038101906101ea919061166e565b61048f565b6040516101fc91906116aa565b60405180910390f35b61021f600480360381019061021a91906116c5565b6104bf565b60405161022c9190611352565b60405180910390f35b61023d610508565b60405161024a91906115d4565b60405180910390f35b61026d600480360381019061026891906117c3565b61054a565b60405161027a91906115d4565b60405180910390f35b61028b610591565b6040516102989190611317565b60405180910390f35b6102bb60048036038101906102b6919061181f565b6105ce565b6040516102c8919061188a565b60405180910390f35b6102eb60048036038101906102e691906118a5565b61063d565b6040516102fa9392919061190a565b60405180910390f35b61031d60048036038101906103189190611941565b6106c1565b60405161032a91906115d4565b60405180910390f35b61034d60048036038101906103489190611981565b6106c9565b60405161035a91906115d4565b60405180910390f35b61036b6109f3565b6040516103789190611352565b60405180910390f35b61039b60048036038101906103969190611a18565b6109ff565b6040516103a891906115d4565b60405180910390f35b6103b9610d77565b005b6103d560048036038101906103d09190611a45565b6111e5565b6040516103e291906116aa565b60405180910390f35b60606040518060400160405280600781526020017f5669616475637400000000000000000000000000000000000000000000000000815250905090565b600069021e19e0c9bab2400000905090565b60008373ffffffffffffffffffffffffffffffffffffffff1661045d84846105ce565b73ffffffffffffffffffffffffffffffffffffffff161490509392505050565b60009392505050565b60006012905090565b6000816040516020016104a29190611b24565b604051602081830303815290604052805190602001209050919050565b6000600860008373ffffffffffffffffffffffffffffffffffffffff1673ffffffffffffffffffffffffffffffffffffffff168152602001908152602001600020549050919050565b6000806002546001544261051c9190611b79565b6105269190611bdc565b90506003548110806105445750600560009054906101000a900460ff165b91505090565b60008061056984600001518560200151866040015187606001516111e5565b905060006105768261048f565b90506105878560000151828661043a565b9250505092915050565b60606040518060400160405280600381526020017f5649410000000000000000000000000000000000000000000000000000000000815250905090565b6000806000806105dd8561063d565b925092509250600186828585604051600081526020016040526040516106069493929190611c0d565b6020604051602081039080840390855afa158015610628573d6000803e3d6000fd5b50505060206040510351935050505092915050565b60008060006041845114610686576040517f08c379a000000000000000000000000000000000000000000000000000000000815260040161067d90611c9e565b60405180910390fd5b6020840151925060408401519150606084015160001a9050601b8160ff1610156106ba57601b816106b79190611cbe565b90505b9193909250565b600092915050565b60006106d3610508565b610712576040517f08c379a000000000000000000000000000000000000000000000000000000000815260040161070990611d3f565b60405180910390fd5b83600860008873ffffffffffffffffffffffffffffffffffffffff1673ffffffffffffffffffffffffffffffffffffffff168152602001908152602001600020541015610794576040517f08c379a000000000000000000000000000000000000000000000000000000000815260040161078b90611dab565b60405180910390fd5b61079c611223565b86816000019073ffffffffffffffffffffffffffffffffffffffff16908173ffffffffffffffffffffffffffffffffffffffff168152505085816020019073ffffffffffffffffffffffffffffffffffffffff16908173ffffffffffffffffffffffffffffffffffffffff1681525050848160400181815250508281606001818152505042816080018181525050610834818561054a565b610873576040517f08c379a000000000000000000000000000000000000000000000000000000000815260040161086a90611e17565b60405180910390fd5b60008160a001901515908115158152505061088d816109ff565b156108a45760018160a00190151590811515815250505b600081908060018154018082558091505060019003906000526020600020906006020160009091909190915060008201518160000160006101000a81548173ffffffffffffffffffffffffffffffffffffffff021916908373ffffffffffffffffffffffffffffffffffffffff16021790555060208201518160010160006101000a81548173ffffffffffffffffffffffffffffffffffffffff021916908373ffffffffffffffffffffffffffffffffffffffff16021790555060408201518160020155606082015181600301556080820151816004015560a08201518160050160006101000a81548160ff02191690831515021790555050507f4fa994aa29cfe03cf996e8a94bec96ed4b14c748957df777d0613cf57a58947187878787876040516109d5959493929190611e8c565b60405180910390a16109e5610d77565b600191505095945050505050565b60008080549050905090565b6000806000905060005b600080549050811015610c6457836000015173ffffffffffffffffffffffffffffffffffffffff1660008281548110610a4557610a44611ee6565b5b906000526020600020906006020160000160009054906101000a900473ffffffffffffffffffffffffffffffffffffffff1673ffffffffffffffffffffffffffffffffffffffff1603610c575760008181548110610aa657610aa5611ee6565b5b90600052602060002090600602016002015482610ac39190611f15565b9150600760008281548110610adb57610ada611ee6565b5b906000526020600020906006020190806001815401808255809150506001900390600052602060002090600602016000909190919091506000820160009054906101000a900473ffffffffffffffffffffffffffffffffffffffff168160000160006101000a81548173ffffffffffffffffffffffffffffffffffffffff021916908373ffffffffffffffffffffffffffffffffffffffff1602179055506001820160009054906101000a900473ffffffffffffffffffffffffffffffffffffffff168160010160006101000a81548173ffffffffffffffffffffffffffffffffffffffff021916908373ffffffffffffffffffffffffffffffffffffffff1602179055506002820154816002015560038201548160030155600482015481600401556005820160009054906101000a900460ff168160050160006101000a81548160ff021916908315150217905550505060068190806001815401808255809150506001900390600052602060002001600090919091909150555b8080600101915050610a09565b508060086000856000015173ffffffffffffffffffffffffffffffffffffffff1673ffffffffffffffffffffffffffffffffffffffff168152602001908152602001600020541115610cba576000915050610d72565b60005b600680549050811015610d33576001600060068381548110610ce257610ce1611ee6565b5b906000526020600020015481548110610cfe57610cfd611ee6565b5b906000526020600020906006020160050160006101000a81548160ff0219169083151502179055508080600101915050610cbd565b507fc6e8590316be42579d5ce55b52f4fe3931140a17859a425a1f53f47f3090a2d76007604051610d64919061217a565b60405180910390a160019150505b919050565b600060025460015442610d8a9190611b79565b610d949190611bdc565b42610d9f9190611b79565b905060006001905060005b6000805490508110156111e05781610dcb578080610dc79061219c565b9150505b600191508260008281548110610de457610de3611ee6565b5b90600052602060002090600602016004015410156111cd5760008181548110610e1057610e0f611ee6565b5b906000526020600020906006020160050160009054906101000a900460ff16610fb25760008181548110610e4757610e46611ee6565b5b90600052602060002090600602016002015460086000808481548110610e7057610e6f611ee6565b5b906000526020600020906006020160000160009054906101000a900473ffffffffffffffffffffffffffffffffffffffff1673ffffffffffffffffffffffffffffffffffffffff1673ffffffffffffffffffffffffffffffffffffffff1681526020019081526020016000206000828254610eeb9190611b79565b9250508190555060008181548110610f0657610f05611ee6565b5b90600052602060002090600602016002015460086000808481548110610f2f57610f2e611ee6565b5b906000526020600020906006020160010160009054906101000a900473ffffffffffffffffffffffffffffffffffffffff1673ffffffffffffffffffffffffffffffffffffffff1673ffffffffffffffffffffffffffffffffffffffff1681526020019081526020016000206000828254610faa9190611f15565b925050819055505b60006001600080549050610fc69190611b79565b81548110610fd757610fd6611ee6565b5b906000526020600020906006020160008281548110610ff957610ff8611ee6565b5b90600052602060002090600602016000820160009054906101000a900473ffffffffffffffffffffffffffffffffffffffff168160000160006101000a81548173ffffffffffffffffffffffffffffffffffffffff021916908373ffffffffffffffffffffffffffffffffffffffff1602179055506001820160009054906101000a900473ffffffffffffffffffffffffffffffffffffffff168160010160006101000a81548173ffffffffffffffffffffffffffffffffffffffff021916908373ffffffffffffffffffffffffffffffffffffffff1602179055506002820154816002015560038201548160030155600482015481600401556005820160009054906101000a900460ff168160050160006101000a81548160ff0219169083151502179055509050506000805480611135576111346121c5565b5b6001900381819060005260206000209060060201600080820160006101000a81549073ffffffffffffffffffffffffffffffffffffffff02191690556001820160006101000a81549073ffffffffffffffffffffffffffffffffffffffff02191690556002820160009055600382016000905560048201600090556005820160006101000a81549060ff021916905550509055600091505b80806111d8906121f4565b915050610daa565b505050565b600080858585856040516020016111ff94939291906123d5565b60405160208183030381529060405290508080519060200120915050949350505050565b6040518060c00160405280600073ffffffffffffffffffffffffffffffffffffffff168152602001600073ffffffffffffffffffffffffffffffffffffffff1681526020016000815260200160008152602001600081526020016000151581525090565b600081519050919050565b600082825260208201905092915050565b60005b838110156112c15780820151818401526020810190506112a6565b60008484015250505050565b6000601f19601f8301169050919050565b60006112e982611287565b6112f38185611292565b93506113038185602086016112a3565b61130c816112cd565b840191505092915050565b6000602082019050818103600083015261133181846112de565b905092915050565b6000819050919050565b61134c81611339565b82525050565b60006020820190506113676000830184611343565b92915050565b6000604051905090565b600080fd5b600080fd5b600073ffffffffffffffffffffffffffffffffffffffff82169050919050565b60006113ac82611381565b9050919050565b6113bc816113a1565b81146113c757600080fd5b50565b6000813590506113d9816113b3565b92915050565b6000819050919050565b6113f2816113df565b81146113fd57600080fd5b50565b60008135905061140f816113e9565b92915050565b600080fd5b600080fd5b7f4e487b7100000000000000000000000000000000000000000000000000000000600052604160045260246000fd5b611457826112cd565b810181811067ffffffffffffffff821117156114765761147561141f565b5b80604052505050565b600061148961136d565b9050611495828261144e565b919050565b600067ffffffffffffffff8211156114b5576114b461141f565b5b6114be826112cd565b9050602081019050919050565b82818337600083830152505050565b60006114ed6114e88461149a565b61147f565b9050828152602081018484840111156115095761150861141a565b5b6115148482856114cb565b509392505050565b600082601f83011261153157611530611415565b5b81356115418482602086016114da565b91505092915050565b60008060006060848603121561156357611562611377565b5b6000611571868287016113ca565b935050602061158286828701611400565b925050604084013567ffffffffffffffff8111156115a3576115a261137c565b5b6115af8682870161151c565b9150509250925092565b60008115159050919050565b6115ce816115b9565b82525050565b60006020820190506115e960008301846115c5565b92915050565b6115f881611339565b811461160357600080fd5b50565b600081359050611615816115ef565b92915050565b60008060006060848603121561163457611633611377565b5b6000611642868287016113ca565b9350506020611653868287016113ca565b925050604061166486828701611606565b9150509250925092565b60006020828403121561168457611683611377565b5b600061169284828501611400565b91505092915050565b6116a4816113df565b82525050565b60006020820190506116bf600083018461169b565b92915050565b6000602082840312156116db576116da611377565b5b60006116e9848285016113ca565b91505092915050565b600080fd5b611700816115b9565b811461170b57600080fd5b50565b60008135905061171d816116f7565b92915050565b600060c08284031215611739576117386116f2565b5b61174360c061147f565b90506000611753848285016113ca565b6000830152506020611767848285016113ca565b602083015250604061177b84828501611606565b604083015250606061178f84828501611606565b60608301525060806117a384828501611606565b60808301525060a06117b78482850161170e565b60a08301525092915050565b60008060e083850312156117da576117d9611377565b5b60006117e885828601611723565b92505060c083013567ffffffffffffffff8111156118095761180861137c565b5b6118158582860161151c565b9150509250929050565b6000806040838503121561183657611835611377565b5b600061184485828601611400565b925050602083013567ffffffffffffffff8111156118655761186461137c565b5b6118718582860161151c565b9150509250929050565b611884816113a1565b82525050565b600060208201905061189f600083018461187b565b92915050565b6000602082840312156118bb576118ba611377565b5b600082013567ffffffffffffffff8111156118d9576118d861137c565b5b6118e58482850161151c565b91505092915050565b600060ff82169050919050565b611904816118ee565b82525050565b600060608201905061191f600083018661169b565b61192c602083018561169b565b61193960408301846118fb565b949350505050565b6000806040838503121561195857611957611377565b5b6000611966858286016113ca565b925050602061197785828601611606565b9150509250929050565b600080600080600060a0868803121561199d5761199c611377565b5b60006119ab888289016113ca565b95505060206119bc888289016113ca565b94505060406119cd88828901611606565b935050606086013567ffffffffffffffff8111156119ee576119ed61137c565b5b6119fa8882890161151c565b9250506080611a0b88828901611606565b9150509295509295909350565b600060c08284031215611a2e57611a2d611377565b5b6000611a3c84828501611723565b91505092915050565b60008060008060808587031215611a5f57611a5e611377565b5b6000611a6d878288016113ca565b9450506020611a7e878288016113ca565b9350506040611a8f87828801611606565b9250506060611aa087828801611606565b91505092959194509250565b600081905092915050565b7f19457468657265756d205369676e6564204d6573736167653a0a333200000000600082015250565b6000611aed601c83611aac565b9150611af882611ab7565b601c82019050919050565b6000819050919050565b611b1e611b19826113df565b611b03565b82525050565b6000611b2f82611ae0565b9150611b3b8284611b0d565b60208201915081905092915050565b7f4e487b7100000000000000000000000000000000000000000000000000000000600052601160045260246000fd5b6000611b8482611339565b9150611b8f83611339565b9250828203905081811115611ba757611ba6611b4a565b5b92915050565b7f4e487b7100000000000000000000000000000000000000000000000000000000600052601260045260246000fd5b6000611be782611339565b9150611bf283611339565b925082611c0257611c01611bad565b5b828206905092915050565b6000608082019050611c22600083018761169b565b611c2f60208301866118fb565b611c3c604083018561169b565b611c49606083018461169b565b95945050505050565b7f496e76616c6964207369676e6174757265206c656e6774680000000000000000600082015250565b6000611c88601883611292565b9150611c9382611c52565b602082019050919050565b60006020820190508181036000830152611cb781611c7b565b9050919050565b6000611cc9826118ee565b9150611cd4836118ee565b9250828201905060ff811115611ced57611cec611b4a565b5b92915050565b7f43616e6e6f742070726f706f7365000000000000000000000000000000000000600082015250565b6000611d29600e83611292565b9150611d3482611cf3565b602082019050919050565b60006020820190508181036000830152611d5881611d1c565b9050919050565b7f496e73756666696369656e742062616c616e6365000000000000000000000000600082015250565b6000611d95601483611292565b9150611da082611d5f565b602082019050919050565b60006020820190508181036000830152611dc481611d88565b9050919050565b7f496e76616c6964207369676e6174757265000000000000000000000000000000600082015250565b6000611e01601183611292565b9150611e0c82611dcb565b602082019050919050565b60006020820190508181036000830152611e3081611df4565b9050919050565b600081519050919050565b600082825260208201905092915050565b6000611e5e82611e37565b611e688185611e42565b9350611e788185602086016112a3565b611e81816112cd565b840191505092915050565b600060a082019050611ea1600083018861187b565b611eae602083018761187b565b611ebb6040830186611343565b8181036060830152611ecd8185611e53565b9050611edc6080830184611343565b9695505050505050565b7f4e487b7100000000000000000000000000000000000000000000000000000000600052603260045260246000fd5b6000611f2082611339565b9150611f2b83611339565b9250828201905080821115611f4357611f42611b4a565b5b92915050565b600081549050919050565b600082825260208201905092915050565b60008190508160005260206000209050919050565b60008160001c9050919050565b600073ffffffffffffffffffffffffffffffffffffffff82169050919050565b6000611fba611fb583611f7a565b611f87565b9050919050565b611fca816113a1565b82525050565b6000819050919050565b6000611fed611fe883611f7a565b611fd0565b9050919050565b611ffd81611339565b82525050565b600060ff82169050919050565b600061202361201e83611f7a565b612003565b9050919050565b612033816115b9565b82525050565b60c08201600080830154905061204e81611fa7565b61205b6000860182611fc1565b506001830154905061206c81611fa7565b6120796020860182611fc1565b506002830154905061208a81611fda565b6120976040860182611ff4565b50600383015490506120a881611fda565b6120b56060860182611ff4565b50600483015490506120c681611fda565b6120d36080860182611ff4565b50600583015490506120e481612010565b6120f160a086018261202a565b5050505050565b60006121048383612039565b60c08301905092915050565b6000600682019050919050565b600061212882611f49565b6121328185611f54565b935061213d83611f65565b8060005b8381101561216d578161215488826120f8565b975061215f83612110565b925050600181019050612141565b5085935050505092915050565b60006020820190508181036000830152612194818461211d565b905092915050565b60006121a782611339565b9150600082036121ba576121b9611b4a565b5b600182039050919050565b7f4e487b7100000000000000000000000000000000000000000000000000000000600052603160045260246000fd5b60006121ff82611339565b91507fffffffffffffffffffffffffffffffffffffffffffffffffffffffffffffffff820361223157612230611b4a565b5b600182019050919050565b7f4c696768744c696e6b205369676e6564204d6573736167653a2046524f4d2000600082015250565b6000612272601f83611aac565b915061227d8261223c565b601f82019050919050565b60008160601b9050919050565b60006122a082612288565b9050919050565b60006122b282612295565b9050919050565b6122ca6122c5826113a1565b6122a7565b82525050565b7f20544f2000000000000000000000000000000000000000000000000000000000600082015250565b6000612306600483611aac565b9150612311826122d0565b600482019050919050565b7f2056414c55452000000000000000000000000000000000000000000000000000600082015250565b6000612352600783611aac565b915061235d8261231c565b600782019050919050565b6000819050919050565b61238361237e82611339565b612368565b82525050565b7f204e4f4e43452000000000000000000000000000000000000000000000000000600082015250565b60006123bf600783611aac565b91506123ca82612389565b600782019050919050565b60006123e082612265565b91506123ec82876122b9565b6014820191506123fb826122f9565b915061240782866122b9565b60148201915061241682612345565b91506124228285612372565b602082019150612431826123b2565b915061243d8284612372565b6020820191508190509594505050505056fea2646970667358221220be9072e27489345809eba62f00968d6014b60be28666d1684cea3844f703ac6664736f6c634300081b0033",
  "linkReferences": {},
  "deployedLinkReferences": {}
}