{
  "_format": "hh-sol-artifact-1",
  "contractName": "ViaductCore",
  "sourceName": "contracts/ViaductCore.sol",
  "abi": [
    {
      "inputs": [
        {
          "internalType": "bool",
          "name": "_isRoot",
          "type": "bool"
        },
        {
          "internalType": "uint256",
          "name": "_genesisTimestamp",
          "type": "uint256"
        },
        {
          "internalType": "bool",
          "name": "_forTesting",
          "type": "bool"
        }
      ],
      "stateMutability": "nonpayable",
      "type": "constructor"
    },
    {
      "anonymous": false,
      "inputs": [
        {
          "indexed": false,
          "internalType": "address",
          "name": "_from",
          "type": "address"
        },
        {
          "indexed": false,
          "internalType": "address",
          "name": "_to",
          "type": "address"
        },
        {
          "indexed": false,
          "internalType": "uint256",
          "name": "_value",
          "type": "uint256"
        },
        {
          "indexed": false,
          "internalType": "bytes",
          "name": "_sig",
          "type": "bytes"
        },
        {
          "indexed": false,
          "internalType": "uint256",
          "name": "nonce",
          "type": "uint256"
        }
      ],
      "name": "ChallengedTransfer",
      "type": "event"
    },
    {
      "anonymous": false,
      "inputs": [
        {
          "indexed": false,
          "internalType": "address",
          "name": "_from",
          "type": "address"
        },
        {
          "indexed": false,
          "internalType": "address",
          "name": "_to",
          "type": "address"
        },
        {
          "indexed": false,
          "internalType": "uint256",
          "name": "_value",
          "type": "uint256"
        },
        {
          "indexed": false,
          "internalType": "bytes",
          "name": "_sig",
          "type": "bytes"
        },
        {
          "indexed": false,
          "internalType": "uint256",
          "name": "nonce",
          "type": "uint256"
        }
      ],
      "name": "ObjectiveTransfer",
      "type": "event"
    },
    {
      "inputs": [
        {
          "internalType": "address",
          "name": "_owner",
          "type": "address"
        }
      ],
      "name": "balanceOf",
      "outputs": [
        {
          "internalType": "uint256",
          "name": "",
          "type": "uint256"
        }
      ],
      "stateMutability": "view",
      "type": "function"
    },
    {
      "inputs": [
        {
          "internalType": "bytes32",
          "name": "_messageHash",
          "type": "bytes32"
        }
      ],
      "name": "calculateSignedMessageHash",
      "outputs": [
        {
          "internalType": "bytes32",
          "name": "",
          "type": "bytes32"
        }
      ],
      "stateMutability": "pure",
      "type": "function"
    },
    {
      "inputs": [],
      "name": "canPropose",
      "outputs": [
        {
          "internalType": "bool",
          "name": "",
          "type": "bool"
        }
      ],
      "stateMutability": "view",
      "type": "function"
    },
    {
      "inputs": [
        {
          "internalType": "address",
          "name": "_from",
          "type": "address"
        },
        {
          "internalType": "address",
          "name": "_to",
          "type": "address"
        },
        {
          "internalType": "uint256",
          "name": "_value",
          "type": "uint256"
        },
        {
          "internalType": "bytes",
          "name": "_sig",
          "type": "bytes"
        },
        {
          "internalType": "uint256",
          "name": "_nonce",
          "type": "uint256"
        }
      ],
      "name": "challengeAndRecord",
      "outputs": [
        {
          "internalType": "bool",
          "name": "success",
          "type": "bool"
        }
      ],
      "stateMutability": "nonpayable",
      "type": "function"
    },
    {
      "inputs": [],
      "name": "cleanChallengeWindow",
      "outputs": [],
      "stateMutability": "nonpayable",
      "type": "function"
    },
    {
      "inputs": [],
      "name": "decimals",
      "outputs": [
        {
          "internalType": "uint256",
          "name": "",
          "type": "uint256"
        }
      ],
      "stateMutability": "pure",
      "type": "function"
    },
    {
      "inputs": [
        {
          "internalType": "address",
          "name": "_from",
          "type": "address"
        },
        {
          "internalType": "address",
          "name": "_to",
          "type": "address"
        },
        {
          "internalType": "uint256",
          "name": "_value",
          "type": "uint256"
        },
        {
          "internalType": "uint256",
          "name": "_nonce",
          "type": "uint256"
        }
      ],
      "name": "getValidHash",
      "outputs": [
        {
          "internalType": "bytes32",
          "name": "messageHash",
          "type": "bytes32"
        }
      ],
      "stateMutability": "pure",
      "type": "function"
    },
    {
      "inputs": [],
      "name": "name",
      "outputs": [
        {
          "internalType": "string",
          "name": "",
          "type": "string"
        }
      ],
      "stateMutability": "pure",
      "type": "function"
    },
    {
      "inputs": [
        {
          "internalType": "address",
          "name": "_from",
          "type": "address"
        },
        {
          "internalType": "address",
          "name": "_to",
          "type": "address"
        },
        {
          "internalType": "uint256",
          "name": "_value",
          "type": "uint256"
        },
        {
          "internalType": "bytes",
          "name": "_sig",
          "type": "bytes"
        },
        {
          "internalType": "uint256",
          "name": "_nonce",
          "type": "uint256"
        }
      ],
      "name": "objectiveTransfer",
      "outputs": [
        {
          "internalType": "bool",
          "name": "success",
          "type": "bool"
        }
      ],
      "stateMutability": "nonpayable",
      "type": "function"
    },
    {
      "inputs": [],
      "name": "pendingTransferCount",
      "outputs": [
        {
          "internalType": "uint256",
          "name": "",
          "type": "uint256"
        }
      ],
      "stateMutability": "view",
      "type": "function"
    },
    {
      "inputs": [
        {
          "internalType": "bytes32",
          "name": "_signedMessageHash",
          "type": "bytes32"
        },
        {
          "internalType": "bytes",
          "name": "_signature",
          "type": "bytes"
        }
      ],
      "name": "recoverSigner",
      "outputs": [
        {
          "internalType": "address",
          "name": "",
          "type": "address"
        }
      ],
      "stateMutability": "pure",
      "type": "function"
    },
    {
      "inputs": [
        {
          "internalType": "bytes",
          "name": "sig",
          "type": "bytes"
        }
      ],
      "name": "splitSignature",
      "outputs": [
        {
          "internalType": "bytes32",
          "name": "r",
          "type": "bytes32"
        },
        {
          "internalType": "bytes32",
          "name": "s",
          "type": "bytes32"
        },
        {
          "internalType": "uint8",
          "name": "v",
          "type": "uint8"
        }
      ],
      "stateMutability": "pure",
      "type": "function"
    },
    {
      "inputs": [],
      "name": "symbol",
      "outputs": [
        {
          "internalType": "string",
          "name": "",
          "type": "string"
        }
      ],
      "stateMutability": "pure",
      "type": "function"
    },
    {
      "inputs": [],
      "name": "totalSupply",
      "outputs": [
        {
          "internalType": "uint256",
          "name": "",
          "type": "uint256"
        }
      ],
      "stateMutability": "pure",
      "type": "function"
    },
    {
      "inputs": [
        {
          "internalType": "address",
          "name": "",
          "type": "address"
        },
        {
          "internalType": "uint256",
          "name": "",
          "type": "uint256"
        }
      ],
      "name": "transfer",
      "outputs": [
        {
          "internalType": "bool",
          "name": "",
          "type": "bool"
        }
      ],
      "stateMutability": "pure",
      "type": "function"
    },
    {
      "inputs": [
        {
          "internalType": "address",
          "name": "",
          "type": "address"
        },
        {
          "internalType": "address",
          "name": "",
          "type": "address"
        },
        {
          "internalType": "uint256",
          "name": "",
          "type": "uint256"
        }
      ],
      "name": "transferFrom",
      "outputs": [
        {
          "internalType": "bool",
          "name": "",
          "type": "bool"
        }
      ],
      "stateMutability": "pure",
      "type": "function"
    },
    {
      "inputs": [
        {
          "internalType": "address",
          "name": "_signer",
          "type": "address"
        },
        {
          "internalType": "bytes32",
          "name": "_hash",
          "type": "bytes32"
        },
        {
          "internalType": "bytes",
          "name": "_signature",
          "type": "bytes"
        }
      ],
      "name": "verify",
      "outputs": [
        {
          "internalType": "bool",
          "name": "",
          "type": "bool"
        }
      ],
      "stateMutability": "pure",
      "type": "function"
    },
    {
      "inputs": [
        {
          "components": [
            {
              "internalType": "address",
              "name": "from",
              "type": "address"
            },
            {
              "internalType": "address",
              "name": "to",
              "type": "address"
            },
            {
              "internalType": "uint256",
              "name": "amount",
              "type": "uint256"
            },
            {
              "internalType": "bytes",
              "name": "sig",
              "type": "bytes"
            },
            {
              "internalType": "uint256",
              "name": "nonce",
              "type": "uint256"
            },
            {
              "internalType": "uint256",
              "name": "timestamp",
              "type": "uint256"
            },
            {
              "internalType": "bool",
              "name": "problematic",
              "type": "bool"
            }
          ],
          "internalType": "struct ViaductCore.Transfer",
          "name": "_transfer",
          "type": "tuple"
        },
        {
          "internalType": "bytes",
          "name": "_signature",
          "type": "bytes"
        }
      ],
      "name": "verifyTransfer",
      "outputs": [
        {
          "internalType": "bool",
          "name": "",
          "type": "bool"
        }
      ],
      "stateMutability": "pure",
      "type": "function"
    }
  ],
  "bytecode": "0x60c0604052346100495761001a610014610145565b91610253565b61002261004e565b612b536102858239608051818181610f20015261229b015260a05181610f7a0152612b5390f35b610054565b60405190565b600080fd5b601f801991011690565b634e487b7160e01b600052604160045260246000fd5b9061008390610059565b810190811060018060401b0382111761009b57604052565b610063565b906100b36100ac61004e565b9283610079565b565b600080fd5b151590565b6100c8816100ba565b036100cf57565b600080fd5b905051906100e1826100bf565b565b90565b6100ef816100e3565b036100f657565b600080fd5b90505190610108826100e6565b565b90916060828403126101405761013d61012684600085016100d4565b9361013481602086016100fb565b936040016100d4565b90565b6100b5565b610163612dd880380380610158816100a0565b92833981019061010a565b909192565b90565b90565b61018261017d61018792610168565b61016b565b6100e3565b90565b61019d69021e19e0c9bab240000061016e565b90565b60018060a01b031690565b6101bf6101ba6101c4926101a0565b61016b565b6101a0565b90565b6101d0906101ab565b90565b6101dc906101c7565b90565b906101e9906101d3565b600052602052604060002090565b60001b90565b9061020a600019916101f7565b9181191691161790565b61022861022361022d926100e3565b61016b565b6100e3565b90565b90565b9061024861024361024f92610214565b610230565b82546101fd565b9055565b919091610263575b60a052608052565b61027f61026e61018a565b61027a600333906101df565b610233565b61025b56fe60806040526004361015610013575b610b72565b61001e60003561013d565b806306fdde031461013857806318160ddd146101335780631a86b5501461012e57806323b872dd14610129578063313ce5671461012457806345e872b61461011f57806370a082311461011a57806376e1480414610115578063782168591461011057806395d89b411461010b57806397aba7f914610106578063a7bb580314610101578063a9059cbb146100fc578063b052b8df146100f7578063b63e56de146100f2578063c03ab09c146100ed578063e0ea0ee2146100e85763f34d85e40361000e57610b39565b610abf565b610a80565b610a4b565b610a12565b61096c565b610906565b610854565b6107b6565b610780565b61060b565b6105d6565b610582565b61050b565b6104d5565b610440565b610244565b6101e9565b60e01c90565b60405190565b600080fd5b600080fd5b600091031261015e57565b61014e565b5190565b60209181520190565b60005b838110610184575050906000910152565b806020918301518185015201610173565b601f801991011690565b6101be6101c76020936101cc936101b581610163565b93848093610167565b95869101610170565b610195565b0190565b6101e6916020820191600081840391015261019f565b90565b34610219576101f9366004610153565b610215610204610c02565b61020c610143565b918291826101d0565b0390f35b610149565b90565b61022a9061021e565b9052565b919061024290600060208501940190610221565b565b3461027457610254366004610153565b61027061025f610c53565b610267610143565b9182918261022e565b0390f35b610149565b600080fd5b60018060a01b031690565b6102929061027e565b90565b61029e81610289565b036102a557565b600080fd5b905035906102b782610295565b565b90565b6102c5816102b9565b036102cc57565b600080fd5b905035906102de826102bc565b565b600080fd5b600080fd5b634e487b7160e01b600052604160045260246000fd5b9061030a90610195565b810190811067ffffffffffffffff82111761032457604052565b6102ea565b9061033c610335610143565b9283610300565b565b67ffffffffffffffff811161035c57610358602091610195565b0190565b6102ea565b90826000939282370152565b9092919261038261037d8261033e565b610329565b9381855260208501908284011161039e5761039c92610361565b565b6102e5565b9080601f830112156103c1578160206103be9335910161036d565b90565b6102e0565b91606083830312610413576103de82600085016102aa565b926103ec83602083016102d1565b92604082013567ffffffffffffffff811161040e5761040b92016103a3565b90565b610279565b61014e565b151590565b61042690610418565b9052565b919061043e9060006020850194019061041d565b565b346104715761046d61045c6104563660046103c6565b91610c6c565b610464610143565b9182918261042a565b0390f35b610149565b61047f8161021e565b0361048657565b600080fd5b9050359061049882610476565b565b90916060828403126104d0576104cd6104b684600085016102aa565b936104c481602086016102aa565b9360400161048b565b90565b61014e565b34610506576105026104f16104eb36600461049a565b91610c96565b6104f9610143565b9182918261042a565b0390f35b610149565b3461053b5761051b366004610153565b610537610526610cc6565b61052e610143565b9182918261022e565b0390f35b610149565b9060208282031261055a57610557916000016102d1565b90565b61014e565b610568906102b9565b9052565b91906105809060006020850194019061055f565b565b346105b2576105ae61059d610598366004610540565b610d63565b6105a5610143565b9182918261056c565b0390f35b610149565b906020828203126105d1576105ce916000016102aa565b90565b61014e565b34610606576106026105f16105ec3660046105b7565b610e22565b6105f9610143565b9182918261022e565b0390f35b610149565b3461063b5761061b366004610153565b610637610626610f0e565b61062e610143565b9182918261042a565b0390f35b610149565b600080fd5b600080fd5b61065381610418565b0361065a57565b600080fd5b9050359061066c8261064a565b565b91909160e08184031261071d5761068560e0610329565b9261069381600084016102aa565b60008501526106a581602084016102aa565b60208501526106b7816040840161048b565b604085015260608201359167ffffffffffffffff8311610718576106e0826107119483016103a3565b60608601526106f2826080830161048b565b60808601526107048260a0830161048b565b60a086015260c00161065f565b60c0830152565b610645565b610640565b91909160408184031261077b57600081013567ffffffffffffffff8111610776578361074f91830161066e565b92602082013567ffffffffffffffff81116107715761076e92016103a3565b90565b610279565b610279565b61014e565b346107b1576107ad61079c610796366004610722565b90610fb8565b6107a4610143565b9182918261042a565b0390f35b610149565b346107e6576107c6366004610153565b6107e26107d1611069565b6107d9610143565b918291826101d0565b0390f35b610149565b91909160408184031261082c5761080583600083016102d1565b92602082013567ffffffffffffffff81116108275761082492016103a3565b90565b610279565b61014e565b61083a90610289565b9052565b919061085290600060208501940190610831565b565b346108855761088161087061086a3660046107eb565b906110d8565b610878610143565b9182918261083e565b0390f35b610149565b906020828203126108bb57600082013567ffffffffffffffff81116108b6576108b392016103a3565b90565b610279565b61014e565b60ff1690565b6108cf906108c0565b9052565b6040906108fd61090494969593966108f36060840198600085019061055f565b602083019061055f565b01906108c6565b565b346109395761093561092161091c36600461088a565b611214565b61092c939193610143565b938493846108d3565b0390f35b610149565b9190604083820312610967578061095b61096492600086016102aa565b9360200161048b565b90565b61014e565b3461099d5761099961098861098236600461093e565b9061129f565b610990610143565b9182918261042a565b0390f35b610149565b919060a083820312610a0d576109bb81600085016102aa565b926109c982602083016102aa565b926109d7836040840161048b565b9260608301359067ffffffffffffffff8211610a08576109fc81610a059386016103a3565b9360800161048b565b90565b610279565b61014e565b34610a4657610a42610a31610a283660046109a2565b93929092611ac4565b610a39610143565b9182918261042a565b0390f35b610149565b34610a7b57610a5b366004610153565b610a77610a66611c3f565b610a6e610143565b9182918261022e565b0390f35b610149565b34610ab457610ab0610a9f610a963660046109a2565b93929092611cd9565b610aa7610143565b9182918261042a565b0390f35b610149565b60000190565b34610aed57610acf366004610153565b610ad761228e565b610adf610143565b80610ae981610ab9565b0390f35b610149565b608081830312610b3457610b0982600083016102aa565b92610b31610b1a84602085016102aa565b93610b28816040860161048b565b9360600161048b565b90565b61014e565b34610b6d57610b69610b58610b4f366004610af2565b92919091612649565b610b60610143565b9182918261056c565b0390f35b610149565b600080fd5b606090565b67ffffffffffffffff8111610b9a57610b96602091610195565b0190565b6102ea565b90610bb1610bac83610b7c565b610329565b918252565b60007f5669616475637400000000000000000000000000000000000000000000000000910152565b610be86007610b9f565b90610bf560208301610bb6565b565b610bff610bde565b90565b610c0a610b77565b50610c13610bf7565b90565b600090565b90565b90565b610c35610c30610c3a92610c1b565b610c1e565b61021e565b90565b610c5069021e19e0c9bab2400000610c21565b90565b610c5b610c16565b50610c64610c3d565b90565b600090565b91610c86610c8c91610c9293610c80610c67565b506110d8565b92610289565b91610289565b1490565b505050610ca1610c67565b50600090565b90565b610cbe610cb9610cc392610ca7565b610c1e565b61021e565b90565b610cce610c16565b50610cd96012610caa565b90565b600090565b905090565b60007f19457468657265756d205369676e6564204d6573736167653a0a333200000000910152565b610d1a601c8092610ce1565b610d2381610ce6565b0190565b90565b610d36610d3b916102b9565b610d27565b9052565b90610d55610d4e602093610d0e565b8092610d2a565b0190565b60200190565b5190565b610d96610d8791610d72610cdc565b50610d7b610143565b92839160208301610d3f565b60208201810382520382610300565b610da8610da282610d5f565b91610d59565b2090565b610dc0610dbb610dc59261027e565b610c1e565b61027e565b90565b610dd190610dac565b90565b610ddd90610dc8565b90565b90610dea90610dd4565b600052602052604060002090565b60001c90565b90565b610e0d610e1291610df8565b610dfe565b90565b610e1f9054610e01565b90565b610e39610e3e91610e31610c16565b506003610de0565b610e15565b90565b634e487b7160e01b600052601160045260246000fd5b610e66610e6c9193929361021e565b9261021e565b8203918211610e7757565b610e41565b90565b610e93610e8e610e9892610e7c565b610c1e565b61021e565b90565b610ea6610258610e7f565b90565b634e487b7160e01b600052601260045260246000fd5b610ecb610ed19161021e565b9161021e565b908115610edc570690565b610ea9565b90565b610ef8610ef3610efd92610ee1565b610c1e565b61021e565b90565b610f0b6101a4610ee4565b90565b610f16610c67565b50610f53610f45427f000000000000000000000000000000000000000000000000000000000000000090610e57565b610f4d610e9b565b90610ebf565b610f6c610f66610f61610f00565b61021e565b9161021e565b108015610f77575b90565b507f0000000000000000000000000000000000000000000000000000000000000000610f74565b610fa89051610289565b90565b610fb5905161021e565b90565b61101a91610fc4610c67565b50611012600061100b611006610fdb838701610f9e565b610fe760208801610f9e565b610ff360408901610fab565b9061100060808a01610fab565b92612649565b610d63565b9301610f9e565b919091610c6c565b90565b60007f5649410000000000000000000000000000000000000000000000000000000000910152565b61104f6003610b9f565b9061105c6020830161101d565b565b611066611045565b90565b611071610b77565b5061107a61105e565b90565b600090565b60001b90565b6110be6110c5946110b46060949897956110aa608086019a600087019061055f565b60208501906108c6565b604083019061055f565b019061055f565b565b6110cf610143565b3d6000823e3d90fd5b6111096000916110f26020946110ec61107d565b50611214565b909391939093611100610143565b94859485611088565b838052039060015afa1561112557611122600051611082565b90565b6110c7565b600090565b90565b61114661114161114b9261112f565b610c1e565b61021e565b90565b60007f496e76616c6964207369676e6174757265206c656e6774680000000000000000910152565b6111836018602092610167565b61118c8161114e565b0190565b6111a69060208101906000818303910152611176565b90565b156111b057565b6111b8610143565b62461bcd60e51b8152806111ce60048201611190565b0390fd5b90565b6111e96111e46111ee926111d2565b610c1e565b6108c0565b90565b6111fd611203916108c0565b916108c0565b019060ff821161120f57565b610e41565b61121c610cdc565b50611225610cdc565b5061122e61112a565b5061125461123b82610d5f565b61124e6112486041611132565b9161021e565b146111a9565b6020810151916060604083015192015160001a908161127c611276601b6111d5565b916108c0565b10611284575b565b9061129990611293601b6111d5565b906111f1565b90611282565b50506112a9610c67565b50600090565b6112c36112be6112c89261021e565b610c1e565b61021e565b90565b906112d5906112af565b600052602052604060002090565b60ff1690565b6112f56112fa91610df8565b6112e3565b90565b61130790546112e9565b90565b60007f4e6f6e636520616c726561647920757365642e00000000000000000000000000910152565b61133f6013602092610167565b6113488161130a565b0190565b6113629060208101906000818303910152611332565b90565b1561136c57565b611374610143565b62461bcd60e51b81528061138a6004820161134c565b0390fd5b9061139a60ff91611082565b9181191691161790565b6113ad90610418565b90565b90565b906113c86113c36113cf926113a4565b6113b0565b825461138e565b9055565b60007f43616e6e6f742070726f706f7365000000000000000000000000000000000000910152565b611408600e602092610167565b611411816113d3565b0190565b61142b90602081019060008183039101526113fb565b90565b1561143557565b61143d610143565b62461bcd60e51b81528061145360048201611415565b0390fd5b60007f496e73756666696369656e742062616c616e6365000000000000000000000000910152565b61148c6014602092610167565b61149581611457565b0190565b6114af906020810190600081830391015261147f565b90565b156114b957565b6114c1610143565b62461bcd60e51b8152806114d760048201611499565b0390fd5b6114e560e0610329565b90565b600090565b600090565b606090565b600090565b6115046114db565b906020808080808080886115166114e8565b8152016115216114e8565b81520161152c6114ed565b8152016115376114f2565b8152016115426114ed565b81520161154d6114ed565b8152016115586114f7565b81525050565b6115666114fc565b90565b9061157390610289565b9052565b906115819061021e565b9052565b60007f496e76616c6964207369676e6174757265000000000000000000000000000000910152565b6115ba6011602092610167565b6115c381611585565b0190565b6115dd90602081019060008183039101526115ad565b90565b156115e757565b6115ef610143565b62461bcd60e51b815280611605600482016115c7565b0390fd5b9061161390610418565b9052565b90565b600052602060002090565b634e487b7160e01b600052603260045260246000fd5b5490565b6116488161163b565b8210156116635761165a60079161161a565b91020190600090565b611625565b634e487b7160e01b600052600060045260246000fd5b9061168f60018060a01b0391611082565b9181191691161790565b90565b906116b16116ac6116b892610dd4565b611699565b825461167e565b9055565b906116c960001991611082565b9181191691161790565b90565b906116eb6116e66116f2926112af565b6116d3565b82546116bc565b9055565b5190565b634e487b7160e01b600052602260045260246000fd5b9060016002830492168015611730575b602083101461172b57565b6116fa565b91607f1691611720565b600052602060002090565b601f602091010490565b1b90565b9190600861176f9102916117696000198461174f565b9261174f565b9181191691161790565b919061178f61178a611797936112af565b6116d3565b908354611753565b9055565b6117ad916117a7610c16565b91611779565b565b5b8181106117bb575050565b806117c9600060019361179b565b016117b0565b9190601f81116117df575b505050565b6117eb6118109361173a565b9060206117f784611745565b83019310611818575b61180990611745565b01906117af565b3880806117da565b915061180981929050611800565b1c90565b9061183b9060001990600802611826565b191690565b8161184a9161182a565b906002021790565b9061185c81610d5f565b9067ffffffffffffffff821161191e576118808261187a8554611710565b856117cf565b602090601f83116001146118b5579180916118a4936000926118a9575b5050611840565b90555b565b9091500151388061189d565b601f198316916118c48561173a565b9260005b818110611906575091600293918560019694106118ec575b505050020190556118a7565b6118fc910151601f84169061182a565b90553880806118e0565b919360206001819287870151815501950192016118c8565b6102ea565b9061192d91611852565b565b6119399051610418565b90565b906119e660c060066119ec946119616000820161195b60008801610f9e565b9061169c565b61197a6001820161197460208801610f9e565b9061169c565b6119936002820161198d60408801610fab565b906116d6565b6119ac600382016119a6606088016116f6565b90611923565b6119c5600482016119bf60808801610fab565b906116d6565b6119de600582016119d860a08801610fab565b906116d6565b01920161192f565b906113b3565b565b91906119ff576119fd9161193c565b565b611668565b9081549168010000000000000000831015611a345782611a2c916001611a329501815561163f565b906119ee565b565b6102ea565b60209181520190565b611a61611a6a602093611a6f93611a5881610d5f565b93848093611a39565b95869101610170565b610195565b0190565b611ac294611aad82989795611aa3608096611a99611aba97600060a08901980190610831565b60208c0190610831565b60408a0190610221565b8782036060890152611a42565b940190610221565b565b93611c1891929394611ad4610c67565b50611afa611af5611aef611aea600486906112cb565b6112fd565b15610418565b611365565b611b106001611b0b600485906112cb565b6113b3565b611b20611b1b610f0e565b61142e565b611b50611b37611b3260038490610de0565b610e15565b611b49611b438861021e565b9161021e565b10156114b2565b611be2611b5b61155e565b611b688360008301611569565b611b758660208301611569565b611b828760408301611577565b876060820152611b958460808301611577565b611ba24260a08301611577565b611bb5611bb0828a90610fb8565b6115e0565b611bc3600060c08301611609565b611bce838890612931565b611c28575b611bdd6000611617565b611a04565b9293947f4fa994aa29cfe03cf996e8a94bec96ed4b14c748957df777d0613cf57a58947195611c0f610143565b95869586611a73565b0390a1611c2361228e565b600190565b611c36600160c08301611609565b611bd3565b5490565b611c47610c16565b50611c526000611c3b565b90565b60007f4368616c6c656e676520756e7375636365737366756c00000000000000000000910152565b611c8a6016602092610167565b611c9381611c55565b0190565b611cad9060208101906000818303910152611c7d565b90565b15611cb757565b611cbf610143565b62461bcd60e51b815280611cd560048201611c97565b0390fd5b91611d6892611d5e611d59611d639496611d38611d7799611cf8610c67565b50611d1c611d0461155e565b9a611d138c60008a9101611569565b60208c01611569565b611d298760408c01611577565b8260608b015260808a01611577565b611d454260a08a01611577565b611d53600160c08a01611609565b87610fb8565b6115e0565b612931565b611cb0565b611d726000611617565b611a04565b611d7f61228e565b600190565b611d8d9061021e565b6000198114611d9c5760010190565b610e41565b611daa9061021e565b60008114611db9576001900390565b610e41565b600052602060002090565b611dd281611c3b565b821015611ded57611de4600791611dbe565b91020190600090565b611625565b60018060a01b031690565b611e09611e0e91610df8565b611df2565b90565b611e1b9054611dfd565b90565b611e2d611e339193929361021e565b9261021e565b8201809211611e3e57565b610e41565b90565b611e5a611e55611e5f92611e43565b610c1e565b61021e565b90565b611e6c9054611710565b90565b90808214611f5157611e8081611e62565b9067ffffffffffffffff8211611f4c57611ea482611e9e8554611710565b856117cf565b600090601f8311600114611ed957918091611ec893600092611ecd575b5050611840565b90555b565b90915001543880611ec1565b90611ee8601f1984169261173a565b90611ef28561173a565b9260005b818110611f3457509160029391856001969410611f1a575b50505002019055611ecb565b611f2a910154601f84169061182a565b9055388080611f0e565b91936001806020928787015481550195019201611ef6565b6102ea565b5050565b90611f5f91611e6f565b565b90808203611f6e575b5050565b61200e60068084611f9160006120149701611f8b60008801611e11565b9061169c565b611faa60018201611fa460018801611e11565b9061169c565b611fc360028201611fbd60028801610e15565b906116d6565b611fd4600382016003870190611f55565b611fed60048201611fe760048801610e15565b906116d6565b6120066005820161200060058801610e15565b906116d6565b0192016112fd565b906113b3565b3880611f6a565b919061202c5761202a91611f61565b565b611668565b634e487b7160e01b600052603160045260246000fd5b9061205b9060001990602003600802611826565b8154169055565b9060009161207a6120728261173a565b928354611840565b905555565b919290602082106000146120d957601f84116001146120a9576120a3929350611840565b90555b5b565b50906120cf6120d49360016120c66120c08561173a565b92611745565b820191016117af565b612062565b6120a6565b5061211082936120ea60019461173a565b6121096120f685611745565b820192601f86168061211b575b50611745565b01906117af565b6002021790556120a7565b61212790888603612047565b38612103565b92909168010000000000000000821161218f5760201160001461218057602081106000146121645761215e91611840565b90555b5b565b60019160ff19166121748461173a565b55600202019055612161565b60019150600202019055612162565b6102ea565b9081546121a081611710565b908183116121c9575b8183106121b7575b50505050565b6121c09361207f565b388080806121b1565b6121d58383838761212d565b6121a9565b60006121e591612194565b565b906000036121fa576121f8906121da565b565b611668565b6006600091828082015582600182015561221c836002830161179b565b61222983600383016121e7565b612236836004830161179b565b612243836005830161179b565b0155565b9060000361225a57612258906121ff565b565b611668565b6122688161163b565b8015612289576001900390612286612280838361163f565b90612247565b55565b612031565b6122d4426122ce6122c0427f000000000000000000000000000000000000000000000000000000000000000090610e57565b6122c8610e9b565b90610ebf565b90610e57565b906001916122e0610c16565b925b836122fe6122f86122f36000611c3b565b61021e565b9161021e565b101561249a5761230e9015610418565b61248a575b60019261232e600561232760008490611dc9565b5001610e15565b61234061233a8461021e565b9161021e565b10612355575b61234f90611d84565b926122e2565b9250612378612372600661236b60008790611dc9565b50016112fd565b15610418565b6123da575b6123bb6123a860006123a26123926000611c3b565b61239c6001611e46565b90610e57565b90611dc9565b506123b560008690611dc9565b9061201b565b6123cd6123c86000611617565b61225f565b61234f6000939050612346565b61242f6123f560026123ee60008790611dc9565b5001610e15565b61242961241a6003612414600061240d818b90611dc9565b5001611e11565b90610de0565b9161242483610e15565b610e57565b906116d6565b61248561244a600261244360008790611dc9565b5001610e15565b61247f612470600361246a600161246360008b90611dc9565b5001611e11565b90610de0565b9161247a83610e15565b611e1e565b906116d6565b61237d565b9161249490611da1565b91612313565b50509050565b60007f56696164756374205369676e6564204d6573736167653a2046524f4d20000000910152565b6124d4601d8092610ce1565b6124dd816124a0565b0190565b60601b90565b6124f0906124e1565b90565b6124fc906124e7565b90565b61250b61251091610289565b6124f3565b9052565b60007f20544f2000000000000000000000000000000000000000000000000000000000910152565b61254860048092610ce1565b61255181612514565b0190565b60007f2056414c55452000000000000000000000000000000000000000000000000000910152565b61258960078092610ce1565b61259281612555565b0190565b90565b6125a56125aa9161021e565b612596565b9052565b60007f204e4f4e43452000000000000000000000000000000000000000000000000000910152565b6125e260078092610ce1565b6125eb816125ae565b0190565b6020949361263861263160146126459661262b6126248361263e9961261e6126178f9b6124c8565b80926124ff565b0161253c565b80926124ff565b0161257d565b8092612599565b016125d6565b8092612599565b0190565b61268092936126719161265a610cdc565b509294612665610143565b958694602086016125ef565b60208201810382520382610300565b61269261268c82610d5f565b91610d59565b2090565b60016126a2910161021e565b90565b90815491680100000000000000008310156126d557826126cd9160016126d39501815561163f565b9061201b565b565b6102ea565b90565b600052602060002090565b5490565b6126f5816126e8565b821015612710576127076001916126dd565b91020190600090565b611625565b9081549168010000000000000000831015612745578261273d916001612743950181556126ec565b90611779565b565b6102ea565b5490565b600052602060002090565b6127628161274a565b82101561277d5761277460019161274e565b91020190600090565b611625565b6127929060086127979302611826565b610dfe565b90565b906127a59154612782565b90565b60209181520190565b90600092918054906127cc6127c583611710565b80946127a8565b9160018116908160001461282557506001146127e8575b505050565b6127f5919293945061173a565b916000925b81841061280d57505001903880806127e3565b600181602092959395548486015201910192906127fa565b92949550505060ff19168252151560200201903880806127e3565b9061284a916127b1565b90565b9061286d6128669261285d610143565b93848092612840565b0383610300565b565b52565b9061292361291a60066128836114db565b9461289c61289360008301611e11565b60008801611569565b6128b46128ab60018301611e11565b60208801611569565b6128cc6128c360028301610e15565b60408801611577565b6128e46128db6003830161284d565b6060880161286f565b6128fc6128f360048301610e15565b60808801611577565b61291461290b60058301610e15565b60a08801611577565b016112fd565b60c08401611609565b565b61292e90612872565b90565b9061293a610c67565b50612943610c16565b5b8061296061295a6129556000611c3b565b61021e565b9161021e565b1015612a055761297d6000612976818490611dc9565b5001611e11565b61298f61298985610289565b91610289565b146129a3575b61299e90612696565b612944565b906129c961299e916129c360026129bc60008790611dc9565b5001610e15565b90611e1e565b916129ea6129d76002611617565b6129e360008490611dc9565b50906126a5565b6129fe6129f760016126da565b8290612715565b9050612995565b5090612a26612a20612a1b612a2c936003610de0565b610e15565b9261021e565b9161021e565b11612b1857612a39610c16565b5b80612a56612a50612a4b600161274a565b61021e565b9161021e565b1015612b1257612b0d90612a89612a836000612a7d612a7760018690612759565b9061279a565b90611dc9565b50612925565b612a97600160c08301611609565b612aa360008201610f9e565b612aaf60208301610f9e565b90612b05612abf60408501610fab565b93612ad1608060608301519201610fab565b907fba3cd9cc90be8a4bae3a12a3ad76861e142f2ba0e44241b2699ee849d834adbc95612afc610143565b95869586611a73565b0390a1612696565b612a3a565b50600190565b60009056fea26469706673582212208a5f2cd698d9245f308a4d3fca608c1ec0187d880107d3b6c8ab9569804743c664736f6c634300081b0033",
  "linkReferences": {},
  "deployedLinkReferences": {}
}