{
  "_format": "hh-sol-artifact-1",
  "contractName": "ViaductCore",
  "sourceName": "contracts/ViaductCore.sol",
  "abi": [
    {
      "inputs": [
        {
          "internalType": "bool",
          "name": "_isRoot",
          "type": "bool"
        },
        {
          "internalType": "uint256",
          "name": "_genesisTimestamp",
          "type": "uint256"
        },
        {
          "internalType": "bool",
          "name": "_forTesting",
          "type": "bool"
        }
      ],
      "stateMutability": "nonpayable",
      "type": "constructor"
    },
    {
      "anonymous": false,
      "inputs": [
        {
          "indexed": false,
          "internalType": "address",
          "name": "_from",
          "type": "address"
        },
        {
          "indexed": false,
          "internalType": "address",
          "name": "_to",
          "type": "address"
        },
        {
          "indexed": false,
          "internalType": "uint256",
          "name": "_value",
          "type": "uint256"
        },
        {
          "indexed": false,
          "internalType": "bytes",
          "name": "_sig",
          "type": "bytes"
        },
        {
          "indexed": false,
          "internalType": "uint256",
          "name": "nonce",
          "type": "uint256"
        }
      ],
      "name": "ChallengedTransfer",
      "type": "event"
    },
    {
      "anonymous": false,
      "inputs": [
        {
          "indexed": false,
          "internalType": "address",
          "name": "_from",
          "type": "address"
        },
        {
          "indexed": false,
          "internalType": "address",
          "name": "_to",
          "type": "address"
        },
        {
          "indexed": false,
          "internalType": "uint256",
          "name": "_value",
          "type": "uint256"
        },
        {
          "indexed": false,
          "internalType": "bytes",
          "name": "_sig",
          "type": "bytes"
        },
        {
          "indexed": false,
          "internalType": "uint256",
          "name": "nonce",
          "type": "uint256"
        }
      ],
      "name": "ObjectiveTransfer",
      "type": "event"
    },
    {
      "inputs": [
        {
          "internalType": "address",
          "name": "_owner",
          "type": "address"
        }
      ],
      "name": "balanceOf",
      "outputs": [
        {
          "internalType": "uint256",
          "name": "",
          "type": "uint256"
        }
      ],
      "stateMutability": "view",
      "type": "function"
    },
    {
      "inputs": [
        {
          "internalType": "bytes32",
          "name": "_messageHash",
          "type": "bytes32"
        }
      ],
      "name": "calculateSignedMessageHash",
      "outputs": [
        {
          "internalType": "bytes32",
          "name": "",
          "type": "bytes32"
        }
      ],
      "stateMutability": "pure",
      "type": "function"
    },
    {
      "inputs": [],
      "name": "canPropose",
      "outputs": [
        {
          "internalType": "bool",
          "name": "",
          "type": "bool"
        }
      ],
      "stateMutability": "view",
      "type": "function"
    },
    {
      "inputs": [
        {
          "internalType": "address",
          "name": "_from",
          "type": "address"
        },
        {
          "internalType": "address",
          "name": "_to",
          "type": "address"
        },
        {
          "internalType": "uint256",
          "name": "_value",
          "type": "uint256"
        },
        {
          "internalType": "bytes",
          "name": "_sig",
          "type": "bytes"
        },
        {
          "internalType": "uint256",
          "name": "_nonce",
          "type": "uint256"
        }
      ],
      "name": "challengeAndRecord",
      "outputs": [
        {
          "internalType": "bool",
          "name": "success",
          "type": "bool"
        }
      ],
      "stateMutability": "nonpayable",
      "type": "function"
    },
    {
      "inputs": [],
      "name": "cleanChallengeWindow",
      "outputs": [],
      "stateMutability": "nonpayable",
      "type": "function"
    },
    {
      "inputs": [],
      "name": "decimals",
      "outputs": [
        {
          "internalType": "uint256",
          "name": "",
          "type": "uint256"
        }
      ],
      "stateMutability": "pure",
      "type": "function"
    },
    {
      "inputs": [
        {
          "internalType": "address",
          "name": "_from",
          "type": "address"
        },
        {
          "internalType": "address",
          "name": "_to",
          "type": "address"
        },
        {
          "internalType": "uint256",
          "name": "_value",
          "type": "uint256"
        },
        {
          "internalType": "uint256",
          "name": "_nonce",
          "type": "uint256"
        }
      ],
      "name": "getValidHash",
      "outputs": [
        {
          "internalType": "bytes32",
          "name": "messageHash",
          "type": "bytes32"
        }
      ],
      "stateMutability": "pure",
      "type": "function"
    },
    {
      "inputs": [],
      "name": "name",
      "outputs": [
        {
          "internalType": "string",
          "name": "",
          "type": "string"
        }
      ],
      "stateMutability": "pure",
      "type": "function"
    },
    {
      "inputs": [
        {
          "internalType": "address",
          "name": "_from",
          "type": "address"
        },
        {
          "internalType": "address",
          "name": "_to",
          "type": "address"
        },
        {
          "internalType": "uint256",
          "name": "_value",
          "type": "uint256"
        },
        {
          "internalType": "bytes",
          "name": "_sig",
          "type": "bytes"
        },
        {
          "internalType": "uint256",
          "name": "_nonce",
          "type": "uint256"
        }
      ],
      "name": "objectiveTransfer",
      "outputs": [
        {
          "internalType": "bool",
          "name": "success",
          "type": "bool"
        }
      ],
      "stateMutability": "nonpayable",
      "type": "function"
    },
    {
      "inputs": [],
      "name": "pendingTransferCount",
      "outputs": [
        {
          "internalType": "uint256",
          "name": "",
          "type": "uint256"
        }
      ],
      "stateMutability": "view",
      "type": "function"
    },
    {
      "inputs": [
        {
          "internalType": "bytes32",
          "name": "_signedMessageHash",
          "type": "bytes32"
        },
        {
          "internalType": "bytes",
          "name": "_signature",
          "type": "bytes"
        }
      ],
      "name": "recoverSigner",
      "outputs": [
        {
          "internalType": "address",
          "name": "",
          "type": "address"
        }
      ],
      "stateMutability": "pure",
      "type": "function"
    },
    {
      "inputs": [
        {
          "internalType": "bytes",
          "name": "sig",
          "type": "bytes"
        }
      ],
      "name": "splitSignature",
      "outputs": [
        {
          "internalType": "bytes32",
          "name": "r",
          "type": "bytes32"
        },
        {
          "internalType": "bytes32",
          "name": "s",
          "type": "bytes32"
        },
        {
          "internalType": "uint8",
          "name": "v",
          "type": "uint8"
        }
      ],
      "stateMutability": "pure",
      "type": "function"
    },
    {
      "inputs": [],
      "name": "symbol",
      "outputs": [
        {
          "internalType": "string",
          "name": "",
          "type": "string"
        }
      ],
      "stateMutability": "pure",
      "type": "function"
    },
    {
      "inputs": [],
      "name": "totalSupply",
      "outputs": [
        {
          "internalType": "uint256",
          "name": "",
          "type": "uint256"
        }
      ],
      "stateMutability": "pure",
      "type": "function"
    },
    {
      "inputs": [
        {
          "internalType": "address",
          "name": "",
          "type": "address"
        },
        {
          "internalType": "uint256",
          "name": "",
          "type": "uint256"
        }
      ],
      "name": "transfer",
      "outputs": [
        {
          "internalType": "bool",
          "name": "",
          "type": "bool"
        }
      ],
      "stateMutability": "pure",
      "type": "function"
    },
    {
      "inputs": [
        {
          "internalType": "address",
          "name": "",
          "type": "address"
        },
        {
          "internalType": "address",
          "name": "",
          "type": "address"
        },
        {
          "internalType": "uint256",
          "name": "",
          "type": "uint256"
        }
      ],
      "name": "transferFrom",
      "outputs": [
        {
          "internalType": "bool",
          "name": "",
          "type": "bool"
        }
      ],
      "stateMutability": "pure",
      "type": "function"
    },
    {
      "inputs": [
        {
          "internalType": "address",
          "name": "_signer",
          "type": "address"
        },
        {
          "internalType": "bytes32",
          "name": "_hash",
          "type": "bytes32"
        },
        {
          "internalType": "bytes",
          "name": "_signature",
          "type": "bytes"
        }
      ],
      "name": "verify",
      "outputs": [
        {
          "internalType": "bool",
          "name": "",
          "type": "bool"
        }
      ],
      "stateMutability": "pure",
      "type": "function"
    },
    {
      "inputs": [
        {
          "components": [
            {
              "internalType": "address",
              "name": "from",
              "type": "address"
            },
            {
              "internalType": "address",
              "name": "to",
              "type": "address"
            },
            {
              "internalType": "uint256",
              "name": "amount",
              "type": "uint256"
            },
            {
              "internalType": "bytes",
              "name": "sig",
              "type": "bytes"
            },
            {
              "internalType": "uint256",
              "name": "nonce",
              "type": "uint256"
            },
            {
              "internalType": "uint256",
              "name": "timestamp",
              "type": "uint256"
            },
            {
              "internalType": "bool",
              "name": "problematic",
              "type": "bool"
            }
          ],
          "internalType": "struct ViaductCore.Transfer",
          "name": "_transfer",
          "type": "tuple"
        },
        {
          "internalType": "bytes",
          "name": "_signature",
          "type": "bytes"
        }
      ],
      "name": "verifyTransfer",
      "outputs": [
        {
          "internalType": "bool",
          "name": "",
          "type": "bool"
        }
      ],
      "stateMutability": "pure",
      "type": "function"
    }
  ],
  "bytecode": "0x60c0604052346100495761001a610014610145565b91610253565b61002261004e565b612b9e6102858239608051818181610f2001526122e6015260a05181610f7a0152612b9e90f35b610054565b60405190565b600080fd5b601f801991011690565b634e487b7160e01b600052604160045260246000fd5b9061008390610059565b810190811060018060401b0382111761009b57604052565b610063565b906100b36100ac61004e565b9283610079565b565b600080fd5b151590565b6100c8816100ba565b036100cf57565b600080fd5b905051906100e1826100bf565b565b90565b6100ef816100e3565b036100f657565b600080fd5b90505190610108826100e6565b565b90916060828403126101405761013d61012684600085016100d4565b9361013481602086016100fb565b936040016100d4565b90565b6100b5565b610163612e2380380380610158816100a0565b92833981019061010a565b909192565b90565b90565b61018261017d61018792610168565b61016b565b6100e3565b90565b61019d69021e19e0c9bab240000061016e565b90565b60018060a01b031690565b6101bf6101ba6101c4926101a0565b61016b565b6101a0565b90565b6101d0906101ab565b90565b6101dc906101c7565b90565b906101e9906101d3565b600052602052604060002090565b60001b90565b9061020a600019916101f7565b9181191691161790565b61022861022361022d926100e3565b61016b565b6100e3565b90565b90565b9061024861024361024f92610214565b610230565b82546101fd565b9055565b919091610263575b60a052608052565b61027f61026e61018a565b61027a600333906101df565b610233565b61025b56fe60806040526004361015610013575b610b72565b61001e60003561013d565b806306fdde031461013857806318160ddd146101335780631a86b5501461012e57806323b872dd14610129578063313ce5671461012457806345e872b61461011f57806370a082311461011a57806376e1480414610115578063782168591461011057806395d89b411461010b57806397aba7f914610106578063a7bb580314610101578063a9059cbb146100fc578063b052b8df146100f7578063b63e56de146100f2578063c03ab09c146100ed578063e0ea0ee2146100e85763f34d85e40361000e57610b39565b610abf565b610a80565b610a4b565b610a12565b61096c565b610906565b610854565b6107b6565b610780565b61060b565b6105d6565b610582565b61050b565b6104d5565b610440565b610244565b6101e9565b60e01c90565b60405190565b600080fd5b600080fd5b600091031261015e57565b61014e565b5190565b60209181520190565b60005b838110610184575050906000910152565b806020918301518185015201610173565b601f801991011690565b6101be6101c76020936101cc936101b581610163565b93848093610167565b95869101610170565b610195565b0190565b6101e6916020820191600081840391015261019f565b90565b34610219576101f9366004610153565b610215610204610c02565b61020c610143565b918291826101d0565b0390f35b610149565b90565b61022a9061021e565b9052565b919061024290600060208501940190610221565b565b3461027457610254366004610153565b61027061025f610c53565b610267610143565b9182918261022e565b0390f35b610149565b600080fd5b60018060a01b031690565b6102929061027e565b90565b61029e81610289565b036102a557565b600080fd5b905035906102b782610295565b565b90565b6102c5816102b9565b036102cc57565b600080fd5b905035906102de826102bc565b565b600080fd5b600080fd5b634e487b7160e01b600052604160045260246000fd5b9061030a90610195565b810190811067ffffffffffffffff82111761032457604052565b6102ea565b9061033c610335610143565b9283610300565b565b67ffffffffffffffff811161035c57610358602091610195565b0190565b6102ea565b90826000939282370152565b9092919261038261037d8261033e565b610329565b9381855260208501908284011161039e5761039c92610361565b565b6102e5565b9080601f830112156103c1578160206103be9335910161036d565b90565b6102e0565b91606083830312610413576103de82600085016102aa565b926103ec83602083016102d1565b92604082013567ffffffffffffffff811161040e5761040b92016103a3565b90565b610279565b61014e565b151590565b61042690610418565b9052565b919061043e9060006020850194019061041d565b565b346104715761046d61045c6104563660046103c6565b91610c6c565b610464610143565b9182918261042a565b0390f35b610149565b61047f8161021e565b0361048657565b600080fd5b9050359061049882610476565b565b90916060828403126104d0576104cd6104b684600085016102aa565b936104c481602086016102aa565b9360400161048b565b90565b61014e565b34610506576105026104f16104eb36600461049a565b91610c96565b6104f9610143565b9182918261042a565b0390f35b610149565b3461053b5761051b366004610153565b610537610526610cc6565b61052e610143565b9182918261022e565b0390f35b610149565b9060208282031261055a57610557916000016102d1565b90565b61014e565b610568906102b9565b9052565b91906105809060006020850194019061055f565b565b346105b2576105ae61059d610598366004610540565b610d63565b6105a5610143565b9182918261056c565b0390f35b610149565b906020828203126105d1576105ce916000016102aa565b90565b61014e565b34610606576106026105f16105ec3660046105b7565b610e22565b6105f9610143565b9182918261022e565b0390f35b610149565b3461063b5761061b366004610153565b610637610626610f0e565b61062e610143565b9182918261042a565b0390f35b610149565b600080fd5b600080fd5b61065381610418565b0361065a57565b600080fd5b9050359061066c8261064a565b565b91909160e08184031261071d5761068560e0610329565b9261069381600084016102aa565b60008501526106a581602084016102aa565b60208501526106b7816040840161048b565b604085015260608201359167ffffffffffffffff8311610718576106e0826107119483016103a3565b60608601526106f2826080830161048b565b60808601526107048260a0830161048b565b60a086015260c00161065f565b60c0830152565b610645565b610640565b91909160408184031261077b57600081013567ffffffffffffffff8111610776578361074f91830161066e565b92602082013567ffffffffffffffff81116107715761076e92016103a3565b90565b610279565b610279565b61014e565b346107b1576107ad61079c610796366004610722565b90610fb8565b6107a4610143565b9182918261042a565b0390f35b610149565b346107e6576107c6366004610153565b6107e26107d1611069565b6107d9610143565b918291826101d0565b0390f35b610149565b91909160408184031261082c5761080583600083016102d1565b92602082013567ffffffffffffffff81116108275761082492016103a3565b90565b610279565b61014e565b61083a90610289565b9052565b919061085290600060208501940190610831565b565b346108855761088161087061086a3660046107eb565b906110d8565b610878610143565b9182918261083e565b0390f35b610149565b906020828203126108bb57600082013567ffffffffffffffff81116108b6576108b392016103a3565b90565b610279565b61014e565b60ff1690565b6108cf906108c0565b9052565b6040906108fd61090494969593966108f36060840198600085019061055f565b602083019061055f565b01906108c6565b565b346109395761093561092161091c36600461088a565b611214565b61092c939193610143565b938493846108d3565b0390f35b610149565b9190604083820312610967578061095b61096492600086016102aa565b9360200161048b565b90565b61014e565b3461099d5761099961098861098236600461093e565b9061129f565b610990610143565b9182918261042a565b0390f35b610149565b919060a083820312610a0d576109bb81600085016102aa565b926109c982602083016102aa565b926109d7836040840161048b565b9260608301359067ffffffffffffffff8211610a08576109fc81610a059386016103a3565b9360800161048b565b90565b610279565b61014e565b34610a4657610a42610a31610a283660046109a2565b93929092611ad0565b610a39610143565b9182918261042a565b0390f35b610149565b34610a7b57610a5b366004610153565b610a77610a66611c58565b610a6e610143565b9182918261022e565b0390f35b610149565b34610ab457610ab0610a9f610a963660046109a2565b93929092611cf2565b610aa7610143565b9182918261042a565b0390f35b610149565b60000190565b34610aed57610acf366004610153565b610ad76122d9565b610adf610143565b80610ae981610ab9565b0390f35b610149565b608081830312610b3457610b0982600083016102aa565b92610b31610b1a84602085016102aa565b93610b28816040860161048b565b9360600161048b565b90565b61014e565b34610b6d57610b69610b58610b4f366004610af2565b92919091612694565b610b60610143565b9182918261056c565b0390f35b610149565b600080fd5b606090565b67ffffffffffffffff8111610b9a57610b96602091610195565b0190565b6102ea565b90610bb1610bac83610b7c565b610329565b918252565b60007f5669616475637400000000000000000000000000000000000000000000000000910152565b610be86007610b9f565b90610bf560208301610bb6565b565b610bff610bde565b90565b610c0a610b77565b50610c13610bf7565b90565b600090565b90565b90565b610c35610c30610c3a92610c1b565b610c1e565b61021e565b90565b610c5069021e19e0c9bab2400000610c21565b90565b610c5b610c16565b50610c64610c3d565b90565b600090565b91610c86610c8c91610c9293610c80610c67565b506110d8565b92610289565b91610289565b1490565b505050610ca1610c67565b50600090565b90565b610cbe610cb9610cc392610ca7565b610c1e565b61021e565b90565b610cce610c16565b50610cd96012610caa565b90565b600090565b905090565b60007f19457468657265756d205369676e6564204d6573736167653a0a333200000000910152565b610d1a601c8092610ce1565b610d2381610ce6565b0190565b90565b610d36610d3b916102b9565b610d27565b9052565b90610d55610d4e602093610d0e565b8092610d2a565b0190565b60200190565b5190565b610d96610d8791610d72610cdc565b50610d7b610143565b92839160208301610d3f565b60208201810382520382610300565b610da8610da282610d5f565b91610d59565b2090565b610dc0610dbb610dc59261027e565b610c1e565b61027e565b90565b610dd190610dac565b90565b610ddd90610dc8565b90565b90610dea90610dd4565b600052602052604060002090565b60001c90565b90565b610e0d610e1291610df8565b610dfe565b90565b610e1f9054610e01565b90565b610e39610e3e91610e31610c16565b506003610de0565b610e15565b90565b634e487b7160e01b600052601160045260246000fd5b610e66610e6c9193929361021e565b9261021e565b8203918211610e7757565b610e41565b90565b610e93610e8e610e9892610e7c565b610c1e565b61021e565b90565b610ea6610258610e7f565b90565b634e487b7160e01b600052601260045260246000fd5b610ecb610ed19161021e565b9161021e565b908115610edc570690565b610ea9565b90565b610ef8610ef3610efd92610ee1565b610c1e565b61021e565b90565b610f0b6101a4610ee4565b90565b610f16610c67565b50610f53610f45427f000000000000000000000000000000000000000000000000000000000000000090610e57565b610f4d610e9b565b90610ebf565b610f6c610f66610f61610f00565b61021e565b9161021e565b108015610f77575b90565b507f0000000000000000000000000000000000000000000000000000000000000000610f74565b610fa89051610289565b90565b610fb5905161021e565b90565b61101a91610fc4610c67565b50611012600061100b611006610fdb838701610f9e565b610fe760208801610f9e565b610ff360408901610fab565b9061100060808a01610fab565b92612694565b610d63565b9301610f9e565b919091610c6c565b90565b60007f5649410000000000000000000000000000000000000000000000000000000000910152565b61104f6003610b9f565b9061105c6020830161101d565b565b611066611045565b90565b611071610b77565b5061107a61105e565b90565b600090565b60001b90565b6110be6110c5946110b46060949897956110aa608086019a600087019061055f565b60208501906108c6565b604083019061055f565b019061055f565b565b6110cf610143565b3d6000823e3d90fd5b6111096000916110f26020946110ec61107d565b50611214565b909391939093611100610143565b94859485611088565b838052039060015afa1561112557611122600051611082565b90565b6110c7565b600090565b90565b61114661114161114b9261112f565b610c1e565b61021e565b90565b60007f496e76616c6964207369676e6174757265206c656e6774680000000000000000910152565b6111836018602092610167565b61118c8161114e565b0190565b6111a69060208101906000818303910152611176565b90565b156111b057565b6111b8610143565b62461bcd60e51b8152806111ce60048201611190565b0390fd5b90565b6111e96111e46111ee926111d2565b610c1e565b6108c0565b90565b6111fd611203916108c0565b916108c0565b019060ff821161120f57565b610e41565b61121c610cdc565b50611225610cdc565b5061122e61112a565b5061125461123b82610d5f565b61124e6112486041611132565b9161021e565b146111a9565b6020810151916060604083015192015160001a908161127c611276601b6111d5565b916108c0565b10611284575b565b9061129990611293601b6111d5565b906111f1565b90611282565b50506112a9610c67565b50600090565b6112b8906102b9565b90565b906112c5906112af565b600052602052604060002090565b60ff1690565b6112e56112ea91610df8565b6112d3565b90565b6112f790546112d9565b90565b60007f5265706561746564207472616e73616374696f6e2e0000000000000000000000910152565b61132f6015602092610167565b611338816112fa565b0190565b6113529060208101906000818303910152611322565b90565b1561135c57565b611364610143565b62461bcd60e51b81528061137a6004820161133c565b0390fd5b9061138a60ff91611082565b9181191691161790565b61139d90610418565b90565b90565b906113b86113b36113bf92611394565b6113a0565b825461137e565b9055565b60007f43616e6e6f742070726f706f7365000000000000000000000000000000000000910152565b6113f8600e602092610167565b611401816113c3565b0190565b61141b90602081019060008183039101526113eb565b90565b1561142557565b61142d610143565b62461bcd60e51b81528061144360048201611405565b0390fd5b60007f496e73756666696369656e742062616c616e6365000000000000000000000000910152565b61147c6014602092610167565b61148581611447565b0190565b61149f906020810190600081830391015261146f565b90565b156114a957565b6114b1610143565b62461bcd60e51b8152806114c760048201611489565b0390fd5b6114d560e0610329565b90565b600090565b600090565b606090565b600090565b6114f46114cb565b906020808080808080886115066114d8565b8152016115116114d8565b81520161151c6114dd565b8152016115276114e2565b8152016115326114dd565b81520161153d6114dd565b8152016115486114e7565b81525050565b6115566114ec565b90565b9061156390610289565b9052565b906115719061021e565b9052565b60007f496e76616c6964207369676e6174757265000000000000000000000000000000910152565b6115aa6011602092610167565b6115b381611575565b0190565b6115cd906020810190600081830391015261159d565b90565b156115d757565b6115df610143565b62461bcd60e51b8152806115f5600482016115b7565b0390fd5b9061160390610418565b9052565b90565b600052602060002090565b634e487b7160e01b600052603260045260246000fd5b5490565b6116388161162b565b8210156116535761164a60079161160a565b91020190600090565b611615565b634e487b7160e01b600052600060045260246000fd5b9061167f60018060a01b0391611082565b9181191691161790565b90565b906116a161169c6116a892610dd4565b611689565b825461166e565b9055565b906116b960001991611082565b9181191691161790565b6116d76116d26116dc9261021e565b610c1e565b61021e565b90565b90565b906116f76116f26116fe926116c3565b6116df565b82546116ac565b9055565b5190565b634e487b7160e01b600052602260045260246000fd5b906001600283049216801561173c575b602083101461173757565b611706565b91607f169161172c565b600052602060002090565b601f602091010490565b1b90565b9190600861177b9102916117756000198461175b565b9261175b565b9181191691161790565b919061179b6117966117a3936116c3565b6116df565b90835461175f565b9055565b6117b9916117b3610c16565b91611785565b565b5b8181106117c7575050565b806117d560006001936117a7565b016117bc565b9190601f81116117eb575b505050565b6117f761181c93611746565b90602061180384611751565b83019310611824575b61181590611751565b01906117bb565b3880806117e6565b91506118158192905061180c565b1c90565b906118479060001990600802611832565b191690565b8161185691611836565b906002021790565b9061186881610d5f565b9067ffffffffffffffff821161192a5761188c82611886855461171c565b856117db565b602090601f83116001146118c1579180916118b0936000926118b5575b505061184c565b90555b565b909150015138806118a9565b601f198316916118d085611746565b9260005b818110611912575091600293918560019694106118f8575b505050020190556118b3565b611908910151601f841690611836565b90553880806118ec565b919360206001819287870151815501950192016118d4565b6102ea565b906119399161185e565b565b6119459051610418565b90565b906119f260c060066119f89461196d6000820161196760008801610f9e565b9061168c565b6119866001820161198060208801610f9e565b9061168c565b61199f6002820161199960408801610fab565b906116e2565b6119b8600382016119b260608801611702565b9061192f565b6119d1600482016119cb60808801610fab565b906116e2565b6119ea600582016119e460a08801610fab565b906116e2565b01920161193b565b906113a3565b565b9190611a0b57611a0991611948565b565b611658565b9081549168010000000000000000831015611a405782611a38916001611a3e9501815561162f565b906119fa565b565b6102ea565b60209181520190565b611a6d611a76602093611a7b93611a6481610d5f565b93848093611a45565b95869101610170565b610195565b0190565b611ace94611ab982989795611aaf608096611aa5611ac697600060a08901980190610831565b60208c0190610831565b60408a0190610221565b8782036060890152611a4e565b940190610221565b565b93611c3191929394611ae0610c67565b50611b29611af2828688908692612694565b611b17611b12611b0c611b07600485906112bb565b6112ed565b15610418565b611355565b611b2460019160046112bb565b6113a3565b611b39611b34610f0e565b61141e565b611b69611b50611b4b60038490610de0565b610e15565b611b62611b5c8861021e565b9161021e565b10156114a2565b611bfb611b7461154e565b611b818360008301611559565b611b8e8660208301611559565b611b9b8760408301611567565b876060820152611bae8460808301611567565b611bbb4260a08301611567565b611bce611bc9828a90610fb8565b6115d0565b611bdc600060c083016115f9565b611be783889061297c565b611c41575b611bf66000611607565b611a10565b9293947f4fa994aa29cfe03cf996e8a94bec96ed4b14c748957df777d0613cf57a58947195611c28610143565b95869586611a7f565b0390a1611c3c6122d9565b600190565b611c4f600160c083016115f9565b611bec565b5490565b611c60610c16565b50611c6b6000611c54565b90565b60007f4368616c6c656e676520756e7375636365737366756c00000000000000000000910152565b611ca36016602092610167565b611cac81611c6e565b0190565b611cc69060208101906000818303910152611c96565b90565b15611cd057565b611cd8610143565b62461bcd60e51b815280611cee60048201611cb0565b0390fd5b91611db392611da9611da48496611d83611dc299611d44611d3f611d39611d34611d2d611dae9c611d21610c67565b508b908d908892612694565b60046112bb565b6112ed565b15610418565b611355565b611d67611d4f61154e565b9a611d5e8c60008a9101611559565b60208c01611559565b611d748760408c01611567565b8260608b015260808a01611567565b611d904260a08a01611567565b611d9e600160c08a016115f9565b87610fb8565b6115d0565b61297c565b611cc9565b611dbd6000611607565b611a10565b611dca6122d9565b600190565b611dd89061021e565b6000198114611de75760010190565b610e41565b611df59061021e565b60008114611e04576001900390565b610e41565b600052602060002090565b611e1d81611c54565b821015611e3857611e2f600791611e09565b91020190600090565b611615565b60018060a01b031690565b611e54611e5991610df8565b611e3d565b90565b611e669054611e48565b90565b611e78611e7e9193929361021e565b9261021e565b8201809211611e8957565b610e41565b90565b611ea5611ea0611eaa92611e8e565b610c1e565b61021e565b90565b611eb7905461171c565b90565b90808214611f9c57611ecb81611ead565b9067ffffffffffffffff8211611f9757611eef82611ee9855461171c565b856117db565b600090601f8311600114611f2457918091611f1393600092611f18575b505061184c565b90555b565b90915001543880611f0c565b90611f33601f19841692611746565b90611f3d85611746565b9260005b818110611f7f57509160029391856001969410611f65575b50505002019055611f16565b611f75910154601f841690611836565b9055388080611f59565b91936001806020928787015481550195019201611f41565b6102ea565b5050565b90611faa91611eba565b565b90808203611fb9575b5050565b61205960068084611fdc600061205f9701611fd660008801611e5c565b9061168c565b611ff560018201611fef60018801611e5c565b9061168c565b61200e6002820161200860028801610e15565b906116e2565b61201f600382016003870190611fa0565b6120386004820161203260048801610e15565b906116e2565b6120516005820161204b60058801610e15565b906116e2565b0192016112ed565b906113a3565b3880611fb5565b91906120775761207591611fac565b565b611658565b634e487b7160e01b600052603160045260246000fd5b906120a69060001990602003600802611832565b8154169055565b906000916120c56120bd82611746565b92835461184c565b905555565b9192906020821060001461212457601f84116001146120f4576120ee92935061184c565b90555b5b565b509061211a61211f93600161211161210b85611746565b92611751565b820191016117bb565b6120ad565b6120f1565b5061215b8293612135600194611746565b61215461214185611751565b820192601f861680612166575b50611751565b01906117bb565b6002021790556120f2565b61217290888603612092565b3861214e565b9290916801000000000000000082116121da576020116000146121cb57602081106000146121af576121a99161184c565b90555b5b565b60019160ff19166121bf84611746565b556002020190556121ac565b600191506002020190556121ad565b6102ea565b9081546121eb8161171c565b90818311612214575b818310612202575b50505050565b61220b936120ca565b388080806121fc565b61222083838387612178565b6121f4565b6000612230916121df565b565b906000036122455761224390612225565b565b611658565b6006600091828082015582600182015561226783600283016117a7565b6122748360038301612232565b61228183600483016117a7565b61228e83600583016117a7565b0155565b906000036122a5576122a39061224a565b565b611658565b6122b38161162b565b80156122d45760019003906122d16122cb838361162f565b90612292565b55565b61207c565b61231f4261231961230b427f000000000000000000000000000000000000000000000000000000000000000090610e57565b612313610e9b565b90610ebf565b90610e57565b9060019161232b610c16565b925b8361234961234361233e6000611c54565b61021e565b9161021e565b10156124e5576123599015610418565b6124d5575b600192612379600561237260008490611e14565b5001610e15565b61238b6123858461021e565b9161021e565b106123a0575b61239a90611dcf565b9261232d565b92506123c36123bd60066123b660008790611e14565b50016112ed565b15610418565b612425575b6124066123f360006123ed6123dd6000611c54565b6123e76001611e91565b90610e57565b90611e14565b5061240060008690611e14565b90612066565b6124186124136000611607565b6122aa565b61239a6000939050612391565b61247a612440600261243960008790611e14565b5001610e15565b612474612465600361245f6000612458818b90611e14565b5001611e5c565b90610de0565b9161246f83610e15565b610e57565b906116e2565b6124d0612495600261248e60008790611e14565b5001610e15565b6124ca6124bb60036124b560016124ae60008b90611e14565b5001611e5c565b90610de0565b916124c583610e15565b611e69565b906116e2565b6123c8565b916124df90611dec565b9161235e565b50509050565b60007f56696164756374205369676e6564204d6573736167653a2046524f4d20000000910152565b61251f601d8092610ce1565b612528816124eb565b0190565b60601b90565b61253b9061252c565b90565b61254790612532565b90565b61255661255b91610289565b61253e565b9052565b60007f20544f2000000000000000000000000000000000000000000000000000000000910152565b61259360048092610ce1565b61259c8161255f565b0190565b60007f2056414c55452000000000000000000000000000000000000000000000000000910152565b6125d460078092610ce1565b6125dd816125a0565b0190565b90565b6125f06125f59161021e565b6125e1565b9052565b60007f204e4f4e43452000000000000000000000000000000000000000000000000000910152565b61262d60078092610ce1565b612636816125f9565b0190565b6020949361268361267c60146126909661267661266f83612689996126696126628f9b612513565b809261254a565b01612587565b809261254a565b016125c8565b80926125e4565b01612621565b80926125e4565b0190565b6126cb92936126bc916126a5610cdc565b5092946126b0610143565b9586946020860161263a565b60208201810382520382610300565b6126dd6126d782610d5f565b91610d59565b2090565b60016126ed910161021e565b90565b9081549168010000000000000000831015612720578261271891600161271e9501815561162f565b90612066565b565b6102ea565b90565b600052602060002090565b5490565b61274081612733565b82101561275b57612752600191612728565b91020190600090565b611615565b9081549168010000000000000000831015612790578261278891600161278e95018155612737565b90611785565b565b6102ea565b5490565b600052602060002090565b6127ad81612795565b8210156127c8576127bf600191612799565b91020190600090565b611615565b6127dd9060086127e29302611832565b610dfe565b90565b906127f091546127cd565b90565b60209181520190565b90600092918054906128176128108361171c565b80946127f3565b916001811690816000146128705750600114612833575b505050565b6128409192939450611746565b916000925b818410612858575050019038808061282e565b60018160209295939554848601520191019290612845565b92949550505060ff191682521515602002019038808061282e565b90612895916127fc565b90565b906128b86128b1926128a8610143565b9384809261288b565b0383610300565b565b52565b9061296e61296560066128ce6114cb565b946128e76128de60008301611e5c565b60008801611559565b6128ff6128f660018301611e5c565b60208801611559565b61291761290e60028301610e15565b60408801611567565b61292f61292660038301612898565b606088016128ba565b61294761293e60048301610e15565b60808801611567565b61295f61295660058301610e15565b60a08801611567565b016112ed565b60c084016115f9565b565b612979906128bd565b90565b90612985610c67565b5061298e610c16565b5b806129ab6129a56129a06000611c54565b61021e565b9161021e565b1015612a50576129c860006129c1818490611e14565b5001611e5c565b6129da6129d485610289565b91610289565b146129ee575b6129e9906126e1565b61298f565b90612a146129e991612a0e6002612a0760008790611e14565b5001610e15565b90611e69565b91612a35612a226002611607565b612a2e60008490611e14565b50906126f0565b612a49612a426001612725565b8290612760565b90506129e0565b5090612a71612a6b612a66612a77936003610de0565b610e15565b9261021e565b9161021e565b11612b6357612a84610c16565b5b80612aa1612a9b612a966001612795565b61021e565b9161021e565b1015612b5d57612b5890612ad4612ace6000612ac8612ac2600186906127a4565b906127e5565b90611e14565b50612970565b612ae2600160c083016115f9565b612aee60008201610f9e565b612afa60208301610f9e565b90612b50612b0a60408501610fab565b93612b1c608060608301519201610fab565b907fba3cd9cc90be8a4bae3a12a3ad76861e142f2ba0e44241b2699ee849d834adbc95612b47610143565b95869586611a7f565b0390a16126e1565b612a85565b50600190565b60009056fea26469706673582212200f725010559c04ebf80801652b7c3cc65dbec5dbf688436daec44fb4ee123a8964736f6c634300081b0033",
  "linkReferences": {},
  "deployedLinkReferences": {}
}