{
  "_format": "hh-sol-artifact-1",
  "contractName": "ViaductCore",
  "sourceName": "contracts/ViaductCore.sol",
  "abi": [
    {
      "inputs": [
        {
          "internalType": "bool",
          "name": "_isRoot",
          "type": "bool"
        },
        {
          "internalType": "uint256",
          "name": "_genesisTimestamp",
          "type": "uint256"
        },
        {
          "internalType": "bool",
          "name": "_forTesting",
          "type": "bool"
        }
      ],
      "stateMutability": "nonpayable",
      "type": "constructor"
    },
    {
      "anonymous": false,
      "inputs": [
        {
          "components": [
            {
              "internalType": "address",
              "name": "from",
              "type": "address"
            },
            {
              "internalType": "address",
              "name": "to",
              "type": "address"
            },
            {
              "internalType": "uint256",
              "name": "amount",
              "type": "uint256"
            },
            {
              "internalType": "uint256",
              "name": "nonce",
              "type": "uint256"
            },
            {
              "internalType": "uint256",
              "name": "timestamp",
              "type": "uint256"
            },
            {
              "internalType": "bool",
              "name": "problematic",
              "type": "bool"
            }
          ],
          "indexed": false,
          "internalType": "struct ViaductCore.Transfer[]",
          "name": "problematicTransfers",
          "type": "tuple[]"
        }
      ],
      "name": "ChallengedTransfer",
      "type": "event"
    },
    {
      "anonymous": false,
      "inputs": [
        {
          "indexed": false,
          "internalType": "address",
          "name": "_from",
          "type": "address"
        },
        {
          "indexed": false,
          "internalType": "address",
          "name": "_to",
          "type": "address"
        },
        {
          "indexed": false,
          "internalType": "uint256",
          "name": "_value",
          "type": "uint256"
        },
        {
          "indexed": false,
          "internalType": "bytes",
          "name": "_sig",
          "type": "bytes"
        },
        {
          "indexed": false,
          "internalType": "uint256",
          "name": "nonce",
          "type": "uint256"
        }
      ],
      "name": "ObjectiveTransfer",
      "type": "event"
    },
    {
      "inputs": [
        {
          "internalType": "address",
          "name": "_owner",
          "type": "address"
        }
      ],
      "name": "balanceOf",
      "outputs": [
        {
          "internalType": "uint256",
          "name": "",
          "type": "uint256"
        }
      ],
      "stateMutability": "view",
      "type": "function"
    },
    {
      "inputs": [
        {
          "internalType": "bytes32",
          "name": "_messageHash",
          "type": "bytes32"
        }
      ],
      "name": "calculateSignedMessageHash",
      "outputs": [
        {
          "internalType": "bytes32",
          "name": "",
          "type": "bytes32"
        }
      ],
      "stateMutability": "pure",
      "type": "function"
    },
    {
      "inputs": [],
      "name": "canPropose",
      "outputs": [
        {
          "internalType": "bool",
          "name": "",
          "type": "bool"
        }
      ],
      "stateMutability": "view",
      "type": "function"
    },
    {
      "inputs": [],
      "name": "cleanChallengeWindow",
      "outputs": [],
      "stateMutability": "nonpayable",
      "type": "function"
    },
    {
      "inputs": [],
      "name": "decimals",
      "outputs": [
        {
          "internalType": "uint256",
          "name": "",
          "type": "uint256"
        }
      ],
      "stateMutability": "pure",
      "type": "function"
    },
    {
      "inputs": [
        {
          "internalType": "address",
          "name": "_from",
          "type": "address"
        },
        {
          "internalType": "address",
          "name": "_to",
          "type": "address"
        },
        {
          "internalType": "uint256",
          "name": "_value",
          "type": "uint256"
        },
        {
          "internalType": "uint256",
          "name": "_nonce",
          "type": "uint256"
        }
      ],
      "name": "getValidHash",
      "outputs": [
        {
          "internalType": "bytes32",
          "name": "messageHash",
          "type": "bytes32"
        }
      ],
      "stateMutability": "pure",
      "type": "function"
    },
    {
      "inputs": [],
      "name": "name",
      "outputs": [
        {
          "internalType": "string",
          "name": "",
          "type": "string"
        }
      ],
      "stateMutability": "pure",
      "type": "function"
    },
    {
      "inputs": [
        {
          "internalType": "address",
          "name": "_from",
          "type": "address"
        },
        {
          "internalType": "address",
          "name": "_to",
          "type": "address"
        },
        {
          "internalType": "uint256",
          "name": "_value",
          "type": "uint256"
        },
        {
          "internalType": "bytes",
          "name": "_sig",
          "type": "bytes"
        },
        {
          "internalType": "uint256",
          "name": "_nonce",
          "type": "uint256"
        }
      ],
      "name": "objectiveTransfer",
      "outputs": [
        {
          "internalType": "bool",
          "name": "success",
          "type": "bool"
        }
      ],
      "stateMutability": "nonpayable",
      "type": "function"
    },
    {
      "inputs": [],
      "name": "pendingTransferCount",
      "outputs": [
        {
          "internalType": "uint256",
          "name": "",
          "type": "uint256"
        }
      ],
      "stateMutability": "view",
      "type": "function"
    },
    {
      "inputs": [
        {
          "internalType": "bytes32",
          "name": "_signedMessageHash",
          "type": "bytes32"
        },
        {
          "internalType": "bytes",
          "name": "_signature",
          "type": "bytes"
        }
      ],
      "name": "recoverSigner",
      "outputs": [
        {
          "internalType": "address",
          "name": "",
          "type": "address"
        }
      ],
      "stateMutability": "pure",
      "type": "function"
    },
    {
      "inputs": [
        {
          "internalType": "bytes",
          "name": "sig",
          "type": "bytes"
        }
      ],
      "name": "splitSignature",
      "outputs": [
        {
          "internalType": "bytes32",
          "name": "r",
          "type": "bytes32"
        },
        {
          "internalType": "bytes32",
          "name": "s",
          "type": "bytes32"
        },
        {
          "internalType": "uint8",
          "name": "v",
          "type": "uint8"
        }
      ],
      "stateMutability": "pure",
      "type": "function"
    },
    {
      "inputs": [],
      "name": "symbol",
      "outputs": [
        {
          "internalType": "string",
          "name": "",
          "type": "string"
        }
      ],
      "stateMutability": "pure",
      "type": "function"
    },
    {
      "inputs": [],
      "name": "totalSupply",
      "outputs": [
        {
          "internalType": "uint256",
          "name": "",
          "type": "uint256"
        }
      ],
      "stateMutability": "pure",
      "type": "function"
    },
    {
      "inputs": [
        {
          "internalType": "address",
          "name": "",
          "type": "address"
        },
        {
          "internalType": "uint256",
          "name": "",
          "type": "uint256"
        }
      ],
      "name": "transfer",
      "outputs": [
        {
          "internalType": "bool",
          "name": "",
          "type": "bool"
        }
      ],
      "stateMutability": "pure",
      "type": "function"
    },
    {
      "inputs": [
        {
          "internalType": "address",
          "name": "",
          "type": "address"
        },
        {
          "internalType": "address",
          "name": "",
          "type": "address"
        },
        {
          "internalType": "uint256",
          "name": "",
          "type": "uint256"
        }
      ],
      "name": "transferFrom",
      "outputs": [
        {
          "internalType": "bool",
          "name": "",
          "type": "bool"
        }
      ],
      "stateMutability": "pure",
      "type": "function"
    },
    {
      "inputs": [
        {
          "components": [
            {
              "internalType": "address",
              "name": "from",
              "type": "address"
            },
            {
              "internalType": "address",
              "name": "to",
              "type": "address"
            },
            {
              "internalType": "uint256",
              "name": "amount",
              "type": "uint256"
            },
            {
              "internalType": "uint256",
              "name": "nonce",
              "type": "uint256"
            },
            {
              "internalType": "uint256",
              "name": "timestamp",
              "type": "uint256"
            },
            {
              "internalType": "bool",
              "name": "problematic",
              "type": "bool"
            }
          ],
          "internalType": "struct ViaductCore.Transfer",
          "name": "_conflictingTransfer",
          "type": "tuple"
        }
      ],
      "name": "tryChallenge",
      "outputs": [
        {
          "internalType": "bool",
          "name": "",
          "type": "bool"
        }
      ],
      "stateMutability": "nonpayable",
      "type": "function"
    },
    {
      "inputs": [
        {
          "internalType": "address",
          "name": "_signer",
          "type": "address"
        },
        {
          "internalType": "bytes32",
          "name": "_hash",
          "type": "bytes32"
        },
        {
          "internalType": "bytes",
          "name": "_signature",
          "type": "bytes"
        }
      ],
      "name": "verify",
      "outputs": [
        {
          "internalType": "bool",
          "name": "",
          "type": "bool"
        }
      ],
      "stateMutability": "pure",
      "type": "function"
    },
    {
      "inputs": [
        {
          "components": [
            {
              "internalType": "address",
              "name": "from",
              "type": "address"
            },
            {
              "internalType": "address",
              "name": "to",
              "type": "address"
            },
            {
              "internalType": "uint256",
              "name": "amount",
              "type": "uint256"
            },
            {
              "internalType": "uint256",
              "name": "nonce",
              "type": "uint256"
            },
            {
              "internalType": "uint256",
              "name": "timestamp",
              "type": "uint256"
            },
            {
              "internalType": "bool",
              "name": "problematic",
              "type": "bool"
            }
          ],
          "internalType": "struct ViaductCore.Transfer",
          "name": "_transfer",
          "type": "tuple"
        },
        {
          "internalType": "bytes",
          "name": "_signature",
          "type": "bytes"
        }
      ],
      "name": "verifyTransfer",
      "outputs": [
        {
          "internalType": "bool",
          "name": "",
          "type": "bool"
        }
      ],
      "stateMutability": "pure",
      "type": "function"
    }
  ],
  "bytecode": "0x60c060405234801561001057600080fd5b5060405161280838038061280883398181016040528101906100329190610116565b82156100875769021e19e0c9bab2400000600360003373ffffffffffffffffffffffffffffffffffffffff1673ffffffffffffffffffffffffffffffffffffffff168152602001908152602001600020819055505b80151560a0811515815250508160808181525050505050610169565b600080fd5b60008115159050919050565b6100bd816100a8565b81146100c857600080fd5b50565b6000815190506100da816100b4565b92915050565b6000819050919050565b6100f3816100e0565b81146100fe57600080fd5b50565b600081519050610110816100ea565b92915050565b60008060006060848603121561012f5761012e6100a3565b5b600061013d868287016100cb565b935050602061014e86828701610101565b925050604061015f868287016100cb565b9150509250925092565b60805160a05161267361019560003960006105550152600081816105120152610e8701526126736000f3fe608060405234801561001057600080fd5b50600436106101165760003560e01c806395d89b41116100a2578063b052b8df11610071578063b052b8df14610333578063b63e56de14610363578063b950cacb14610381578063e0ea0ee2146103b1578063f34d85e4146103bb57610116565b806395d89b411461028357806397aba7f9146102a1578063a7bb5803146102d1578063a9059cbb1461030357610116565b8063313ce567116100e9578063313ce567146101b757806345e872b6146101d557806370a082311461020557806376e14804146102355780639223bb031461025357610116565b806306fdde031461011b57806318160ddd146101395780631a86b5501461015757806323b872dd14610187575b600080fd5b6101236103eb565b604051610130919061143e565b60405180910390f35b610141610428565b60405161014e9190611479565b60405180910390f35b610171600480360381019061016c91906115a1565b61043a565b60405161017e9190611630565b60405180910390f35b6101a1600480360381019061019c9190611677565b61047f565b6040516101ae9190611630565b60405180910390f35b6101bf610488565b6040516101cc9190611479565b60405180910390f35b6101ef60048036038101906101ea91906116ca565b610491565b6040516101fc9190611706565b60405180910390f35b61021f600480360381019061021a9190611721565b6104c1565b60405161022c9190611479565b60405180910390f35b61023d61050a565b60405161024a9190611630565b60405180910390f35b61026d6004803603810190610268919061189a565b61057b565b60405161027a9190611630565b60405180910390f35b61028b6105c4565b604051610298919061143e565b60405180910390f35b6102bb60048036038101906102b691906118fa565b610601565b6040516102c89190611969565b60405180910390f35b6102eb60048036038101906102e69190611a39565b6106b5565b6040516102fa93929190611a9e565b60405180910390f35b61031d60048036038101906103189190611ad5565b610739565b60405161032a9190611630565b60405180910390f35b61034d60048036038101906103489190611b15565b610741565b60405161035a9190611630565b60405180910390f35b61036b610afc565b6040516103789190611479565b60405180910390f35b61039b60048036038101906103969190611baf565b610b08565b6040516103a89190611630565b60405180910390f35b6103b9610e80565b005b6103d560048036038101906103d09190611bdc565b61130c565b6040516103e29190611706565b60405180910390f35b60606040518060400160405280600781526020017f5669616475637400000000000000000000000000000000000000000000000000815250905090565b600069021e19e0c9bab2400000905090565b60008473ffffffffffffffffffffffffffffffffffffffff1661045e858585610601565b73ffffffffffffffffffffffffffffffffffffffff16149050949350505050565b60009392505050565b60006012905090565b6000816040516020016104a49190611cbb565b604051602081830303815290604052805190602001209050919050565b6000600360008373ffffffffffffffffffffffffffffffffffffffff1673ffffffffffffffffffffffffffffffffffffffff168152602001908152602001600020549050919050565b6000806102587f00000000000000000000000000000000000000000000000000000000000000004261053c9190611d10565b6105469190611d73565b90506101a481108061057557507f00000000000000000000000000000000000000000000000000000000000000005b91505090565b60008061059a856000015186602001518760400151886060015161130c565b905060006105a782610491565b90506105b9866000015182878761043a565b925050509392505050565b60606040518060400160405280600381526020017f5649410000000000000000000000000000000000000000000000000000000000815250905090565b60008060008061065486868080601f016020809104026020016040519081016040528093929190818152602001838380828437600081840152601f19601f820116905080830192505050505050506106b5565b9250925092506001878285856040516000815260200160405260405161067d9493929190611da4565b6020604051602081039080840390855afa15801561069f573d6000803e3d6000fd5b5050506020604051035193505050509392505050565b600080600060418451146106fe576040517f08c379a00000000000000000000000000000000000000000000000000000000081526004016106f590611e35565b60405180910390fd5b6020840151925060408401519150606084015160001a9050601b8160ff16101561073257601b8161072f9190611e55565b90505b9193909250565b600092915050565b60006004600083815260200190815260200160002060009054906101000a900460ff16156107a4576040517f08c379a000000000000000000000000000000000000000000000000000000000815260040161079b90611ed6565b60405180910390fd5b60016004600084815260200190815260200160002060006101000a81548160ff0219169083151502179055506107d861050a565b610817576040517f08c379a000000000000000000000000000000000000000000000000000000000815260040161080e90611f42565b60405180910390fd5b84600360008973ffffffffffffffffffffffffffffffffffffffff1673ffffffffffffffffffffffffffffffffffffffff168152602001908152602001600020541015610899576040517f08c379a000000000000000000000000000000000000000000000000000000000815260040161089090611fae565b60405180910390fd5b6108a161134a565b87816000019073ffffffffffffffffffffffffffffffffffffffff16908173ffffffffffffffffffffffffffffffffffffffff168152505086816020019073ffffffffffffffffffffffffffffffffffffffff16908173ffffffffffffffffffffffffffffffffffffffff168152505085816040018181525050828160600181815250504281608001818152505061093a81868661057b565b610979576040517f08c379a00000000000000000000000000000000000000000000000000000000081526004016109709061201a565b60405180910390fd5b60008160a001901515908115158152505061099381610b08565b156109aa5760018160a00190151590811515815250505b600081908060018154018082558091505060019003906000526020600020906006020160009091909190915060008201518160000160006101000a81548173ffffffffffffffffffffffffffffffffffffffff021916908373ffffffffffffffffffffffffffffffffffffffff16021790555060208201518160010160006101000a81548173ffffffffffffffffffffffffffffffffffffffff021916908373ffffffffffffffffffffffffffffffffffffffff16021790555060408201518160020155606082015181600301556080820151816004015560a08201518160050160006101000a81548160ff02191690831515021790555050507f4fa994aa29cfe03cf996e8a94bec96ed4b14c748957df777d0613cf57a589471888888888888604051610add96959493929190612078565b60405180910390a1610aed610e80565b60019150509695505050505050565b60008080549050905090565b6000806000905060005b600080549050811015610d6d57836000015173ffffffffffffffffffffffffffffffffffffffff1660008281548110610b4e57610b4d6120d4565b5b906000526020600020906006020160000160009054906101000a900473ffffffffffffffffffffffffffffffffffffffff1673ffffffffffffffffffffffffffffffffffffffff1603610d605760008181548110610baf57610bae6120d4565b5b90600052602060002090600602016002015482610bcc9190612103565b9150600260008281548110610be457610be36120d4565b5b906000526020600020906006020190806001815401808255809150506001900390600052602060002090600602016000909190919091506000820160009054906101000a900473ffffffffffffffffffffffffffffffffffffffff168160000160006101000a81548173ffffffffffffffffffffffffffffffffffffffff021916908373ffffffffffffffffffffffffffffffffffffffff1602179055506001820160009054906101000a900473ffffffffffffffffffffffffffffffffffffffff168160010160006101000a81548173ffffffffffffffffffffffffffffffffffffffff021916908373ffffffffffffffffffffffffffffffffffffffff1602179055506002820154816002015560038201548160030155600482015481600401556005820160009054906101000a900460ff168160050160006101000a81548160ff021916908315150217905550505060018190806001815401808255809150506001900390600052602060002001600090919091909150555b8080600101915050610b12565b508060036000856000015173ffffffffffffffffffffffffffffffffffffffff1673ffffffffffffffffffffffffffffffffffffffff168152602001908152602001600020541115610dc3576000915050610e7b565b60005b600180549050811015610e3c576001600060018381548110610deb57610dea6120d4565b5b906000526020600020015481548110610e0757610e066120d4565b5b906000526020600020906006020160050160006101000a81548160ff0219169083151502179055508080600101915050610dc6565b507fc6e8590316be42579d5ce55b52f4fe3931140a17859a425a1f53f47f3090a2d76002604051610e6d9190612368565b60405180910390a160019150505b919050565b60006102587f000000000000000000000000000000000000000000000000000000000000000042610eb19190611d10565b610ebb9190611d73565b42610ec69190611d10565b905060006001905060005b6000805490508110156113075781610ef2578080610eee9061238a565b9150505b600191508260008281548110610f0b57610f0a6120d4565b5b90600052602060002090600602016004015410156112f45760008181548110610f3757610f366120d4565b5b906000526020600020906006020160050160009054906101000a900460ff166110d95760008181548110610f6e57610f6d6120d4565b5b90600052602060002090600602016002015460036000808481548110610f9757610f966120d4565b5b906000526020600020906006020160000160009054906101000a900473ffffffffffffffffffffffffffffffffffffffff1673ffffffffffffffffffffffffffffffffffffffff1673ffffffffffffffffffffffffffffffffffffffff16815260200190815260200160002060008282546110129190611d10565b925050819055506000818154811061102d5761102c6120d4565b5b90600052602060002090600602016002015460036000808481548110611056576110556120d4565b5b906000526020600020906006020160010160009054906101000a900473ffffffffffffffffffffffffffffffffffffffff1673ffffffffffffffffffffffffffffffffffffffff1673ffffffffffffffffffffffffffffffffffffffff16815260200190815260200160002060008282546110d19190612103565b925050819055505b600060016000805490506110ed9190611d10565b815481106110fe576110fd6120d4565b5b9060005260206000209060060201600082815481106111205761111f6120d4565b5b90600052602060002090600602016000820160009054906101000a900473ffffffffffffffffffffffffffffffffffffffff168160000160006101000a81548173ffffffffffffffffffffffffffffffffffffffff021916908373ffffffffffffffffffffffffffffffffffffffff1602179055506001820160009054906101000a900473ffffffffffffffffffffffffffffffffffffffff168160010160006101000a81548173ffffffffffffffffffffffffffffffffffffffff021916908373ffffffffffffffffffffffffffffffffffffffff1602179055506002820154816002015560038201548160030155600482015481600401556005820160009054906101000a900460ff168160050160006101000a81548160ff021916908315150217905550905050600080548061125c5761125b6123b3565b5b6001900381819060005260206000209060060201600080820160006101000a81549073ffffffffffffffffffffffffffffffffffffffff02191690556001820160006101000a81549073ffffffffffffffffffffffffffffffffffffffff02191690556002820160009055600382016000905560048201600090556005820160006101000a81549060ff021916905550509055600091505b80806112ff906123e2565b915050610ed1565b505050565b6000808585858560405160200161132694939291906125c3565b60405160208183030381529060405290508080519060200120915050949350505050565b6040518060c00160405280600073ffffffffffffffffffffffffffffffffffffffff168152602001600073ffffffffffffffffffffffffffffffffffffffff1681526020016000815260200160008152602001600081526020016000151581525090565b600081519050919050565b600082825260208201905092915050565b60005b838110156113e85780820151818401526020810190506113cd565b60008484015250505050565b6000601f19601f8301169050919050565b6000611410826113ae565b61141a81856113b9565b935061142a8185602086016113ca565b611433816113f4565b840191505092915050565b600060208201905081810360008301526114588184611405565b905092915050565b6000819050919050565b61147381611460565b82525050565b600060208201905061148e600083018461146a565b92915050565b6000604051905090565b600080fd5b600080fd5b600073ffffffffffffffffffffffffffffffffffffffff82169050919050565b60006114d3826114a8565b9050919050565b6114e3816114c8565b81146114ee57600080fd5b50565b600081359050611500816114da565b92915050565b6000819050919050565b61151981611506565b811461152457600080fd5b50565b60008135905061153681611510565b92915050565b600080fd5b600080fd5b600080fd5b60008083601f8401126115615761156061153c565b5b8235905067ffffffffffffffff81111561157e5761157d611541565b5b60208301915083600182028301111561159a57611599611546565b5b9250929050565b600080600080606085870312156115bb576115ba61149e565b5b60006115c9878288016114f1565b94505060206115da87828801611527565b935050604085013567ffffffffffffffff8111156115fb576115fa6114a3565b5b6116078782880161154b565b925092505092959194509250565b60008115159050919050565b61162a81611615565b82525050565b60006020820190506116456000830184611621565b92915050565b61165481611460565b811461165f57600080fd5b50565b6000813590506116718161164b565b92915050565b6000806000606084860312156116905761168f61149e565b5b600061169e868287016114f1565b93505060206116af868287016114f1565b92505060406116c086828701611662565b9150509250925092565b6000602082840312156116e0576116df61149e565b5b60006116ee84828501611527565b91505092915050565b61170081611506565b82525050565b600060208201905061171b60008301846116f7565b92915050565b6000602082840312156117375761173661149e565b5b6000611745848285016114f1565b91505092915050565b600080fd5b7f4e487b7100000000000000000000000000000000000000000000000000000000600052604160045260246000fd5b61178b826113f4565b810181811067ffffffffffffffff821117156117aa576117a9611753565b5b80604052505050565b60006117bd611494565b90506117c98282611782565b919050565b6117d781611615565b81146117e257600080fd5b50565b6000813590506117f4816117ce565b92915050565b600060c082840312156118105761180f61174e565b5b61181a60c06117b3565b9050600061182a848285016114f1565b600083015250602061183e848285016114f1565b602083015250604061185284828501611662565b604083015250606061186684828501611662565b606083015250608061187a84828501611662565b60808301525060a061188e848285016117e5565b60a08301525092915050565b600080600060e084860312156118b3576118b261149e565b5b60006118c1868287016117fa565b93505060c084013567ffffffffffffffff8111156118e2576118e16114a3565b5b6118ee8682870161154b565b92509250509250925092565b6000806000604084860312156119135761191261149e565b5b600061192186828701611527565b935050602084013567ffffffffffffffff811115611942576119416114a3565b5b61194e8682870161154b565b92509250509250925092565b611963816114c8565b82525050565b600060208201905061197e600083018461195a565b92915050565b600080fd5b600067ffffffffffffffff8211156119a4576119a3611753565b5b6119ad826113f4565b9050602081019050919050565b82818337600083830152505050565b60006119dc6119d784611989565b6117b3565b9050828152602081018484840111156119f8576119f7611984565b5b611a038482856119ba565b509392505050565b600082601f830112611a2057611a1f61153c565b5b8135611a308482602086016119c9565b91505092915050565b600060208284031215611a4f57611a4e61149e565b5b600082013567ffffffffffffffff811115611a6d57611a6c6114a3565b5b611a7984828501611a0b565b91505092915050565b600060ff82169050919050565b611a9881611a82565b82525050565b6000606082019050611ab360008301866116f7565b611ac060208301856116f7565b611acd6040830184611a8f565b949350505050565b60008060408385031215611aec57611aeb61149e565b5b6000611afa858286016114f1565b9250506020611b0b85828601611662565b9150509250929050565b60008060008060008060a08789031215611b3257611b3161149e565b5b6000611b4089828a016114f1565b9650506020611b5189828a016114f1565b9550506040611b6289828a01611662565b945050606087013567ffffffffffffffff811115611b8357611b826114a3565b5b611b8f89828a0161154b565b93509350506080611ba289828a01611662565b9150509295509295509295565b600060c08284031215611bc557611bc461149e565b5b6000611bd3848285016117fa565b91505092915050565b60008060008060808587031215611bf657611bf561149e565b5b6000611c04878288016114f1565b9450506020611c15878288016114f1565b9350506040611c2687828801611662565b9250506060611c3787828801611662565b91505092959194509250565b600081905092915050565b7f19457468657265756d205369676e6564204d6573736167653a0a333200000000600082015250565b6000611c84601c83611c43565b9150611c8f82611c4e565b601c82019050919050565b6000819050919050565b611cb5611cb082611506565b611c9a565b82525050565b6000611cc682611c77565b9150611cd28284611ca4565b60208201915081905092915050565b7f4e487b7100000000000000000000000000000000000000000000000000000000600052601160045260246000fd5b6000611d1b82611460565b9150611d2683611460565b9250828203905081811115611d3e57611d3d611ce1565b5b92915050565b7f4e487b7100000000000000000000000000000000000000000000000000000000600052601260045260246000fd5b6000611d7e82611460565b9150611d8983611460565b925082611d9957611d98611d44565b5b828206905092915050565b6000608082019050611db960008301876116f7565b611dc66020830186611a8f565b611dd360408301856116f7565b611de060608301846116f7565b95945050505050565b7f496e76616c6964207369676e6174757265206c656e6774680000000000000000600082015250565b6000611e1f6018836113b9565b9150611e2a82611de9565b602082019050919050565b60006020820190508181036000830152611e4e81611e12565b9050919050565b6000611e6082611a82565b9150611e6b83611a82565b9250828201905060ff811115611e8457611e83611ce1565b5b92915050565b7f4e6f6e636520616c726561647920757365642e00000000000000000000000000600082015250565b6000611ec06013836113b9565b9150611ecb82611e8a565b602082019050919050565b60006020820190508181036000830152611eef81611eb3565b9050919050565b7f43616e6e6f742070726f706f7365000000000000000000000000000000000000600082015250565b6000611f2c600e836113b9565b9150611f3782611ef6565b602082019050919050565b60006020820190508181036000830152611f5b81611f1f565b9050919050565b7f496e73756666696369656e742062616c616e6365000000000000000000000000600082015250565b6000611f986014836113b9565b9150611fa382611f62565b602082019050919050565b60006020820190508181036000830152611fc781611f8b565b9050919050565b7f496e76616c6964207369676e6174757265000000000000000000000000000000600082015250565b60006120046011836113b9565b915061200f82611fce565b602082019050919050565b6000602082019050818103600083015261203381611ff7565b9050919050565b600082825260208201905092915050565b6000612057838561203a565b93506120648385846119ba565b61206d836113f4565b840190509392505050565b600060a08201905061208d600083018961195a565b61209a602083018861195a565b6120a7604083018761146a565b81810360608301526120ba81858761204b565b90506120c9608083018461146a565b979650505050505050565b7f4e487b7100000000000000000000000000000000000000000000000000000000600052603260045260246000fd5b600061210e82611460565b915061211983611460565b925082820190508082111561213157612130611ce1565b5b92915050565b600081549050919050565b600082825260208201905092915050565b60008190508160005260206000209050919050565b60008160001c9050919050565b600073ffffffffffffffffffffffffffffffffffffffff82169050919050565b60006121a86121a383612168565b612175565b9050919050565b6121b8816114c8565b82525050565b6000819050919050565b60006121db6121d683612168565b6121be565b9050919050565b6121eb81611460565b82525050565b600060ff82169050919050565b600061221161220c83612168565b6121f1565b9050919050565b61222181611615565b82525050565b60c08201600080830154905061223c81612195565b61224960008601826121af565b506001830154905061225a81612195565b61226760208601826121af565b5060028301549050612278816121c8565b61228560408601826121e2565b5060038301549050612296816121c8565b6122a360608601826121e2565b50600483015490506122b4816121c8565b6122c160808601826121e2565b50600583015490506122d2816121fe565b6122df60a0860182612218565b5050505050565b60006122f28383612227565b60c08301905092915050565b6000600682019050919050565b600061231682612137565b6123208185612142565b935061232b83612153565b8060005b8381101561235b578161234288826122e6565b975061234d836122fe565b92505060018101905061232f565b5085935050505092915050565b60006020820190508181036000830152612382818461230b565b905092915050565b600061239582611460565b9150600082036123a8576123a7611ce1565b5b600182039050919050565b7f4e487b7100000000000000000000000000000000000000000000000000000000600052603160045260246000fd5b60006123ed82611460565b91507fffffffffffffffffffffffffffffffffffffffffffffffffffffffffffffffff820361241f5761241e611ce1565b5b600182019050919050565b7f56696164756374205369676e6564204d6573736167653a2046524f4d20000000600082015250565b6000612460601d83611c43565b915061246b8261242a565b601d82019050919050565b60008160601b9050919050565b600061248e82612476565b9050919050565b60006124a082612483565b9050919050565b6124b86124b3826114c8565b612495565b82525050565b7f20544f2000000000000000000000000000000000000000000000000000000000600082015250565b60006124f4600483611c43565b91506124ff826124be565b600482019050919050565b7f2056414c55452000000000000000000000000000000000000000000000000000600082015250565b6000612540600783611c43565b915061254b8261250a565b600782019050919050565b6000819050919050565b61257161256c82611460565b612556565b82525050565b7f204e4f4e43452000000000000000000000000000000000000000000000000000600082015250565b60006125ad600783611c43565b91506125b882612577565b600782019050919050565b60006125ce82612453565b91506125da82876124a7565b6014820191506125e9826124e7565b91506125f582866124a7565b60148201915061260482612533565b91506126108285612560565b60208201915061261f826125a0565b915061262b8284612560565b6020820191508190509594505050505056fea2646970667358221220abedc8d07e53fa03da399d7286764617d3ecfdbe7328a1dc1c2e8601f4f5d9c964736f6c634300081b0033",
  "linkReferences": {},
  "deployedLinkReferences": {}
}